:100000000C944B020C947C020C947C020C947C02A9
:100010000C947C020C947C020C947C020C947C0268
:100020000C947C020C947C020C947C020C947C0258
:100030000C947C020C947C020C947C020C947C0248
:100040000C947C020C947C020C947C020C947C0238
:100050000C947C020C947C020C947C020C94C20BD9
:100060000C947C020C94960C0C946C0C0C947C02FA
:100070000C947C020C947C020C947C020C947C0208
:100080000C947C020C947C020C947C020C947C02F8
:100090000C947C020C947C020C947C020C947C02E8
:1000A0000C947C020C947C020C947C020C947C02D8
:1000B0000C947C020C947C020C947C020C947C02C8
:1000C0000C947C020C947C020C947C020C947C02B8
:1000D0000C947C020C947C020C94360C0C940C0C4A
:1000E0000C947C020C94C9020C94DE020C94C502A0
:1000F0000C94D1020C94CC0C0C94F6020C94AE022D
:100100000C9400030C9486040C94EC020C94E4020E
:100110000C94E8020C94070B0C9427040C94B7047D
:100120000C94DA020C94F9040C94D4020C94460555
:100130000C94B3020C94A9040C9404030C9495043D
:100140000C94CD020C94F2020C94FA0200002000F0
:100150002300260029002C002F003200000100009F
:100160000301060109012B43574D4F4445004154FB
:100170002B43574D4F44453F0041542B4349505268
:100180004543564D4F44453D310041542B43495062
:100190004D55583D310041544530007265616479D8
:1001A0000041542B52535400535441545553004171
:1001B000542B4349505354415455530041542B43FD
:1001C000574155544F434F4E4E3D3100222C220093
:1001D0003D220041542B43574A41505F4355520042
:1001E00041542B43574A41500041542B43574D4FE4
:1001F00044455F4355523D0041542B43574D4F44B6
:10020000453D0041542B43575141500041542B432D
:1002100057444843505F4355523D312C31004154BF
:100220002B434950444E535F4355523D3000415497
:100230002B4357444843503D312C310041542B430C
:100240004950444E535F4445463D300041542B4392
:10025000574155544F434F4E4E3D300046414E207E
:1002600031204F46460046414E2031204F4E004639
:10027000414E2031204F46460046414E2032204F0D
:1002800046460046414E2032204F4E0046414E2009
:1002900032204F4646002B434950535441004154AD
:1002A0002B4349505354413F002D2D2D2D2D2D2DE5
:1002B0002D2D2D2D2D2D2D2D2D2D2D2D2D2D2D2D6E
:1002C0002D2D2D2D2D2D2D2D2D2D2D2D2D002D2D8B
:1002D0002D2D2D2D2D2D2D2D2D2D2D2D2D2D2D2D4E
:1002E0002D2D2D2D2D2D2D2D2D2D2D2D2D2D2D2D3E
:1002F0002D2D002D2D2D2D2D2D2D2D2D2D2D2D2D5B
:100300002D2D2D2D2D2D2D2D2D2D2D2D2D2D2D2D1D
:100310002D2D2D2D2D2D2D002D2D2D2D2D2D2D2D3A
:100320002D2D2D2D2D2D2D2D2D2D2D2D2D2D2D2DFD
:100330002D2D2D2D2D2D2D2D2D2D2D2D0000002180
:1003400000240027002A002D0030003300010100A6
:1003500000040107010A0100002200250028002BEB
:10036000002E003100340002010000050108010BDD
:100370000100000A0B02090C0D0E0807030401001E
:10038000000000000000000000000000000000006D
:10039000000000000000000000000000001211102A
:1003A000000000000000000000000000000000004D
:1003B000000000000000002B43574A415000415408
:1003C0002B43574A41503F004F4B00554E4C494E2E
:1003D0004B004E6F204150004641494C004552525F
:1003E0004F52002C434F4E4E454354204641494CFA
:1003F000002C434C4F534544002C434F4E4E454335
:1004000054002B4950442C00050505050705080834
:100410000808020202020A0A08080404040401018E
:1004200001010101010103030303030303030407A3
:1004300007070C0C0C0C0C0C0C0C0202020206063A
:100440000606060606060B0B0B0B0B0B0B0B01022D
:1004500010202008081020401020408002010201D6
:10046000080402010102040810204080804020108E
:1004700008040201800402018040201008040201E7
:10048000080402010102040810204080010204084F
:1004900010204080CC0C11241FBECFEFD1E2DEBF74
:1004A000CDBF00E00CBF25E0A0ECB3E001C01D9281
:1004B000AD3AB207E1F713E0A0E0B2E0EAE8FEE20D
:1004C00000E00BBF02C007900D92A03CB107D9F726
:1004D00012E0CBE4D2E000E006C021970109802FB2
:1004E000FE010E941C16CA34D10780E00807A9F754
:1004F0000E94A10D0C9443170C940000282F30E0AB
:10050000F901EF58FC4F9491F901E25BFB4F4491E4
:10051000285F3B4FF9012491222309F435C0992328
:1005200011F191509231F8F4E92FF0E08827E45668
:10053000FD4F8F4F0C941C16CD02D102AE02C502A6
:10054000C902B302D402DA02DE02E402E802EC02DB
:10055000F202F602B302FA02000304038091800063
:100560008F7780938000E22FF0E0EE0FFF1FE95AB3
:10057000FC4FA591B4918FB7F894EC91611148C0EC
:1005800040954E234C938FBF0895809180008F7DBE
:10059000E8CF80918000877FE4CF84B58F7784BDDA
:1005A000E2CF84B58F7DFBCF8091B0008F778093B1
:1005B000B000D9CF8091B0008F7DF9CF80919000AD
:1005C0008F7780939000CFCF809190008F7DF9CF6F
:1005D00080919000877FF5CF8091A0008F778093E6
:1005E000A000C1CF8091A0008F7DF9CF8091A000A5
:1005F000877FF5CF809120018F7780932001B3CF43
:10060000809120018F7DF9CF80912001877FF5CFE8
:100610004E2BB8CFCF93DF9390E0FC01E25BFB4F12
:100620002491885F9B4FFC0184918823C9F090E05E
:10063000880F991FFC01E35CFC4FA591B491FC016C
:10064000E95AFC4FC591D49161110DC09FB7F89440
:100650008C91209582238C938881282328839FBFA7
:10066000DF91CF910895623051F49FB7F8943C9197
:10067000822F809583238C93E8812E2BEFCF8FB729
:10068000F894EC912E2B2C938FBFEACF3FB7F894C0
:100690008091C1039091C203A091C303B091C403A0
:1006A00026B5A89B05C02F3F19F00196A11DB11DCD
:1006B0003FBFBA2FA92F982F8827BC01CD01620F09
:1006C000711D811D911D42E0660F771F881F991FC4
:1006D0004A95D1F708958F929F92AF92BF92CF9291
:1006E000DF92EF92FF924B015C010E9446036B0187
:1006F0007C010E9446036C197D098E099F09683EA2
:10070000734081059105A8F321E0821A9108A108A0
:10071000B10888EEC80E83E0D81EE11CF11C8114DC
:100720009104A104B10429F7FF90EF90DF90CF90DE
:10073000BF90AF909F908F900895CF93DF93EC017F
:100740002FB7F8948091C5039091C603A091C70379
:10075000B091C8032FBF88879987AA87BB87E88194
:10076000F9810284F385E02DCE01199597FF1EC013
:100770002FB7F8948091C5039091C603A091C70349
:10078000B091C8032FBF488559856A857B85841B36
:10079000950BA60BB70B4C815D816E817F81841711
:1007A0009507A607B707D8F28FEF9FEFDF91CF919C
:1007B0000895CF92DF92EF92FF920F931F93CF9302
:1007C000DF936C017A018B01D0E0C0E0C6010E948A
:1007D0009D0397FD07C0F80181938F012196EC16C8
:1007E000FD06A1F7CE01DF91CF911F910F91FF90F0
:1007F000EF90DF90CF900895DC01ED91FC91019096
:10080000F081E02D1994EF92FF920F931F93CF93F5
:10081000DF938C017B01D0E0C0E0F701EC0FFD1FFE
:100820006491662361F0D801ED91FC910190F08113
:10083000E02DC8011995892B11F02196EECFCE013C
:10084000DF91CF911F910F91FF90EF900895AF929C
:10085000BF92CF92DF92EF92FF920F931F93CF93AD
:10086000DF936C017B018B01040F151FEB015E010F
:10087000AE18BF08C017D10759F06991D601ED91A4
:10088000FC910190F081E02DC6011995892B79F733
:10089000C501DF91CF911F910F91FF90EF90DF90F5
:1008A000CF90BF90AF900895DC0190E030E020E061
:1008B0008AE0FB014191BF01442311F150ED540F37
:1008C0005A3090F4829FF001839FF00D11249F0114
:1008D00020533109240F311D47FD3A952F3F310533
:1008E00041F338F380E008954E32E1F79330D1F3CD
:1008F000FD01E90FF11D22839F5F30E020E0D9CF99
:10090000933081F715962C9381E00895FC01538D67
:10091000448D252F30E0842F90E0821B930B5417D9
:1009200010F0CF96089501970895FC01918D828D66
:10093000981761F0A28DAE0FBF2FB11D5D968C91FF
:10094000928D9F5F9F73928F90E008958FEF9FEF3E
:100950000895FC01918D828D981731F0828DE80FFA
:10096000F11D858D90E008958FEF9FEF0895FC01B4
:10097000918D228D892F90E0805C9F4F821B910981
:100980008F739927089589EC93E00E94B70421E0C2
:10099000892B09F420E0822F089586E694E00E94D6
:1009A000B70421E0892B09F420E0822F0895FC018F
:1009B000A48DA80FB92FB11DA35ABF4F2C91848DC0
:1009C00090E001968F739927848FA689B7892C931D
:1009D000A089B1898C91837080648C93938D848D70
:1009E000981306C00288F389E02D80818F7D808373
:1009F0000895EF92FF920F931F93CF93DF93EC0133
:100A000081E0888F9B8D8C8D98131AC0E889F989B5
:100A1000808185FF15C09FB7F894EE89FF896083B8
:100A2000E889F98980818370806480839FBF81E039
:100A300090E0DF91CF911F910F91FF90EF9008957B
:100A4000F62E0B8D10E00F5F1F4F0F731127E02E56
:100A50008C8D8E110CC00FB607FCFACFE889F9898E
:100A6000808185FFF5CFCE010E94D704F1CFEB8DB9
:100A7000EC0FFD2FF11DE35AFF4FF0829FB7F89462
:100A80000B8FEA89FB8980818062CFCFCF93DF9380
:100A9000EC01888D8823B9F0AA89BB89E889F98996
:100AA0008C9185FD03C0808186FD0DC00FB607FCCB
:100AB000F7CF8C9185FFF2CF808185FFEDCFCE01FE
:100AC0000E94D704E9CFDF91CF91089580E090E0B4
:100AD000892B29F00E94CD0481110E94000080E042
:100AE00090E0892B49F080E090E0892B29F00E946A
:100AF000000081110E94000080E090E0892B49F005
:100B000080E090E0892B29F00E94000081110E9472
:100B1000000080E090E0892B29F00E94C30481113D
:100B20000C9400000895CF92DF92EF92FF92CF9342
:100B3000DF93DC011796CC911797D0E06111DC2F81
:100B400018962C91189730E0220F331F245B3E4FEC
:100B500050E040E0F90185919491FC01F080BA01E8
:100B600090E080E0EF2DEC23ED1310C04F5F5F4F5E
:100B70001D96CD90DD90ED90FC9050976C157D0505
:100B80008E059F0538F36FEF7FEFCB01DF91CF919B
:100B9000FF90EF90DF90CF9008958F929F92AF9249
:100BA000BF92CF92DF92EF92FF920F931F93CF935A
:100BB000DF93CDB7DEB7C054D1400FB6F894DEBF97
:100BC0000FBECDBF2FB7F8944091C5035091C60317
:100BD0006091C7037091C8032FBFFC010185128586
:100BE000238534856A017B01C01AD10AE20AF30A1F
:100BF00097018601003D174021053105B0F4FC0145
:100C00008189C05CDE4F0FB6F894DEBF0FBECDBF4A
:100C1000DF91CF911F910F91FF90EF90DF90CF90D8
:100C2000BF90AF909F908F9008958C01FC014187F9
:100C30005287638774871482138212821182108212
:100C400062E085810E940A0361E070E080E090E04C
:100C50000E946B0361E0F80185810E940A0360E055
:100C6000F80185810E947E02F801868185518230DB
:100C700028F58BE291E10197F1F762E0F8018581B7
:100C80000E940A03F801828990E08230910538F0D1
:100C9000880F991F880F991F05970197F1F7F8940E
:100CA00060E0C8010E9493056F3F7F4F8F4F9F4FB9
:100CB00061F4F801118A789480E0A3CF64E170E0D8
:100CC00080E090E00E946B03D8CF61E0C8010E94F1
:100CD00093056F3F7F4F8F4F9F4F59F3CE01019682
:100CE0007C015E019FEBA91A9EEFB90A670160E0E3
:100CF000C8010E949305F601608371838283938308
:100D000061E0C8010E949305F601648375838683C0
:100D10009783F8E0CF0ED11CCA14DB0441F7789416
:100D200030E020E0F70180809180A280B380448190
:100D3000558166817781FFEF8F169F06AF06BF064C
:100D400031F04F3F8FEF58076807780719F4F80123
:100D5000118AB2CFF90183E0F595E7958A95E1F71D
:100D6000E00FF11F8081880F84169506A606B7064E
:100D7000F0F080832F5F3F4FF8E0EF0EF11C283238
:100D8000310581F6F801448120818181280F3327C4
:100D9000331F8281280F311D8381820F932F911D74
:100DA00099274817190699F681E0818B2ACF81602F
:100DB000E0CFCF92DF92EF92FF921F93CF93DF931A
:100DC000EC010E94CD05882339F08E818C3009F426
:100DD0004DC038F48B30E1F060E070E080EC9FE7CC
:100DE0003DC085518230C0F71A81612F70E0762FA7
:100DF000662766277F778B81682B90E080E00E94D2
:100E0000B1142DEC3CEC4CEC5DE30E94121548C093
:100E10006A8170E090E080E00E94B1146B017C0177
:100E2000CB81C7FF0AC0AC019B0160E070E080E8A5
:100E30009FEB0E9424166B017C01CF706C2F70E039
:100E400090E080E00E94B3142DEC3CEC4CEC5DE3B0
:100E50000E941215A70196010E942516DF91CF91DD
:100E60001F91FF90EF90DF90CF9008951A81612F2E
:100E700070E090E080E00E94B1146B017C016B8116
:100E80006F7070E090E080E00E94B3142DEC3CECB9
:100E90004CEC5DE30E941215A70196010E942516F5
:100EA00017FFDCCF9058DACFCF92DF92EF92FF920C
:100EB000CF93DF93EC010E94CD05882341F08E8112
:100EC0008B3028F08D3040F08551823030F160E079
:100ED00070E080EC9FE71AC0698170E090E080E0EC
:100EE0000E94B3142DEC3CEC4CEC5DE30E94121517
:100EF0006B017C01688170E090E080E00E94B31497
:100F00009B01AC01C701B6010E942516DF91CF916C
:100F1000FF90EF90DF90CF900895688179817627D8
:100F20006727762790E080E00E94B1142DEC3CEC1E
:100F30004CEC5DE30E941215E9CFFB01019000200B
:100F4000E9F73197AF01461B570BDC01ED91FC919E
:100F50000280F381E02D19948F929F92AF92BF92FD
:100F6000EF92FF920F931F93CF93DF93CDB7DEB72E
:100F7000A1970FB6F894DEBF0FBECDBF7C01FA017A
:100F8000CB0119A2223008F42AE08E010F5D1F4F19
:100F9000822E912CB12CA12CBF01A50194010E949D
:100FA000E015F901CA016A300CF5605DD8016E9355
:100FB0008D01232B242B252B79F790E080E01097CF
:100FC00021F0BD01C7010E949D07A1960FB6F894BC
:100FD000DEBF0FBECDBFDF91CF911F910F91FF906C
:100FE000EF90BF90AF909F908F900895695CDECF97
:100FF00066E372E00C949D07CF93DF93BC0186E615
:1010000094E00E940304EC0186E694E00E94F80755
:101010008C0F9D1FDF91CF9108950F931F93CF9356
:10102000DF93EC010E949D078C01CE010E94F8071E
:10103000800F911FDF91CF911F910F9108950C9414
:101040009D072F923F924F925F926F927F928F9265
:101050009F92AF92BF92CF92DF92EF92FF920F9347
:101060001F93CF93DF9300D01F92CDB7DEB77C01E3
:101070006A831982212C10E085E0382E9FE3492EE7
:10108000512C8091030590910405DC01ED91FC91B8
:101090000084F185E02D1995E114F10401F5892B07
:1010A000F1F422242394822D0F900F900F900F9033
:1010B000DF91CF911F910F91FF90EF90DF90CF9034
:1010C000BF90AF909F908F907F906F905F904F9068
:1010D0003F902F9008952224239410E0D2CF1092B5
:1010E000070541E050E067E075E0809103059091CD
:1010F00004050E94D9039C838B83892BA1F41330B0
:1011000041F482E090E09093640580936305212C84
:10111000CACF69E372E080910505909106050E94AF
:101120000D081F5FAECF80910305909104052091BB
:1011300007052E3309F044C041E050E068E075E057
:101140000E94D90310920805E114F10461F0C7016F
:101150000E944A14AC01B70187E095E00E94531445
:10116000892B09F49ECF45E050E062E074E087E00F
:1011700095E00E945314892B09F0C3C0B0910C056F
:10118000B053BB838EE095E00E941114AB01EB815C
:10119000E53008F0A2CF672B09F49FCFE39DF00163
:1011A0001124E65BFA4F2081FB813F9EC001112490
:1011B00024FD8BC0855B9A4FDC014D935C938DCFF2
:1011C0006B817C81695F7A4F41E050E00E94D903D6
:1011D000EB81FC81E80FF91FFC83EB8332970CF461
:1011E00050CF809107058D3049F5809108058A30F0
:1011F00009F473CF0AE06090030570900405520172
:101200008B819C81A81AB90A895F9A4F4C01D12C15
:10121000C12C002E000C110BAC14BD04D9F1C3017C
:101220000E949D0397FD36C08017910799F1D40164
:101230008D934D01BFEFCB1ADB0AEECF8B32D1F687
:1012400080910805833429F4FA81F111D3CF0AE3A0
:10125000D2CF893479F66B817C81695F7A4F44E023
:1012600050E080910305909104050E94D9032B81E1
:101270003C81280F391F3C832B83E0910C05E05300
:10128000332DE302F0011124E65BFA4F808184FDE7
:10129000DECFB0CFEB81FC81EC0DFD1DED5FFA4F91
:1012A000FC83EB83EB81FC81E350F5402B813C8197
:1012B000215031093C832B83D90114968C918D30B8
:1012C00089F3ED5FFA4F14823FCF835B9A4FFC01A5
:1012D000808191812091030530910405DC01ED911D
:1012E000FC910190F081E02DB9011995182F882308
:1012F00009F4C7CE90E00896909364058093630547
:10130000ECCE69EF73E088E095E00E944114892BF0
:1013100021F5E0910705E0538E2F90E0389ED00133
:10132000399EB00D1124A55BBA4F2D913C91232B12
:1013300009F0D3CEE39DF0011124E65BFA4F208142
:1013400020FF02C021FFC9CE389EF001399EF00D6A
:101350001124E65BFA4F3082C0CE61EF73E088E083
:1013600095E00E944114892B19F163EE73E088E047
:1013700095E00E944114892BD9F06DED73E087E070
:1013800095E00E944114892BE9F068ED73E087E055
:1013900095E00E944114892BA9F062ED73E087E08B
:1013A00095E00E944114892BD1F484E090E0ABCE0B
:1013B000E0910705E0533E9EF0011124E65BFA4FF1
:1013C00010828BCE21106DCEE114F10409F485CE8C
:1013D00083E090E0909364058093630564CE6BECAA
:1013E00073E087E095E00E944114892B09F473CEE5
:1013F000B981BF5FB983B73408F46FCE82CE61E0A4
:1014000088EC93E00C942108109264051092630517
:1014100060E090E080E00C9421080F931F93CF933D
:10142000DF938C010E94040AC3E0D5E0B8018A81F1
:101430009B810E9403048A819B810E94F807DF91AF
:10144000CF911F910F910C94FF094F925F926F9271
:101450007F928F929F92AF92BF92CF92DF92EF9244
:10146000FF920F931F93CF936B017C01742EAC01FD
:101470009B010E9437176BE372E0811126C0460181
:101480005701E894B7F82FEF3FEF4FE75FE7C5014B
:10149000B4010E94371781110CC02FEF3FEF4FE7C7
:1014A0005FE7C501B4010E94AC146FE372E0181647
:1014B00064F02FEF3FEF4FE75FE4C701B6010E94F2
:1014C00032171816ACF463E472E086E694E0CF912C
:1014D0001F910F91FF90EF90DF90CF90BF90AF9052
:1014E0009F908F907F906F905F904F900C949D078E
:1014F0002FEF3FEF4FE75FECC701B6010E94AC143E
:1015000087FDE1CF20E030E0A901C701B6010E94CC
:10151000AC1410E000E087FF0AC06DE286E694E0BC
:101520000E94FC038C01F7FAF094F7F8F094C0E005
:1015300060E070E080E09FE37C1641F020E030E066
:1015400040E251E40E949116CF5FF6CFA7019601C9
:101550000E9425162B013C010E9403174B015C01E0
:101560002AE0BC01A40186E694E00E94AC077C015D
:10157000E00EF11ECC23D1F1C501B4010E94B114DB
:101580009B01AC01C301B2010E9424164B015C0116
:101590006EE286E694E00E94FC03E80EF91EC1505C
:1015A00028F120E030E040E251E4C501B4010E949E
:1015B00012152B013C010E9403174B01B12CA12CE9
:1015C0002AE0B501A40186E694E00E94AC07E80E8B
:1015D000F91EC501B4010E94B1149B01AC01C30105
:1015E000B2010E9424164B015C01D9CFC701CF91F3
:1015F0001F910F91FF90EF90DF90CF90BF90AF9031
:101600009F908F907F906F905F904F9008958F92F2
:101610009F92AF92BF92CF92DF92EF92FF920F9381
:101620001F93CF93DF937C018B016C0182E0C80E86
:10163000D11C4701E5E08E0E911CD0E0C0E0F60120
:1016400041916F0150E070E060E02AE0C8010E9423
:10165000AC075C016EE2C8010E94FC038A0D9B1D71
:10166000C80FD91FC814D90451F7F701458150E0BC
:1016700070E060E02AE0C8010E94AC078C0F9D1F5B
:10168000DF91CF911F910F91FF90EF90DF90CF905E
:10169000BF90AF909F908F900895CF92DF92EF927E
:1016A000FF920F931F93CF93DF93EC018B016A019D
:1016B00079010E94040A209709F018828091480558
:1016C000823009F455C06EEB73E08091050590916E
:1016D00006050E94030480910505909106050E946D
:1016E000F80761E087EB93E00E942108882309F462
:1016F0003FC067E472E08FE095E00E94611420979C
:1017000021F0BC01CE010E943C17E801269667E457
:1017100072E090E080E00E94611440E150E070E0EF
:1017200060E00E94C5126A930C171D0781F767E4F9
:1017300072E090E080E00E9461140E94F313F601D1
:10174000808367E472E090E080E00E9461140E9470
:101750001114F7016083718382839383DF91CF91AA
:101760001F910F91FF90EF90DF90CF900C94FF09A5
:1017700080E0DF91CF911F910F91FF90EF90DF906C
:10178000CF9008951F920F920FB60F9211242F93AE
:101790003F938F939F93AF93BF938091C503909195
:1017A000C603A091C703B091C8033091C00323E0E2
:1017B000230F2D3758F50196A11DB11D2093C003AD
:1017C0008093C5039093C603A093C703B093C80347
:1017D0008091C1039091C203A091C303B091C4034F
:1017E0000196A11DB11D8093C1039093C203A093E4
:1017F000C303B093C403BF91AF919F918F913F9169
:101800002F910F900FBE0F901F90189526E8230F71
:101810000296A11DB11DD2CF1F920F920FB60F924B
:1018200011240BB60F922F933F934F935F936F93B7
:101830007F938F939F93AF93BF93EF93FF9389EC25
:1018400093E00E94D704FF91EF91BF91AF919F91D8
:101850008F917F916F915F914F913F912F910F9059
:101860000BBE0F900FBE0F901F9018951F920F92F6
:101870000FB60F9211240BB60F922F938F939F9355
:10188000EF93FF93E091D903F091DA038081E09127
:10189000DF03F091E00382FD1DC090818091E2039F
:1018A0008F5F8F732091E303821741F0E091E20391
:1018B000F0E0E753FC4F958F8093E203FF91EF91A7
:1018C0009F918F912F910F900BBE0F900FBE0F9095
:1018D0001F9018958081F2CF1F920F920FB60F9232
:1018E00011240BB60F922F933F934F935F936F93F7
:1018F0007F938F939F93AF93BF93EF93FF9386E66E
:1019000094E00E94D704FF91EF91BF91AF919F9116
:101910008F917F916F915F914F913F912F910F9098
:101920000BBE0F900FBE0F901F9018951F920F9235
:101930000FB60F9211240BB60F922F938F939F9394
:10194000EF93FF93E0917604F09177048081E0912A
:101950007C04F0917D0482FD1DC0908180917F0404
:101960008F5F8F7320918004821741F0E0917F0494
:10197000F0E0EA59FB4F958F80937F04FF91EF9140
:101980009F918F912F910F900BBE0F900FBE0F90D4
:101990001F9018958081F2CFE9ECF3E01382128258
:1019A00048EE53E060E070E04483558366837783BC
:1019B00082E292E09183808325E331E035872487BA
:1019C00024E331E03787268720E331E0318B208B19
:1019D00021E331E0338B228B22E331E0358B248B02
:1019E00026E331E0378B268B118E128E138E148EE8
:1019F000E6E6F4E01382128244835583668377839C
:101A00009183808385EC90E09587848784EC90E0D7
:101A10009787868780EC90E0918B808B81EC90E0BB
:101A2000938B828B82EC90E0958B848B86EC90E09C
:101A3000978B868B118E128E138E148EE9E6F5E04D
:101A400084E392E091838083128213821482158250
:101A500010924705109248051092490510924A05C8
:101A600010924C0510924B0510924F0510925105A3
:101A7000109250051092540510925605109255057B
:101A80001092590510925B0510925A0510925E054E
:101A90001092600510925F0521E030E030936405FC
:101AA00020936305E7E7F5E0918380831282138238
:101AB000148215822FEF20936F05E3EAF5E09183FE
:101AC00080831282138214821582A0E9B5E082E03D
:101AD00015968C9315978BE016968C931697E0E5E8
:101AE000F4E0E4911796EC931797EAE0F4E0E491C0
:101AF0001896EC93189740E85EE360E070E01D965E
:101B00004D935D936D937C935097ADE7B5E093E073
:101B100015969C93159716968C931697E1E5F4E02D
:101B2000E4911796EC931797EBE0F4E0E4911896A4
:101B3000EC9318971D964D935D936D937C935097FE
:101B40000895CF93DF93CDB7DEB7E8970FB6F8943B
:101B5000DEBF0FBECDBF789484B5826084BD84B5EE
:101B6000816084BD85B5826085BD85B5816085BD98
:101B700080916E00816080936E0010928100809150
:101B800081008260809381008091810081608093D8
:101B90008100809180008160809380008091B100FD
:101BA00084608093B1008091B00081608093B00028
:101BB000809191008260809391008091910081607A
:101BC000809391008091900081608093900080913B
:101BD000A10082608093A1008091A1008160809328
:101BE000A1008091A00081608093A00080912101DC
:101BF0008260809321018091210181608093210185
:101C00008091200181608093200180917A0084601E
:101C100080937A0080917A00826080937A0080912C
:101C20007A00816080937A0080917A008068809346
:101C30007A001092C10061E084E00E940A0361E032
:101C400085E00E940A0361E086E00E940A0361E0E9
:101C500087E00E940A0361E088E00E940A0361E0D5
:101C600089E00E940A0361E08AE00E940A0361E0C1
:101C70008BE00E940A0361E08CE00E940A03E0917D
:101C80007604F091770442E04083E0917204F09191
:101C900073041082E0917404F09175048FEC8083DA
:101CA00010927E04E0917A04F0917B0496E0908398
:101CB000E0917804F0917904808180618083E091E3
:101CC0007804F0917904808188608083E0917804C1
:101CD000F0917904808180688083E0917804F091AC
:101CE000790480818F7D808329EC33E0E091D903F2
:101CF000F091DA034083E091D503F091D60310828E
:101D0000E091D703F091D80380E180831092E10342
:101D1000E091DD03F091DE039083E091DB03F0912D
:101D2000DC03808180618083E091DB03F091DC0340
:101D3000808188608083E091DB03F091DC03808107
:101D400080688083E091DB03F091DC0380818F7DEC
:101D50008083309304052093030530930605209378
:101D6000050510926405109263050E94040A61EA59
:101D700071E080910505909106050E940304809111
:101D80000505909106050E94F80761E08BE991E056
:101D90000E94210886E991E00E940D0A882309F437
:101DA00048C08AE891E00E940D0A882309F441C0E6
:101DB00089E791E00E940D0A8823D9F16EE671E06F
:101DC00080910505909106050E9403048091050508
:101DD000909106050E94F80761E086E691E00E9476
:101DE0002108882331F180910F05805380934805A5
:101DF0000E94FF098823E9F08091480580934905F6
:101E000010926F050E94040A8091490581111FC03C
:101E100081E090E090936405809363058091630571
:101E20009091640501970297C0F58FEF80936F053D
:101E300034C08FEF80936F0586E694E00E94F80728
:101E40006BE472E086E694E00E940D08FFCF6FEA33
:101E500071E080910505909106050E940304809130
:101E60000505909106050E94F80761E088EA91E077
:101E70000E942108882391F210910E0510530E94B0
:101E8000FF09882359F2153028F4123008F456C09F
:101E900081E0CCCF153009F451C080916F058F3FA0
:101EA00059F281E08093470586E694E00E94F807A6
:101EB00062E772E086E694E00E941F086CE072E040
:101EC00086E694E00E940D080E94040A00914705EE
:101ED00020914805122F116030914905311139C008
:101EE00081E090E0909364058093630582E08093A5
:101EF0006F05809148058230D1F080914705882395
:101F000009F47CC28CE492E00E940D0A8CE392E01A
:101F10000E940D0A8EE292E00E940D0A83E092E098
:101F20000E940D0A882319F084E080936F0586E6ED
:101F300094E00E94F8076DEA72E085C080916F0519
:101F4000813029F0823009F4A8CF84E06FCF83E09C
:101F50006DCF8091050590910605211305C00023E2
:101F600009F444C2231761F168EF71E0011102C066
:101F700069EE71E00E940304412F50E070E060E0E0
:101F80002AE080910505909106050E94AC0780919A
:101F90000505909106050E94F8070E94FF09882315
:101FA00009F4A4CF109348050111109349058091BD
:101FB00005059091060520914705222309F416C2D4
:101FC00060EE71E00E94030460ED71E08091050510
:101FD000909106050E9403046CE072E08091050573
:101FE000909106050E941F086CEC71E08091050538
:101FF000909106050E94030460E072E0809105055F
:10200000909106050E941F0862E28091050590915B
:1020100006050E94FC0380910505909106050E942B
:10202000F8070E94FF09882309F460CF80914705D3
:102030008111DFC181E080936F0586E694E00E9404
:10204000F80762E972E086E694E00E940D0862E01B
:10205000809195050E940A032FB7F8948091C503DB
:102060009091C603A091C703B091C8032FBF805DB4
:102070009740A109B1098093990590939A05A0937F
:102080009B05B0939C0517E31093A20562E0809135
:1020900082050E940A032FB7F8948091C50390919E
:1020A000C603A091C703B091C8032FBF805D9740BE
:1020B000A109B1098093860590938705A0938805AF
:1020C000B093890510938F058E010E5D1F4F84E339
:1020D000282E82E0382E88E193E00E94FC0780E9F8
:1020E00095E00E9454072B013C0180E995E00E9495
:1020F000D9064B015C018DE795E00E9454076B0106
:102100007C018DE795E00E94D9066DAB7EAB8FAB6D
:1021100098AFA5019401C501B4010E943717811140
:1021200009C0A3019201C301B2010E94371788239D
:1021300009F46BC160ED72E086E694E00E940D0840
:1021400086E694E00E94F8072DA93EA94FA958AD54
:10215000CA01B9010E943717811109C0A701960170
:10216000C701B6010E943717882309F46DC160E1E9
:1021700073E086E694E00E940D0883EF92E00E94EF
:10218000FC0780E995E00E94D9066B017C0120E004
:1021900030E040EA51E40E94AC1487FF76C160E071
:1021A00087E00E947E0260E088E00E947E026FEF7E
:1021B00089E00E947E0260E084E00E947E0268E482
:1021C00073E086E694E00E940D088FE692E00E949C
:1021D000FC078EEC92E00E94FC078DE795E00E94E0
:1021E000D9066B017C0120E030E040E751E40E9419
:1021F000AC1487FF86C160E08AE00E947E0260E046
:102200008BE00E947E026FEF8CE00E947E0260E015
:1022100085E00E947E0260E086E00E947E026FE61A
:1022200073E086E694E00E940D088CE892E00E943C
:10223000FC0789EA92E00E94FC0786E694E00E948F
:10224000F80786E0F80111928A95E9F71EA618A60C
:1022500019A61AA61BA69E01285D3F4FAE01425D3E
:102260005F4FB801CE0101960E944D0B6BE872E002
:1022700086E694E00E941F08BE016F5F7F4F86E6EE
:1022800094E00E940D083FA62EA618AA19AA1AAA21
:102290001BAA39A628A61AA61BA61CA61DA63BA2E9
:1022A0002AA21CA21DA21EA21FA20E94040A6EE95D
:1022B00072E080910505909106050E9403048091CB
:1022C0000505909106050E94F80761E086E992E015
:1022D0000E9421088823B1F1E7E0F5E00190002099
:1022E000E9F73597138263E175E0CE018E960E947F
:1022F000540461E086E992E00E942108882311F1EC
:10230000E7E0F5E001900020E9F73597138268E1F6
:1023100075E0CE0188960E94540461E086E992E05F
:102320000E942108882371F0E7E0F5E00190002089
:10233000E9F73597138268E175E0C8010E945404FB
:102340000E94FF0966E973E086E694E00E941F0898
:1023500066E674E0CE018E960E94070B86E694E056
:102360000E94F80786E0F80111928A95E9F71CAA05
:1023700018A619A61AA61BA69E01285D3F4FAE01FE
:102380004C5C5F4FB80190E080E00E944D0BC8A408
:10239000D9A4EAA4FBA463EA73E086E694E00E9471
:1023A0001F082AE0B701A601F7FE0DC06DE286E620
:1023B00094E00E94FC0344275527BA014C195D099B
:1023C0006E097F092AE086E694E00E94AC076BEB79
:1023D00073E086E694E00E940D0860E177E280E019
:1023E00090E00E946B030E94660575CE63ED71E07C
:1023F000E9CD8CEB91E00E940D0A1CCE8EE192E0BB
:102400000E940D0A8CE092E087CD6BEE72E086E6CA
:1024100094E00E941F0842E0C301B2010E94250A15
:1024200068EF72E086E694E00E941F086CEF72E0AD
:1024300086E694E00E941F0842E0C501B4010E94B4
:10244000250A6CE073E078CE6BE273E086E694E0F8
:102450000E941F0842E0C701B6010E94250A68EFEA
:1024600072E086E694E00E941F0868E373E086E667
:1024700094E00E941F0842E06DA97EA98FA998AD43
:102480000E94250A6CE073E074CE20E030E048EC56
:1024900051E4C701B6010E9432171816CCF46FEF51
:1024A00087E00E947E0260E088E00E947E0260E099
:1024B00089E00E947E0261E084E00E947E0266E57F
:1024C00073E086E694E00E940D0886E692E07FCEF7
:1024D00060E087E00E947E026FEF88E00E947E024B
:1024E00060E089E00E947E0260E084E00E947E025B
:1024F00063E673E086E694E00E940D088CE592E0C6
:1025000066CE20E030E040EB51E4C701B6010E9406
:1025100032171816ECF46FEF8AE00E947E0260E03A
:102520008BE00E947E0260E08CE00E947E0261E00F
:1025300085E00E947E0260E086E00E947E026DE7F8
:1025400073E086E694E00E940D0883E892E06FCE87
:1025500060E08AE00E947E026FEF8BE00E947E02C4
:1025600060E08CE00E947E0260E085E00E947E02D6
:1025700061E086E00E947E026AE873E086E694E00D
:102580000E940D0889E792E052CE3F924F925F92EF
:102590006F927F928F929F92AF92BF92CF92DF9273
:1025A000EF92FF920F931F93CF93DF935C016B0128
:1025B0007A016115710519F0FB0191838083E114A3
:1025C000F10451F0C7010297839730F040E030E00A
:1025D00020E090E06BC05E01E5012196F5011081DD
:1025E000812F90E00E943814892BA9F71D3201F544
:1025F0002196F501118101E0E114F10409F4E6C02E
:10260000F0E1EF16F10409F088C0103359F4888125
:102610008F7D883509F07CC0198122960260F0E137
:10262000EF2EF12C812C912CA12C88E0B82E92C099
:102630001B3221F4E5012296F501118100E0DCCF87
:10264000EAE0EE16F10409F4C7C0F0E1EF16F10478
:1026500009F073C0E7CF78E0E72EF12C812C912CA4
:10266000A12C60E1B62E76C021E0ADC0302F3170D4
:10267000C114D10431F0222371F12197F601D183E5
:10268000C08327FF2EC060E070E080E090E8311149
:1026900004C06FEF7FEF8FEF9FE722E230E03093CF
:1026A000AC052093AB05462F372F282F642F732FAF
:1026B000822FDF91CF911F910F91FF90EF90DF90CC
:1026C000CF90BF90AF909F908F907F906F905F90D2
:1026D0004F903F90089501FF04C02297F601D183E7
:1026E000C083332341F090958095709561957F4F1D
:1026F0008F4F9F4FD8CF97FFD6CF82E290E0909335
:10270000AC058093AB056FEF7FEF8FEF9FE7CBCFEB
:1027100010E3E114F10409F49ECF28E0E216F1047D
:1027200009F49CCF0CF08CCF812C912CA12CE0E4EF
:10273000BE2E82E0E816F10469F060E070E080E00F
:1027400090E897010F2C000C440B550B0E94E015EC
:1027500049015A0120E060E070E0CB0127010F2C15
:10276000000C66087708FE0150ED352E310E39E079
:10277000331570F43FEB310F49EC342E3A3138F019
:102780003FE9310F3A3108F071CF39EA332E310E7B
:102790003E141F040CF06ACF27FD15C0861697065D
:1027A000A806B90678F0A30192010E94D015630D26
:1027B000711D811D911D61307105810520E8920711
:1027C00008F452CF2FEF21961081CDCF103309F4AA
:1027D0001ECF2AE0E22EF12C9CEC892E982CA82CFE
:1027E0009CE0B92EB7CFFC0188279927E894219166
:1027F0002032E9F3293010F02E30C8F32B3241F0AB
:102800002D3239F4689404C00E94A114820F911DE6
:10281000219120532A30C0F31EF4909581959F4F4B
:1028200008951F93FC0199278827BC01E894119112
:102830001032E9F3193010F01E30C8F31B3251F09A
:102840001D3249F4689406C00E948C14610F711DFA
:10285000811D911D119110531A30B0F33EF49095E3
:102860008095709561957F4F8F4F9F4F1F91089571
:1028700091110C94A914803219F089508550C8F731
:102880000895FB01DC018D91059080190110D9F3A9
:10289000990B0895FC0105900020E9F7809590952B
:1028A0008E0F9F1F0895FB01DC014150504030F016
:1028B0008D910590801919F40020B9F7881B990BA8
:1028C000089549EA55E00C946514FA01A191B0818C
:1028D000009719F41097E1F0CD01DC01CD010D90C6
:1028E000002011F4C00113C0FB012191222319F033
:1028F0002015D9F7F3CFFB012191201519F41E9271
:10290000119606C02223C1F70D900020A1F7D00137
:10291000FA01A193B0830895592F482F372F262FFE
:10292000660F771F881F991F660F771F881F991FD3
:10293000620F731F841F951F660F771F881F991FD3
:1029400008957AE0979F902D879F802D910D1124F7
:1029500008959927882708950E94EE1408F481E0CD
:102960000895E89409C097FB3EF490958095709582
:1029700061957F4F8F4F9F4F9923A9F0F92F96E9CB
:10298000BB279395F695879577956795B795F11140
:10299000F8CFFAF4BB0F11F460FF1BC06F5F7F4FDD
:1029A0008F4F9F4F16C0882311F096E911C07723EF
:1029B00021F09EE8872F762F05C0662371F096E8F8
:1029C000862F70E060E02AF09A95660F771F881FC7
:1029D000DAF7880F9695879597F90895990F00086B
:1029E000550FAA0BE0E8FEEF16161706E807F907E1
:1029F000C0F012161306E407F50798F0621B730B7C
:102A0000840B950B39F40A2661F0232B242B252BFC
:102A100021F408950A2609F4A140A6958FEF811D9F
:102A2000811D08950E9425150C9496150E94881505
:102A300038F00E948F1520F0952311F00C947F152B
:102A40000C94851511240C94CA150E94A71570F3D7
:102A5000959FC1F3950F50E0551F629FF001729F43
:102A6000BB27F00DB11D639FAA27F00DB11DAA1F52
:102A7000649F6627B00DA11D661F829F2227B00D9F
:102A8000A11D621F739FB00DA11D621F839FA00D2A
:102A9000611D221F749F3327A00D611D231F849F7A
:102AA000600D211D822F762F6A2F11249F575040D1
:102AB0009AF0F1F088234AF0EE0FFF1FBB1F661F4C
:102AC000771F881F91505040A9F79E3F510580F015
:102AD0000C947F150C94CA155F3FE4F3983ED4F331
:102AE000869577956795B795F795E7959F5FC1F7B9
:102AF000FE2B880F911D9695879597F9089597F964
:102B00009F6780E870E060E008959FEF80EC089593
:102B100000240A94161617061806090608950024BC
:102B20000A9412161306140605060895092E039436
:102B3000000C11F4882352F0BB0F40F4BF2B11F4AA
:102B400060FF04C06F5F7F4F8F4F9F4F089557FD09
:102B50009058440F551F59F05F3F71F04795880F0B
:102B600097FB991F61F09F3F79F0879508951216A2
:102B700013061406551FF2CF4695F1DF08C016164E
:102B800017061806991FF1CF8695710561050894FF
:102B90000895E894BB2766277727CB0197F9089516
:102BA000DB018F939F930E940216BF91AF91A29F6A
:102BB000800D911DA39F900DB29F900D112408953B
:102BC000A1E21A2EAA1BBB1BFD010DC0AA1FBB1F31
:102BD000EE1FFF1FA217B307E407F50720F0A21BA3
:102BE000B30BE40BF50B661F771F881F991F1A9410
:102BF00069F760957095809590959B01AC01BD013A
:102C0000CF0108950E940D16A59F900DB49F900DC1
:102C1000A49F800D911D11240895A29FB001B39F20
:102C2000C001A39F700D811D1124911DB29F700DD5
:102C3000811D1124911D0895EE0FFF1F881F8BBF6A
:102C40000790F691E02D19945058BB27AA270E94AF
:102C50003C160C9496150E94881538F00E948F152A
:102C600020F039F49F3F19F426F40C9485150EF4E6
:102C7000E095E7FB0C947F15E92F0E94A71558F308
:102C8000BA17620773078407950720F079F4A6F551
:102C90000C94C9150EF4E0950B2EBA2FA02D0B0144
:102CA000B90190010C01CA01A0011124FF27591B91
:102CB00099F0593F50F4503E68F11A16F040A22F97
:102CC000232F342F4427585FF3CF46953795279508
:102CD000A795F0405395C9F77EF41F16BA0B620B07
:102CE000730B840BBAF09150A1F0FF0FBB1F661F4E
:102CF000771F881FC2F70EC0BA0F621F731F841F91
:102D000048F4879577956795B795F7959E3F08F0B6
:102D1000B0CF9395880F08F09927EE0F9795879578
:102D200008950E94A5160C9496150E948F1558F0D0
:102D30000E94881540F029F45F3F29F00C947F151C
:102D400051110C94CA150C9485150E94A71568F3AF
:102D50009923B1F3552391F3951B550BBB27AA2754
:102D600062177307840738F09F5F5F4F220F331F8E
:102D7000441FAA1FA9F335D00E2E3AF0E0E832D056
:102D800091505040E695001CCAF72BD0FE2F29D059
:102D9000660F771F881FBB1F261737074807AB072B
:102DA000B0E809F0BB0B802DBF01FF2793585F4FA0
:102DB0003AF09E3F510578F00C947F150C94CA159B
:102DC0005F3FE4F3983ED4F3869577956795B79582
:102DD000F7959F5FC9F7880F911D9695879597F98D
:102DE0000895E1E0660F771F881FBB1F6217730706
:102DF0008407BA0720F0621B730B840BBA0BEE1F1B
:102E000088F7E09508950E94AF1588F09F5798F0D5
:102E1000B92F9927B751B0F0E1F0660F771F881FDF
:102E2000991F1AF0BA95C9F714C0B13091F00E94F9
:102E3000C915B1E008950C94C915672F782F88271C
:102E4000B85F39F0B93FCCF3869577956795B39520
:102E5000D9F73EF490958095709561957F4F8F4F8F
:102E60009F4F08950E94EE1408F48FEF08950E947A
:102E7000EE14880B990B0895FB01DC0101900D9273
:0A2E80000020E1F70895F894FFCF59
:102E8A0053696D706C793133353739005468697319
:102E9A0020697320666F72204D6521212100000090
:102EAA000000F904270486044605B7049504A9041A
:102EBA0000000000070B0D0A003F006E616E0069FA
:102ECA006E66006F7666002C3A2200436F6D6D7550
:102EDA006E69636174696F6E2077697468205769D7
:102EEA004669206D6F64756C65206661696C6564FE
:102EFA002100417474656D7074696E6720746F2067
:102F0A00636F6E6E65637420746F20535349443A3D
:102F1A002000436F6E6E656374656420746F20577A
:102F2A00694669206E6574776F726B2E00436F6E07
:102F3A006E656374696F6E20746F205769466920E5
:102F4A006E6574776F726B206661696C65642E00BA
:102F5A004661696C656420746F20726561642066DD
:102F6A00726F6D204448542023310048756D69649E
:102F7A0069747920313A20002025090054656D7062
:102F8A006572617475726520313A2000202A430007
:102F9A004661696C656420746F207265616420669D
:102FAA00726F6D204448542023320048756D69645D
:102FBA0069747920323A200054656D7065726174C3
:102FCA0075726520323A200053454E534F522031D4
:102FDA0020434F4C440053454E534F522031204812
:102FEA004F540053454E534F522031204F4B0053FC
:102FFA00454E534F52203220434F4C440053454EC6
:10300A00534F52203220484F540053454E534F528B
:10301A002032204F4B00495020416464726573731B
:10302A003A20007369676E616C20737472656E670B
:10303A007468202852535349293A002064426D008B
:00000001FF
