:100000000C94CA050C94FB050C94FB050C94FB05A1
:100010000C94FB050C94FB050C94FB050C94FB0560
:100020000C94FB050C94FB050C94FB050C94FB0550
:100030000C94FB050C94FB050C94FB050C94FB0540
:100040000C94FB050C94FB050C94FB050C94FB0530
:100050000C94FB050C94FB050C94FB050C94D62525
:100060000C94FB050C94AA260C9480260C94FB059A
:100070000C94FB050C94FB050C94FB050C94FB0500
:100080000C94FB050C94FB050C94FB050C94FB05F0
:100090000C94FB050C94FB050C94FB050C94FB05E0
:1000A0000C94FB050C94FB050C94FB050C94FB05D0
:1000B0000C94FB050C94FB050C94FB050C94FB05C0
:1000C0000C94FB050C94FB050C94FB050C94FB05B0
:1000D0000C94FB050C94FB050C944A260C942026EA
:1000E0000C94FB050C947F1A0C9482080C94751ADE
:1000F0000C9490080C948D0A0C9429060C945206CA
:100100000C94AF090C94E0260C9450180C94CA1669
:100110000C94BA090C949C1A0C9430060C94E80ABE
:100120000C944E060C94030B0C945C060C94600625
:100130000C9458180C9436060C941F090C94440621
:100140000C94951C0C94B30D0C943A060C945F0817
:100150000C940C1F0C9440060C9413160C94580A23
:100160000C946E080C9456060C94C31A0C94EE0F63
:100170000C94F20A0C943E0A0C942D060C945B0627
:100180000C94FA0A0C9421060C9448060C94DD1881
:100190000C94491E0C94630A0C94D2080C94250606
:1001A0000C9400080C94081D0C946A0F0C941B0608
:1001B0000C94252F00407A10F35A00A0724E1809B3
:1001C0000010A5D4E80000E87648170000E40B54BE
:1001D000020000CA9A3B000000E1F505000080968D
:1001E0009800000040420F000000A08601000000BF
:1001F000102700000000E803000000006400000079
:1002000000000A00000000000100000000002C7641
:10021000D888DC674F0823DFC1DFAE59E1B1B7965C
:10022000E5E3E453C63AE651997696E8E6C28426B9
:10023000EB898C9B62ED407C6FFCEFBC9C9F40F295
:10024000BAA56FA5F490055A2AF75C936B6CF96711
:100250006DC11BFCE0E40D47FEF520E6B500D0EDD6
:10026000902E0300943577050080841E080000203E
:100270004E0A000000C80C333333330F986E1283DC
:100280001141EF8D2114893BE65516CFFEE6DB18B0
:10029000D1844B381BF77C1D901DA4BBE424203275
:1002A00084725E228100C9F124ECA1E53D272B4335
:1002B0004950524543564C454E0041542B434950FA
:1002C000524543564C454E3F002B434950535441F1
:1002D000545553002B43574D4F44450041542B4335
:1002E000574D4F44453F0041542B434950524543DD
:1002F000564D4F44453D310041542B4349504D55D7
:10030000583D3100415445300072656164790041C7
:10031000542B525354005354415455530041542BC1
:100320004349505354415455530041542B43574172
:1003300055544F434F4E4E3D31003D220041542B0A
:1003400043574A41505F4355520041542B43574A4B
:1003500041500041542B43575141500041542B43CD
:1003600057444843505F4355523D312C310041546E
:100370002B434950444E535F4355523D3000415446
:100380002B4357444843503D312C310041542B43BB
:100390004950444E535F4445463D300041542B4341
:1003A000574155544F434F4E4E3D300041542B431F
:1003B000495053544F3D0041542B434950534552EB
:1003C0005645523D312C0041542B43495053455220
:1003D0005645524D4158434F4E4E3D00526F6F6D42
:1003E00020696E204672656520436F6F6C696E6789
:1003F000204D6F646500202A43202D20526F6F6DC1
:1004000020696E205061737369766520436F6F6C4D
:10041000696E67204D6F646500202A43202D2052AD
:100420006F6F6D20696E20414320436F6F6C696E62
:1004300067204D6F6465002025202D20526F6F6D61
:1004400020696E20414320436F6F6C696E67204DB9
:100450006F646500202A43202D20526F6F6D206944
:100460006E20414320436F6F6C696E67204D6F644F
:1004700065002D2D2D2D2D2D2D2D2D2D2D2D2D2DA1
:100480002D2D2D2D2D2D2D2D2D2D2D2D2D2D2D2D9C
:100490002D2D2D2D2D2D002D2D2D2D2D2D2D2D2DB9
:1004A0002D2D2D2D2D2D2D2D2D2D2D2D2D2D2D2D7C
:1004B0002D2D2D2D2D2D2D2D2D2D2D002D2D2D2D99
:1004C0002D2D2D2D2D2D2D2D2D2D2D2D2D2D2D2D5C
:1004D0002D2D2D2D2D2D2D2D2D2D2D2D2D2D2D2D4C
:1004E0000000002100240027002A002D00300033E6
:1004F0000001010000040107010A0100002200259B
:100500000028002B002E00310034000201000005FD
:100510000108010B01000020002300260029002C07
:10052000002F003200000100000301060109010054
:10053000000A0B02090C0D0E08070304010000005D
:1005400000000000000000000000000000000000AB
:100550000000000000000000000000121110000068
:10056000000000000000000000000000000000008B
:100570000000000000222C002C220041542B434993
:100580005053544152543D002B4349505245435619
:10059000444154410041542B434950524543564431
:1005A0004154413D0053454E44200052656376203E
:1005B000003E00222C002C220041542B4349505372
:1005C000454E443D0041542B434950434C4F534505
:1005D0003D00312C220041542B434950444E535F7F
:1005E0004355523D0041542B434950444E535F44C0
:1005F00045463D00222C220041542B434950535480
:10060000415F4355523D220041542B4349505354BE
:10061000413D220041542B43574D4F44455F4355C4
:10062000523D0041542B43574D4F44453D002B4311
:1006300049505354410041542B4349505354413F76
:10064000002B43574A41500041542B43574A4150D5
:100650003F004F4B00554E4C494E4B004E6F2041D2
:1006600050004641494C004552524F52002C434FD6
:100670004E4E454354204641494C002C434C4F5369
:100680004544002C434F4E4E454354002B495044A3
:100690002C000505050507050808080802020202E6
:1006A0000A0A08080404040401010101010101010E
:1006B0000303030303030303040707070C0C0C0CD9
:1006C0000C0C0C0C020202020606060606060606C2
:1006D0000B0B0B0B0B0B0B0B01021020200808104F
:1006E00020401020408002010201080402010102A2
:1006F000040810204080804020100804020180047B
:1007000002018040201008040201080402010102D5
:1007100004081020408001020408102040803A2084
:10072000006B6565702D616C69766500436F6E6E58
:10073000656374696F6E00436F6E74656E742D4CE3
:10074000656E67746800436F6E74656E742D5479BE
:100750007065004E6574776F726B204175746865C3
:100760006E7469636174696F6E2052657175697228
:100770006564004E6F7420457874656E646564002E
:100780004C6F6F7020446574656374656400496ED6
:1007900073756666696369656E742053746F726100
:1007A00067650056617269616E7420416C736F20D9
:1007B0004E65676F746961746573004854545020C6
:1007C00056657273696F6E204E6F7420537570702A
:1007D0006F7274656400476174657761792054694C
:1007E0006D656F7574005365727669636520556E2B
:1007F000617661696C61626C650042616420476189
:100800007465776179004E6F7420496D706C656D09
:10081000656E74656400496E7465726E616C205318
:100820006572766572204572726F7200556E6176E0
:1008300061696C61626C6520466F72204C6567610E
:100840006C20526561736F6E7300526571756573CC
:100850007420486561646572204669656C64732024
:10086000546F6F204C6172676500546F6F204D614B
:100870006E7920526571756573747300507265638B
:100880006F6E646974696F6E205265717569726507
:100890006400557067726164652052657175697294
:1008A000656400546F6F204561726C790046616920
:1008B0006C656420446570656E64656E6379004C98
:1008C0006F636B656400556E70726F6365737361FF
:1008D000626C6520456E74697479004D6973646952
:1008E0007265637465642052657175657374004543
:1008F00078706563746174696F6E204661696C65B8
:10090000640052616E6765204E6F74205361746994
:1009100073666961626C6500556E737570706F7295
:10092000746564204D656469612054797065005573
:10093000524920546F6F204C6F6E67005061796C84
:100940006F616420546F6F204C6172676500507254
:1009500065636F6E646974696F6E204661696C656A
:1009600064004C656E6774682052657175697265C4
:100970006400476F6E6500436F6E666C6963740058
:10098000526571756573742054696D656F75740077
:1009900050726F78792041757468656E746963610F
:1009A00074696F6E205265717569726564004E6F6F
:1009B000742041636365707461626C65004D657499
:1009C000686F64204E6F7420416C6C6F77656400B3
:1009D0004E6F7420466F756E6400466F7262696474
:1009E00064656E005061796D656E74205265717535
:1009F0006972656400556E617574686F72697A65B5
:100A000064004261642052657175657374005065BD
:100A1000726D616E656E742052656469726563748F
:100A20000054656D706F72617279205265646972ED
:100A30006563740028556E75736564290055736588
:100A40002050726F7879004E6F74204D6F64696624
:100A500069656400536565204F7468657200466F70
:100A6000756E64004D6F766564205065726D616EC1
:100A7000656E746C79004D756C7469706C6520439B
:100A8000686F6963657300494D2055736564004163
:100A90006C7265616479205265706F727465640070
:100AA0004D756C74692D5374617475730050617267
:100AB0007469616C20436F6E74656E740052657367
:100AC000657420436F6E74656E74004E6F20436FC3
:100AD0006E74656E74004E6F6E2D417574686F7222
:100AE0006974617469766520496E666F726D6174B0
:100AF000696F6E004163636570746564004372657D
:100B000061746564004F4B004561726C79204869DF
:100B10006E74730050726F63657373696E67005310
:100B20007769746368696E672050726F746F636F62
:100B30006C7300436F6E74696E75650020004854D5
:100B400054502F312E312000312E3100312E300003
:100B50003A00436F6E74656E742D4C656E677468F1
:100B60003A004F5054494F4E53200050415443488F
:100B7000200044454C455445200050555420005019
:100B80004F5354200048454144200047455420001D
:100B9000E026252F11241FBECFEFD1E2DEBFCDBF4F
:100BA00000E00CBF2BE0ACEEB8E001C01D92A53513
:100BB000B207E1F718E0A0E0B2E0ECE5F1E700E011
:100BC0000BBF02C007900D92AC3EB107D9F715E0FC
:100BD000C9ECD5E000E006C021970109802FFE0195
:100BE0000E944535C83CD10780E00807A9F70E945C
:100BF0001D280C949C380C9400008150823108F020
:100C00005AC0E82FF0E08827E75FF94F8F4F0C9428
:100C1000453529062D061B06210625065B063006EE
:100C200036063A064006440648064E0652065B065D
:100C300056065C066006809180008F778093800066
:100C40000895809180008F7DF9CF80918000877F0B
:100C5000F5CF84B58F7784BD089584B58F7DFBCFA4
:100C60008091B0008F778093B00008958091B0009C
:100C70008F7DF9CF809190008F77809390000895B9
:100C8000809190008F7DF9CF80919000877FF5CF84
:100C90008091A0008F778093A00008958091A0009C
:100CA0008F7DF9CF8091A000877FF5CF80912001C3
:100CB0008F77809320010895809120018F7DF9CF57
:100CC00080912001877FF5CFCF93DF93282F30E0ED
:100CD000F901E15DFA4F8491F901E852F94FD4919D
:100CE000F901EE56F94FC491CC23A1F081110E9475
:100CF000FD05EC2FF0E0EE0FFF1FEB5EFA4FA59124
:100D0000B491EC91ED2381E090E009F480E0DF9173
:100D1000CF91089580E090E0FACF1F93CF93DF93B7
:100D2000282F30E0F901E15DFA4F8491F901E85292
:100D3000F94FD491F901EE56F94FC491CC23A9F0A3
:100D4000162F81110E94FD05EC2FF0E0EE0FFF1F22
:100D5000E550FB4FA591B4918FB7F894EC91111128
:100D600008C0D095DE23DC938FBFDF91CF911F9118
:100D70000895DE2BF8CFCF93DF9390E0FC01E8528B
:100D8000F94F24918E56994FFC0184918823C9F024
:100D900090E0880F991FFC01EF51FB4FA591B49192
:100DA000FC01E550FB4FC591D49161110DC09FB777
:100DB000F8948C91209582238C9388812823288312
:100DC0009FBFDF91CF910895623051F49FB7F8949F
:100DD0003C91822F809583238C93E8812E2BEFCF3B
:100DE0008FB7F894EC912E2B2C938FBFEACF3FB79F
:100DF000F89480911D0990911E09A0911F09B0914E
:100E0000200926B5A89B05C02F3F19F00196A11D0A
:100E1000B11D3FBFBA2FA92F982F8827BC01CD0144
:100E2000620F711D811D911D42E0660F771F881FA3
:100E3000991F4A95D1F708958F929F92AF92BF92D2
:100E4000CF92DF92EF92FF924B015C010E94F70676
:100E50006B017C010E94F7066C197D098E099F09C0
:100E6000683E734081059105A8F321E0821A91083C
:100E7000A108B10888EEC80E83E0D81EE11CF11C61
:100E800081149104A104B10429F7FF90EF90DF9041
:100E9000CF90BF90AF909F908F9008952FB7F89408
:100EA0006091190970911A0980911B0990911C0990
:100EB0002FBF0895CF93DF93EC0162E08D810E94F4
:100EC000BB060E944E07605D7740810991096987E2
:100ED0007A878B879C8787E38A8BDF91CF910895F0
:100EE0000F931F93CF93DF93EC010E944E07688707
:100EF00079878A879B87E881F9810284F385E02DD1
:100F0000CE01199597FF15C00E944E0708851985D7
:100F10002A853B85601B710B820B930B0C811D8115
:100F20002E813F81601771078207930720F38FEFAF
:100F30009FEFDF91CF911F910F910895AF92BF92D4
:100F4000CF92DF92EF92FF920F931F93CF93DF9395
:100F50005C017B018B01040F151FEB016E01CE18A4
:100F6000DF08C017D10739F0C5010E94700797FD4F
:100F700002C08993F3CFC601DF91CF911F910F91EA
:100F8000FF90EF90DF90CF90BF90AF900895DC017D
:100F9000ED91FC910190F081E02D1994DB01149604
:100FA0004D915C9115976D917C91DC01ED91FC91D7
:100FB0000280F381E02D1994EF92FF920F931F931B
:100FC000CF93DF938C017B01D0E0C0E0F701EC0F01
:100FD000FD1F6491662361F0D801ED91FC910190B1
:100FE000F081E02DC8011995892B11F02196EECFE3
:100FF000CE01DF91CF911F910F91FF90EF90089557
:10100000AF92BF92CF92DF92EF92FF920F931F9316
:10101000CF93DF936C017B018B01040F151FEB0154
:101020005E01AE18BF08C017D10759F06991D6010B
:10103000ED91FC910190F081E02DC6011995892B6D
:1010400079F7C501DF91CF911F910F91FF90EF903C
:10105000DF90CF90BF90AF900895DC0190E030E03A
:1010600020E08AE0FB014191BF01442311F150EDE2
:10107000540F5A3090F4829FF001839FF00D112499
:101080009F0120533109240F311D47FD3A952F3F11
:10109000310541F338F380E008954E32E1F79330A3
:1010A000D1F3FD01E90FF11D22839F5F30E020E0C5
:1010B000D9CF933081F715962C9381E00895FC01E8
:1010C000538D448D252F30E0842F90E0821B930BAD
:1010D000541710F0CF96089501970895FC01918D53
:1010E000828D981761F0A28DAE0FBF2FB11D5D9656
:1010F0008C91928D9F5F9F73928F90E008958FEFF8
:101100009FEF0895FC01918D828D981731F0828DAB
:10111000E80FF11D858D90E008958FEF9FEF089502
:10112000FC01918D228D892F90E0805C9F4F821B66
:1011300091098F739927089581E299E00E949008A0
:1011400021E0892B09F420E0822F08958EEB99E0AD
:101150000E94900821E0892B09F420E0822F089555
:10116000FC01A48DA80FB92FB11DA35ABF4F2C911C
:10117000848D90E001968F739927848FA689B78913
:101180002C93A089B1898C91837080648C93938D0A
:10119000848D981306C00288F389E02D80818F7DAD
:1011A00080830895EF92FF920F931F93CF93DF9365
:1011B000EC0181E0888F9B8D8C8D98131AC0E88993
:1011C000F989808185FF15C09FB7F894EE89FF8962
:1011D0006083E889F98980818370806480839FBF00
:1011E00081E090E0DF91CF911F910F91FF90EF9000
:1011F0000895F62E0B8D10E00F5F1F4F0F73112710
:10120000E02E8C8D8E110CC00FB607FCFACFE8894A
:10121000F989808185FFF5CFCE010E94B008F1CF1A
:10122000EB8DEC0FFD2FF11DE35AFF4FF0829FB7BE
:10123000F8940B8FEA89FB8980818062CFCFCF93AE
:10124000DF93EC01888D8823B9F0AA89BB89E889EE
:10125000F9898C9185FD03C0808186FD0DC00FB694
:1012600007FCF7CF8C9185FFF2CF808185FFEDCF12
:10127000CE010E94B008E9CFDF91CF91089580E0C0
:1012800090E0892B29F00E94A60881110E9400009D
:1012900080E090E0892B49F080E090E0892B29F0F4
:1012A0000E94000081110E94000080E090E0892BE4
:1012B00049F080E090E0892B29F00E940000811124
:1012C0000E94000080E090E0892B29F00E949C0899
:1012D00081110C9400000895FB01DC0180E29D91D6
:1012E000492F092E000C550B992391F024912223AC
:1012F00079F024912417150649F06491292F2827A5
:10130000022E000C330B6217130611F43196E7CF4F
:1013100084918417150671F0E491892F8062082E5C
:10132000000C990BE062E817190639F034F08FEFE2
:101330009FEF089590E080E0089581E090E00895A7
:10134000CF93DF93EC010E9470078F3F980721F441
:10135000CD55DF4F21E02883DF91CF910895DC0147
:1013600050968D919C91DC01ED91FC910190F08162
:10137000E02D19940F931F93CF93DF93FC01EA564E
:10138000FF4F20813181121613067CF42150310960
:1013900031832083820F931FDC0156968C9190E05D
:1013A000DF91CF911F910F9108958C0108561F4F27
:1013B000F8012081222379F0319620813181232B7D
:1013C00051F4DC0114961D921D921D921C921797E8
:1013D0008FEF9FEFE5CFEC018E859F85DC01ED91CE
:1013E000FC910284F385E02D19958F3F9807C1F297
:1013F000F8012081222349F0FE01E756FF4F2081AA
:1014000031812150310931832083C556DF4F288136
:1014100039812F5F3F4F39832883C2CFFC01EA56C1
:10142000FF4F408151819A012F5F3F4F31832083CD
:10143000840F951FDC0156966C932038310521F4FA
:101440008FE790E0918380830895CF93DF93EC0141
:10145000CE010E94A0098F3F980761F0803291056C
:10146000B9F389309105A1F3682FCE010E940E0ACD
:1014700081E001C080E0DF91CF9108950F931F9329
:10148000CF93DF938C01DC01ED91FC910284F38515
:10149000E02D1995EC018F3F980721F0682FC801C6
:1014A0000E940E0ACE01DF91CF911F910F910895F6
:1014B000DC0150968D919C91DC01ED91FC910680B0
:1014C000F781E02D1994CF93DF93EC018E859F85F2
:1014D000DC01ED91FC910084F185E02D1995DE0190
:1014E000A756BF4FFE01EA56FF4F2D913C91408118
:1014F0005181240F351F821793075CF48E859F85D9
:10150000DC01ED91FC910084F185E02DDF91CF911C
:101510001994C901DF91CF910895DC0150968D9106
:101520009C91DC01ED91FC910480F581E02D1994F2
:10153000EF92FF920F931F93CF93DF93FC0126A9A5
:1015400037A92A303105ECF57A018B01EC01F9015C
:10155000EE0FFF1FEE0FFF1FEC0FFD1F778366835B
:10156000F9013296EE0FFF1FEE0FFF1FEC0FFD1F6C
:10157000518340832F5F3F4F3FAB2EAB66E477E054
:10158000C8010E946C09892B11F481E08FA767E3E1
:1015900077E0C8010E946C09892B11F481E08EA7C5
:1015A0006CE277E0C8010E946C09892B51F461E27A
:1015B00077E0C7010E946C0921E0892B09F020E047
:1015C00028ABDF91CF911F910F91FF90EF9008957D
:1015D0008F5B9F4FFC01208131818FEF93E0821B55
:1015E000930B089521E0FC018481811101C020E06A
:1015F000822F089521E0FC0184859585892B09F4CB
:1016000020E0822F089590E080E00895CF92DF924D
:10161000EF92FF92CF93DF93DC011796CC9117974F
:10162000D0E06111DC2F18962C91189730E0220F32
:10163000331F2B5E3A4F50E040E0F90185919491C1
:10164000FC01F080BA0190E080E0EF2DEC23ED1377
:1016500010C04F5F5F4F1D96CD90DD90ED90FC90D8
:1016600050976C157D058E059F0538F36FEF7FEF62
:10167000CB01DF91CF91FF90EF90DF90CF90089555
:101680008F929F92AF92BF92CF92DF92EF92FF9292
:101690000F931F93CF93DF93CDB7DEB7C054D140E4
:1016A0000FB6F894DEBF0FBECDBF8C010E944E076F
:1016B000F801C184D284E384F4849B01AC012C1929
:1016C0003D094E095F0969017A0130EDC31637E023
:1016D000D306E104F104A8F48189C05CDE4F0FB6A3
:1016E000F894DEBF0FBECDBFDF91CF911F910F9158
:1016F000FF90EF90DF90CF90BF90AF909F908F9032
:101700000895618772878387948714821382128277
:101710001182108262E085810E94BB0661E070E068
:1017200080E090E00E941C0761E0F80185810E9442
:10173000BB0660E0F80185810E948D06F801868174
:101740008551823028F58BE291E10197F1F762E053
:10175000F80185810E94BB06F801828990E0823001
:10176000910538F0880F991F880F991F05970197E9
:10177000F1F7F89460E0C8010E94060B6F3F7F4FBD
:101780008F4F9F4F61F4F801118A789480E0A5CFC4
:1017900064E170E080E090E00E941C07D8CF61E037
:1017A000C8010E94060B6F3F7F4F8F4F9F4F59F329
:1017B0009E012F5F3F4F79015E013FEBA31A3EEF81
:1017C000B30A670160E0C8010E94060BF60160835E
:1017D00071838283938361E0C8010E94060BF60146
:1017E0006483758386839783F8E0CF0ED11CCA1477
:1017F000DB0441F7789430E020E0F70180809180AD
:10180000A280B3804481558166817781FFEF8F1676
:101810009F06AF06BF0631F04F3F8FEF58076807AE
:10182000780719F4F801118AB1CFF90183E0F59531
:10183000E7958A95E1F7E00FF11F8081880F841604
:101840009506A606B706F0F080832F5F3F4FF8E0BD
:10185000EF0EF11C2832310581F6F8014481208118
:101860008181280F3327331F8281280F311D838107
:10187000820F932F911D99274817190699F681E039
:10188000818B2BCF8160E0CFCF92DF92EF92FF92DE
:101890001F93CF93DF93EC010E94400B882339F014
:1018A0008E818C3009F44DC038F48B30E1F060E06B
:1018B00070E080EC9FE73DC085518230C0F71A810F
:1018C000612F70E0762F662766277F778B81682BE4
:1018D00090E080E00E94DA332DEC3CEC4CEC5DE3D0
:1018E0000E943B3448C06A8170E090E080E00E9432
:1018F000DA336B017C01CB81C7FF0AC0AC019B01CD
:1019000060E070E080E89FEB0E944D356B017C0148
:10191000CF706C2F70E090E080E00E94DC332DEC03
:101920003CEC4CEC5DE30E943B34A70196010E9425
:101930004E35DF91CF911F91FF90EF90DF90CF90C8
:1019400008951A81612F70E090E080E00E94DA3300
:101950006B017C016B816F7070E090E080E00E9411
:10196000DC332DEC3CEC4CEC5DE30E943B34A701F6
:1019700096010E944E3517FFDCCF9058DACFCF92F8
:10198000DF92EF92FF92CF93DF93EC010E94400B26
:10199000882341F08E818B3028F08D3040F08551C6
:1019A000823030F160E070E080EC9FE71AC069811E
:1019B00070E090E080E00E94DC332DEC3CEC4CECDD
:1019C0005DE30E943B346B017C01688170E090E034
:1019D00080E00E94DC339B01AC01C701B6010E948C
:1019E0004E35DF91CF91FF90EF90DF90CF9008952B
:1019F0006881798176276727762790E080E00E94CA
:101A0000DA332DEC3CEC4CEC5DE30E943B34E9CF47
:101A100060E08EE20E948D0660E086E20E948D0604
:101A200060E08EE10E948D0660E086E10C948D06F8
:101A3000FB0101900020E9F73197AF01461B570BDE
:101A4000DC01ED91FC910280F381E02D19948F92DD
:101A50009F92AF92BF92EF92FF920F931F93CF93FB
:101A6000DF93CDB7DEB7A1970FB6F894DEBF0FBEF8
:101A7000CDBF7C01FA01CB0119A2223008F42AE083
:101A80008E010F5D1F4F822E912CB12CA12CBF0116
:101A9000A50194010E940935F901CA016A300CF5CB
:101AA000605DD8016E938D01232B242B252B79F7B4
:101AB00090E080E0109721F0BD01C7010E94180D51
:101AC000A1960FB6F894DEBF0FBECDBFDF91CF91C8
:101AD0001F910F91FF90EF90BF90AF909F908F90CC
:101AE0000895695CDECFAB0170E060E02AE00C9401
:101AF000270DCF92DF92EF92FF920F931F93CF9318
:101B0000DF936B01770FEE08FF084A305105F1F4BF
:101B10002AE0F7FE1CC0EC016DE20E94C7078C01B1
:101B200044275527BA014C195D096E097F092AE03F
:101B3000CE010E94270D800F911FDF91CF911F9141
:101B40000F91FF90EF90DF90CF900895242FB70171
:101B5000A601DF91CF911F910F91FF90EF90DF9041
:101B6000CF900C94270D8F929F92AF92BF92CF92FD
:101B7000DF92EF92FF920F931F93CF93DF937C013D
:101B80008B016C0182E0C80ED11C4701E5E08E0E8E
:101B9000911CD0E0C0E0F60141916F0150E070E08F
:101BA00060E02AE0C8010E94270D5C016EE2C801D6
:101BB0000E94C7078A0D9B1DC80FD91FC814D904DE
:101BC00051F7F701458150E070E060E02AE0C8017C
:101BD0000E94270D8C0F9D1FDF91CF911F910F91B8
:101BE000FF90EF90DF90CF90BF90AF909F908F903D
:101BF00008954F925F926F927F928F929F92AF92D1
:101C0000BF92CF92DF92EF92FF920F931F93CF93E9
:101C10006B017C01742EAC019B010E9460366BE865
:101C200072E0811126C046015701E894B7F82FEF02
:101C30003FEF4FE75FE7C501B4010E9460368111B5
:101C40000CC02FEF3FEF4FE75FE7C501B4010E94E3
:101C5000D5336FE872E0181664F02FEF3FEF4FE7CF
:101C60005FE4C701B6010E945B361816ACF463E965
:101C700072E08EEB99E0CF911F910F91FF90EF9062
:101C8000DF90CF90BF90AF909F908F907F906F909C
:101C90005F904F900C94180D2FEF3FEF4FE75FECE4
:101CA000C701B6010E94D53387FDE1CF20E030E0C7
:101CB000A901C701B6010E94D53310E000E087FFFB
:101CC0000AC06DE28EEB99E00E94C7078C01F7FA1B
:101CD000F094F7F8F094C0E060E070E080E09FE3FB
:101CE0007C1641F020E030E040E251E40E94BA3539
:101CF000CF5FF6CFA70196010E944E352B013C0124
:101D00000E942C364B015C012AE0BC01A4018EEB41
:101D100099E00E94270D7C01E00EF11ECC23B1F169
:101D2000C501B4010E94DA339B01AC01C301B201C9
:101D30000E944D354B015C016EE28EEB99E00E94F2
:101D4000C707E80EF91EC15008F120E030E040E27C
:101D500051E4C501B4010E943B342B013C010E94B7
:101D60002C364B018EEB99E00E94730DE80EF91EA4
:101D7000B40190E080E00E94DA339B01AC01C30122
:101D8000B2010E944D354B015C01DDCFC701CF91FF
:101D90001F910F91FF90EF90DF90CF90BF90AF9089
:101DA0009F908F907F906F905F904F90089567E91C
:101DB00072E00C94180DCF93DF936EEB79E00E94E4
:101DC000B30DEC018EEB99E00E94D70E8C0F9D1F96
:101DD000DF91CF910895CF93DF93BC018EEB99E013
:101DE0000E94DC07EC018EEB99E00E94D70E8C0F6D
:101DF0009D1FDF91CF9108950F931F93CF93DF9392
:101E0000EC010E94180D8C01CE010E94D70E800FAC
:101E1000911FDF91CF911F910F9108950F931F9301
:101E2000CF93DF93EC010E94CE078C01CE010E947C
:101E3000D70E800F911FDF91CF911F910F910895C1
:101E40006115710511F00C94180D90E080E0089573
:101E50000F931F93CF93DF938C010F5B1F4FD8011C
:101E60006D917C911616170684F5EC018BA98823D9
:101E700079F08EA581110CC040E150E08C819D81EC
:101E80000E94790D67E972E08C819D810E94200F8C
:101E90008C819D81F801408151816DAD7EADDC0169
:101EA000ED91FC910280F381E02D19958BA9882397
:101EB00049F08EA5811106C067E972E08C819D8191
:101EC0000E94200FF80111821082DF91CF911F91A3
:101ED0000F910895CF93DF93EC010E94280F8C811E
:101EE0009D81DC01ED91FC910680F781E02DDF9171
:101EF000CF911994EF92FF920F931F93CF93DF939B
:101F0000EC0189A99AA9892B29F468EC70E0CE012B
:101F10000E942A1281E08DAB8E01F12CE12C0C5F26
:101F20001F4F8EA99FA9E816F906D4F4F801628123
:101F30007381CE010E94200F6EE177E0CE010E94F6
:101F40005510F80164817581CE010E94200F67E968
:101F500072E0CE010E94200FFFEFEF1AFF0ADFCFE1
:101F6000DF91CF911F910F91FF90EF900895CF9344
:101F7000DF93EC018FA5811107C04AE952E065EAC1
:101F800072E0CE010E94980A88A9882351F08EA59C
:101F9000811107C042EB52E06AEB72E0CE010E9471
:101FA000980A88A9811109C081E08EA74CEC52E003
:101FB00062ED72E0CE010E94980ACE010E947A0F73
:101FC00067E972E0CE010E94200FCE010E94280F27
:101FD0001DAA81E08BABDF91CF910895FF920F9303
:101FE0001F93CF93DF93EC01F62E8BA9811109C0CB
:101FF0008DA9811106C08CA9811103C0CE010E9458
:10200000B70FEDADFEAD8E010F5B1F4FD8018D9167
:102010009C9111979C012F5F3F4F11963C932E93FB
:10202000E80FF91FF0828D919C918115944081F504
:102030008BA9882389F08EA581110EC040E150E064
:1020400060E074E08C819D810E94790D67E972E007
:102050008C819D810E94200F8C819D816DAD7EAD14
:10206000DC01ED91FC910280F381E02D40E054E031
:1020700019958BA9882349F08EA5811106C067E9BF
:1020800072E08C819D810E94200FF80111821082E4
:102090008AAD9BAD01969BAF8AAF81E090E0DF9166
:1020A000CF911F910F91FF900895EF92FF920F93A0
:1020B0001F93CF93DF93EC017B018BA9811109C0A2
:1020C0008DA9811106C08CA9811103C0CE010E9487
:1020D000B70F8701F80164910F5F1F4F662341F02E
:1020E000E881F9810190F081E02DCE011995F2CFC0
:1020F000DF91CF911F910F91FF90EF900895673975
:1021000021E0720709F45EC10CF081C06C3221E05D
:10211000720709F433C1E4F56A3C710509F41CC186
:10212000ECF46636710509F40EC164F46436710589
:1021300009F402C16536710509F402C14AE050E0B4
:102140000C94790D683C710509F400C10CF001C1D3
:102150006736710599F768E07BE0F0C06E3C710569
:1021600009F403C14CF46C3C710509F4FBC00CF498
:10217000F6C06DEB7AE0E2C0603D710509F4FBC08A
:102180000CF4F6C0623E7105C9F667E87AE0D6C085
:10219000643321E0720709F403C1D4F4603321E011
:1021A000720709F4F4C054F46E3221E0720709F4A6
:1021B000EBC00CF4E6C064E57AE0C0C0623321E015
:1021C000720709F4EAC00CF4E5C061E27AE0B6C037
:1021D000633921E0720709F4ECC07CF4613921E035
:1021E000720709F4E0C00CF0E1C0603921E0720729
:1021F00009F0A4CF62E07AE0A1C0653921E072075E
:1022000009F4DDC00CF4D8C06EEA79E097C06A3AF0
:1022100021E0720709F4FAC00CF03FC06F3921E0E9
:10222000720709F4E1C0D4F46B3921E0720709F4B4
:10223000D2C054F4693921E0720709F4C9C00CF422
:10224000C4C062E779E07AC06D3921E0720709F411
:10225000C8C00CF4C3C06FE279E070C0663A21E0F8
:10226000720709F4CAC07CF4613A21E0720709F4EC
:10227000C1C00CF4BCC0653A21E0720709F05ECF22
:102280006BED78E05BC0683A21E0720709F4BBC0EF
:102290000CF4B6C063EA78E051C0673F21E07207F2
:1022A00009F4C6C03CF5633C21E0720709F4B7C0ED
:1022B00094F46D3A21E0720709F4ABC06F3A21E063
:1022C000720709F4A9C06C3A21E0720709F036CF11
:1022D0006CE778E033C0653F21E0720709F4A2C0E3
:1022E0000CF0A3C0643F21E0720709F027CF66E13C
:1022F00078E024C06B3F21E0720709F4A2C054F4D7
:10230000693F21E0720709F499C00CF494C063EAB4
:1023100077E014C06E3F21E0720709F495C06F3F6B
:1023200021E0720709F493C06C3F21E0720709F0C5
:1023300005CF60E877E002C063E37BE00C945510C2
:102340006FE17BE0FBCF64E17BE0F8CF65E07BE011
:10235000F5CF6DEF7AE0F2CF64EF7AE0EFCF66ED84
:102360007AE0ECCF6BEC7AE0E9CF6DEA7AE0E6CF89
:1023700060EA7AE0E3CF6FE87AE0E0CF66E77AE000
:10238000DDCF64E67AE0DACF6EE57AE0D7CF67E4B6
:102390007AE0D4CF6DE37AE0D1CF64E37AE0CECFB8
:1023A0006EE07AE0CBCF65EF79E0C8CF64EE79E0FC
:1023B000C5CF6AED79E0C2CF60ED79E0BFCF6DEBBC
:1023C00079E0BCCF60E979E0B9CF60E879E0B6CFD9
:1023D00067E779E0B3CF62E679E0B0CF6EE479E009
:1023E000ADCF6CE379E0AACF68E179E0A7CF62E0F6
:1023F00079E0A4CF6FEE78E0A1CF66EC78E09ECFD5
:102400006FEB78E09BCF6DEA78E098CF62E978E0F7
:1024100095CF6AE678E092CF6AE478E08FCF6CE2FD
:1024200078E08CCF66E078E089CF6AEF77E086CFFE
:1024300066EE77E083CF66ED77E080CF6BEB77E0F9
:102440007DCF6EE877E07ACF63E777E077CF63E51B
:1024500077E074CF0F931F93CF93DF93EC018B0141
:102460007AAB69AB81E08CAB6EE37BE0CE010E947E
:1024700055104AE050E0B801CE010E94790D6CE39E
:102480007BE0CE010E945510B801CE010E947F1062
:1024900067E972E0CE010E94200F0C3C110519F093
:1024A0000033114019F481E08EA78FA71CAADF9199
:1024B000CF911F910F9108950F931F93CF93DF93A7
:1024C000EC018B0189A99AA9892B19F4CE010E94EC
:1024D0002A12CE010E94B70FB801CE01DF91CF9131
:1024E0001F910F910C947F102F923F924F925F9209
:1024F0006F927F928F929F92AF92BF92CF92DF9214
:10250000EF92FF920F931F93CF93DF9300D01F9210
:102510001F92CDB7DEB77C016A834B831982212CD1
:1025200010E085E0382E9FE3492E512C8091610AFE
:102530009091620ADC01ED91FC910084F185E02D1F
:102540001995E114F10409F5892BF9F42224239457
:10255000822D0F900F900F900F900F90DF91CF91E1
:102560001F910F91FF90EF90DF90CF90BF90AF90B1
:102570009F908F907F906F905F904F903F902F90A3
:1025800008952224239410E0D1CF1092650A41E0EF
:1025900050E065E67AE08091610A9091620A0E94BB
:1025A0009E079D838C83892BA1F4133041F482E034
:1025B00090E09093C20A8093C10A212CC9CF6DED9F
:1025C00072E08091630A9091640A0E94FC0E1F5F82
:1025D000ADCF8091610A9091620A2091650A2E33F5
:1025E00009F044C041E050E066E67AE00E949E07B0
:1025F0001092660AE114F10461F0C7010E94ED3007
:10260000AC01B70185E69AE00E94F630892B09F407
:102610009DCF45E050E06CE876E085E69AE00E94C8
:10262000F630892B09F0C3C0B0916A0AB053BC835D
:102630008CE69AE00E94B430AB01EC81E53008F002
:10264000A2CF672B09F49FCFE39DF0011124E85539
:10265000F54F2081FC813F9EC001112424FD8BC0D9
:102660008755954FDC014D935C938DCF6C817D81B7
:102670006B59754F41E050E00E949E07EC81FD814F
:10268000E80FF91FFD83EC8332970CF44FCF809154
:10269000650A8D3049F58091660A8A3009F473CF56
:1026A0000AE06090610A7090620A52018C819D81FB
:1026B000A81AB90A8B59954F4C01D12CC12C002E68
:1026C000000C110BAC14BD04D9F1C3010E947007BA
:1026D00097FD36C08017910799F1D4018D934D0174
:1026E000BFEFCB1ADB0AEECF8B32D1F68091660AB0
:1026F000833429F4FA81F111D3CF0AE3D2CF89349C
:1027000079F66C817D816B59754F44E050E0809182
:10271000610A9091620A0E949E072C813D81280FD8
:10272000391F3D832C83E0916A0AE053332DE30285
:10273000F0011124E855F54F808184FDDECFB0CF44
:10274000EC81FD81EC0DFD1DEF59F54FFD83EC8310
:10275000EC81FD81E156FA402C813D812150310907
:102760003D832C83D90114968C918D3089F3EF59D8
:10277000F54F14823FCF8555954FFC0180819181A3
:102780002091610A3091620ADC01ED91FC91019087
:10279000F081E02DB9011995182F882309F4C6CED0
:1027A00090E008969093C20A8093C10AECCE63E849
:1027B00076E086E69AE00E94E430892B21F5E091EC
:1027C000650AE0538E2F90E0389ED001399EB00DFF
:1027D0001124A755B54F2D913C91232B09F0D3CE51
:1027E000E39DF0011124E855F54F208120FF02C040
:1027F00021FFC9CE389EF001399EF00D1124E85515
:10280000F54F3082C0CE6BE776E086E69AE00E9414
:10281000E430892B19F16DE676E086E69AE00E94B5
:10282000E430892BD9F067E676E085E69AE00E94ED
:10283000E430892BE9F062E676E085E69AE00E94D2
:10284000E430892BA9F06CE576E085E69AE00E94F9
:10285000E430892BD1F484E090E0ABCEE091650ABE
:10286000E0533E9EF0011124E855F54F10828BCEC7
:1028700021106CCEE114F10409F485CE83E090E0E0
:102880009093C20A8093C10A63CE65E576E085E63F
:102890009AE00E94E430892B09F473CEBB81BB23FC
:1028A00049F062E576E085E69AE00E94E430892B03
:1028B00009F483CEE981EF5FE983E73408F463CE5E
:1028C00076CE40E061E082E596E00C947412CF93FE
:1028D000DF93C82F8091A70A81110AC081E090E0A0
:1028E0009093C20A8093C10A80E0DF91CF9108954E
:1028F0009091A60AC91306C0611102C081E0F5CF0C
:102900008C17E1F38091630A9091640A24E136E028
:10291000662311F023E236E0D62FB9010E94DC07CE
:102920004C2F50E070E060E02AE08091630A9091C3
:10293000640A0E94270D8091630A9091640A0E94A4
:10294000D70E0E946114882381F2C093A60ADD236A
:10295000A9F2C093A70A8D2FC8CF1F93CF93DF93FF
:10296000EC01162F8091630A9091640A0E94D70EA1
:10297000209741F040E0612FCE01DF91CF911F9170
:102980000C947412DF91CF911F910C9461141092EA
:10299000C20A1092C10A40E060E090E080E00C942E
:1029A00074120F931F93CF93DF938C010E94C7146F
:1029B000C1E6DAE0B8018A819B810E94DC078A8146
:1029C0009B810E94D70EDF91CF911F910F910C94A4
:1029D0006114AF92BF92CF92DF92EF92FF920F936A
:1029E0001F93CF93DF93CDB7DEB72C970FB6F89434
:1029F000DEBF0FBECDBF5C016B017A0189010E9471
:102A0000C7148091A60A60E081600E94671481115A
:102A100012C080E02C960FB6F894DEBF0FBECDBF7B
:102A2000DF91CF911F910F91FF90EF90DF90CF90AA
:102A3000BF90AF9008958091630A9091640A2091AD
:102A4000A50A68E076E0211102C068EF75E00E94F7
:102A5000DC076091630A7091640AC5010E94B30D9E
:102A6000F7018281882311F164EF75E08091630A98
:102A70009091640A0E94DC076091630A7091640A75
:102A8000C7010E94B30DF8018281882379F064EFB9
:102A900075E08091630A9091640A0E94DC0760915E
:102AA000630A7091640AC8010E94B30D62E28091CA
:102AB000630A9091640A0E94C7078091630A90910B
:102AC000640A0E94D70E0E946114882309F4A1CFE2
:102AD00089E892E098878F834091F90A5091FA0A29
:102AE0006091FB0A7091FC0A49875A876B877C8743
:102AF0009A838983F60182819381A481B5818B8336
:102B00009C83AD83BE830E94C7148091A60A60E0B7
:102B100081600E946714882309F47CCF8091630A46
:102B20009091640A2091A50A65EE75E0211102C01A
:102B300066ED75E00E94DC078091630A9091640A5B
:102B40002B8121110FC04AE050E070E060E00E944C
:102B5000790D8091630A9091640A0E94D70E0E94B9
:102B6000611458CF62ED75E00E94DC076091630A42
:102B70007091640ACE0101960E94B30D8985882365
:102B800081F064EF75E08091630A9091640A0E947D
:102B9000DC076091630A7091640ACE0107960E9477
:102BA000B30D62E28091630A9091640A0E94C707A4
:102BB000D0CFCF93C82F0E94C71485E0C89F900143
:102BC0001124C9018F59954FFC01E85BFF4F118219
:102BD00010822855354FF901208120FF21C0895BE3
:102BE0009F4F2260FC01208365EC75E08091630AB1
:102BF0009091640A0E94DC074C2F50E070E060E086
:102C00002AE08091630A9091640A0E94270D8091C6
:102C1000630A9091640A0E94D70ECF910C946114BC
:102C200081E0CF9108950F931F93CF93DF93FC0121
:102C300024853585232BF1F0EC010190F081E02D06
:102C40000680F781E02D19950C851D85F80181819D
:102C50008F3F11F00E94D915F80110828FEF818308
:102C60001686158614861386148A138A1582148292
:102C70001D861C86DF91CF911F910F9108958F9231
:102C80009F92AF92BF92CF92DF92EF92FF920F93FB
:102C90001F93CF93DF93B82E8B017A010E94C71444
:102CA000E5E0EB9DE0011124C755D54FC880D980E0
:102CB000C114D104E1F4BE9EF0011124E855F54F92
:102CC000808180FD06C086E090E09093C20A8093E8
:102CD000C10AC601DF91CF911F910F91FF90EF9034
:102CE000DF90CF90BF90AF909F908F90089565E94F
:102CF00075E08091630A9091640A0E94DC074B2D75
:102D000050E070E060E02AE08091630A9091640AEC
:102D10000E94270D6CE28091630A9091640A0E94E0
:102D2000C707B7018091630A9091640A0E94730DEE
:102D300060E088E895E00E94AD1481110BC0198213
:102D4000188287E090E09093C20A8093C10AD12C48
:102D5000C12CBFCF82E79AE00E94B4304B016B01D7
:102D6000AB01B8018091610A9091620A0E949E07AE
:102D70008816990621F7888199818815990528F484
:102D8000198218820E946114A4CF88199909998325
:102D90008883F8CFEF92FF921F93CF93DF93FC01CC
:102DA000E484F584E114F104C1F1EC01F70111812F
:102DB0001F3FD9F00E94C71485E0189FF00111242D
:102DC000E855F54F808180FF02C081FF03C08FEF7F
:102DD000F7018183F70181818F3F39F081E0DF9135
:102DE000CF911F91FF90EF900895E881F9810084C1
:102DF000F185E02DCE011995892B81F7EC85FD85B4
:102E000010828FEF81831686158614861386148AA6
:102E1000138A158214821D861C8680E0E0CFCF9233
:102E2000DF92EF92FF920F931F93CF93DF936C018A
:102E30007B018A010E94C71466E376E08091630AF1
:102E40009091640A0E94DC0761E08EE296E00E94A5
:102E5000AD148823E1F1C5E6DAE0FE01019000201F
:102E6000E9F73597138261E77AE0C6010E942D08E1
:102E700040E061E08EE296E00E947412882339F10E
:102E8000FE0101900020E9F73597138266E77AE0AA
:102E9000C7010E942D0840E061E08EE296E00E94AA
:102EA00074128823A1F009900020E9F725971B826E
:102EB00066E77AE0C8010E942D08DF91CF911F914B
:102EC0000F91FF90EF90DF90CF900C94611480E011
:102ED000DF91CF911F910F91FF90EF90DF90CF90F6
:102EE0000895BF92CF92DF92EF92FF920F931F93BC
:102EF000CF93DF93B82EEB017A01690169EB75E09E
:102F00008091630A9091640A0E94DC074B2D50E087
:102F100070E060E02AE08091630A9091640A0E9468
:102F2000270D6CE28091630A9091640A0E94C707A2
:102F3000B7018091630A9091640A0E94730DC114D5
:102F4000D104F1F066EB75E08091630A9091640A18
:102F50000E94DC07B6018091630A9091640A0E9486
:102F6000200F63EB75E08091630A9091640A0E94E0
:102F7000DC07B8018091630A9091640A0E94730D86
:102F800061E081EB95E00E94AD14811103C090E0F7
:102F900080E02BC08091610A9091620ADC01ED9182
:102FA000FC910280F381E02DA701BE01199540E05C
:102FB00061E08BEA95E00E947412882341F38AE66F
:102FC0009AE00E94B4306B0140E061E085EA95E050
:102FD0000E9474128823D9F262E576E08AE69AE0CC
:102FE0000E94E430892B59F4C601DF91CF911F91E3
:102FF0000F91FF90EF90DF90CF90BF90089588E001
:1030000090E09093C20A8093C10AC1CF9F92AF9281
:10301000BF92CF92DF92EF92FF920F931F93CF93C5
:10302000DF93FC01E388F488E114F10429F1EC0159
:1030300004811581A280B380C784D08891800E94CA
:10304000C71485E0989EF0011124E855F54F808162
:1030500080FD1EC086E090E09093C20A8093C10A72
:1030600030E020E091E04B895C894217530709F476
:1030700090E09E831C8A1B8ADF91CF911F910F9154
:10308000FF90EF90DF90CF90BF90AF909F9008950A
:103090009501A701B601892D0E9471179C01E2CF0D
:1030A000FC0184859585009711F00C94061808950D
:1030B0008F929F92AF92BF92CF92DF92EF92FF9248
:1030C0000F931F93CF93DF935B017A01FC01C485BB
:1030D000D58590E080E0209761F0D12CC12C9980BB
:1030E000FFEF9F1213C09E82F12CE12CC6018E0DC2
:1030F0009F1DDF91CF911F910F91FF90EF90DF9077
:10310000CF90BF90AF909F908F900895E114F104FD
:1031100069F38B899C8909891A89009711F50E1525
:103120001F05F8F40C811D810A80DB81C02D0E94EF
:10313000C71485E0989EF0011124E855F54F808171
:1031400080FD07C086E090E09093C20A8093C10A98
:10315000CBCF9E01A701B501892D0E9471177C017B
:10316000C5CF081B190BD50190E080E0081719079F
:1031700091F0E816F90679F0EF85F8892B893C89FA
:10318000A9014F5F5F4F5C8B4B8B4D91E20FF31F9B
:1031900040830196EBCF4701801A910A97FCA6CF96
:1031A000CE010E9406188114910409F49FCFA00E4D
:1031B000B11EC00ED11E740192CFCF93DF93FC01DC
:1031C000C485D5852097F1F0EF85F8898B899C8996
:1031D0009C012F5F3F4F3C8B2B8BE80FF91F6083C7
:1031E0002B893C8989899A892817390771F4CE017E
:1031F0000E94061881E090E02E81211180E0DF918D
:10320000CF91089580E090E0FACF81E0FCCFBF92AB
:10321000CF92DF92EF92FF920F931F93CF93DF93A2
:1032200000D01F921F92CDB7DEB7FC0125853685F1
:1032300083859485281B390B11811F3F09F4C3C076
:103240002115310509F0BFC07F010E94C714C12EAE
:10325000D12C85E0B82EBC9CF001BD9CF00D112452
:10326000E755F54F208131812115310509F0ABC0BB
:103270001B9DF0011124E855F54F808180FF9EC011
:1032800081FD9CC00E944E070091C30A1091C40AA0
:103290002091C50A3091C60A601B710B820B930BFB
:1032A000643F71408105910508F47BC00E944E0780
:1032B0006093C30A7093C40A8093C50A9093C60AA8
:1032C0000E94C7146DE173E08091630A9091640AD3
:1032D0000E94DC0761E086E193E00E94AD14882340
:1032E00009F45FC08E010F5F1F4FF8011192BA946D
:1032F000E9F741E061E089EC92E00E9474128823D2
:1033000049F0E091700AE053E00FF12FF11D81E0E8
:103310008083EFCFF801A8EABAE09E012A5F3F4F11
:1033200095E08191882309F45EC08C9180FF01C0F3
:1033300081FD9C9315962E173F0799F70E94C7149D
:103340006AEB72E08091630A9091640A0E94DC0744
:1033500061E08EEA92E00E94AD14882311F16FEDD6
:1033600072E081E79AE00E94043110E000E00097EB
:10337000B1F0FC012081222339F00E94B430F80121
:10338000E755F54F718360836FED72E090E080E068
:103390000E9404310B5F1F4F0931110541F70E9454
:1033A000611485E08C9DF0018D9DF00D1124E75591
:1033B000F54F208131812115310529F4C7010E9483
:1033C000061830E020E0C9010F900F900F900F9089
:1033D0000F90DF91CF911F910F91FF90EF90DF90B1
:1033E000CF90BF9008951C92A5CFCF93DF93EC01AF
:1033F0002B853C858D859E852817390780F0CE0169
:103400000E940719892B59F01C861B8649855A850D
:103410006F81788589810E943F169E878D87DF9115
:10342000CF910895AF92BF92CF92DF92EF92FF9229
:103430000F931F93CF93DF938C015B01EA01D12C93
:10344000C12C209709F44EC0C8010E940719892B8E
:1034500009F448C0F801E584F68483859485E81A68
:10346000F90AB9F4818592858C179D0790F4AE0115
:10347000B50181810E943F168C0D9D1DDF91CF917A
:103480001F910F91FF90EF90DF90CF90BF90AF9082
:103490000895C8010E94F519D50190E080E08E15CD
:1034A0009F05A1F08C179D0789F0F8016781708551
:1034B00023853485A9014F5F5F4F54874387FB0104
:1034C000E20FF31F20812D930196E9CFEC16FD0644
:1034D00010F0CE01D1CFCE19DF09AE0CBF1CCE0C3F
:1034E000DF1CAFCF90E080E0C7CFFC0184859585DD
:1034F000009711F00C94121A90E080E00895CF9399
:10350000DF93FC01C485D585209729F48FEF9FEFC9
:10351000DF91CF910895CE010E940719892BB1F355
:10352000CE010E94F519EF81F8858B859C85E80F07
:10353000F91F808190E0ECCF0F931F93CF93DF931F
:103540001F92CDB7DEB7FC01048515850115110565
:1035500029F0C8010E940719892B19F48FEF9FEFFA
:103560000CC041E050E0BE016F5F7F4FC8010E9478
:10357000121A892B99F3898190E00F90DF91CF91F6
:103580001F910F910895FC0184859585009711F096
:103590000C94071990E080E00895CF92DF92EF92AB
:1035A000FF920F931F93CF93DF93EC018B016A017E
:1035B00079010E94C714209709F018828091A60A09
:1035C000823009F44FC068E476E08091630A9091FC
:1035D000640A0E94DC0761E081E496E00E94AD1479
:1035E000882309F43FC061EE72E08DE69AE00E9404
:1035F0000431209721F0BC01CE010E948738E801F8
:10360000269661EE72E090E080E00E94043140E195
:1036100050E070E060E00E94682F6A93C017D10705
:1036200081F761EE72E090E080E00E9404310E9438
:103630009630F601808361EE72E090E080E00E94B7
:1036400004310E94B430F7016083718382839383D5
:10365000DF91CF911F910F91FF90EF90DF90CF906E
:103660000C94611480E0DF91CF911F910F91FF9036
:10367000EF90DF90CF9008950F931F93CF93DF9338
:103680008C01EB018AE090E00E946536FC018AE043
:10369000DF011D928A95E9F711830083D383C283EA
:1036A00081E090E097838683A0913A0BB0913B0B29
:1036B000109751F4F0933B0BE0933A0BDF91CF91CD
:1036C0001F910F910895DC0118968D919C91199787
:1036D0000097C9F71996FC93EE931897EFCFCF9206
:1036E000DF92FF920F931F93CF93DF93E9EDFAE000
:1036F00010E000E09FEFC191D1912097C1F12981A5
:10370000281312C06115710529F02C813D816217C3
:103710007307E1F0188299831E861D861C861B861E
:103720001C8A1B8A1D821C822881211118C02985B0
:103730003A852034310599F429893A8920343105B4
:1037400071F489837D836C8381E08883CE01DF916E
:10375000CF911F910F91FF90DF90CF9008950F5F51
:103760001F4F0530110539F6D0E0C0E0EFCF6B01F7
:10377000F82E85E190E00E946536EC0185E1FE01BE
:1037800011928A95E9F780E490E00E946536988767
:103790008F8380E490E00E946536988B8F8780E469
:1037A00090E09A8789879A8B898BF982DD82CC8217
:1037B00081E08883000F111FF801E752F54FD18394
:1037C000C083C4CFAF92BF92CF92DF92EF92FF92AD
:1037D0000F931F93CF93DF937C015B016A01DC01A0
:1037E0001C968D919C911D97892B39F0ED91FC9140
:1037F0000488F589E02DC70119950E94C7140E941D
:10380000C714ECEBFAE0C4E0D0E080818370B9F437
:1038100081819281892B99F485E08C9F80018D9F15
:10382000100D1124F801E855F54F808180FF19C073
:1038300085E090E09093C20A8093C10A05C0219769
:103840003597CF3FDC0709F790E080E0DF91CF911B
:103850001F910F91FF90EF90DF90CF90BF90AF90AE
:1038600008956BE775E08091630A9091640A0E9465
:10387000DC072AE0AE01DD0F660B770B8091630A4F
:103880009091640A0E94270D68E775E08091630AB1
:103890009091640A0E94DC0765EE72E08091630AF1
:1038A0009091640A0E94200F64EF75E08091630A92
:1038B0009091640A0E94DC07B5018091630A90919F
:1038C000640A0E94200F65E775E08091630A909179
:1038D000640A0E94DC07B6018091630A9091640A31
:1038E0000E94730D0855154F81E0F8018083809187
:1038F000630A9091640A0E94D70E0E94611481119C
:1039000003C0D8011C92A0CF70E060E08C2F0E9411
:103910006F1BF70195878487892B21F48C2F0E94D8
:10392000D91592CF81E090E091CF8F929F92AF9284
:10393000BF92CF92DF92EF92FF920F931F93CF939C
:10394000DF93CDB7DEB760970FB6F894DEBF0FBE3A
:10395000CDBF7C01FB016A0183809480B5808281A8
:103960004AE08E010F5F1F4FB80190E00E942F3197
:10397000F80101900020E9F73197BF01601B710B3E
:103980008EE2A82EA0826F5F7F4F600F711F4AE00A
:10399000882D90E00E942F31F80101900020E9F776
:1039A0003197BF01601B710BA0826F5F7F4F600F6B
:1039B000711F4AE0892D90E00E942F31F80101909B
:1039C0000020E9F73197BF01601B710BA0826F5F88
:1039D0007F4F600F711F4AE08B2D90E00E942F31C6
:1039E000A601B801C7010E94E21B60960FB6F894C9
:1039F000DEBF0FBECDBFDF91CF911F910F91FF9022
:103A0000EF90DF90CF90BF90AF909F908F900895F0
:103A10000C94E21B0F931F93CF93DF93EC018881EB
:103A20009981009759F02A813B812617370730F09A
:103A300081E0DF91CF911F910F9108958B016F5F0E
:103A40007F4F0E948A37009759F0998388831B83A0
:103A50000A832C813D81232B59F7FC011082E8CF8A
:103A600080E0E7CFEF92FF920F931F93CF93DF9306
:103A70006115710541F480E0DF91CF911F910F91A5
:103A8000FF90EF90089541155105B1F07B01EC01D5
:103A90000C811D81040F151FB8010E940A1D882387
:103AA00051F3288139818C819D81B701820F931F49
:103AB0000E9487381D830C8381E0DECFCF93DF9394
:103AC000EC0188819981009711F00E9401371982D9
:103AD00018821D821C821B821A82DF91CF91089569
:103AE000CF93DF93EC01FB0101900020E9F73197C0
:103AF000AF01461B570B0E94321D811103C0CE013E
:103B00000E945E1DCE01DF91CF910895CF93DF9388
:103B1000EC01FB0144815581608171810E94321D5D
:103B2000811103C0CE010E945E1DCE01DF91CF91B5
:103B30000895EF92FF920F931F93CF93DF93EC01C1
:103B40007B018A01BA010E940A1D81110BC0CE01BE
:103B50000E945E1DCE01DF91CF911F910F91FF90CA
:103B6000EF9008951D830C83B701888199810E948D
:103B70008738F0CFEF92FF920F931F93CF93DF938D
:103B8000CDB7DEB7A1970FB6F894DEBF0FBECDBF9D
:103B90007C01CB01BA01F7011182108213821282DB
:103BA000158214828E010F5F1F4F22E044E00E94B5
:103BB0004A2F0097C9F0FC0101900020E9F73197E6
:103BC000AF01481B590BBC01C7010E94991DA1966A
:103BD0000FB6F894DEBF0FBECDBFDF91CF911F911E
:103BE0000F91FF90EF900895C7010E945E1DEFCFE7
:103BF000EF92FF920F931F93CF93DF93CDB7DEB772
:103C000062970FB6F894DEBF0FBECDBF8C01CB011B
:103C1000F8011182108213821282158214824AE006
:103C20009E012F5F3F4F7901B9010E942F31F701AB
:103C300001900020E9F73197AF014E195F09B701F4
:103C4000C8010E94991D62960FB6F894DEBF0FBEA0
:103C5000CDBFDF91CF911F910F91FF90EF9008950D
:103C6000FC01118210821382128215821482FB01E0
:103C700001900020E9F73197AF01461B570B0C94D8
:103C8000991DFC0180819181009711F00C940137FE
:103C900008950F931F93CF93DF93CDB7DEB72C9783
:103CA0000FB6F894DEBF0FBECDBF8B0169EE72E098
:103CB0008EEB99E00E94FC0E4BEF52E065EA72E059
:103CC000C8010E94980A65E073E0C8010E94FC0EDA
:103CD0006CE073E0C8010E94FC0E63E173E0C80170
:103CE0000E94FC0E6DE373E0C8010E94FC0E65E4C7
:103CF00073E0C8010E94FC0E409100095091010937
:103D00006091020970910309CE0107960E94BA1DC5
:103D10006CE473E0CE0101960E94301EBE01695F23
:103D20007F4FCE0101960E94861D64E673E00E94DB
:103D3000701DBC01C8010E940E0FCE0101960E94A9
:103D4000411ECE0107960E94411E4091FC085091F1
:103D5000FD086091FE087091FF08CE0107960E9451
:103D6000BA1D69E673E0CE0101960E94301EBE01C5
:103D7000695F7F4FCE0101960E94861D64E673E065
:103D80000E94701DBC01C8010E940E0FCE01019659
:103D90000E94411ECE0107960E94411E40910809D3
:103DA0005091090960910A0970910B09CE0107969B
:103DB0000E94BA1D62E873E0CE0101960E94301E97
:103DC000BE01695F7F4FCE0101960E94861D64E6A9
:103DD00073E00E94701DBC01C8010E940E0FCE014D
:103DE00001960E94411ECE0107960E94411E69E97C
:103DF00073E0C8010E94FC0E61EA73E0C8010E94F2
:103E0000FC0E2C960FB6F894DEBF0FBECDBFDF912F
:103E1000CF911F910F9108950F931F93CF93DF932D
:103E2000CDB7DEB72C970FB6F894DEBF0FBECDBF6F
:103E30008B0169EA73E08EEB99E00E94FC0E4AE97F
:103E400052E065EA72E0C8010E94980A6DEB73E0E7
:103E5000C8010E94200F64E074E0C8010E94200F96
:103E60004091000950910109609102097091030984
:103E7000CE0107960E94BA1D67E174E0CE0101965B
:103E80000E94301EBE01695F7F4FCE0101960E94E5
:103E9000861D68E972E00E94701DBC01C8010E9485
:103EA000CE07CE0101960E94411ECE0107960E94C8
:103EB000411E4091FC085091FD086091FE087091F0
:103EC000FF08CE0107960E94BA1D6AE374E0CE0196
:103ED00001960E94301EBE01695F7F4FCE010196A0
:103EE0000E94861D68E972E00E94701DBC01C80135
:103EF0000E94CE07CE0101960E94411ECE01079678
:103F00000E94411E409108095091090960910A09D7
:103F100070910B09CE0107960E94BA1D6EE574E000
:103F2000CE0101960E94301EBE01695F7F4FCE0117
:103F300001960E94861D68E972E00E94701DBC0116
:103F4000C8010E94CE07CE0101960E94411ECE01FB
:103F500007960E94411E60E874E0C8010E94200F8D
:103F600067EC74E0C8010E94200F4091F80850915E
:103F7000F9086091FA087091FB08CE0107960E943B
:103F8000BA1D6EED74E0CE0101960E94301EBE0196
:103F9000695F7F4FCE0101960E94861D68E972E03D
:103FA0000E94701DBC01C8010E94CE07CE0101967F
:103FB0000E94411ECE0107960E94411E4091F408C6
:103FC0005091F5086091F6087091F708CE010796B8
:103FD0000E94BA1D6EEF74E0CE0101960E94301E61
:103FE000BE01695F7F4FCE0101960E94861D68E980
:103FF00072E00E94701DBC01C8010E94CE07CE0174
:1040000001960E94411ECE0107960E94411E4091DA
:104010000409509105096091060970910709CE01C4
:1040200007960E94BA1D6FE175E0CE0101960E94CD
:10403000301EBE01695F7F4FCE0101960E94861D32
:1040400068E972E00E94701DBC01C8010E94CE07A1
:10405000CE0101960E94411ECE0107960E94411E8C
:104060006EE375E0C8010E94200F67E675E0C801A5
:104070000E94200F6091F2087091F308CE0107961C
:104080000E94F81D62E875E0CE0101960E94301E84
:10409000BE01695F7F4FCE0101960E94861D68E9CF
:1040A00072E00E94701DBC01C8010E94CE07CE01C3
:1040B00001960E94411ECE0107960E94411E60910A
:1040C000F0087091F108CE0107960E94F81D6AE988
:1040D00075E0CE0101960E94301EBE01695F7F4FE0
:1040E000CE0101960E94861D68E972E00E94701D53
:1040F000BC01C8010E94CE07CE0101960E94411E5C
:10410000CE0107960E94411E6091EE087091EF0863
:10411000CE0107960E94F81D62EB75E0CE01019674
:104120000E94301EBE01695F7F4FCE0101960E9442
:10413000861D68E972E00E94701DBC01C8010E94E2
:10414000CE07CE0101960E94411ECE0107960E9425
:10415000411E6091EC087091ED08CE0107960E9417
:10416000F81D6EEC75E0CE0101960E94301EBE0176
:10417000695F7F4FCE0101960E94861D68E972E05B
:104180000E94701DBC01C8010E94CE07CE0101969D
:104190000E94411ECE0107960E94411E2C960FB62A
:1041A000F894DEBF0FBECDBFDF91CF911F910F916D
:1041B00008952F923F924F925F926F927F928F92CB
:1041C0009F92AF92BF92CF92DF92EF92FF920F93A6
:1041D0001F93CF93DF937B016A015901DC010D919D
:1041E0001C913B01B4EA6B0E711C1B01EAEA2E0E16
:1041F000311C2B01F8EA4F0E511C0115110509F471
:1042000093C0D601DC967C9171118EC0F801848038
:1042100095808114910421F1808191810097E9F0CA
:10422000EC0109900020E9F72197C81BD90BD301B5
:104230006D917C916A0D7B1DAE010E948E38892B99
:1042400041F495012C0F3D1FA601B701C4010E9446
:10425000D920F80100851185D0CFD0E0C0E0F1CFA2
:1042600086819781D70152962D913C9182179307B1
:1042700011F0089771F7F80120813181D301ED9198
:10428000FC91EA0DFB1D21153105E9F18081D90171
:104290009C91911102C08823B1F150E040E090E080
:1042A00080E006C09612D5CF4F5F5F4F019671E058
:1042B000E901C80FD91F9880DF01A40FB51F6C91C9
:1042C0009920B1F0662329F27AE39712EBCFCE0161
:1042D000821B930B4991442311F04F32C1F7AD017A
:1042E0004E1B5F0B6D91662311F36F32C1F7DFCF69
:1042F000772309F4AECF6F32A1F48E0F9F1FDC013C
:104300008C918111A6CFD101ED93FC93F201318301
:104310002083D8011296ED91FC91B601C701199541
:1043200098CF662381F395CFDF91CF911F910F91A5
:10433000FF90EF90DF90CF90BF90AF909F908F90C5
:104340007F906F905F904F903F902F9008958F9245
:104350009F92AF92BF92CF92DF92EF92FF920F9314
:104360001F93CF93DF938C016B01EB015E01FE0184
:104370008491882369F1C8010E94A0097C018F3FC4
:10438000980771F480E0DF91CF911F910F91FF901A
:10439000EF90DF90CF90BF90AF909F908F90089557
:1043A0000E946B384C012196F501849190E00E94A7
:1043B0006B3888169906D1F26E2DC8010E940E0A3C
:1043C0002197CC16DD06F1F2FE0131976491F5CF0D
:1043D00081E0D9CF8F929F92AF92BF92CF92DF921E
:1043E000EF92FF920F931F93CF93DF938C016B019A
:1043F0007B01F70181917F01882359F1C8010E9457
:10440000A0094C018F3F980771F480E0DF91CF91B4
:104410001F910F91FF90EF90DF90CF90BF90AF90E2
:104420009F908F9008950E946B385C01E7018A91FC
:10443000082E000C990B0E946B38A816B906C9F219
:10444000682DC8010E940E0ACC15DD05F1F26A91B3
:10445000F8CF81E0DBCFAF92BF92CF92DF92EF92A5
:10446000FF920F931F93CF93DF93CDB7DEB7CF5E4D
:10447000D5400FB6F894DEBF0FBECDBF8E010355F9
:104480001A4FF8011382128223E532E03183208330
:10449000958384839801285D3F4F17821682118689
:1044A00010863496E217F307C1F7F80116A617A68F
:1044B00010AA12AA11AA13AA14AA15AA17AA16AA10
:1044C00011AE10AE13AE12AE14AE9E012F5F3F4F71
:1044D00036AF25AF20E034E0FF9631832083C25110
:1044E000DA4F19821882CE5ED54040913E0B509132
:1044F0003F0B6091400B7091410B20913C0B309130
:104500003D0BCD5FDA4F19821882C350D540EFE5DD
:10451000F2E0CF5FDA4FF983E883C150D540C35F43
:10452000DA4F19821882CD50D540C15FDA4F998396
:104530008883CF50D540CF5EDA4F19830883C151AD
:10454000D540CD5EDA4F19821882C351D5408FEF26
:104550009FEFCB5EDA4F99838883C551D540E1E068
:10456000F5E0EC0FFD1F7696CE0189569A4F119219
:10457000E817F907E1F711821082C756DA4F18825F
:10458000C959D540C656DA4F19821882CA59D54042
:10459000C456DA4F19821882CC59D540C256DA4F28
:1045A00039832883CE59D540C056DA4F19821882F4
:1045B000C05AD540CE55DA4F19821882C25AD5401A
:1045C000CC55DA4F1882C45AD540CE018F5F9B4F2D
:1045D000CB55DA4F99838883C55AD5408FEF90E049
:1045E000C955DA4F99838883C75AD540C755DA4FE2
:1045F00019821882C95AD540C555DA4F19821882D6
:10460000CB5AD540CB5FDA4F488359836A837B838B
:10461000C550D5406BE87BE0CE018F5F9A4F0E947A
:10462000A721882309F45BC081E090E0CD5EDA4FDA
:1046300099838883C351D540C955DA4FC880D98042
:10464000C75AD540CB55DA4FA880B980C55AD54056
:10465000CE018F5F9A4F0E94A0098F3F980709F4FF
:10466000CDC08032910509F4C9C08A30910509F4A2
:10467000C5C08D30910509F4C1C021E0C21AD1082E
:1046800009F4BCC08532910531F5CE018F5F9A4F98
:104690000E94A0097C01019609F468C1CE018F5FD8
:1046A0009A4F0E94A0098F3F980709F45FC1EAE37F
:1046B000EE16F1041CF0F7E0EF1AF1088A339105C9
:1046C0000CF0079734E0EE0CFF1C3A95E1F7FF245D
:1046D0008F7099278E29F50181935F01B9CF65E825
:1046E0007BE0CE018F5F9A4F0E94A721882319F0AB
:1046F00082E090E09BCF6FE77BE0CE018F5F9A4F27
:104700000E94A721882319F083E090E08FCF6AE709
:104710007BE0CE018F5F9A4F0E94A721882319F07A
:1047200084E090E083CF62E77BE0CE018F5F9A4F19
:104730000E94A721882319F085E090E077CF6BE6EF
:104740007BE0CE018F5F9A4F0E94A721882319F04A
:1047500086E090E06BCF62E67BE0CE018F5F9A4F00
:104760000E94A721882319F087E090E05FCFCC5505
:10477000DA4F8881C45AD54060E971E0882311F08E
:1047800068E971E0C8010E945C12E091360BF0917B
:10479000370B309729F0B801CE018F5F9A4F1995EA
:1047A000C8010E94280FF80183A98823C9F086A5B3
:1047B000811116C040E150E070E060E08481958195
:1047C0000E94790D67E972E0F801848195810E9469
:1047D000200F67E972E0F801848195810E94200F23
:1047E000E0913C0BF0913D0B309709F4CDC1A281D3
:1047F000B3811C920680F781E02DF6CFF50110827F
:104800001C141D040CF0B2C0CB55DA4FE880F980BF
:10481000C55AD5406FE370E0C7010E947C3841E083
:10482000009709F440E09C01009731F4F7010190F2
:104830000020E9F731979F012E193F09C955DA4F3A
:1048400039832883C75AD540240F311DE20EF31E49
:10485000C056DA4FF982E882C05AD540F70101907C
:104860000020E9F73197EE19FF09CE55DA4FF983A9
:10487000E883C25AD540009711F0FC011082EE2463
:10488000E394F12C67E972E0CE018F5F9A4F0E94AA
:10489000EA21882309F475C08CE2B82E9AE0A92E8B
:1048A00067E972E0CE018F5F9A4F0E94EA21F82EED
:1048B000811199C062E57BE0CE018F5F9A4F0E9423
:1048C000A721882309F4D1C0CE018F5F9A4F0E949F
:1048D000250AE82E882309F43FC0CE018F5F9A4F46
:1048E0000E94A0098F3F9807B9F1D12C8D32910514
:1048F00049F4CE018F5F9A4F0E94A0098F3F98071D
:1049000059F1DE2CC656DA4F19821882CA59D540A1
:104910009C01205331092A30310508F082C0C65667
:10492000DA4F28813981CA59D540A29EB001A39E91
:10493000700D1124860F971FC097C656DA4F9983C2
:104940008883CA59D540CE018F5F9A4F0E94A00933
:10495000FE2C8F3F9807E1F6CC55DA4F8881C45A78
:10496000D54081110DCF6FEA71E00CCFCC55DA4FF5
:104970008881C45AD5406EE971E0882309F402CFDA
:10498000FFCE6CE47BE0CE018F5F9A4F0E94A7219F
:10499000882339F0CB5EDA4F19821882C551D54091
:1049A00071CF68E47BE0CE018F5F9A4F0E94A72110
:1049B000882339F0CB5EDA4FF982E882C551D540C1
:1049C00061CFCE018F5F9A4F0E94A009019609F036
:1049D00059CFCC55DA4F8881C45AD5408111D0CEF9
:1049E00069EF71E0CFCE81E0C756DA4F8883C959AD
:1049F000D54030E020E0A801BE016F5F7A4F8AE326
:104A00009BE00E94D920F80181A992A9892B09F481
:104A1000A0C0F80183A98111B8CEC8010E94B70FC8
:104A2000B4CE682FCE018F5F9A4F0E940E0ADD2010
:104A300079F0C656DA4F88819981CA59D540919547
:104A400081959109C656DA4F99838883CA59D54012
:104A5000FF2009F481CF67E972E0CE018F5F9A4FA2
:104A60000E94EA2181111CCF77CFC256DA4FE8802D
:104A7000F980CE59D540E114F10409F459C0F70189
:104A800060817181CE018F5F9A4F0E94EA2181116E
:104A900004C0F701E680F780EECF60E57BE0CE0151
:104AA0008F5F9A4F0E94A721882399F3F701C48052
:104AB000D580E280F380F7018081882369F001903E
:104AC0000020E9F73197CF018E199F09B082019636
:104AD000E80EF91EC81AD90ACE018F5F9A4F0E94BC
:104AE000250A882309F438CFCE018F5F9A4F0E94A0
:104AF000A0098F3F980709F42FCF21E0C21AD108EF
:104B00001C141D042CF4F7018083C70101967C015D
:104B100067E972E0CE018F5F9A4F0E94EA218823F5
:104B200019F3F70110821C141D040CF4B9CE14CF34
:104B300067E972E0CE018F5F9A4F0E94EA218111EE
:104B4000AFCECE018F5F9A4F0E94A009019681F7E8
:104B500003CF84AD81115DCF8091380B9091390BDB
:104B6000892B19F464E971E00DCE64E971E0C801A4
:104B70000E942A12E091380BF091390BB801CE0156
:104B80008F5F9A4F199501CEC151DA4F0FB6F89445
:104B9000DEBF0FBECDBFDF91CF911F910F91FF9070
:104BA000EF90DF90CF90BF90AF9008951F920F923B
:104BB0000FB60F9211242F933F938F939F93AF9330
:104BC000BF938091190990911A09A0911B09B09186
:104BD0001C093091180923E0230F2D3758F5019651
:104BE000A11DB11D209318098093190990931A09EA
:104BF000A0931B09B0931C0980911D0990911E0977
:104C0000A0911F09B09120090196A11DB11D8093AB
:104C10001D0990931E09A0931F09B0932009BF910D
:104C2000AF919F918F913F912F910F900FBE0F9059
:104C30001F90189526E8230F0296A11DB11DD2CF13
:104C40001F920F920FB60F9211240BB60F922F9353
:104C50003F934F935F936F937F938F939F93AF9304
:104C6000BF93EF93FF9381E299E00E94B008FF9118
:104C7000EF91BF91AF919F918F917F916F915F91D4
:104C80004F913F912F910F900BBE0F900FBE0F9041
:104C90001F9018951F920F920FB60F9211240BB60A
:104CA0000F922F938F939F93EF93FF93E09131098E
:104CB000F09132098081E0913709F091380982FD45
:104CC0001DC0908180913A098F5F8F7320913B09BD
:104CD000821741F0E0913A09F0E0EF5DF64F958FD1
:104CE00080933A09FF91EF919F918F912F910F90AF
:104CF0000BBE0F900FBE0F901F9018958081F2CFC2
:104D00001F920F920FB60F9211240BB60F922F9392
:104D10003F934F935F936F937F938F939F93AF9343
:104D2000BF93EF93FF938EEB99E00E94B008FF9141
:104D3000EF91BF91AF919F918F917F916F915F9113
:104D40004F913F912F910F900BBE0F900FBE0F9080
:104D50001F9018951F920F920FB60F9211240BB649
:104D60000F922F938F939F93EF93FF93E091CE0930
:104D7000F091CF098081E091D409F091D50982FDAD
:104D80001DC090818091D7098F5F8F732091D809C2
:104D9000821741F0E091D709F0E0E254F64F958F89
:104DA0008093D709FF91EF919F918F912F910F9051
:104DB0000BBE0F900FBE0F901F9018958081F2CF01
:104DC000E1E2F9E01382128248EE53E060E070E025
:104DD000448355836683778381E792E09183808360
:104DE00025E331E03587248724E331E037872687C0
:104DF00020E331E0318B208B21E331E0338B228BB8
:104E000022E331E0358B248B26E331E0378B268B90
:104E1000118E128E138E148EEEEBF9E01382128235
:104E200044835583668377839183808385EC90E008
:104E30009587848784EC90E09787868780EC90E064
:104E4000918B808B81EC90E0938B828B82EC90E055
:104E5000958B848B86EC90E0978B868B118E128ECF
:104E6000138E148EEBE5FAE089E892E0918380835B
:104E70001282138214821582E7ECFAE09183808318
:104E800012821382148215821092A50A1092A60A29
:104E90001092A70A1092A80A1092AA0A1092A90AC0
:104EA0001092AD0A1092AF0A1092AE0A1092B20A96
:104EB0001092B40A1092B30A1092B70A1092B90A6B
:104EC0001092B80A1092BC0A1092BE0A1092BD0A43
:104ED00021E030E03093C20A2093C10AEDECFAE001
:104EE000918380831282138214821582E3EDFAE0AB
:104EF000918380831282138214821582E3EEFAE09A
:104F0000918380831282138214821582E9EDFAE084
:104F100011821082138212821582148217821682E5
:104F200011861086E9EEFAE0918380831282138263
:104F300014821582E7EFFAE0918380831282138254
:104F4000148215822FEF2093EF0AE7E4FBE09183B0
:104F500080831282138214821582E2E4FBE083E8EC
:104F600092E09183808380E590E093838283148232
:104F7000E6E3FBE011821082138212821582148212
:104F8000178216824087518762877387A3E2BBE04E
:104F90008CE115968C9315978BE016968C9316974B
:104FA000E4EFF6E0E4911796EC931797EEEAF6E05B
:104FB000E4911896EC93189740E85EE360E070E0A7
:104FC0001D964D935D936D937C935097A0E1BBE04C
:104FD00094E215969C93159716968C931697ECEF82
:104FE000F6E0E4911796EC931797E6EBF6E0E49180
:104FF0001896EC9318971D964D935D936D937C9343
:105000005097ADEFBAE09CE215969C9315971696D3
:105010008C931697E4E0F7E0E4911796EC931797DA
:10502000EEEBF6E0E4911896EC9318971D964D93ED
:105030005D936D937C9350970895CF93DF93CDB795
:10504000DEB7C855D1090FB6F894DEBF0FBECDBF8D
:10505000789484B5826084BD84B5816084BD85B553
:10506000826085BD85B5816085BD80916E0081605F
:1050700080936E0010928100809181008260809305
:105080008100809181008160809381008091800007
:105090008160809380008091B10084608093B10032
:1050A0008091B00081608093B00080919100826017
:1050B0008093910080919100816080939100809114
:1050C00090008160809390008091A1008260809325
:1050D000A1008091A10081608093A1008091A00037
:1050E00081608093A00080912101826080932101E2
:1050F0008091210181608093210180912001816054
:105100008093200180917A00846080937A0080915E
:105110007A00826080937A0080917A008160809327
:105120007A0080917A00806880937A001092C100A2
:1051300061E08EE20E94BB0661E086E20E94BB064F
:1051400061E08EE10E94BB0661E086E10E94BB0641
:1051500062E087E00E94BB0662E08BE10E94BB0632
:10516000E091CE09F091CF0942E04083E091CA0975
:10517000F091CB091082E091CC09F091CD098FEC30
:1051800080831092D609E091D209F091D30996E07C
:105190009083E091D009F091D10980818061808372
:1051A000E091D009F091D109808188608083E091FD
:1051B000D009F091D109808180688083E091D00985
:1051C000F091D10980818F7D808321E239E0E091E7
:1051D0003109F09132094083E0912D09F0912E09B7
:1051E0001082E0912F09F091300980E180831092C4
:1051F0003909E0913509F09136099083E09133093E
:10520000F0913409808180618083E0913309F091CD
:105210003409808188608083E0913309F0913409FA
:10522000808180688083E0913309F0913409808126
:105230008F7D80833093620A2093610A3093640AE1
:105240002093630A1092C20A1092C10A0E94C714E6
:105250006FE073E08091630A9091640A0E94DC071A
:1052600061E089E093E00E94AD1484E093E00E9445
:10527000D114882309F441C088EF92E00E94D11430
:105280008823D9F187EE92E00E94D1148823A9F1F6
:105290006CED72E08091630A9091640A0E94DC07D1
:1052A00061E084ED92E00E94AD14882331F1809199
:1052B0006D0A80538093A60A0E9461148823E9F046
:1052C0008091A60A8093A70A1092EF0A0E94C71441
:1052D0008091A70A81111FC081E090E09093C20ADB
:1052E0008093C10A8091C10A9091C20A01970297E6
:1052F00090F58FEF8093EF0A2EC08FEF8093EF0A27
:105300008EEB99E00E94D70E64EE75E08EEB99E08B
:105310000E94FC0EFFCF6DE173E08091630A9091D3
:10532000640A0E94DC0761E086E193E00E94AD140C
:105330008823C1F210916C0A10530E9461148823D3
:1053400089F2153028F4123008F474C081E0D2CF0D
:10535000153009F46FC08091EF0A8F3F89F231E078
:105360003093A50A89E892E09DAF8CAF5AE05EAF1A
:1053700020E82FAF43E521964FAF219768E02296B2
:105380006FAF22979A8389836FEF6B836C836D83F2
:105390002E839BA38AA35CA32DA34EA33FA399AB0B
:1053A00088AB5AAB2BAB4CAB3DAB9FAB8EAB2296D5
:1053B0008CAD9DADAEADBFAD229788AF99AFAAAF12
:1053C000BBAF1E0120E3220E311C9E012F5F3F4F19
:1053D000AE014E5D5F4FB101CE01C6960E94E91449
:1053E0008EEB99E00E94D70E6BE076E08EEB99E0B1
:1053F0000E94200F65E272E08EEB99E00E94FC0EA5
:105400000E94C7148091A60A6091A50A81600E943B
:10541000671481111AC082E08093EF0A8091A60A76
:10542000823009F0F5C08EEB99E00E94D70E65E856
:1054300076E06AC08091EF0A813029F0823009F469
:105440008ACF84E057CF83E055CF8091630A909153
:10545000640A2091A50A6AE473E0211102C06DE399
:1054600073E00E94DC076AE373E08091630A909125
:10547000640A0E94DC0765E272E08091630A909101
:10548000640A0E94200F64EF75E08091630A909196
:10549000640A0E94DC076AE072E08091630A9091DE
:1054A000640A0E94200F62E28091630A9091640A6C
:1054B0000E94C7078091630A9091640A0E94D70EE8
:1054C0000E946114882309F4A6CF8091A50A811156
:1054D0009AC081E08093EF0A8EEB99E00E94D70E8C
:1054E0006BE276E08EEB99E00E94FC0E66E476E0DB
:1054F0008EEB99E00E94200F6EEB79E0CE01CC9606
:105500000E94B30D6BE676E08EEB99E00E94FC0EF4
:1055100083E29BE00E945A0780E19BE00E945A07C9
:105520008DEF9AE00E945A0769E47EE189E696E0F1
:105530000E943C1B6CE07FE188EA96E00E943C1BE5
:105540000091440B1091450B0E94C71467EC73E067
:105550008091630A9091640A0E94DC072AE041E08E
:1055600050E060E070E08091630A9091640A0E94CC
:10557000270D8091630A9091640A0E94D70E0E94C1
:105580006114811167C080E08093460B09E812E046
:105590000E944E072D966CAF7DAF8EAF9FAF2D97BB
:1055A0008091460B8823F1F00E94C71481E69AE0AF
:1055B000F12CE12CFC01E95BFF4F2081322F35708B
:1055C000353041F42A7031F4319620813181232B1A
:1055D00009F073C0AFEFEA1AFA0A0596B5E0EB16C8
:1055E000F10441F71DA21CA288EE93E0A0E0B0E018
:1055F0008EA39FA3A8A7B9A7A5E3B2E0BBA3AAA3C4
:105600001FA61EA678C08AE293E00E94D11461CF43
:105610008091A50A8823B9F08CE993E00E94D11407
:105620008CE893E00E94D1148EE793E00E94D1149D
:1056300083E593E00E94D114882309F4F4CE84E03A
:105640008093EF0AF0CE8EE693E00E94D1148CE5B1
:1056500093E0ECCF67EB73E08091630A9091640A6A
:105660000E94DC07B8018091630A9091640A0E944D
:10567000730D8091630A9091640A0E94D70E0E9474
:105680006114882309F47FCF6CEA73E08091630A88
:105690009091640A0E94DC076CE370E08091630AD9
:1056A0009091640A0E94730D8091630A9091640A3C
:1056B0000E94D70E0E94611467CF6091440B7091D5
:1056C000450B1DA21CA288EE93E0A0E0B0E08EA3E3
:1056D0009FA3A8A7B9A7A5E3B2E0BBA3AAA31FA64F
:1056E0001EA68E2D0E946F1B9FA78EA7892B19F4D3
:1056F0008E2D0E94D915CE0182960E94CA1688234B
:1057000041F0CE0182960E942B22CE0182960E9409
:1057100013160E944E07AB01BC01809114099091B1
:105720001509A0911609B09117098856954CAF4FED
:10573000BF4F481759076A077B0708F418C28CEB5C
:1057400094E00E94EB0E8EEB99E00E94D70E83E26C
:105750009BE00E94BF0C2B013C014092F808509244
:10576000F9086092FA087092FB0883E29BE00E94BD
:10577000440C4B015C018092000990920109A092B7
:105780000209B092030980E19BE00E94BF0C619680
:105790006CAF7DAF8EAF9FAF61976093F40870934D
:1057A000F5088093F6089093F70880E19BE00E944B
:1057B000440C65966CAF7DAF8EAF9FAF65976093DD
:1057C000FC087093FD088093FE089093FF088DEF0E
:1057D0009AE00E94BF0C69966CAF7DAF8EAF9FAF11
:1057E0006997609304097093050980930609909363
:1057F00007098DEF9AE00E94440C6B017C01C09276
:105800000809D0920909E0920A09F0920B09A30154
:105810009201C301B2010E946036811109C0A50145
:105820009401C501B4010E946036882309F4DAC1ED
:1058300061EB76E08EEB99E00E94FC0E87E00E941F
:10584000640690930302809302028BE10E94640637
:1058500090930102809300028EE20E94640690936E
:10586000F3088093F20886E20E9464069093F108A0
:105870008093F0088EE10E9464069093EF08809375
:10588000EE0886E10E9464069093ED088093EC0890
:10589000F10126E011922A95E9F71CAE1EAA1FAA73
:1058A00018AE19AE9E012A5C3F4FAE01445C5F4FBB
:1058B000B101CE0101960E94CD1A64E276E08EEB32
:1058C00099E00E94200FBE016F5F7F4F8EEB99E041
:1058D0000E94FC0E24961FAF0EAF249728961CAE94
:1058E0001DAE1EAE1FAE28971FAB0EAB18AE19AE85
:1058F0001AAE1BAE19AB08AB1AAA1BAA1CAA1DAA8A
:10590000A101BE016A5C7F4FCE018E5B9F4F0E945A
:105910000F1760E277E08EEB99E00E94200FCE0136
:105920008E5B9F4F0E94DB0E1FAB0EAB18AE19AE05
:105930001AAE1BAE1DAF0CAF22961CAE1DAE1EAE36
:105940001FAE229719AB08AB1AAA1BAA1CAA1DAA44
:10595000A101BE01645C7F4FCE01C6960E940F1765
:105960006DE277E08EEB99E00E94200FCE01CC969D
:105970000E94DB0ED101E6E01D92EA95E9F7299637
:105980001FAE29971EAA1FAA18AE19AE9E012A5C47
:105990003F4FAE01485B5F4FB10190E080E00E9455
:1059A000CD1ACEA8DFA8E8ACF9AC67E377E08EEBC0
:1059B00099E00E94200F2AE0B701A601F7FE0DC072
:1059C0006DE28EEB99E00E94C70744275527BA0184
:1059D0004C195D096E097F092AE08EEB99E00E945F
:1059E000270D6FE477E08EEB99E00E94FC0E64E5F2
:1059F00077E08EEB99E00E94200F6091F80870919B
:105A0000F9088091FA089091FB0842E00E94F90D94
:105A100069E677E08EEB99E00E94200F6DE677E073
:105A20008EEB99E00E94200F6091000970910109AE
:105A3000809102099091030942E00E94F90D65E806
:105A400077E08EEB99E00E94FC0E69E877E08EEB40
:105A500099E00E94200F6091F4087091F508809100
:105A6000F6089091F70842E00E94F90D69E677E0A8
:105A70008EEB99E00E94200F6FE977E08EEB99E0C2
:105A80000E94200F6091FC087091FD088091FE0833
:105A90009091FF0842E00E94F90D65E877E08EEBF7
:105AA00099E00E94FC0E68EB77E08EEB99E00E9493
:105AB000200F609104097091050980910609909169
:105AC000070942E00E94F90D69E677E08EEB99E064
:105AD0000E94200F6CEC77E08EEB99E00E94200F83
