:100000000C94D4050C9405060C9405060C94050676
:100010000C9405060C9405060C9405060C94050634
:100020000C9405060C9405060C9405060C94050624
:100030000C9405060C9405060C9405060C94050614
:100040000C9405060C9405060C9405060C94050604
:100050000C9405060C9405060C9405060C94D22706
:100060000C9405060C94A6280C947C280C94050688
:100070000C9405060C9405060C9405060C940506D4
:100080000C9405060C9405060C9405060C940506C4
:100090000C9405060C9405060C9405060C940506B4
:1000A0000C9405060C9405060C9405060C940506A4
:1000B0000C9405060C9405060C9405060C94050694
:1000C0000C9405060C9405060C9405060C94050684
:1000D0000C9405060C9405060C9446280C941C28D8
:1000E0000C9405060C94471B0C9433060C9458068C
:1000F0000C9420190C94DC080C94620A0C944406AD
:100100000C9466060C94FC0A0C94840F0C94641BEB
:100110000C9452060C9408100C94F0300C94D01DE2
:100120000C945C060C9460060C9425060C94F01F4D
:100130000C9469080C948C080C946A060C94B90908
:100140000C944E060C942D1F0C94A5190C94DC28CD
:100150000C943A060C9478080C94BD210C94CD0DA7
:100160000C9418190C943D1B0C940A080C942F063F
:100170000C948B1B0C942B060C9437060C94F20AEF
:100180000C94C4090C9492170C940D0B0C945D1DE7
:100190000C94480A0C9465060C949A080C94DB168F
:1001A0000C94970A0C946D0A0C9429090C944A0635
:1001B0000C94040B0C94400600407A10F35A00A0F3
:1001C000724E18090010A5D4E80000E87648170020
:1001D00000E40B54020000CA9A3B000000E1F50560
:1001E000000080969800000040420F000000A086AA
:1001F00001000000102700000000E80300000000DC
:100200006400000000000A0000000000010000007F
:1002100000002C76D888DC674F0823DFC1DFAE5999
:10022000E1B1B796E5E3E453C63AE651997696E82C
:10023000E6C28426EB898C9B62ED407C6FFCEFBCB0
:100240009C9F40F2BAA56FA5F490055A2AF75C93DB
:100250006B6CF9676DC11BFCE0E40D47FEF520E611
:10026000B500D0ED902E0300943577050080841EF4
:10027000080000204E0A000000C80C333333330F4F
:10028000986E12831141EF8D2114893BE65516CFEC
:10029000FEE6DB18D1844B381BF77C1D901DA4BBF8
:1002A000E424203284725E228100C9F124ECA1E5AD
:1002B0003D27526F6F6D20696E2046726565204341
:1002C0006F6F6C696E67204D6F646500202A432054
:1002D0002D20526F6F6D20696E20506173736976A7
:1002E0006520436F6F6C696E67204D6F64650020F9
:1002F0002A43202D20526F6F6D20696E20414320CC
:10030000436F6F6C696E67204D6F64650020252018
:100310002D20526F6F6D20696E20414320436F6F17
:100320006C696E67204D6F646500202A43202D2084
:10033000526F6F6D20696E20414320436F6F6C696F
:100340006E67204D6F6465002B43495052454356FC
:100350004C454E0041542B434950524543564C4561
:100360004E3F002B434950535441545553002B43A7
:10037000574D4F44450041542B43574D4F44453F43
:100380000041542B434950524543564D4F44453D3F
:10039000310041542B4349504D55583D3100415493
:1003A00045300072656164790041542B525354000A
:1003B0005354415455530041542B434950535441D5
:1003C0005455530041542B43574155544F434F4EBE
:1003D0004E3D0041542B43574155544F434F4E4ED1
:1003E0003D31003D220041542B43574A41505F4369
:1003F00055520041542B43574A41500041542B431E
:10040000575141500041542B4357444843505F4398
:1004100055523D312C310041542B434950444E53E9
:100420005F4355523D300041542B4357444843509D
:100430003D312C310041542B434950444E535F44CD
:1004400045463D300041542B43574155544F434F8F
:100450004E4E3D300041542B43495053544F3D00C4
:1004600041542B4349505345525645523D312C007F
:1004700041542B4349505345525645524D415843E0
:100480004F4E4E3D002D2D2D2D2D2D2D2D2D2D2D55
:100490002D2D2D2D2D2D2D2D2D2D2D2D2D2D2D2D8C
:1004A0002D2D2D2D2D2D2D2D2D002D2D2D2D2D2DA9
:1004B0002D2D2D2D2D2D2D2D2D2D2D2D2D2D2D2D6C
:1004C0002D2D2D2D2D2D2D2D2D2D2D2D2D2D002D89
:1004D0002D2D2D2D2D2D2D2D2D2D2D2D2D2D2D2D4C
:1004E0002D2D2D2D2D2D2D2D2D2D2D2D2D2D2D2D3C
:1004F0002D2D2D0000002100240027002A002D00B2
:100500003000330001010000040107010A0100006E
:100510002200250028002B002E00310034000201AB
:100520000000050108010B01000020002300260047
:1005300029002C002F0032000001000003010601F9
:10054000090100000A0B02090C0D0E080703040143
:10055000000000000000000000000000000000009B
:100560000000000000000000000000000000121168
:10057000100000000000000000000000000000006B
:100580000000000000000000222C002C220041543A
:100590002B43495053544152543D002B4349505230
:1005A000454356444154410041542B434950524520
:1005B0004356444154413D0053454E44200052654A
:1005C000637620003E00222C002C220041542B4355
:1005D000495053454E443D0041542B434950434CF0
:1005E0004F53453D00312C220041542B4349504488
:1005F0004E535F4355523D0041542B434950444EA6
:10060000535F4445463D00222C220041542B434970
:10061000505354415F4355523D220041542B4349AE
:10062000505354413D220041542B43574D4F4445B4
:100630005F4355523D0041542B43574D4F44453D78
:10064000002B4349505354410041542B43495053CC
:1006500054413F002B43574A41500041542B4357CC
:100660004A41503F004F4B00554E4C494E4B004EB7
:100670006F204150004641494C004552524F5200B4
:100680002C434F4E4E454354204641494C002C4389
:100690004C4F534544002C434F4E4E454354002B82
:1006A0004950442C000505050507050808080802FF
:1006B0000202020A0A0808040404040101010101FB
:1006C0000101010303030303030303040707070CEA
:1006D0000C0C0C0C0C0C0C020202020606060606A0
:1006E0000606060B0B0B0B0B0B0B0B01021020204D
:1006F0000808102040102040800201020108040276
:1007000001010204081020408080402010080402EB
:100710000180040201804020100804020108040244
:10072000010102040810204080010204081020404A
:10073000803A20006B6565702D616C6976650043B9
:100740006F6E6E656374696F6E00436F6E74656E75
:10075000742D4C656E67746800436F6E74656E74BB
:100760002D54797065004E6574776F726B204175FA
:100770007468656E7469636174696F6E2052657127
:100780007569726564004E6F7420457874656E6497
:100790006564004C6F6F70204465746563746564B4
:1007A00000496E73756666696369656E742053747B
:1007B0006F726167650056617269616E7420416C89
:1007C000736F204E65676F74696174657300485478
:1007D00054502056657273696F6E204E6F742053AB
:1007E0007570706F727465640047617465776179C4
:1007F0002054696D656F7574005365727669636521
:1008000020556E617661696C61626C65004261645D
:100810002047617465776179004E6F7420496D706F
:100820006C656D656E74656400496E7465726E61A9
:100830006C20536572766572204572726F72005536
:100840006E617661696C61626C6520466F72204CE6
:100850006567616C20526561736F6E7300526571DC
:100860007565737420486561646572204669656CBE
:10087000647320546F6F204C6172676500546F6F12
:10088000204D616E792052657175657374730050E7
:100890007265636F6E646974696F6E2052657175FD
:1008A0006972656400557067726164652052657194
:1008B000756972656400546F6F204561726C7900D0
:1008C0004661696C656420446570656E64656E633D
:1008D00079004C6F636B656400556E70726F636571
:1008E000737361626C6520456E74697479004D693B
:1008F00073646972656374656420526571756573AC
:1009000074004578706563746174696F6E20466128
:10091000696C65640052616E6765204E6F74205388
:1009200061746973666961626C6500556E73757098
:10093000706F72746564204D6564696120547970CC
:10094000650055524920546F6F204C6F6E67005000
:1009500061796C6F616420546F6F204C61726765C0
:1009600000507265636F6E646974696F6E204661D2
:10097000696C6564004C656E6774682052657175BA
:100980006972656400476F6E6500436F6E666C69DF
:10099000637400526571756573742054696D656F79
:1009A00075740050726F78792041757468656E7443
:1009B00069636174696F6E205265717569726564EF
:1009C000004E6F742041636365707461626C6500F2
:1009D0004D6574686F64204E6F7420416C6C6F7746
:1009E0006564004E6F7420466F756E6400466F72CA
:1009F00062696464656E005061796D656E74205241
:100A00006571756972656400556E617574686F72A1
:100A1000697A65640042616420526571756573741A
:100A2000005065726D616E656E7420526564697206
:100A30006563740054656D706F72617279205265E0
:100A40006469726563740028556E75736564290066
:100A50005573652050726F7879004E6F74204D6F1A
:100A600064696669656400536565204F74686572E2
:100A700000466F756E64004D6F7665642050657238
:100A80006D616E656E746C79004D756C7469706C17
:100A9000652043686F6963657300494D2055736530
:100AA0006400416C7265616479205265706F727484
:100AB0006564004D756C74692D53746174757300B1
:100AC0005061727469616C20436F6E74656E74005E
:100AD000526573657420436F6E74656E74004E6F5B
:100AE00020436F6E74656E74004E6F6E2D41757489
:100AF000686F726974617469766520496E666F7299
:100B00006D6174696F6E0041636365707465640044
:100B100043726561746564004F4B004561726C7986
:100B20002048696E74730050726F63657373696EE9
:100B30006700537769746368696E672050726F74D9
:100B40006F636F6C7300436F6E74696E7565002020
:100B500000485454502F312E312000312E310031B5
:100B60002E30003A00436F6E74656E742D4C656EC6
:100B70006774683A004F5054494F4E53200050411B
:100B8000544348200044454C45544520005055549A
:100B90002000504F53542000484541442000474511
:100BA00054200000DC28F03011241FBECFEFD1E22A
:100BB000DEBFCDBF00E00CBF2DE0ACE3BBE001C069
:100BC0001D92AB3AB207E1F71BE0A0E0B2E0EEE223
:100BD000F5E700E00BBF02C007900D92AC33B10700
:100BE000D9F715E0C3EDD5E000E006C02197010973
:100BF000802FFE010E941437C23DD10780E0080714
:100C0000A9F70E941E2A0C94853A0C94000081508A
:100C1000823108F05AC0E82FF0E08827ED5EF94FE6
:100C20008F4F0C9414373306370625062B062F06F4
:100C300065063A06400644064A064E06520658061F
:100C40005C066506600666066A06809180008F77FE
:100C5000809380000895809180008F7DF9CF8091EE
:100C60008000877FF5CF84B58F7784BD089584B5E4
:100C70008F7DFBCF8091B0008F778093B000089577
:100C80008091B0008F7DF9CF809190008F77809315
:100C900090000895809190008F7DF9CF8091900011
:100CA000877FF5CF8091A0008F778093A000089573
:100CB0008091A0008F7DF9CF8091A000877FF5CF34
:100CC000809120018F7780932001089580912001E9
:100CD0008F7DF9CF80912001877FF5CFCF93DF9370
:100CE000282F30E0F901EE5BFA4F8491F901E551CC
:100CF000F94FD491F901EB55F94FC491CC23A1F0F0
:100D000081110E940706EC2FF0E0EE0FFF1FE85D57
:100D1000FA4FA591B491EC91ED2381E090E009F4B4
:100D200080E0DF91CF91089580E090E0FACF1F93AB
:100D3000CF93DF93282F30E0F901EE5BFA4F8491D7
:100D4000F901E551F94FD491F901EB55F94FC491EF
:100D5000CC23A9F0162F81110E940706EC2FF0E09A
:100D6000EE0FFF1FE25FFA4FA591B4918FB7F89491
:100D7000EC91111108C0D095DE23DC938FBFDF9179
:100D8000CF911F910895DE2BF8CFCF93DF9390E0A2
:100D9000FC01E551F94F24918B55994FFC01849149
:100DA0008823C9F090E0880F991FFC01EC50FB4F9D
:100DB000A591B491FC01E25FFA4FC591D491611104
:100DC0000DC09FB7F8948C91209582238C938881D5
:100DD000282328839FBFDF91CF910895623051F47B
:100DE0009FB7F8943C91822F809583238C93E88160
:100DF0002E2BEFCF8FB7F894EC912E2B2C938FBF27
:100E0000EACF3FB7F89480916D0B90916E0BA09153
:100E10006F0BB091700B26B5A89B05C02F3F19F042
:100E20000196A11DB11D3FBFBA2FA92F982F88276A
:100E3000BC01CD01620F711D811D911D42E0660F45
:100E4000771F881F991F4A95D1F708958F929F9217
:100E5000AF92BF92CF92DF92EF92FF924B015C0173
:100E60000E9401076B017C010E9401076C197D093A
:100E70008E099F09683E734081059105A8F321E022
:100E8000821A9108A108B10888EEC80E83E0D81E26
:100E9000E11CF11C81149104A104B10429F7FF9015
:100EA000EF90DF90CF90BF90AF909F908F9008957C
:100EB0002FB7F8946091690B70916A0B80916B0B5E
:100EC00090916C0B2FBF0895CF93DF93EC0162E0FC
:100ED0008D810E94C5060E945807605D7740810998
:100EE000910969877A878B879C8787E38A8BDF9153
:100EF000CF9108950F931F93CF93DF93EC010E943E
:100F00005807688779878A879B87E881F9810284F7
:100F1000F385E02DCE01199597FF15C00E94580763
:100F2000088519852A853B85601B710B820B930B05
:100F30000C811D812E813F81601771078207930705
:100F400020F38FEF9FEFDF91CF911F910F910895C5
:100F5000AF92BF92CF92DF92EF92FF920F931F93C7
:100F6000CF93DF935C017B018B01040F151FEB0115
:100F70006E01CE18DF08C017D10739F0C5010E94F5
:100F80007A0797FD02C08993F3CFC601DF91CF9115
:100F90001F910F91FF90EF90DF90CF90BF90AF9097
:100FA0000895DC01ED91FC910190F081E02D199400
:100FB000DB0114964D915C9115976D917C91DC014C
:100FC000ED91FC910280F381E02D1994EF92FF9254
:100FD0000F931F93CF93DF938C017B01D0E0C0E090
:100FE000F701EC0FFD1F6491662361F0D801ED91CC
:100FF000FC910190F081E02DC8011995892B11F029
:101000002196EECFCE01DF91CF911F910F91FF90EE
:10101000EF900895AF92BF92CF92DF92EF92FF923E
:101020000F931F93CF93DF936C017B018B01040F10
:10103000151FEB015E01AE18BF08C017D10759F0AC
:101040006991D601ED91FC910190F081E02DC601EE
:101050001995892B79F7C501DF91CF911F910F91D8
:10106000FF90EF90DF90CF90BF90AF900895DC019C
:1010700090E030E020E08AE0FB014191BF01442391
:1010800011F150ED540F5A3090F4829FF001839F7C
:10109000F00D11249F0120533109240F311D47FD0C
:1010A0003A952F3F310541F338F380E008954E32F1
:1010B000E1F79330D1F3FD01E90FF11D22839F5F2A
:1010C00030E020E0D9CF933081F715962C9381E062
:1010D0000895FC01538D448D252F30E0842F90E03E
:1010E000821B930B541710F0CF9608950197089523
:1010F000FC01918D828D981761F0A28DAE0FBF2FEC
:10110000B11D5D968C91928D9F5F9F73928F90E041
:1011100008958FEF9FEF0895FC01918D828D9817B0
:1011200031F0828DE80FF11D858D90E008958FEFED
:101130009FEF0895FC01918D228D892F90E0805CB6
:101140009F4F821B91098F739927089581E79BE038
:101150000E949A0821E0892B09F420E0822F08954B
:101160008EE09CE00E949A0821E0892B09F420E09F
:10117000822F0895FC01A48DA80FB92FB11DA35A89
:10118000BF4F2C91848D90E001968F739927848FA7
:10119000A689B7892C93A089B1898C9183708064CA
:1011A0008C93938D848D981306C00288F389E02D6B
:1011B00080818F7D80830895EF92FF920F931F931C
:1011C000CF93DF93EC0181E0888F9B8D8C8D9813FA
:1011D0001AC0E889F989808185FF15C09FB7F89406
:1011E000EE89FF896083E889F98980818370806452
:1011F00080839FBF81E090E0DF91CF911F910F919D
:10120000FF90EF900895F62E0B8D10E00F5F1F4FAB
:101210000F731127E02E8C8D8E110CC00FB607FCBA
:10122000FACFE889F989808185FFF5CFCE010E9448
:10123000BA08F1CFEB8DEC0FFD2FF11DE35AFF4FF4
:10124000F0829FB7F8940B8FEA89FB8980818062D6
:10125000CFCFCF93DF93EC01888D8823B9F0AA8993
:10126000BB89E889F9898C9185FD03C0808186FD61
:101270000DC00FB607FCF7CF8C9185FFF2CF8081B0
:1012800085FFEDCFCE010E94BA08E9CFDF91CF9163
:10129000089580E090E0892B29F00E94B008811128
:1012A0000E94000080E090E0892B49F080E090E00F
:1012B000892B29F00E94000081110E94000080E02B
:1012C00090E0892B49F080E090E0892B29F00E9482
:1012D000000081110E94000080E090E0892B29F03D
:1012E0000E94A60881110C9400000895FB01DC0106
:1012F00080E29D91492F092E000C550B992391F006
:101300002491222379F024912417150649F0649141
:10131000292F2827022E000C330B6217130611F415
:101320003196E7CF84918417150671F0E491892FE7
:101330008062082E000C990BE062E817190639F05C
:1013400034F08FEF9FEF089590E080E0089581E002
:1013500090E00895CF93DF93EC010E947A078F3FCE
:10136000980721F4CD55DF4F21E02883DF91CF91FD
:101370000895DC0150968D919C91DC01ED91FC91DA
:101380000190F081E02D19940F931F93CF93DF9379
:10139000FC01EA56FF4F20813181121613067CF4BE
:1013A0002150310931832083820F931FDC0156962F
:1013B0008C9190E0DF91CF911F910F9108958C0156
:1013C00008561F4FF8012081222379F031962081A1
:1013D0003181232B51F4DC0114961D921D921D9234
:1013E0001C9217978FEF9FEFE5CFEC018E859F85BD
:1013F000DC01ED91FC910284F385E02D19958F3F7E
:101400009807C1F2F8012081222349F0FE01E75636
:10141000FF4F208131812150310931832083C5560E
:10142000DF4F288139812F5F3F4F39832883C2CF17
:10143000FC01EA56FF4F408151819A012F5F3F4FD7
:1014400031832083840F951FDC0156966C932038DE
:10145000310521F48FE790E0918380830895CF9345
:10146000DF93EC01CE010E94AA098F3F980761F03B
:1014700080329105B9F389309105A1F3682FCE012F
:101480000E94180A81E001C080E0DF91CF910895A9
:101490000F931F93CF93DF938C01DC01ED91FC91AF
:1014A0000284F385E02D1995EC018F3F980721F018
:1014B000682FC8010E94180ACE01DF91CF911F91B9
:1014C0000F910895DC0150968D919C91DC01ED9176
:1014D000FC910680F781E02D1994CF93DF93EC0106
:1014E0008E859F85DC01ED91FC910084F185E02DD6
:1014F0001995DE01A756BF4FFE01EA56FF4F2D9109
:101500003C9140815181240F351F821793075CF471
:101510008E859F85DC01ED91FC910084F185E02DA5
:10152000DF91CF911994C901DF91CF910895DC012A
:1015300050968D919C91DC01ED91FC910480F58198
:10154000E02D1994EF92FF920F931F93CF93DF93A7
:10155000FC0126A937A92A303105ECF57A018B0167
:10156000EC01F901EE0FFF1FEE0FFF1FEC0FFD1F47
:1015700077836683F9013296EE0FFF1FEE0FFF1F90
:10158000EC0FFD1F518340832F5F3F4F3FAB2EABCE
:1015900069E577E0C8010E947609892B11F481E0A2
:1015A0008FA76AE477E0C8010E947609892B11F4BD
:1015B00081E08EA76FE377E0C8010E947609892B4E
:1015C00051F464E377E0C7010E94760921E0892B9A
:1015D00009F020E028ABDF91CF911F910F91FF9090
:1015E000EF9008958F5B9F4FFC01208131818FEF39
:1015F00093E0821B930B089521E0FC01848181110B
:1016000001C020E0822F089521E0FC0184859585AA
:10161000892B09F420E0822F089590E080E008955E
:10162000CF92DF92EF92FF92CF93DF93DC01179678
:10163000CC911797D0E06111DC2F18962C91189758
:1016400030E0220F331F285D3A4F50E040E0F901AF
:1016500085919491FC01F080BA0190E080E0EF2D3B
:10166000EC23ED1310C04F5F5F4F1D96CD90DD90C2
:10167000ED90FC9050976C157D058E059F0538F315
:101680006FEF7FEFCB01DF91CF91FF90EF90DF9075
:10169000CF9008958F929F92AF92BF92CF92DF9298
:1016A000EF92FF920F931F93CF93DF93CDB7DEB7E7
:1016B000C054D1400FB6F894DEBF0FBECDBF8C0131
:1016C0000E945807F801C184D284E384F4849B010A
:1016D000AC012C193D094E095F0969017A0130ED11
:1016E000C31637E0D306E104F104A8F48189C05C95
:1016F000DE4F0FB6F894DEBF0FBECDBFDF91CF91A6
:101700001F910F91FF90EF90DF90CF90BF90AF901F
:101710009F908F9008956187728783879487148242
:10172000138212821182108262E085810E94C506B6
:1017300061E070E080E090E00E94260761E0F8013F
:1017400085810E94C50660E0F80185810E949706A8
:10175000F80186818551823028F58BE291E101976D
:10176000F1F762E0F80185810E94C506F8018289DF
:1017700090E08230910538F0880F991F880F991FEB
:1017800005970197F1F7F89460E0C8010E94100BEB
:101790006F3F7F4F8F4F9F4F61F4F801118A78940C
:1017A00080E0A5CF64E170E080E090E00E94260731
:1017B000D8CF61E0C8010E94100B6F3F7F4F8F4F61
:1017C0009F4F59F39E012F5F3F4F79015E013FEB21
:1017D000A31A3EEFB30A670160E0C8010E94100B34
:1017E000F601608371838283938361E0C8010E9464
:1017F000100BF6016483758386839783F8E0CF0E20
:10180000D11CCA14DB0441F7789430E020E0F701E2
:1018100080809180A280B3804481558166817781E8
:10182000FFEF8F169F06AF06BF0631F04F3F8FEFD9
:1018300058076807780719F4F801118AB1CFF90140
:1018400083E0F595E7958A95E1F7E00FF11F808138
:10185000880F84169506A606B706F0F080832F5FE2
:101860003F4FF8E0EF0EF11C2832310581F6F80108
:10187000448120818181280F3327331F8281280FE3
:10188000311D8381820F932F911D992748171906C7
:1018900099F681E0818B2BCF8160E0CFCF92DF92F0
:1018A000EF92FF921F93CF93DF93EC010E944A0BBC
:1018B000882339F08E818C3009F44DC038F48B3098
:1018C000E1F060E070E080EC9FE73DC08551823040
:1018D000C0F71A81612F70E0762F662766277F7721
:1018E0008B81682B90E080E00E94A9352DEC3CECC8
:1018F0004CEC5DE30E940A3648C06A8170E090E0DB
:1019000080E00E94A9356B017C01CB81C7FF0AC032
:10191000AC019B0160E070E080E89FEB0E941C3707
:101920006B017C01CF706C2F70E090E080E00E9432
:10193000AB352DEC3CEC4CEC5DE30E940A36A70184
:1019400096010E941D37DF91CF911F91FF90EF907C
:10195000DF90CF9008951A81612F70E090E080E0D1
:101960000E94A9356B017C016B816F7070E090E083
:1019700080E00E94AB352DEC3CEC4CEC5DE30E942A
:101980000A36A70196010E941D3717FFDCCF905839
:10199000DACFCF92DF92EF92FF92CF93DF93EC01F9
:1019A0000E944A0B882341F08E818B3028F08D30C5
:1019B00040F08551823030F160E070E080EC9FE7CC
:1019C0001AC0698170E090E080E00E94AB352DEC98
:1019D0003CEC4CEC5DE30E940A366B017C016881B3
:1019E00070E090E080E00E94AB359B01AC01C70144
:1019F000B6010E941D37DF91CF91FF90EF90DF90ED
:101A0000CF9008956881798176276727762790E0BF
:101A100080E00E94A9352DEC3CEC4CEC5DE30E948B
:101A20000A36E9CF61E08EE20E94970661E086E225
:101A30000E94970661E08EE10E94970661E086E1D0
:101A40000C94970660E08EE20E94970660E086E2C2
:101A50000E94970660E08EE10E94970660E086E1B2
:101A60000C949706FB0101900020E9F73197AF0134
:101A7000461B570BDC01ED91FC910280F381E02DB8
:101A800019948F929F92AF92BF92EF92FF920F9311
:101A90001F93CF93DF93CDB7DEB7A1970FB6F8941E
:101AA000DEBF0FBECDBF7C01FA01CB0119A22230EF
:101AB00008F42AE08E010F5D1F4F822E912CB12C6D
:101AC000A12CBF01A50194010E94D836F901CA01D9
:101AD0006A300CF5605DD8016E938D01232B242BA9
:101AE000252B79F790E080E0109721F0BD01C70128
:101AF0000E94320DA1960FB6F894DEBF0FBECDBF87
:101B0000DF91CF911F910F91FF90EF90BF90AF9019
:101B10009F908F900895695CDECFAB0170E060E02C
:101B20002AE00C94410DCF92DF92EF92FF920F9337
:101B30001F93CF93DF936B01770FEE08FF084A30B6
:101B40005105F1F42AE0F7FE1CC0EC016DE20E94A1
:101B5000D1078C0144275527BA014C195D096E093C
:101B60007F092AE0CE010E94410D800F911FDF9175
:101B7000CF911F910F91FF90EF90DF90CF9008953C
:101B8000242FB701A601DF91CF911F910F91FF90F4
:101B9000EF90DF90CF900C94410D8F929F92AF9277
:101BA000BF92CF92DF92EF92FF920F931F93CF934A
:101BB000DF937C018B016C0182E0C80ED11C4701D0
:101BC000E5E08E0E911CD0E0C0E0F60141916F017E
:101BD00050E070E060E02AE0C8010E94410D5C0125
:101BE0006EE2C8010E94D1078A0D9B1DC80FD91F44
:101BF000C814D90451F7F701458150E070E060E066
:101C00002AE0C8010E94410D8C0F9D1FDF91CF91EA
:101C10001F910F91FF90EF90DF90CF90BF90AF900A
:101C20009F908F9008954F925F926F927F928F92C4
:101C30009F92AF92BF92CF92DF92EF92FF920F935B
:101C40001F93CF936B017C01742EAC019B010E940A
:101C50002F386BE872E0811126C046015701E894E5
:101C6000B7F82FEF3FEF4FE75FE7C501B4010E94E0
:101C70002F3881110CC02FEF3FEF4FE75FE7C50111
:101C8000B4010E94A4356FE872E0181664F02FEFDB
:101C90003FEF4FE75FE4C701B6010E942A381816EC
:101CA000ACF463E972E08EE09CE0CF911F910F915C
:101CB000FF90EF90DF90CF90BF90AF909F908F906C
:101CC0007F906F905F904F900C94320D2FEF3FEF0D
:101CD0004FE75FECC701B6010E94A43587FDE1CF55
:101CE00020E030E0A901C701B6010E94A43510E050
:101CF00000E087FF0AC06DE28EE09CE00E94D10701
:101D00008C01F7FAF094F7F8F094C0E060E070E02E
:101D100080E09FE37C1641F020E030E040E251E4B7
:101D20000E948937CF5FF6CFA70196010E941D3729
:101D30002B013C010E94FB374B015C012AE0BC01F6
:101D4000A4018EE09CE00E94410D7C01E00EF11E9A
:101D5000CC23B1F1C501B4010E94A9359B01AC01AE
:101D6000C301B2010E941C374B015C016EE28EE0A0
:101D70009CE00E94D107E80EF91EC15008F120E056
:101D800030E040E251E4C501B4010E940A362B0163
:101D90003C010E94FB374B018EE09CE00E948D0DC0
:101DA000E80EF91EB40190E080E00E94A9359B0185
:101DB000AC01C301B2010E941C374B015C01DDCFB5
:101DC000C701CF911F910F91FF90EF90DF90CF90BF
:101DD000BF90AF909F908F907F906F905F904F904B
:101DE000089567E972E00C94320DCF93DF936EE0B3
:101DF0007CE00E94CD0DEC018EE09CE00E94F10E93
:101E00008C0F9D1FDF91CF910895CF93DF93BC017D
:101E10008EE09CE00E94E607EC018EE09CE00E94D0
:101E2000F10E8C0F9D1FDF91CF9108950F931F939B
:101E3000CF93DF93EC010E94320D8C01CE010E9402
:101E4000F10E800F911FDF91CF911F910F91089597
:101E50000F931F93CF93DF93EC010E94D8078C015F
:101E6000CE010E94F10E800F911FDF91CF911F9143
:101E70000F9108956115710511F00C94320D90E0E9
:101E800080E008950F931F93CF93DF938C010F5B36
:101E90001F4FD8016D917C911616170684F5EC0141
:101EA0008BA9882379F08EA581110CC040E150E008
:101EB0008C819D810E94930D67E972E08C819D81E8
:101EC0000E943A0F8C819D81F801408151816DAD56
:101ED0007EADDC01ED91FC910280F381E02D19953E
:101EE0008BA9882349F08EA5811106C067E972E0AD
:101EF0008C819D810E943A0FF80111821082DF913E
:101F0000CF911F910F910895CF93DF93EC010E9421
:101F1000420F8C819D81DC01ED91FC910680F7815F
:101F2000E02DDF91CF911994EF92FF920F931F93C1
:101F3000CF93DF93EC0189A99AA9892B29F468EC46
:101F400070E0CE010E94441281E08DAB8E01F12C35
:101F5000E12C0C5F1F4F8EA99FA9E816F906D4F457
:101F6000F80162817381CE010E943A0F61E377E04C
:101F7000CE010E946F10F80164817581CE010E942C
:101F80003A0F67E972E0CE010E943A0FFFEFEF1AB5
:101F9000FF0ADFCFDF91CF911F910F91FF90EF905C
:101FA0000895CF93DF93EC018FA5811107C04AE913
:101FB00052E065EA72E0CE010E94A20A88A9882355
:101FC00051F08EA5811107C042EB52E06AEB72E03E
:101FD000CE010E94A20A88A9811109C081E08EA7C2
:101FE0004CEC52E062ED72E0CE010E94A20ACE01FA
:101FF0000E94940F67E972E0CE010E943A0FCE0171
:102000000E94420F1DAA81E08BABDF91CF91089512
:10201000FF920F931F93CF93DF93EC01F62E8BA9C2
:10202000811109C08DA9811106C08CA9811103C03D
:10203000CE010E94D10FEDADFEAD8E010F5B1F4FA3
:10204000D8018D919C9111979C012F5F3F4F119664
:102050003C932E93E80FF91FF0828D919C9181158E
:10206000944081F58BA9882389F08EA581110EC03B
:1020700040E150E060E074E08C819D810E94930D0E
:1020800067E972E08C819D810E943A0F8C819D816D
:102090006DAD7EADDC01ED91FC910280F381E02D10
:1020A00040E054E019958BA9882349F08EA5811151
:1020B00006C067E972E08C819D810E943A0FF801A9
:1020C000118210828AAD9BAD01969BAF8AAF81E0F1
:1020D00090E0DF91CF911F910F91FF900895EF92C3
:1020E000FF920F931F93CF93DF93EC017B018BA99A
:1020F000811109C08DA9811106C08CA9811103C06D
:10210000CE010E94D10F8701F80164910F5F1F4F2C
:10211000662341F0E881F9810190F081E02DCE0144
:102120001995F2CFDF91CF911F910F91FF90EF9012
:102130000895673921E0720709F45EC10CF081C08F
:102140006C3221E0720709F433C1E4F56A3C710591
:1021500009F41CC1ECF46636710509F40EC164F48F
:102160006436710509F402C16536710509F402C1CE
:102170004AE050E00C94930D683C710509F400C1ED
:102180000CF001C16736710599F76BE17BE0F0C097
:102190006E3C710509F403C14CF46C3C710509F403
:1021A000FBC00CF4F6C060ED7AE0E2C0603D710562
:1021B00009F4FBC00CF4F6C0623E7105C9F66AE989
:1021C0007AE0D6C0643321E0720709F403C1D4F485
:1021D000603321E0720709F4F4C054F46E3221E058
:1021E000720709F4EBC00CF4E6C067E67AE0C0C001
:1021F000623321E0720709F4EAC00CF4E5C064E33D
:102200007AE0B6C0633921E0720709F4ECC07CF4CF
:10221000613921E0720709F4E0C00CF0E1C06039D7
:1022200021E0720709F0A4CF65E17AE0A1C0653929
:1022300021E0720709F4DDC00CF4D8C061EC79E04C
:1022400097C06A3A21E0720709F4FAC00CF03FC067
:102250006F3921E0720709F4E1C0D4F46B3921E051
:10226000720709F4D2C054F4693921E0720709F405
:10227000C9C00CF4C4C065E879E07AC06D3921E0CA
:10228000720709F4C8C00CF4C3C062E479E070C0FE
:10229000663A21E0720709F4CAC07CF4613A21E091
:1022A000720709F4C1C00CF4BCC0653A21E07207A2
:1022B00009F05ECF6EEE78E05BC0683A21E072070D
:1022C00009F4BBC00CF4B6C066EB78E051C0673FC0
:1022D00021E0720709F4C6C03CF5633C21E07207B7
:1022E00009F4B7C094F46D3A21E0720709F4ABC069
:1022F0006F3A21E0720709F4A9C06C3A21E0720735
:1023000009F036CF6FE878E033C0653F21E072070F
:1023100009F4A2C00CF0A3C0643F21E0720709F0E9
:1023200027CF69E278E024C06B3F21E0720709F40F
:10233000A2C054F4693F21E0720709F499C00CF47B
:1023400094C066EB77E014C06E3F21E0720709F499
:1023500095C06F3F21E0720709F493C06C3F21E004
:10236000720709F005CF63E977E002C066E47BE01D
:102370000C946F1062E37BE0FBCF67E27BE0F8CF69
:1023800068E17BE0F5CF60E17BE0F2CF67E07BE0E6
:10239000EFCF69EE7AE0ECCF6EED7AE0E9CF60EC5A
:1023A0007AE0E6CF63EB7AE0E3CF62EA7AE0E0CF6F
:1023B00069E87AE0DDCF67E77AE0DACF61E77AE0D3
:1023C000D7CF6AE57AE0D4CF60E57AE0D1CF67E491
:1023D0007AE0CECF61E27AE0CBCF68E07AE0C8CF96
:1023E00067EF79E0C5CF6DEE79E0C2CF63EE79E0BB
:1023F000BFCF60ED79E0BCCF63EA79E0B9CF63E9A4
:1024000079E0B6CF6AE879E0B3CF65E779E0B0CF9D
:1024100061E679E0ADCF6FE479E0AACF6BE279E0D5
:10242000A7CF65E179E0A4CF62E079E0A1CF69EDC3
:1024300078E09ECF62ED78E09BCF60EC78E098CFBB
:1024400065EA78E095CF6DE778E092CF6DE578E0CA
:102450008FCF6FE378E08CCF69E178E089CF6DE0D2
:1024600078E086CF69EF77E083CF69EE77E080CFC1
:102470006EEC77E07DCF61EA77E07ACF66E877E0CF
:1024800077CF66E677E074CF0F931F93CF93DF93F8
:10249000EC018B017AAB69AB81E08CAB61E57BE051
:1024A000CE010E946F104AE050E0B801CE010E94B8
:1024B000930D6FE47BE0CE010E946F10B801CE0156
:1024C0000E94991067E972E0CE010E943A0F0C3C1D
:1024D000110519F00033114019F481E08EA78FA780
:1024E0001CAADF91CF911F910F9108950F931F9315
:1024F000CF93DF93EC018B0189A99AA9892B19F459
:10250000CE010E944412CE010E94D10FB801CE012B
:10251000DF91CF911F910F910C94991020E030E042
:1025200040E751E46091440B7091450B8091460B5C
:102530009091470B0E942A3887FD14C00E94220DFB
:102540006DED72E08EE09CE00E943A0F4AE050E0B0
:102550006FE070E08EE09CE00E94930D8AE293E0D1
:102560000C94050F20E030E046E952E46091480BFE
:102570007091490B80914A0B90914B0B0E942A3825
:1025800087FD13C00E94220D6CEF72E08EE09CE08C
:102590000E943A0F4AE050E06BE470E08EE09CE06D
:1025A0000E94930D8DE093E0DBCF20E030E04CE023
:1025B00052E46091540B7091550B8091560B9091A1
:1025C000570B0E942A3887FD13C00E94220D67E135
:1025D00073E08EE09CE00E943A0F4AE050E063E234
:1025E00070E08EE09CE00E94930D8FEE92E0B8CFF9
:1025F00020E030E040E251E460914C0B70914D0BD3
:1026000080914E0B90914F0B0E94A43518160CF13F
:1026100060E08EE20E94970660E086E20E949706E4
:1026200061E08EE10E94970661E086E10E949706D4
:1026300067E373E08EE09CE00E943A0F4AE050E0CE
:102640006AE070E08EE09CE00E94930D8CEC92E0DA
:1026500087CF61E08EE20E94970660E086E20E94EA
:10266000970661E08EE10E94970661E086E10E9494
:10267000970682EB92E074CF2F923F924F925F9237
:102680006F927F928F929F92AF92BF92CF92DF9282
:10269000EF92FF920F931F93CF93DF9300D01F927F
:1026A0001F92CDB7DEB77C016A834B831982212C40
:1026B00010E085E0382E9FE3492E512C8091B10C1B
:1026C0009091B20CDC01ED91FC910084F185E02D3C
:1026D0001995E114F10409F5892BF9F422242394C6
:1026E000822D0F900F900F900F900F90DF91CF9150
:1026F0001F910F91FF90EF90DF90CF90BF90AF9020
:102700009F908F907F906F905F904F903F902F9011
:1027100008952224239410E0D1CF1092B50C41E00B
:1027200050E065EB7CE08091B10C9091B20C0E947E
:10273000A8079D838C83892BA1F4133041F482E098
:1027400090E09093120D8093110D212CC9CF68E574
:1027500073E08091B30C9091B40C0E94160F1F5F30
:10276000ADCF8091B10C9091B20C2091B50C2E336D
:1027700009F044C041E050E066EB7CE00E94A8070D
:102780001092B60CE114F10461F0C7010E94BC3252
:10279000AC01B70185EB9CE00E94C532892B09F49E
:1027A0009DCF45E050E06FE976E085EB9CE00E942C
:1027B000C532892B09F0C3C0B091BA0CB053BC83A9
:1027C0008CEB9CE00E948332AB01EC81E53008F099
:1027D000A2CF672B09F49FCFE39DF0011124E850AD
:1027E000F34F2081FC813F9EC001112424FD8BC04A
:1027F0008750934FDC014D935C938DCF6C817D812D
:102800006B54734F41E050E00E94A807EC81FD81BA
:10281000E80FF91FFD83EC8332970CF44FCF8091C2
:10282000B50C8D3049F58091B60C8A3009F473CF20
:102830000AE06090B10C7090B20C52018C819D81C5
:10284000A81AB90A8B54934F4C01D12CC12C002EDD
:10285000000C110BAC14BD04D9F1C3010E947A071E
:1028600097FD36C08017910799F1D4018D934D01E2
:10287000BFEFCB1ADB0AEECF8B32D1F68091B60CCC
:10288000833429F4FA81F111D3CF0AE3D2CF89340A
:1028900079F66C817D816B54734F44E050E08091F8
:1028A000B10C9091B20C0E94A8072C813D81280F99
:1028B000391F3D832C83E091BA0CE053332DE302A2
:1028C000F0011124E850F34F808184FDDECFB0CFBA
:1028D000EC81FD81EC0DFD1DEF54F34FFD83EC8386
:1028E000EC81FD81E15BFC402C813D81215031096F
:1028F0003D832C83D90114968C918D3089F3EF544C
:10290000F34F14823FCF8550934FFC01808191811A
:102910002091B10C3091B20CDC01ED91FC91019051
:10292000F081E02DB9011995182F882309F4C6CE3E
:1029300090E008969093120D8093110DECCE66E90D
:1029400076E086EB9CE00E94B332892B21F5E09182
:10295000B50CE0538E2F90E0389ED001399EB00D1B
:102960001124A750B34F2D913C91232B09F0D3CEC6
:10297000E39DF0011124E850F34F208120FF02C0B5
:1029800021FFC9CE389EF001399EF00D1124E85088
:10299000F34F3082C0CE6EE876E086EB9CE00E947A
:1029A000B332892B19F160E876E086EB9CE00E9457
:1029B000B332892BD9F06AE776E085EB9CE00E9480
:1029C000B332892BE9F065E776E085EB9CE00E9465
:1029D000B332892BA9F06FE676E085EB9CE00E948C
:1029E000B332892BD1F484E090E0ABCEE091B50C0A
:1029F000E0533E9EF0011124E850F34F10828BCE3D
:102A000021106CCEE114F10409F485CE83E090E04E
:102A10009093120D8093110D63CE68E676E085EBFE
:102A20009CE00E94B332892B09F473CEBB81BB2397
:102A300049F065E676E085EB9CE00E94B332892B95
:102A400009F483CEE981EF5FE983E73408F463CECC
:102A500076CE40E061E085E696E00C943C13CF939F
:102A6000DF93C82F8091F70C81110AC081E090E0BC
:102A70009093120D8093110D80E0DF91CF91089516
:102A80009091F60CC91306C0611102C081E0F5CF28
:102A90008C17E1F38091B30C9091B40C27E236E0EF
:102AA000662311F026E336E0D62FB9010E94E6072F
:102AB0004C2F50E070E060E02AE08091B30C9091E0
:102AC000B40C0E94410D8091B30C9091B40C0E9403
:102AD000F10E0E942915882381F2C093F60CDD23A4
:102AE000A9F2C093F70C8D2FC8CF1F93CF93DF931C
:102AF000EC01162F8091B30C9091B40C0E94F10E52
:102B0000209741F040E0612FCE01DF91CF911F91DE
:102B10000C943C13DF91CF911F910C9429151092C6
:102B2000120D1092110D40E060E090E080E00C94F6
:102B30003C130F931F93CF93DF938C010E948F154B
:102B4000C1EBDCE0B8018A819B810E94E6078A81A3
:102B50009B810E94F10EDF91CF911F910F910C94F8
:102B60002915AF92BF92CF92DF92EF92FF920F930F
:102B70001F93CF93DF93CDB7DEB72C970FB6F894A2
:102B8000DEBF0FBECDBF5C016B017A0189010E94DF
:102B90008F158091F60C60E081600E942F158111E5
:102BA00012C080E02C960FB6F894DEBF0FBECDBFEA
:102BB000DF91CF911F910F91FF90EF90DF90CF9019
:102BC000BF90AF9008958091B30C9091B40C209178
:102BD000F50C6BE176E0211102C06BE076E00E941B
:102BE000E6076091B30C7091B40CC5010E94CD0D45
:102BF000F7018281882311F167E076E08091B30CC0
:102C00009091B40C0E94E6076091B30C7091B40CE3
:102C1000C7010E94CD0DF8018281882379F067E019
:102C200076E08091B30C9091B40C0E94E60760911D
:102C3000B30C7091B40CC8010E94CD0D62E280917A
:102C4000B30C9091B40C0E94D1078091B30C909179
:102C5000B40C0E94F10E0E942915882309F4A1CF1B
:102C600089E892E098878F834091490D50914A0DF1
:102C700060914B0D70914C0D49875A876B877C870B
:102C80009A838983F60182819381A481B5818B83A4
:102C90009C83AD83BE830E948F158091F60C60E00B
:102CA00081600E942F15882309F47CCF8091B30C9A
:102CB0009091B40C2091F50C68EF75E0211102C0E1
:102CC00069EE75E00E94E6078091B30C9091B40C18
:102CD0002B8121110FC04AE050E070E060E00E94BB
:102CE000930D8091B30C9091B40C0E94F10E0E9450
:102CF000291558CF65EE75E00E94E6076091B30C88
:102D00007091B40CCE0101960E94CD0D8985882367
:102D100081F067E076E08091B30C9091B40C0E9452
:102D2000E6076091B30C7091B40CCE0107960E9437
:102D3000CD0D62E28091B30C9091B40C0E94D1074A
:102D4000D0CFCF93C82F0E948F1585E0C89F9001E8
:102D50001124C9018F54934FFC01E85BFF4F11828E
:102D600010822850334FF901208120FF21C0895B58
:102D70009F4F2260FC01208368ED75E08091B30CC9
:102D80009091B40C0E94E6074C2F50E070E060E098
:102D90002AE08091B30C9091B40C0E94410D809177
:102DA000B30C9091B40C0E94F10ECF910C942915A4
:102DB00081E0CF9108950F931F93CF93DF93FC0190
:102DC00024853585232BF1F0EC010190F081E02D75
:102DD0000680F781E02D19950C851D85F80181810C
:102DE0008F3F11F00E94A116F80110828FEF8183AE
:102DF0001686158614861386148A138A1582148201
:102E00001D861C86DF91CF911F910F9108958F929F
:102E10009F92AF92BF92CF92DF92EF92FF920F9369
:102E20001F93CF93DF93B82E8B017A010E948F15E9
:102E3000E5E0EB9DE0011124C750D34FC880D98055
:102E4000C114D104E1F4BE9EF0011124E850F34F07
:102E5000808180FD06C086E090E09093120D809303
:102E6000110DC601DF91CF911F910F91FF90EF904F
:102E7000DF90CF90BF90AF909F908F90089568EAB9
:102E800075E08091B30C9091B40C0E94E6074B2D35
:102E900050E070E060E02AE08091B30C9091B40CB7
:102EA0000E94410D6CE28091B30C9091B40C0E9491
:102EB000D107B7018091B30C9091B40C0E948D0D95
:102EC00060E08BE995E00E94751581110BC01982B5
:102ED000188287E090E09093120D8093110DD12C11
:102EE000C12CBFCF82EC9CE00E9483324B016B016E
:102EF000AB01B8018091B10C9091B20C0E94A8076F
:102F00008816990621F7888199818815990528F4F2
:102F1000198218820E942915A4CF881999099983CA
:102F20008883F8CFEF92FF921F93CF93DF93FC013A
:102F3000E484F584E114F104C1F1EC01F70111819D
:102F40001F3FD9F00E948F1585E0189FF0011124D2
:102F5000E850F34F808180FF02C081FF03C08FEFF4
:102F6000F7018183F70181818F3F39F081E0DF91A3
:102F7000CF911F91FF90EF900895E881F98100842F
:102F8000F185E02DCE011995892B81F7EC85FD8522
:102F900010828FEF81831686158614861386148A15
:102FA000138A158214821D861C8680E0E0CFCF92A2
:102FB000DF92EF92FF920F931F93CF93DF936C01F9
:102FC0007B018A010E948F1569E476E08091B30C41
:102FD0009091B40C0E94E60761E081E496E00E94C3
:102FE00075158823E1F1C5EBDCE0FE0101900020BE
:102FF000E9F73597138261EC7CE0C6010E9437083F
:1030000040E061E081E496E00E943C13882339F1BE
:10301000FE0101900020E9F73597138266EC7CE011
:10302000C7010E94370840E061E081E496E00E9419
:103030003C138823A1F009900020E9F725971B8213
:1030400066EC7CE0C8010E943708DF91CF911F91A8
:103050000F91FF90EF90DF90CF900C94291580E0B6
:10306000DF91CF911F910F91FF90EF90DF90CF9064
:103070000895BF92CF92DF92EF92FF920F931F932A
:10308000CF93DF93B82EEB017A0169016CEC75E008
:103090008091B30C9091B40C0E94E6074B2D50E048
:1030A00070E060E02AE08091B30C9091B40C0E9433
:1030B000410D6CE28091B30C9091B40C0E94D10749
:1030C000B7018091B30C9091B40C0E948D0DC11486
:1030D000D104F1F069EC75E08091B30C9091B40CDF
:1030E0000E94E607B6018091B30C9091B40C0E9447
:1030F0003A0F66EC75E08091B30C9091B40C0E948D
:10310000E607B8018091B30C9091B40C0E948D0D2C
:1031100061E084EC95E00E947515811103C090E098
:1031200080E02BC08091B10C9091B20CDC01ED914C
:10313000FC910280F381E02DA701BE01199540E0CA
:1031400061E08EEB95E00E943C13882341F38AEB0B
:103150009CE00E9483326B0140E061E088EB95E0E7
:103160000E943C138823D9F265E676E08AEB9CE066
:103170000E94B332892B59F4C601DF91CF911F9180
:103180000F91FF90EF90DF90CF90BF90089588E06F
:1031900090E09093120D8093110DC1CF9F92AF924A
:1031A000BF92CF92DF92EF92FF920F931F93CF9334
:1031B000DF93FC01E388F488E114F10429F1EC01C8
:1031C00004811581A280B380C784D08891800E9439
:1031D0008F1585E0989EF0011124E850F34F80810F
:1031E00080FD1EC086E090E09093120D8093110D3B
:1031F00030E020E091E04B895C894217530709F4E5
:1032000090E09E831C8A1B8ADF91CF911F910F91C2
:10321000FF90EF90DF90CF90BF90AF909F90089578
:103220009501A701B601892D0E9439189C01E2CFB2
:10323000FC0184859585009711F00C94CE180895B3
:103240008F929F92AF92BF92CF92DF92EF92FF92B6
:103250000F931F93CF93DF935B017A01FC01C48529
:10326000D58590E080E0209761F0D12CC12C998029
:10327000FFEF9F1213C09E82F12CE12CC6018E0D30
:103280009F1DDF91CF911F910F91FF90EF90DF90E5
:10329000CF90BF90AF909F908F900895E114F1046C
:1032A00069F38B899C8909891A89009711F50E1594
:1032B0001F05F8F40C811D810A80DB81C02D0E945E
:1032C0008F1585E0989EF0011124E850F34F80811E
:1032D00080FD07C086E090E09093120D8093110D61
:1032E000CBCF9E01A701B501892D0E9439187C0121
:1032F000C5CF081B190BD50190E080E0081719070E
:1033000091F0E816F90679F0EF85F8892B893C8968
:10331000A9014F5F5F4F5C8B4B8B4D91E20FF31F09
:1033200040830196EBCF4701801A910A97FCA6CF04
:10333000CE010E94CE188114910409F49FCFA00EF3
:10334000B11EC00ED11E740192CFCF93DF93FC014A
:10335000C485D5852097F1F0EF85F8898B899C8904
:103360009C012F5F3F4F3C8B2B8BE80FF91F608335
:103370002B893C8989899A892817390771F4CE01EC
:103380000E94CE1881E090E02E81211180E0DF9133
:10339000CF91089580E090E0FACF81E0FCCFBF921A
:1033A000CF92DF92EF92FF920F931F93CF93DF9311
:1033B00000D01F921F92CDB7DEB7FC012585368560
:1033C00083859485281B390B11811F3F09F4C3C0E5
:1033D0002115310509F0BFC07F010E948F15C12E54
:1033E000D12C85E0B82EBC9CF001BD9CF00D1124C1
:1033F000E750F34F208131812115310509F0ABC031
:103400001B9DF0011124E850F34F808180FF9EC086
:1034100081FD9CC00E9458070091130D1091140D5E
:103420002091150D3091160D601B710B820B930BC3
:10343000643F71408105910508F47BC00E945807E4
:103440006093130D7093140D8093150D9093160DCA
:103450000E948F1567EB73E08091B30C9091B40CD0
:103460000E94E60761E080EB93E00E9475158823D7
:1034700009F45FC08E010F5F1F4FF8011192BA94DB
:10348000E9F741E061E083E693E00E943C13882382
:1034900049F0E091C00CE053E00FF12FF11D81E005
:1034A0008083EFCFF801A8EFBCE09E012A5F3F4F79
:1034B00095E08191882309F45EC08C9180FF01C062
:1034C00081FD9C9315962E173F0799F70E948F1543
:1034D00064E573E08091B30C9091B40C0E94E60710
:1034E00061E088E493E00E947515882311F16AE594
:1034F00073E081EC9CE00E94D33210E000E0009782
:10350000B1F0FC012081222339F00E948332F801BE
:10351000E750F34F718360836AE573E090E080E0E9
:103520000E94D3320B5F1F4F0931110541F70E94F2
:10353000291585E08C9DF0018D9DF00D1124E7503B
:10354000F34F208131812115310529F4C7010E94F3
:10355000CE1830E020E0C9010F900F900F900F902F
:103560000F90DF91CF911F910F91FF90EF90DF901F
:10357000CF90BF9008951C92A5CFCF93DF93EC011D
:103580002B853C858D859E852817390780F0CE01D7
:103590000E94CF19892B59F01C861B8649855A85B4
:1035A0006F81788589810E9407179E878D87DF91BB
:1035B000CF910895AF92BF92CF92DF92EF92FF9298
:1035C0000F931F93CF93DF938C015B01EA01D12C02
:1035D000C12C209709F44EC0C8010E94CF19892B35
:1035E00009F448C0F801E584F68483859485E81AD7
:1035F000F90AB9F4818592858C179D0790F4AE0184
:10360000B50181810E9407178C0D9D1DDF91CF911F
:103610001F910F91FF90EF90DF90CF90BF90AF90F0
:103620000895C8010E94BD1AD50190E080E08E1572
:103630009F05A1F08C179D0789F0F80167817085BF
:1036400023853485A9014F5F5F4F54874387FB0172
:10365000E20FF31F20812D930196E9CFEC16FD06B2
:1036600010F0CE01D1CFCE19DF09AE0CBF1CCE0CAD
:10367000DF1CAFCF90E080E0C7CFFC01848595854B
:10368000009711F00C94DA1A90E080E00895CF933F
:10369000DF93FC01C485D585209729F48FEF9FEF38
:1036A000DF91CF910895CE010E94CF19892BB1F3FC
:1036B000CE010E94BD1AEF81F8858B859C85E80FAD
:1036C000F91F808190E0ECCF0F931F93CF93DF938E
:1036D0001F92CDB7DEB7FC010485158501151105D4
:1036E00029F0C8010E94CF19892B19F48FEF9FEFA1
:1036F0000CC041E050E0BE016F5F7F4FC8010E94E7
:10370000DA1A892B99F3898190E00F90DF91CF919C
:103710001F910F910895FC0184859585009711F004
:103720000C94CF1990E080E00895CF92DF92EF9251
:10373000FF920F931F93CF93DF93EC018B016A01EC
:1037400079010E948F15209709F018828091F60C5C
:10375000823009F44FC06BE576E08091B30C909114
:10376000B40C0E94E60761E084E596E00E947515BE
:10377000882309F43FC06CE573E08DEB9CE00E9468
:10378000D332209721F0BC01CE010E94563AE801C5
:1037900026966CE573E090E080E00E94D33240E131
:1037A00050E070E060E00E9437316A93C017D107A3
:1037B00081F76CE573E090E080E00E94D3320E94D4
:1037C0006532F60180836CE573E090E080E00E9452
:1037D000D3320E948332F7016083718382839383A3
:1037E000DF91CF911F910F91FF90EF90DF90CF90DD
:1037F0000C94291580E0DF91CF911F910F91FF90DC
:10380000EF90DF90CF9008950F931F93CF93DF93A6
:103810008C01EB018AE090E00E943438FC018AE0E0
:10382000DF011D928A95E9F711830083D383C28358
:1038300081E090E097838683A091900DB091910DE7
:10384000109751F4F093910DE093900DDF91CF918B
:103850001F910F910895DC0118968D919C911997F5
:103860000097C9F71996FC93EE931897EFCFCF9274
:10387000DF92FF920F931F93CF93DF93E9E2FDE076
:1038800010E000E09FEFC191D1912097C1F1298113
:10389000281312C06115710529F02C813D81621732
:1038A0007307E1F0188299831E861D861C861B868D
:1038B0001C8A1B8A1D821C822881211118C029851F
:1038C0003A852034310599F429893A892034310523
:1038D00071F489837D836C8381E08883CE01DF91DD
:1038E000CF911F910F91FF90DF90CF9008950F5FC0
:1038F0001F4F0530110539F6D0E0C0E0EFCF6B0166
:10390000F82E85E190E00E943438EC0185E1FE015B
:1039100011928A95E9F780E490E00E943438988704
:103920008F8380E490E00E943438988B8F8780E406
:1039300090E09A8789879A8B898BF982DD82CC8285
:1039400081E08883000F111FF801E75DF24FD183FA
:10395000C083C4CFAF92BF92CF92DF92EF92FF921B
:103960000F931F93CF93DF937C015B016A01DC010E
:103970001C968D919C911D97892B39F0ED91FC91AE
:103980000488F589E02DC70119950E948F150E94C2
:103990008F15ECE0FDE0C4E0D0E080818370B9F4E5
:1039A00081819281892B99F485E08C9F80018D9F84
:1039B000100D1124F801E850F34F808180FF19C0E9
:1039C00085E090E09093120D8093110D05C0219732
:1039D0003597CF3FDC0709F790E080E0DF91CF918A
:1039E0001F910F91FF90EF90DF90CF90BF90AF901D
:1039F00008956EE875E08091B30C9091B40C0E942C
:103A0000E6072AE0AE01DD0F660B770B8091B30C61
:103A10009091B40C0E94410D6BE875E08091B30C5D
:103A20009091B40C0E94E60760E673E08091B30CBD
:103A30009091B40C0E943A0F67E076E08091B30C4D
:103A40009091B40C0E94E607B5018091B30C90915F
:103A5000B40C0E943A0F68E875E08091B30C909125
:103A6000B40C0E94E607B6018091B30C9091B40C9F
:103A70000E948D0D0850134F81E0F80180838091E2
:103A8000B30C9091B40C0E94F10E0E942915811183
:103A900003C0D8011C92A0CF70E060E08C2F0E9480
:103AA000371CF70195878487892B21F48C2F0E947E
:103AB000A11692CF81E090E091CF8F929F92AF922A
:103AC000BF92CF92DF92EF92FF920F931F93CF930B
:103AD000DF93CDB7DEB760970FB6F894DEBF0FBEA9
:103AE000CDBF7C01FB016A0183809480B580828117
:103AF0004AE08E010F5F1F4FB80190E00E94FE3236
:103B0000F80101900020E9F73197BF01601B710BAC
:103B10008EE2A82EA0826F5F7F4F600F711F4AE078
:103B2000882D90E00E94FE32F80101900020E9F714
:103B30003197BF01601B710BA0826F5F7F4F600FD9
:103B4000711F4AE0892D90E00E94FE32F801019039
:103B50000020E9F73197BF01601B710BA0826F5FF6
:103B60007F4F600F711F4AE08B2D90E00E94FE3264
:103B7000A601B801C7010E94AA1C60960FB6F8946E
:103B8000DEBF0FBECDBFDF91CF911F910F91FF9090
:103B9000EF90DF90CF90BF90AF909F908F9008955F
:103BA0000C94AA1CCF93DF932091510D3091520DAC
:103BB000232B89F0FC01C0914D0DD0914E0D6081F9
:103BC0007181CE010E946B3A009729F08C1B9D0BEE
:103BD000DF91CF9108958FEF9FEFFACF0F931F934F
:103BE000CF93DF93EC0188819981009759F02A8166
:103BF0003B812617370730F081E0DF91CF911F918D
:103C00000F9108958B016F5F7F4F0E945939009784
:103C100059F0998388831B830A832C813D81232B50
:103C200059F7FC011082E8CF80E0E7CFEF92FF92D6
:103C30000F931F93CF93DF936115710541F480E0DB
:103C4000DF91CF911F910F91FF90EF900895411553
:103C50005105B1F07B01EC010C811D81040F151F92
:103C6000B8010E94EE1D882351F3288139818C818F
:103C70009D81B701820F931F0E94563A1D830C83CA
:103C800081E0DECFCF93DF93EC01888199810097AB
:103C900011F00E94D038198218821D821C821B826A
:103CA0001A82DF91CF910895CF93DF93EC01FB014E
:103CB00001900020E9F73197AF01461B570B0E9496
:103CC000161E811103C0CE010E94421ECE01DF915B
:103CD000CF910895CF93DF93EC01FB01448155818F
:103CE000608171810E94161E811103C0CE010E9465
:103CF000421ECE01DF91CF910895EF92FF920F9374
:103D00001F93CF93DF93EC017B018A01BA010E94DC
:103D1000EE1D81110BC0CE010E94421ECE01DF912B
:103D2000CF911F910F91FF90EF9008951D830C8309
:103D3000B701888199810E94563AF0CFEF92FF92A5
:103D40000F931F93CF93DF93CDB7DEB7A1970FB635
:103D5000F894DEBF0FBECDBF7C01CB01BA01F701E5
:103D60001182108213821282158214828E010F5FDB
:103D70001F4F22E044E00E9419310097C9F0FC0176
:103D800001900020E9F73197AF01481B590BBC01A6
:103D9000C7010E947D1EA1960FB6F894DEBF0FBE2C
:103DA000CDBFDF91CF911F910F91FF90EF900895BC
:103DB000C7010E94421EEFCFEF92FF920F931F9315
:103DC000CF93DF93CDB7DEB762970FB6F894DEBF1F
:103DD0000FBECDBF8C01CB01F8011182108213827E
:103DE0001282158214824AE09E012F5F3F4F7901B3
:103DF000B9010E94FE32F70101900020E9F73197E6
:103E0000AF014E195F09B701C8010E947D1E62967D
:103E10000FB6F894DEBF0FBECDBFDF91CF911F91DB
:103E20000F91FF90EF900895FC0111821082138290
:103E3000128215821482FB0101900020E9F731976C
:103E4000AF01461B570B0C947D1EFC0180819181B4
:103E5000009711F00C94D03808950F931F93CF93CF
:103E6000DF93CDB7DEB72C970FB6F894DEBF0FBE49
:103E7000CDBF8B0164E673E08EE09CE00E94160FDC
:103E800046E753E065EA72E0C8010E94A20A60E8D2
:103E900073E0C8010E94160F67E873E0C8010E9432
:103EA000160F6EE873E0C8010E94160F68EB73E00E
:103EB000C8010E94160F60EC73E0C8010E94160F43
:103EC0004091540B5091550B6091560B7091570BCC
:103ED000CE0107960E949E1E67EC73E0CE0101960C
:103EE0000E94141FBE01695F7F4FCE0101960E94A0
:103EF0006A1E6FED73E00E94541EBC01C8010E944F
:103F0000280FCE0101960E94251FCE0107960E9420
:103F1000251F40914C0B50914D0B60914E0B7091B1
:103F20004F0BCE0107960E949E1E64EE73E0CE01F9
:103F300001960E94141FBE01695F7F4FCE0101965A
:103F40000E946A1E6FED73E00E94541EBC01C801FE
:103F50000E94280FCE0101960E94251FCE010796D0
:103F60000E94251F4091440B5091450B6091460BD8
:103F70007091470BCE0107960E949E1E6DEF73E075
:103F8000CE0101960E94141FBE01695F7F4FCE01D2
:103F900001960E946A1E6FED73E00E94541EBC01E0
:103FA000C8010E94280FCE0101960E94251FCE0154
:103FB00007960E94251F64E174E0C8010E94160F55
:103FC0006CE174E0C8010E94160F2C960FB6F894AD
:103FD000DEBF0FBECDBFDF91CF911F910F9108952E
:103FE0000F931F93CF93DF93CDB7DEB72C970FB608
:103FF000F894DEBF0FBECDBF8B0164E274E08EE0AB
:104000009CE00E94160F4AE952E065EA72E0C8019E
:104010000E94A20A68E374E0C8010E943A0F6FE7A9
:1040200074E0C8010E943A0F4091540B5091550B17
:104030006091560B7091570BCE0107960E949E1E01
:1040400062E974E0CE0101960E94141FBE01695F0F
:104050007F4FCE0101960E946A1E68E972E00E94BD
:10406000541EBC01C8010E94D807CE0101960E94CF
:10407000251FCE0107960E94251F40914C0B5091A1
:104080004D0B60914E0B70914F0BCE0107960E9425
:104090009E1E65EB74E0CE0101960E94141FBE01C6
:1040A000695F7F4FCE0101960E946A1E68E972E047
:1040B0000E94541EBC01C8010E94D807CE0101967F
:1040C0000E94251FCE0107960E94251F4091440B98
:1040D0005091450B6091460B7091470BCE010796AE
:1040E0000E949E1E69ED74E0CE0101960E94141F8D
:1040F000BE01695F7F4FCE0101960E946A1E68E98A
:1041000072E00E94541EBC01C8010E94D807CE0173
:1041100001960E94251FCE0107960E94251F6BEF76
:1041200074E0C8010E943A0F62E475E0C8010E9481
:104130003A0F4091580B5091590B60915A0B709166
:104140005B0BCE0107960E949E1E69E575E0CE01CD
:1041500001960E94141FBE01695F7F4FCE01019638
:104160000E946A1E68E972E00E94541EBC01C801E8
:104170000E94D807CE0101960E94251FCE01079606
:104180000E94251F4091500B5091510B6091520B92
:104190007091530BCE0107960E949E1E69E775E051
:1041A000CE0101960E94141FBE01695F7F4FCE01B0
:1041B00001960E946A1E68E972E00E94541EBC01CA
:1041C000C8010E94D807CE0101960E94251FCE018A
:1041D00007960E94251F4091480B5091490B609112
:1041E0004A0B70914B0BCE0107960E949E1E6AE906
:1041F00075E0CE0101960E94141FBE01695F7F4FDA
:10420000CE0101960E946A1E68E972E00E94541E67
:10421000BC01C8010E94D807CE0101960E94251F4B
:10422000CE0107960E94251F69EB75E0C8010E9428
:104230003A0F62EE75E0C8010E943A0F6091420B9E
:104240007091430BCE0107960E94DC1E6DEF75E066
:10425000CE0101960E94141FBE01695F7F4FCE01FF
:1042600001960E946A1E68E972E00E94541EBC0119
:10427000C8010E94D807CE0101960E94251FCE01D9
:1042800007960E94251F6091400B7091410BCE0153
:1042900007960E94DC1E65E176E0CE0101960E9441
:1042A000141FBE01695F7F4FCE0101960E946A1EF6
:1042B00068E972E00E94541EBC01C8010E94D80740
:1042C000CE0101960E94251FCE0107960E94251F50
:1042D00060913E0B70913F0BCE0107960E94DC1E51
:1042E0006DE276E0CE0101960E94141FBE01695F67
:1042F0007F4FCE0101960E946A1E68E972E00E941B
:10430000541EBC01C8010E94D807CE0101960E942C
:10431000251FCE0107960E94251F60913C0B7091CE
:104320003D0BCE0107960E94DC1E69E476E0CE01CB
:1043300001960E94141FBE01695F7F4FCE01019656
:104340000E946A1E68E972E00E94541EBC01C80106
:104350000E94D807CE0101960E94251FCE01079624
:104360000E94251F2C960FB6F894DEBF0FBECDBF5E
:10437000DF91CF911F910F9108950F931F93CF93CA
:10438000DF93CDB7DEB72C970FB6F894DEBF0FBE24
:10439000CDBF8B0164E673E08EE09CE00E94160FB7
:1043A00046E753E065EA72E0C8010E94A20A60E8AD
:1043B00073E0C8010E94160F67E873E0C8010E940D
:1043C000160F6FE576E0C8010E94160F6FEB76E0DE
:1043D000C8010E94160F68EB73E0C8010E94160F17
:1043E00060EC73E0C8010E94160F67EE76E0C8012A
:1043F0000E94160F6AE077E0C8010E94160F61E183
:1044000077E0C8010E94160F60913C0B70913D0B44
:10441000CE0107960E94DC1E65E477E0CE0101968E
:104420000E94141FBE01695F7F4FCE0101960E945A
:104430006A1E66E577E00E94541EBC01C8010E9416
:10444000280FCE0101960E94251FCE0107960E94DB
:10445000251F6091420B7091430BCE0107960E947D
:10446000DC1E6CE577E0CE0101960E94141FBE01B0
:10447000695F7F4FCE0101960E946A1E66E577E074
:104480000E94541EBC01C8010E94280FCE01019653
:104490000E94251FCE0107960E94251F6091400BA8
:1044A0007091410BCE0107960E94DC1E6FE677E00B
:1044B000CE0101960E94141FBE01695F7F4FCE019D
:1044C00001960E946A1E66E577E00E94541EBC01B8
:1044D000C8010E94280FCE0101960E94251FCE011F
:1044E00007960E94251F60913E0B70913F0BCE01F5
:1044F00007960E94DC1E62E877E0CE0101960E94DA
:10450000141FBE01695F7F4FCE0101960E946A1E93
:1045100066E577E00E94541EBC01C8010E94280F86
:10452000CE0101960E94251FCE0107960E94251FED
:1045300080913C0B90913D0B69E977E0009721F069
:10454000019729F465EB77E0C8010E94160F80916E
:10455000420B9091430B63ED77E0009721F00197B8
:1045600029F46BEF77E0C8010E94160F65E278E04E
:10457000C8010E94160F65E478E0C8010E94160F7A
:1045800062E678E0C8010E94160F6AE678E0C8018A
:104590000E94160F2C960FB6F894DEBF0FBECDBF4B
:1045A000DF91CF911F910F9108952F923F924F92DB
:1045B0005F926F927F928F929F92AF92BF92CF92B3
:1045C000DF92EF92FF920F931F93CF93DF937B01C4
:1045D0006A015901DC010D911C913B01B4EA6B0E9B
:1045E000711C1B01EAEA2E0E311C2B01F8EA4F0E5A
:1045F000511C0115110509F493C0D601DC967C917C
:1046000071118EC0F801848095808114910421F18C
:10461000808191810097E9F0EC0109900020E9F791
:104620002197C81BD90BD3016D917C916A0D7B1D1D
:10463000AE010E945D3A892B41F495012C0F3D1F7C
:10464000A601B701C4010E94D522F8010085118599
:10465000D0CFD0E0C0E0F1CF86819781D7015296CC
:104660002D913C918217930711F0089771F7F8018B
:1046700020813181D301ED91FC91EA0DFB1D2115C3
:104680003105E9F18081D9019C91911102C0882303
:10469000B1F150E040E090E080E006C09612D5CF46
:1046A0004F5F5F4F019671E0E901C80FD91F9880F5
:1046B000DF01A40FB51F6C919920B1F0662329F298
:1046C0007AE39712EBCFCE01821B930B49914423DF
:1046D00011F04F32C1F7AD014E1B5F0B6D91662398
:1046E00011F36F32C1F7DFCF772309F4AECF6F320A
:1046F000A1F48E0F9F1FDC018C918111A6CFD101F7
:10470000ED93FC93F20131832083D8011296ED9151
:10471000FC91B601C701199598CF662381F395CF17
:10472000DF91CF911F910F91FF90EF90DF90CF908D
:10473000BF90AF909F908F907F906F905F904F90C1
:104740003F902F9008958F929F92AF92BF92CF92F9
:10475000DF92EF92FF920F931F93CF93DF938C0121
:104760006B01EB015E01FE018491882369F1C801B0
:104770000E94AA097C018F3F980771F480E0DF91C5
:10478000CF911F910F91FF90EF90DF90CF90BF904E
:10479000AF909F908F9008950E943A3A4C012196D5
:1047A000F501849190E00E943A3A88169906D1F278
:1047B0006E2DC8010E94180A2197CC16DD06F1F271
:1047C000FE0131976491F5CF81E0D9CF8F929F920E
:1047D000AF92BF92CF92DF92EF92FF920F931F930F
:1047E000CF93DF938C016B017B01F70181917F01F6
:1047F000882359F1C8010E94AA094C018F3F9807EC
:1048000071F480E0DF91CF911F910F91FF90EF90B5
:10481000DF90CF90BF90AF909F908F9008950E94AF
:104820003A3A5C01E7018A91082E000C990B0E942C
:104830003A3AA816B906C9F2682DC8010E94180AAA
:10484000CC15DD05F1F26A91F8CF81E0DBCFAF92B4
:10485000BF92CF92DF92EF92FF920F931F93CF936D
:10486000DF93CDB7DEB7CF5ED5400FB6F894DEBF8D
:104870000FBECDBF8E0103551A4FF801138212826D
:1048800023E532E031832083958384839801285D7A
:104890003F4F17821682118610863496E217F3076F
:1048A000C1F7F80116A617A610AA12AA11AA13AAF0
:1048B00014AA15AA17AA16AA11AE10AE13AE12AEFC
:1048C00014AE9E012F5F3F4F36AF25AF20E034E09E
:1048D000FF9631832083C251DA4F19821882CE5E4F
:1048E000D5404091940D5091950D6091960D709129
:1048F000970D2091920D3091930DCD5FDA4F198273
:104900001882C350D540EFE5F2E0CF5FDA4FF9836C
:10491000E883C150D540C35FDA4F19821882CD5069
:10492000D540C15FDA4F99838883CF50D540CF5EA1
:10493000DA4F19830883C151D540CD5EDA4F198211
:104940001882C351D5408FEF9FEFCB5EDA4F99832A
:104950008883C551D540E1E0F5E0EC0FFD1F769668
:10496000CE0189569A4F1192E817F907E1F71182A3
:104970001082C756DA4F1882C959D540C656DA4F49
:1049800019821882CA59D540C456DA4F1982188242
:10499000CC59D540C256DA4F39832883CE59D540F9
:1049A000C056DA4F19821882C05AD540CE55DA4F18
:1049B00019821882C25AD540CC55DA4F1882C45A8F
:1049C000D540CE018F5F9B4FCB55DA4F99838883BB
:1049D000C55AD5408FEF90E0C955DA4F9983888347
:1049E000C75AD540C755DA4F19821882C95AD540DF
:1049F000C555DA4F19821882CB5AD540CB5FDA4FB2
:104A0000488359836A837B83C550D5406EE97BE038
:104A1000CE018F5F9A4F0E94A323882309F45BC0C5
:104A200081E090E0CD5EDA4F99838883C351D54011
:104A3000C955DA4FC880D980C75AD540CB55DA4F0F
:104A4000A880B980C55AD540CE018F5F9A4F0E9489
:104A5000AA098F3F980709F4CDC08032910509F467
:104A6000C9C08A30910509F4C5C08D30910509F49B
:104A7000C1C021E0C21AD10809F4BCC08532910539
:104A800031F5CE018F5F9A4F0E94AA097C010196F1
:104A900009F468C1CE018F5F9A4F0E94AA098F3F27
:104AA000980709F45FC1EAE3EE16F1041CF0F7E0A1
:104AB000EF1AF1088A3391050CF0079734E0EE0CF9
:104AC000FF1C3A95E1F7FF248F7099278E29F50195
:104AD00081935F01B9CF68E97BE0CE018F5F9A4F88
:104AE0000E94A323882319F082E090E09BCF62E923
:104AF0007BE0CE018F5F9A4F0E94A323882319F099
:104B000083E090E08FCF6DE87BE0CE018F5F9A4F1E
:104B10000E94A323882319F084E090E083CF65E806
:104B20007BE0CE018F5F9A4F0E94A323882319F068
:104B300085E090E077CF6EE77BE0CE018F5F9A4F04
:104B40000E94A323882319F086E090E06BCF65E7ED
:104B50007BE0CE018F5F9A4F0E94A323882319F038
:104B600087E090E05FCFCC55DA4F8881C45AD540BA
:104B700060E971E0882311F068E971E0C8010E94E2
:104B80007612E0918C0DF0918D0D309729F0B801DF
:104B9000CE018F5F9A4F1995C8010E94420FF8010C
:104BA00083A98823C9F086A5811116C040E150E091
:104BB00070E060E0848195810E94930D67E972E066
:104BC000F801848195810E943A0F67E972E0F8014B
:104BD000848195810E943A0FE091920DF091930D9E
:104BE000309709F4CDC1A281B3811C920680F78170
:104BF000E02DF6CFF50110821C141D040CF0B2C09C
:104C0000CB55DA4FE880F980C55AD5406FE370E0A4
:104C1000C7010E944B3A41E0009709F440E09C0133
:104C2000009731F4F70101900020E9F731979F01D7
:104C30002E193F09C955DA4F39832883C75AD54001
:104C4000240F311DE20EF31EC056DA4FF982E882BE
:104C5000C05AD540F70101900020E9F73197EE19CD
:104C6000FF09CE55DA4FF983E883C25AD540009741
:104C700011F0FC011082EE24E394F12C67E972E05C
:104C8000CE018F5F9A4F0E94E623882309F475C0F6
:104C90008CE2B82E9AE0A92E67E972E0CE018F5F10
:104CA0009A4F0E94E623F82E811199C065E67BE0B9
:104CB000CE018F5F9A4F0E94A323882309F4D1C0AD
:104CC000CE018F5F9A4F0E942F0AE82E882309F4A5
:104CD0003FC0CE018F5F9A4F0E94AA098F3F98076D
:104CE000B9F1D12C8D32910549F4CE018F5F9A4FE5
:104CF0000E94AA098F3F980759F1DE2CC656DA4F59
:104D000019821882CA59D5409C01205331092A3092
:104D1000310508F082C0C656DA4F28813981CA5958
:104D2000D540A29EB001A39E700D1124860F971F3F
:104D3000C097C656DA4F99838883CA59D540CE01A9
:104D40008F5F9A4F0E94AA09FE2C8F3F9807E1F6C9
:104D5000CC55DA4F8881C45AD54081110DCF6FEA06
:104D600071E00CCFCC55DA4F8881C45AD5406EE93A
:104D700071E0882309F402CFFFCE6FE57BE0CE011E
:104D80008F5F9A4F0E94A323882339F0CB5EDA4FBE
:104D900019821882C551D54071CF6BE57BE0CE01F9
:104DA0008F5F9A4F0E94A323882339F0CB5EDA4F9E
:104DB000F982E882C551D54061CFCE018F5F9A4F0D
:104DC0000E94AA09019609F059CFCC55DA4F888183
:104DD000C45AD5408111D0CE69EF71E0CFCE81E0C9
:104DE000C756DA4F8883C959D54030E020E0A80182
:104DF000BE016F5F7A4F80E99DE00E94D522F801E5
:104E000081A992A9892B09F4A0C0F80183A9811175
:104E1000B8CEC8010E94D10FB4CE682FCE018F5FEB
:104E20009A4F0E94180ADD2079F0C656DA4F888121
:104E30009981CA59D540919581959109C656DA4F05
:104E400099838883CA59D540FF2009F481CF67E947
:104E500072E0CE018F5F9A4F0E94E62381111CCF32
:104E600077CFC256DA4FE880F980CE59D540E114A9
:104E7000F10409F459C0F70160817181CE018F5F9F
:104E80009A4F0E94E623811104C0F701E680F78063
:104E9000EECF63E67BE0CE018F5F9A4F0E94A323A3
:104EA000882399F3F701C480D580E280F380F7016D
:104EB0008081882369F001900020E9F73197CF01C4
:104EC0008E199F09B0820196E80EF91EC81AD90AF8
:104ED000CE018F5F9A4F0E942F0A882309F438CFA2
:104EE000CE018F5F9A4F0E94AA098F3F980709F45D
:104EF0002FCF21E0C21AD1081C141D042CF4F70195
:104F00008083C70101967C0167E972E0CE018F5F63
:104F10009A4F0E94E623882319F3F70110821C148C
:104F20001D040CF4B9CE14CF67E972E0CE018F5F97
:104F30009A4F0E94E6238111AFCECE018F5F9A4F28
:104F40000E94AA09019681F703CF84AD81115DCF3C
:104F500080918E0D90918F0D892B19F464E971E089
:104F60000DCE64E971E0C8010E944412E0918E0DFB
:104F7000F0918F0DB801CE018F5F9A4F199501CE38
:104F8000C151DA4F0FB6F894DEBF0FBECDBFDF912F
:104F9000CF911F910F91FF90EF90DF90CF90BF9036
:104FA000AF9008951F920F920FB60F9211242F9376
:104FB0003F938F939F93AF93BF938091690B909191
:104FC0006A0BA0916B0BB0916C0B3091680B23E0D6
:104FD000230F2D3758F50196A11DB11D2093680BA5
:104FE0008093690B90936A0BA0936B0BB0936C0B3F
:104FF00080916D0B90916E0BA0916F0BB091700B27
:105000000196A11DB11D80936D0B90936E0BA09323
:105010006F0BB093700BBF91AF919F918F913F91A8
:105020002F910F900FBE0F901F90189526E8230F19
:105030000296A11DB11DD2CF1F920F920FB60F92F3
:1050400011240BB60F922F933F934F935F936F935F
:105050007F938F939F93AF93BF93EF93FF9381E7DA
:105060009BE00E94BA08FF91EF91BF91AF919F9191
:105070008F917F916F915F914F913F912F910F9001
:105080000BBE0F900FBE0F901F9018951F920F929E
:105090000FB60F9211240BB60F922F938F939F93FD
:1050A000EF93FF93E091810BF091820B8081E0916F
:1050B000870BF091880B82FD1DC0908180918A0B37
:1050C0008F5F8F7320918B0B821741F0E0918A0BD9
:1050D000F0E0EF58F44F958F80938A0BFF91EF919A
:1050E0009F918F912F910F900BBE0F900FBE0F903D
:1050F0001F9018958081F2CF1F920F920FB60F92DA
:1051000011240BB60F922F933F934F935F936F939E
:105110007F938F939F93AF93BF93EF93FF938EE013
:105120009CE00E94BA08FF91EF91BF91AF919F91CF
:105130008F917F916F915F914F913F912F910F9040
:105140000BBE0F900FBE0F901F9018951F920F92DD
:105150000FB60F9211240BB60F922F938F939F933C
:10516000EF93FF93E0911E0CF0911F0C8081E09172
:10517000240CF091250C82FD1DC090818091270C9C
:105180008F5F8F732091280C821741F0E091270CDC
:10519000F0E0E25FF34F958F8093270CFF91EF9142
:1051A0009F918F912F910F900BBE0F900FBE0F907C
:1051B0001F9018958081F2CFE1E7FBE01382128205
:1051C00048EE53E060E070E0448355836683778364
:1051D00081E792E09183808325E331E0358724875E
:1051E00024E331E03787268720E331E0318B208BC1
:1051F00021E331E0338B228B22E331E0358B248BAA
:1052000026E331E0378B268B118E128E138E148E8F
:10521000EEE0FCE013821282448355836683778339
:105220009183808385EC90E09587848784EC90E07F
:105230009787868780EC90E0918B808B81EC90E063
:10524000938B828B82EC90E0958B848B86EC90E044
:10525000978B868B118E128E138E148EEBEAFCE0E8
:1052600089E892E0918380831282138214821582EE
:10527000E7E1FDE09183808312821382148215821C
:105280001092F50C1092F60C1092F70C1092F80C8C
:105290001092FA0C1092F90C1092FD0C1092FF0C67
:1052A0001092FE0C1092020D1092040D1092030D3C
:1052B0001092070D1092090D1092080D10920C0D0E
:1052C00010920E0D10920D0D21E030E03093120D72
:1052D0002093110DEDE1FDE0918380831282138212
:1052E00014821582E3E2FDE09183808312821382AF
:1052F00014821582E3E3FDE091838083128213829E
:1053000014821582E9E2FDE011821082138212827A
:10531000158214821782168211861086E9E3FDE059
:10532000918380831282138214821582E7E4FDE068
:105330009183808312821382148215822FEF20932F
:105340003F0DEDE9FDE09183808312821382148288
:105350001582E8E9FDE083E892E09183808380E5AF
:1053600090E0938382831482ECE8FDE01182108246
:105370001382128215821482178216824087518707
:1053800062877387A9E7BDE08CE115968C9315972A
:105390008BE016968C931697E7E0F7E0E49117966A
:1053A000EC931797E1ECF6E0E4911896EC931897DC
:1053B00040E85EE360E070E01D964D935D936D9371
:1053C0007C935097A6E6BDE094E215969C931597C2
:1053D00016968C931697EFE0F7E0E4911796EC930E
:1053E0001797E9ECF6E0E4911896EC9318971D9660
:1053F0004D935D936D937C935097A3E5BDE09CE244
:1054000015969C93159716968C931697E7E1F7E0FF
:10541000E4911796EC931797E1EDF6E0E491189676
:10542000EC9318971D964D935D936D937C935097D5
:1054300062E07AE08DE49DE00C94141FCF93DF933B
:10544000CDB7DEB7C855D1090FB6F894DEBF0FBE91
:10545000CDBF789484B5826084BD84B5816084BDFD
:1054600085B5826085BD85B5816085BD80916E0002
:10547000816080936E001092810080918100826033
:105480008093810080918100816080938100809170
:1054900080008160809380008091B100846080935F
:1054A000B1008091B00081608093B0008091910044
:1054B000826080939100809191008160809391003F
:1054C000809190008160809390008091A100826023
:1054D0008093A1008091A10081608093A1008091C0
:1054E000A00081608093A000809121018260809360
:1054F000210180912101816080932101809120010F
:1055000081608093200180917A00846080937A008A
:1055100080917A00826080937A0080917A00816025
:1055200080937A0080917A00806880937A0010924C
:10553000C10061E08EE20E94C50661E086E20E9441
:10554000C50661E08EE10E94C50661E086E10E9429
:10555000C50662E087E00E94C50662E08BE10E941A
:10556000C506E0911E0CF0911F0C42E04083E091D3
:105570001A0CF0911B0C1082E0911C0CF0911D0C88
:105580008FEC80831092260CE091220CF091230C7A
:1055900096E09083E091200CF091210C8081806155
:1055A0008083E091200CF091210C808188608083C1
:1055B000E091200CF091210C808180688083E09143
:1055C000200CF091210C80818F7D808321E73BE0CE
:1055D000E091810BF091820B4083E0917D0BF09183
:1055E0007E0B1082E0917F0BF091800B80E1808335
:1055F0001092890BE091850BF091860B9083E091DE
:10560000830BF091840B808180618083E091830B18
:10561000F091840B808188608083E091830BF0910E
:10562000840B808180688083E091830BF091840BF0
:1056300080818F7D80833093B20C2093B10C3093A6
:10564000B40C2093B30C1092120D1092110D0E9405
:105650008F1569EA73E08091B30C9091B40C0E94AD
:10566000E60761E083EA93E00E9475158EE993E016
:105670000E949915882309F441C082E993E00E94B1
:1056800099158823D9F181E893E00E949915882320
:10569000A9F166E773E08091B30C9091B40C0E947D
:1056A000E60761E08EE693E00E947515882331F1EC
:1056B0008091BD0C80538093F60C0E94291588239D
:1056C000E9F08091F60C8093F70C10923F0D0E9448
:1056D0008F158091F70C81111FC081E090E09093AD
:1056E000120D8093110D8091110D9091120D019763
:1056F000029790F58FEF80933F0D2EC08FEF809330
:105700003F0D8EE09CE00E94F10E62E778E08EE0B3
:105710009CE00E94160FFFCF67EB73E08091B30C03
:105720009091B40C0E94E60761E080EB93E00E9448
:1057300075158823C1F21091BC0C10530E942915D5
:10574000882389F2153028F4123008F48EC081E0E5
:10575000D2CF153009F489C080913F0D8F3F89F277
:1057600011E01093F50C64EC73E08091B30C909110
:10577000B40C0E94E6074AE050E061E070E08091DE
:10578000B30C9091B40C0E94930D8091B30C909146
:10579000B40C0E94F10E0E94291589E892E09DAF99
:1057A0008CAF4AE04EAF20E82FAF33E521963FAFF4
:1057B000219758E022965FAF22979A8389835FEF03
:1057C0005B835C835D832E839BA38AA34CA32DA361
:1057D0003EA31FA399AB88AB4AAB2BAB3CAB1DAB35
:1057E0009FAB8EAB22968CAD9DADAEADBFAD22977B
:1057F00088AF99AFAAAFBBAF1E0120E3220E311CC8
:105800009E012F5F3F4FAE014E5D5F4FB101CE0154
:10581000C6960E94B1158EE09CE00E94F10E69E9E7
:1058200078E08EE09CE00E943A0F65E272E08EE044
:105830009CE00E94160F0E948F158091F60C6091DB
:10584000F50C81600E942F1581111AC082E08093AF
:105850003F0D8091F60C823009F0FBC08EE09CE099
:105860000E94F10E63E179E06AC080913F0D8130C2
:1058700029F0823009F470CF84E03DCF83E03BCF44
:105880008091B30C9091B40C2091F50C63EF73E010
:10589000211102C066EE73E00E94E60763EE73E03A
:1058A0008091B30C9091B40C0E94E60765E272E01F
:1058B0008091B30C9091B40C0E943A0F67E076E0AF
:1058C0008091B30C9091B40C0E94E6076AE072E0FC
:1058D0008091B30C9091B40C0E943A0F62E28091D7
:1058E000B30C9091B40C0E94D1078091B30C9091AD
:1058F000B40C0E94F10E0E942915882309F4A6CF4A
:105900008091F50C8111A0C081E080933F0D8EE065
:105910009CE00E94F10E69EB78E08EE09CE00E9432
:10592000160F64ED78E08EE09CE00E943A0F6EE086
:105930007CE0CE01CC960E94CD0D69EF78E08EE040
:105940009CE00E94160F89E79DE00E94640786E6AE
:105950009DE00E94640783E59DE00E9464076DE27C
:105960007FE187EF98E00E94041C60EF7FE186E30F
:1059700099E00E94041C6DEB71E28FE399E00E94B4
:10598000041C00919A0D10919B0D0E948F1560E7E9
:1059900074E08091B30C9091B40C0E94E6072AE069
:1059A00041E050E060E070E08091B30C9091B40C65
:1059B0000E94410D8091B30C9091B40C0E94F10EA5
:1059C0000E942915811167C080E080939C0D09E831
:1059D00012E00E9458072D966CAF7DAF8EAF9FAF3F
:1059E0002D9780919C0D8823F1F00E948F1581EBFB
:1059F0009CE0F12CE12CFC01E95BFF4F2081322F70
:105A00003570353041F42A7031F43196208131817E
:105A1000232B09F073C0AFEFEA1AFA0A0596B5E036
:105A2000EB16F10441F71DA21CA288EE93E0A0E062
:105A3000B0E08EA39FA3A8A7B9A7A5E3B2E0BBA33C
:105A4000AAA31FA61EA678C083ED93E00E94991515
:105A50005BCF8091F50C8823B9F085E494E00E9437
:105A6000991585E394E00E94991587E294E00E94DD
:105A700099158CEF93E00E949915882309F4EECED6
:105A800084E080933F0DEACE87E194E00E9499156F
:105A900085E094E0ECCF60E674E08091B30C9091E7
:105AA000B40C0E94E607B8018091B30C9091B40C3D
:105AB0000E948D0D8091B30C9091B40C0E94F10E58
:105AC0000E942915882309F47FCF65E574E0809151
:105AD000B30C9091B40C0E94E6076CE370E08091E7
