:100000000C94F9050C942A060C942A060C942A06E2
:100010000C942A060C942A060C942A060C942A06A0
:100020000C942A060C942A060C942A060C942A0690
:100030000C942A060C942A060C942A060C942A0680
:100040000C942A060C942A060C942A060C942A0670
:100050000C942A060C942A060C942A060C94D22A94
:100060000C942A060C94A62B0C947C2B0C942A0638
:100070000C942A060C942A060C942A060C942A0640
:100080000C942A060C942A060C942A060C942A0630
:100090000C942A060C942A060C942A060C942A0620
:1000A0000C942A060C942A060C942A060C942A0610
:1000B0000C942A060C942A060C942A060C942A0600
:1000C0000C942A060C942A060C942A060C942A06F0
:1000D0000C942A060C942A060C94462B0C941C2B88
:1000E0000C942A060C945F060C9469060C94941FD9
:1000F0000C949D080C946D0A0C9485060C944A0689
:100100000C9461210C94920A0C945C060C949B163E
:100110000C9481060C94170B0C9465190C94D81848
:100120000C9450060C948A060C94210B0C949C346D
:100130000C94F20D0C94241B0C94E0180C947D0686
:100140000C946F060C94320B0C94DE090C9452172D
:100150000C9477060C942F080C94DC2B0C949B23A6
:100160000C94B1080C944D0F0C948E080C9454060A
:100170000C9401090C94071B0C9458060C948B06E4
:100180000C94870A0C94B8240C94901D0C94FD1ABE
:100190000C94BC0A0C9465060C94E9090C94730643
:1001A0000C944B1B0C9476100C94D11E0C941D1DBA
:1001B0000C94290B0C944E090C94BF080C94F20F6C
:1001C0000C948F060C947E2200407A10F35A00A003
:1001D000724E18090010A5D4E80000E87648170010
:1001E00000E40B54020000CA9A3B000000E1F50550
:1001F000000080969800000040420F000000A0869A
:1002000001000000102700000000E80300000000CB
:100210006400000000000A0000000000010000006F
:1002200000002C76D888DC674F0823DFC1DFAE5989
:10023000E1B1B796E5E3E453C63AE651997696E81C
:10024000E6C28426EB898C9B62ED407C6FFCEFBCA0
:100250009C9F40F2BAA56FA5F490055A2AF75C93CB
:100260006B6CF9676DC11BFCE0E40D47FEF520E601
:10027000B500D0ED902E0300943577050080841EE4
:10028000080000204E0A000000C80C333333330F3F
:10029000986E12831141EF8D2114893BE65516CFDC
:1002A000FEE6DB18D1844B381BF77C1D901DA4BBE8
:1002B000E424203284725E228100C9F124ECA1E59D
:1002C0003D272B434950524543564C454E0041541F
:1002D0002B434950524543564C454E3F002B434912
:1002E00050535441545553002B43574D4F444500F0
:1002F00041542B43574D4F44453F0041542B4349F4
:1003000050524543564D4F44453D310041542B43D7
:1003100049504D55583D310041544530007265619A
:1003200064790041542B5253540053544154555353
:100330000041542B434950535441545553004154A8
:100340002B43574155544F434F4E4E3D0041542B84
:1003500043574155544F434F4E4E3D31003D2200CF
:1003600041542B43574A41505F4355520041542B4F
:1003700043574A41500041542B435751415000418B
:10038000542B4357444843505F4355523D312C3121
:100390000041542B434950444E535F4355523D3026
:1003A0000041542B4357444843503D312C310041C8
:1003B000542B434950444E535F4445463D30004121
:1003C000542B43574155544F434F4E4E3D300041FF
:1003D000542B43495053544F3D0041542B434950F3
:1003E0005345525645523D312C0041542B43495000
:1003F0005345525645524D4158434F4E4E3D005283
:100400006F6F6D20696E204672656520436F6F6C5B
:10041000696E67204D6F646500202A43202D2052AD
:100420006F6F6D20696E205061737369766520432C
:100430006F6F6C696E67204D6F646500202A4320E2
:100440002D20526F6F6D20696E20547572626F207F
:1004500046616E204D6F646500202A43202D205296
:100460006F6F6D20696E20414320436F6F6C696E22
:1004700067204D6F646500202A43202D20526F6F46
:100480006D20696E20414320436F6F6C696E672059
:100490004D6F6465002025202D20526F6F6D2069FF
:1004A0006E20414320436F6F6C696E67204D6F640F
:1004B0006500202A43202D20526F6F6D20696E2029
:1004C000414320436F6F6C696E67204D6F64650018
:1004D0002D2D2D2D2D2D2D2D2D2D2D2D2D2D2D2D4C
:1004E0002D2D2D2D2D2D2D2D2D2D2D2D2D2D2D2D3C
:1004F0002D2D2D2D002D2D2D2D2D2D2D2D2D2D2D59
:100500002D2D2D2D2D2D2D2D2D2D2D2D2D2D2D2D1B
:100510002D2D2D2D2D2D2D2D2D002D2D2D2D2D2D38
:100520002D2D2D2D2D2D2D2D2D2D2D2D2D2D2D2DFB
:100530002D2D2D2D2D2D2D2D2D2D2D2D2D2D000045
:10054000002100240027002A002D00300033000184
:10055000010000040107010A010000220025002813
:10056000002B002E003100340002010000050108BC
:10057000010B01000020002300260029002C002F81
:100580000032000001000003010601090100000A19
:100590000B02090C0D0E0807030401000000000007
:1005A000000000000000000000000000000000004B
:1005B0000000000000000000001211100000000008
:1005C000000000000000000000000000000000002B
:1005D000000000222C002C220041542B4349505390
:1005E000544152543D002B434950524543564441D7
:1005F00054410041542B43495052454356444154C1
:10060000413D0053454E4420005265637620003E34
:1006100000222C002C220041542B43495053454EBC
:10062000443D0041542B434950434C4F53453D00FA
:10063000312C220041542B434950444E535F4355C3
:10064000523D0041542B434950444E535F4445466C
:100650003D00222C220041542B4349505354415F0A
:100660004355523D220041542B4349505354413D80
:10067000220041542B43574D4F44455F4355523D53
:100680000041542B43574D4F44453D002B434950A7
:100690005354410041542B4349505354413F002B84
:1006A00043574A41500041542B43574A41503F0061
:1006B0004F4B00554E4C494E4B004E6F2041500061
:1006C0004641494C004552524F52002C434F4E4E2A
:1006D000454354204641494C002C434C4F5345441C
:1006E000002C434F4E4E454354002B4950442C00A0
:1006F00005050505070508080808020202020A0A9E
:1007000008080404040401010101010101010303BB
:10071000030303030303040707070C0C0C0C0C0C66
:100720000C0C0202020206060606060606060B0B63
:100730000B0B0B0B0B0B01021020200808102040A4
:100740001020408002010201080402010102040895
:100750001020408080402010080402018004020123
:10076000804020100804020108040201010204086C
:100770001020408001020408102040803A20006BC5
:100780006565702D616C69766500436F6E6E65639B
:1007900074696F6E00436F6E74656E742D4C656E78
:1007A00067746800436F6E74656E742D547970655C
:1007B000004E6574776F726B2041757468656E7456
:1007C00069636174696F6E205265717569726564E1
:1007D000004E6F7420457874656E646564004C6FDC
:1007E0006F7020446574656374656400496E737549
:1007F0006666696369656E742053746F72616765BC
:100800000056617269616E7420416C736F204E6591
:10081000676F74696174657300485454502056655D
:100820007273696F6E204E6F7420537570706F72A3
:1008300074656400476174657761792054696D65FA
:100840006F7574005365727669636520556E6176C5
:1008500061696C61626C6500426164204761746526
:10086000776179004E6F7420496D706C656D656EAF
:1008700074656400496E7465726E616C20536572B4
:10088000766572204572726F7200556E617661698D
:100890006C61626C6520466F72204C6567616C20EC
:1008A000526561736F6E7300526571756573742064
:1008B000486561646572204669656C647320546F95
:1008C0006F204C6172676500546F6F204D616E79C7
:1008D00020526571756573747300507265636F6E35
:1008E000646974696F6E2052657175697265640020
:1008F00055706772616465205265717569726564CF
:1009000000546F6F204561726C79004661696C65B7
:100910006420446570656E64656E6379004C6F6336
:100920006B656400556E70726F6365737361626CA2
:100930006520456E74697479004D697364697265E8
:1009400063746564205265717565737400457870D1
:100950006563746174696F6E204661696C656400DB
:1009600052616E6765204E6F7420536174697366BF
:100970006961626C6500556E737570706F72746535
:1009800064204D6564696120547970650055524951
:1009900020546F6F204C6F6E67005061796C6F61EF
:1009A0006420546F6F204C617267650050726563FC
:1009B0006F6E646974696F6E204661696C6564006E
:1009C0004C656E6774682052657175697265640064
:1009D000476F6E6500436F6E666C696374005265A5
:1009E00071756573742054696D656F75740050720C
:1009F0006F78792041757468656E74696361746994
:100A00006F6E205265717569726564004E6F742057
:100A100041636365707461626C65004D6574686FF5
:100A200064204E6F7420416C6C6F776564004E6F6C
:100A30007420466F756E6400466F72626964646507
:100A40006E005061796D656E7420526571756972C2
:100A5000656400556E617574686F72697A656400CB
:100A60004261642052657175657374005065726DE2
:100A7000616E656E742052656469726563740054BA
:100A8000656D706F72617279205265646972656319
:100A9000740028556E757365642900557365205080
:100AA000726F7879004E6F74204D6F646966696566
:100AB0006400536565204F7468657200466F756EFB
:100AC00064004D6F766564205065726D616E656E71
:100AD000746C79004D756C7469706C652043686F37
:100AE0006963657300494D205573656400416C72FC
:100AF00065616479205265706F72746564004D752C
:100B00006C74692D537461747573005061727469EB
:100B1000616C20436F6E74656E740052657365740A
:100B200020436F6E74656E74004E6F20436F6E7459
:100B3000656E74004E6F6E2D417574686F726974C6
:100B4000617469766520496E666F726D6174696F54
:100B50006E0041636365707465640043726561741F
:100B60006564004F4B004561726C792048696E7472
:100B7000730050726F63657373696E6700537769B2
:100B8000746368696E672050726F746F636F6C7303
:100B900000436F6E74696E756500200048545450B0
:100BA0002F312E312000312E3100312E30003A000D
:100BB000436F6E74656E742D4C656E6774683A0091
:100BC0004F5054494F4E5320005041544348200049
:100BD00044454C45544520005055542000504F5337
:100BE0005420004845414420004745542000DC2B58
:100BF0009C3411241FBECFEFD1E2DEBFCDBF00E099
:100C00000CBF2FE0AEE3BDE001C01D92AD3AB207CC
:100C1000E1F71DE0A0E0B2E0E2E5FCE700E00BBF99
:100C200002C007900D92AE33B107D9F715E0C8EFB7
:100C3000D5E000E006C021970109802FFE010E9447
:100C4000C03AC73FD10780E00807A9F70E941E2DD0
:100C50000C94173E0C9400008150823108F05AC069
:100C6000E82FF0E08827E85CF94F8F4F0C94C03AEA
:100C700058065C064A06500654068A065F06650654
:100C800069066F06730677067D0681068A06850665
:100C90008B068F06809180008F7780938000089567
:100CA000809180008F7DF9CF80918000877FF5CF84
:100CB00084B58F7784BD089584B58F7DFBCF8091F7
:100CC000B0008F778093B00008958091B0008F7D41
:100CD000F9CF809190008F77809390000895809154
:100CE00090008F7DF9CF80919000877FF5CF809124
:100CF000A0008F778093A00008958091A0008F7D41
:100D0000F9CF8091A000877FF5CF809120018F7768
:100D1000809320010895809120018F7DF9CF8091EB
:100D20002001877FF5CFCF93DF93282F30E0F901A3
:100D3000E357FA4F8491F901EA5CF84FD491F90135
:100D4000E051F94FC491CC23A1F081110E942C06EF
:100D5000EC2FF0E0EE0FFF1FED58FA4FA591B49184
:100D6000EC91ED2381E090E009F480E0DF91CF91F8
:100D7000089580E090E0FACF1F93CF93DF93282F60
:100D800030E0F901E357FA4F8491F901EA5CF84F3A
:100D9000D491F901E051F94FC491CC23A9F0162F59
:100DA00081110E942C06EC2FF0E0EE0FFF1FE75A96
:100DB000FA4FA591B4918FB7F894EC91111108C036
:100DC000D095DE23DC938FBFDF91CF911F910895E3
:100DD000DE2BF8CFCF93DF9390E0FC01EA5CF84F75
:100DE00024918051994FFC0184918823C9F090E0AF
:100DF000880F991FFC01E15CFA4FA591B491FC01A9
:100E0000E75AFA4FC591D49161110DC09FB7F8947C
:100E10008C91209582238C938881282328839FBFDF
:100E2000DF91CF910895623051F49FB7F8943C91CF
:100E3000822F809583238C93E8812E2BEFCF8FB761
:100E4000F894EC912E2B2C938FBFEACF3FB7F894F8
:100E500080916F0D9091700DA091710DB091720DF8
:100E600026B5A89B05C02F3F19F00196A11DB11D05
:100E70003FBFBA2FA92F982F8827BC01CD01620F41
:100E8000711D811D911D42E0660F771F881F991FFC
:100E90004A95D1F708958F929F92AF92BF92CF92C9
:100EA000DF92EF92FF924B015C010E9426076B01DB
:100EB0007C010E9426076C197D098E099F09683EF6
:100EC000734081059105A8F321E0821A9108A108D9
:100ED000B10888EEC80E83E0D81EE11CF11C811415
:100EE0009104A104B10429F7FF90EF90DF90CF9017
:100EF000BF90AF909F908F9008952FB7F894609116
:100F00006B0D70916C0D80916D0D90916E0D2FBFDA
:100F10000895CF93DF93EC0162E08D810E94EA0691
:100F20000E947D07605D77408109910969877A8712
:100F30008B879C8787E38A8BDF91CF9108950F93EE
:100F40001F93CF93DF93EC010E947D076887798719
:100F50008A879B87E881F9810284F385E02DCE01A1
:100F6000199597FF15C00E947D07088519852A8568
:100F70003B85601B710B820B930B0C811D812E81B5
:100F80003F81601771078207930720F38FEF9FEF70
:100F9000DF91CF911F910F910895AF92BF92CF92A1
:100FA000DF92EF92FF920F931F93CF93DF935C0139
:100FB0007B018B01040F151FEB016E01CE18DF08BA
:100FC000C017D10739F0C5010E949F0797FD02C0E5
:100FD0008993F3CFC601DF91CF911F910F91FF90BD
:100FE000EF90DF90CF90BF90AF900895DC01ED912E
:100FF000FC910190F081E02D1994DB0114964D9144
:101000005C9115976D917C91DC01ED91FC910280D2
:10101000F381E02D1994EF92FF920F931F93CF93DA
:10102000DF938C017B01D0E0C0E0F701EC0FFD1FE6
:101030006491662361F0D801ED91FC910190F081FB
:10104000E02DC8011995892B11F02196EECFCE0124
:10105000DF91CF911F910F91FF90EF900895AF9284
:10106000BF92CF92DF92EF92FF920F931F93CF9395
:10107000DF936C017B018B01040F151FEB015E01F7
:10108000AE18BF08C017D10759F06991D601ED918C
:10109000FC910190F081E02DC6011995892B79F71B
:1010A000C501DF91CF911F910F91FF90EF90DF90DD
:1010B000CF90BF90AF900895DC0190E030E020E049
:1010C0008AE0FB014191BF01442311F150ED540F1F
:1010D0005A3090F4829FF001839FF00D11249F01FC
:1010E00020533109240F311D47FD3A952F3F31051B
:1010F00041F338F380E008954E32E1F79330D1F3B5
:10110000FD01E90FF11D22839F5F30E020E0D9CF80
:10111000933081F715962C9381E00895FC01538D4F
:10112000448D252F30E0842F90E0821B930B5417C1
:1011300010F0CF96089501970895FC01918D828D4E
:10114000981761F0A28DAE0FBF2FB11D5D968C91E7
:10115000928D9F5F9F73928F90E008958FEF9FEF26
:101160000895FC01918D828D981731F0828DE80FE2
:10117000F11D858D90E008958FEF9FEF0895FC019C
:10118000918D228D892F90E0805C9F4F821B910969
:101190008F739927089583E79DE00E94BF0821E09F
:1011A000892B09F420E0822F089580E19EE00E94BF
:1011B000BF0821E0892B09F420E0822F0895FC016B
:1011C000A48DA80FB92FB11DA35ABF4F2C91848DA8
:1011D00090E001968F739927848FA689B7892C9305
:1011E000A089B1898C91837080648C93938D848D58
:1011F000981306C00288F389E02D80818F7D80835B
:101200000895EF92FF920F931F93CF93DF93EC011A
:1012100081E0888F9B8D8C8D98131AC0E889F9899D
:10122000808185FF15C09FB7F894EE89FF896083A0
:10123000E889F98980818370806480839FBF81E021
:1012400090E0DF91CF911F910F91FF90EF90089563
:10125000F62E0B8D10E00F5F1F4F0F731127E02E3E
:101260008C8D8E110CC00FB607FCFACFE889F98976
:10127000808185FFF5CFCE010E94DF08F1CFEB8D95
:10128000EC0FFD2FF11DE35AFF4FF0829FB7F8944A
:101290000B8FEA89FB8980818062CFCFCF93DF9368
:1012A000EC01888D8823B9F0AA89BB89E889F9897E
:1012B0008C9185FD03C0808186FD0DC00FB607FCB3
:1012C000F7CF8C9185FFF2CF808185FFEDCFCE01E6
:1012D0000E94DF08E9CFDF91CF91089580E090E090
:1012E000892B29F00E94D50881110E94000080E01E
:1012F00090E0892B49F080E090E0892B29F00E9452
:10130000000081110E94000080E090E0892B49F0EC
:1013100080E090E0892B29F00E94000081110E945A
:10132000000080E090E0892B29F00E94CB08811119
:101330000C9400000895FB01DC0180E29D91492F8F
:10134000092E000C550B992391F02491222379F05A
:1013500024912417150649F06491292F2827022E7D
:10136000000C330B6217130611F43196E7CF84910A
:101370008417150671F0E491892F8062082E000C05
:10138000990BE062E817190639F034F08FEF9FEF00
:10139000089590E080E0089581E090E00895CF9373
:1013A000DF93EC010E949F078F3F980721F4CD55F2
:1013B000DF4F21E02883DF91CF910895DC01509623
:1013C0008D919C91DC01ED91FC910190F081E02DDB
:1013D00019940F931F93CF93DF93FC01EA56FF4FAD
:1013E00020813181121613067CF42150310931839A
:1013F0002083820F931FDC0156968C9190E0DF9141
:10140000CF911F910F9108958C0108561F4FF8013D
:101410002081222379F0319620813181232B51F4D0
:10142000DC0114961D921D921D921C9217978FEF4E
:101430009FEFE5CFEC018E859F85DC01ED91FC915E
:101440000284F385E02D19958F3F9807C1F2F801CA
:101450002081222349F0FE01E756FF4F2081318190
:101460002150310931832083C556DF4F28813981CE
:101470002F5F3F4F39832883C2CFFC01EA56FF4FCD
:10148000408151819A012F5F3F4F31832083840F28
:10149000951FDC0156966C932038310521F48FE7B7
:1014A00090E0918380830895CF93DF93EC01CE0188
:1014B0000E94CF098F3F980761F080329105B9F300
:1014C00089309105A1F3682FCE010E943D0A81E089
:1014D00001C080E0DF91CF9108950F931F93CF93C8
:1014E000DF938C01DC01ED91FC910284F385E02D0A
:1014F0001995EC018F3F980721F0682FC8010E94D1
:101500003D0ACE01DF91CF911F910F910895DC012B
:1015100050968D919C91DC01ED91FC910680F781B4
:10152000E02D1994CF93DF93EC018E859F85DC012C
:10153000ED91FC910084F185E02D1995DE01A7560F
:10154000BF4FFE01EA56FF4F2D913C9140815181E2
:10155000240F351F821793075CF48E859F85DC016D
:10156000ED91FC910084F185E02DDF91CF911994EC
:10157000C901DF91CF910895DC0150968D919C9126
:10158000DC01ED91FC910480F581E02D1994EF923E
:10159000FF920F931F93CF93DF93FC0126A937A9E6
:1015A0002A303105ECF57A018B01EC01F901EE0FDF
:1015B000FF1FEE0FFF1FEC0FFD1F77836683F901FE
:1015C0003296EE0FFF1FEE0FFF1FEC0FFD1F518332
:1015D00040832F5F3F4F3FAB2EAB64EA77E0C801FB
:1015E0000E949B09892B11F481E08FA765E977E0C0
:1015F000C8010E949B09892B11F481E08EA76AE83B
:1016000077E0C8010E949B09892B51F46FE777E0CE
:10161000C7010E949B0921E0892B09F020E028AB3B
:10162000DF91CF911F910F91FF90EF9008958F5B05
:101630009F4FFC01208131818FEF93E0821B930B40
:10164000089521E0FC018481811101C020E0822FF6
:10165000089521E0FC0184859585892B09F420E01B
:10166000822F089590E080E00895CF92DF92EF926C
:10167000FF92CF93DF93DC011796CC911797D0E0C0
:101680006111DC2F18962C91189730E0220F331F30
:101690002D583A4F50E040E0F90185919491FC01BA
:1016A000F080BA0190E080E0EF2DEC23ED1310C044
:1016B0004F5F5F4F1D96CD90DD90ED90FC90509761
:1016C0006C157D058E059F0538F36FEF7FEFCB011D
:1016D000DF91CF91FF90EF90DF90CF9008958F92A0
:1016E0009F92AF92BF92CF92DF92EF92FF920F93B1
:1016F0001F93CF93DF93CDB7DEB7C054D1400FB661
:10170000F894DEBF0FBECDBF8C010E947D07F801AB
:10171000C184D284E384F4849B01AC012C193D097B
:101720004E095F0969017A0130EDC31637E0D3062F
:10173000E104F104A8F48189C05CDE4F0FB6F8948F
:10174000DEBF0FBECDBFDF91CF911F910F91FF90F4
:10175000EF90DF90CF90BF90AF909F908F900895C3
:101760006187728783879487148213821282118221
:10177000108262E085810E94EA0661E070E080E00C
:1017800090E00E944B0761E0F80185810E94EA0623
:1017900060E0F80185810E94BC06F80186818551D0
:1017A000823028F58BE291E10197F1F762E0F801D0
:1017B00085810E94EA06F801828990E082309105D5
:1017C00038F0880F991F880F991F05970197F1F737
:1017D000F89460E0C8010E94350B6F3F7F4F8F4F38
:1017E0009F4F61F4F801118A789480E0A5CF64E1FD
:1017F00070E080E090E00E944B07D8CF61E0C80124
:101800000E94350B6F3F7F4F8F4F9F4F59F39E01C3
:101810002F5F3F4F79015E013FEBA31A3EEFB30A02
:10182000670160E0C8010E94350BF6016083718397
:101830008283938361E0C8010E94350BF6016483C3
:10184000758386839783F8E0CF0ED11CCA14DB041E
:1018500041F7789430E020E0F70180809180A28009
:10186000B3804481558166817781FFEF8F169F0693
:10187000AF06BF0631F04F3F8FEF58076807780774
:1018800019F4F801118AB1CFF90183E0F595E795D4
:101890008A95E1F7E00FF11F8081880F8416950685
:1018A000A606B706F0F080832F5F3F4FF8E0EF0EFB
:1018B000F11C2832310581F6F801448120818181B3
:1018C000280F3327331F8281280F311D8381820F18
:1018D000932F911D99274817190699F681E0818B5E
:1018E0002BCF8160E0CFCF92DF92EF92FF921F93D8
:1018F000CF93DF93EC010E946F0B882339F08E8128
:101900008C3009F44DC038F48B30E1F060E070E0C9
:1019100080EC9FE73DC085518230C0F71A81612F6E
:1019200070E0762F662766277F778B81682B90E0A3
:1019300080E00E9455392DEC3CEC4CEC5DE30E94BC
:10194000B63948C06A8170E090E080E00E94553965
:101950006B017C01CB81C7FF0AC0AC019B0160E039
:1019600070E080E89FEB0E94C83A6B017C01CF7069
:101970006C2F70E090E080E00E9457392DEC3CEC39
:101980004CEC5DE30E94B639A70196010E94C93A6A
:10199000DF91CF911F91FF90EF90DF90CF9008954E
:1019A0001A81612F70E090E080E00E9455396B0150
:1019B0007C016B816F7070E090E080E00E9457398D
:1019C0002DEC3CEC4CEC5DE30E94B639A70196018E
:1019D0000E94C93A17FFDCCF9058DACFCF92DF923E
:1019E000EF92FF92CF93DF93EC010E946F0B88235D
:1019F00041F08E818B3028F08D3040F0855182305F
:101A000030F160E070E080EC9FE71AC0698170E01F
:101A100090E080E00E9457392DEC3CEC4CEC5DE30B
:101A20000E94B6396B017C01688170E090E080E033
:101A30000E9457399B01AC01C701B6010E94C93A07
:101A4000DF91CF91FF90EF90DF90CF900895688164
:101A5000798176276727762790E080E00E945539C4
:101A60002DEC3CEC4CEC5DE30E94B639E9CF61E033
:101A70008EE20E94BC0661E086E20E94BC0661E044
:101A80008EE10E94BC0661E086E10C94BC0660E039
:101A90008EE20E94BC0660E086E20E94BC0660E026
:101AA0008EE10E94BC0660E086E10C94BC06FB015E
:101AB00001900020E9F73197AF01461B570BDC017D
:101AC000ED91FC910280F381E02D19948F929F9209
:101AD000AF92BF92EF92FF920F931F93CF93DF933A
:101AE000CDB7DEB7A1970FB6F894DEBF0FBECDBF5E
:101AF0007C01FA01CB0119A2223008F42AE08E0100
:101B00000F5D1F4F822E912CB12CA12CBF01A5017E
:101B100094010E94843AF901CA016A300CF5605DB3
:101B2000D8016E938D01232B242B252B79F790E080
:101B300080E0109721F0BD01C7010E94570DA196CA
:101B40000FB6F894DEBF0FBECDBFDF91CF911F91CE
:101B50000F91FF90EF90BF90AF909F908F9008955E
:101B6000695CDECFAB0170E060E02AE00C94660DAA
:101B7000CF92DF92EF92FF920F931F93CF93DF9359
:101B80006B01770FEE08FF084A305105F1F42AE0A7
:101B9000F7FE1CC0EC016DE20E94F6078C014427A1
:101BA0005527BA014C195D096E097F092AE0CE015B
:101BB0000E94660D800F911FDF91CF911F910F91B1
:101BC000FF90EF90DF90CF900895242FB701A601EA
:101BD000DF91CF911F910F91FF90EF90DF90CF9009
:101BE0000C94660D8F929F92AF92BF92CF92DF922C
:101BF000EF92FF920F931F93CF93DF937C018B01A2
:101C00006C0182E0C80ED11C4701E5E08E0E911CEC
:101C1000D0E0C0E0F60141916F0150E070E060E07B
:101C20002AE0C8010E94660D5C016EE2C8010E94B4
:101C3000F6078A0D9B1DC80FD91FC814D90451F788
:101C4000F701458150E070E060E02AE0C8010E94A1
:101C5000660D8C0F9D1FDF91CF911F910F91FF900B
:101C6000EF90DF90CF90BF90AF909F908F900895AE
:101C70004F925F926F927F928F929F92AF92BF929C
:101C8000CF92DF92EF92FF920F931F93CF936B014E
:101C90007C01742EAC019B010E94DB3B6BE872E07F
:101CA000811126C046015701E894B7F82FEF3FEFA6
:101CB0004FE75FE7C501B4010E94DB3B81110CC017
:101CC0002FEF3FEF4FE75FE7C501B4010E945039A6
:101CD0006FE872E0181664F02FEF3FEF4FE75FE414
:101CE000C701B6010E94D63B1816ACF463E972E056
:101CF00080E19EE0CF911F910F91FF90EF90DF90D8
:101D0000CF90BF90AF909F908F907F906F905F909B
:101D10004F900C94570D2FEF3FEF4FE75FECC7014B
:101D2000B6010E94503987FDE1CF20E030E0A901E3
:101D3000C701B6010E94503910E000E087FF0AC0D9
:101D40006DE280E19EE00E94F6078C01F7FAF094C4
:101D5000F7F8F094C0E060E070E080E09FE37C166C
:101D600041F020E030E040E251E40E94353BCF5F9B
:101D7000F6CFA70196010E94C93A2B013C010E94AF
:101D8000A73B4B015C012AE0BC01A40180E19EE07D
:101D90000E94660D7C01E00EF11ECC23B1F1C5015D
:101DA000B4010E9455399B01AC01C301B2010E94EC
:101DB000C83A4B015C016EE280E19EE00E94F607AA
:101DC000E80EF91EC15008F120E030E040E251E495
:101DD000C501B4010E94B6392B013C010E94A73B0A
:101DE0004B0180E19EE00E94B20DE80EF91EB401A5
:101DF00090E080E00E9455399B01AC01C301B20123
:101E00000E94C83A4B015C01DDCFC701CF911F9101
:101E10000F91FF90EF90DF90CF90BF90AF909F9089
:101E20008F907F906F905F904F90089567E972E078
:101E30000C94570DCF93DF9360E17EE00E94F20D8A
:101E4000EC0180E19EE00E94160F8C0F9D1FDF9138
:101E5000CF910895CF93DF93BC0180E19EE00E9473
:101E60000B08EC0180E19EE00E94160F8C0F9D1F75
:101E7000DF91CF9108950F931F93CF93DF93EC01E0
:101E80000E94570D8C01CE010E94160F800F911FEA
:101E9000DF91CF911F910F910895CF93DF93EB01C5
:101EA0006AE972E080E19EE00E943B0F4CEA52E05A
:101EB00066EB72E0CE010E94C70A63EC72E0CE01CD
:101EC0000E943B0F6AEC72E0CE010E943B0F61ED75
:101ED00072E0CE010E943B0F61E373E0CE010E94ED
:101EE0003B0F6DE573E0CE010E943B0F65E673E0AA
:101EF000CE010E943B0F6CE673E0CE010E943B0FC7
:101F000062E973E0CE010E943B0F69E973E0CE0104
:101F10000E943B0F66EB73E0CE010E943B0F6EEB1D
:101F200073E0CE01DF91CF910C943B0F0F931F9381
:101F3000CF93DF93EC010E94FD078C01CE010E943C
:101F4000160F800F911FDF91CF911F910F91089570
:101F50006115710511F00C94570D90E080E0089523
:101F60000F931F93CF93DF938C010F5B1F4FD8010B
:101F70006D917C911616170684F5EC018BA98823C8
:101F800079F08EA581110CC040E150E08C819D81DB
:101F90000E94B80D67E972E08C819D810E94A80FB4
:101FA0008C819D81F801408151816DAD7EADDC0158
:101FB000ED91FC910280F381E02D19958BA9882386
:101FC00049F08EA5811106C067E972E08C819D8180
:101FD0000E94A80FF80111821082DF91CF911F910A
:101FE0000F910895CF93DF93EC010E94B00F8C8185
:101FF0009D81DC01ED91FC910680F781E02DDF9160
:10200000CF911994EF92FF920F931F93CF93DF9389
:10201000EC0189A99AA9892B29F468EC70E0CE011A
:102020000E94B21281E08DAB8E01F12CE12C0C5F8D
:102030001F4F8EA99FA9E816F906D4F4F801628112
:102040007381CE010E94A80F6CE777E0CE010E9459
:10205000DD10F80164817581CE010E94A80F67E947
:1020600072E0CE010E94A80FFFEFEF1AFF0ADFCF48
:10207000DF91CF911F910F91FF90EF900895CF9333
:10208000DF93EC018FA5811107C046EC53E066EBAE
:1020900072E0CE010E94C70A88A9882351F08EA55C
:1020A000811107C041ED53E069ED73E0CE010E945C
:1020B000C70A88A9811109C081E08EA74BEE53E0C1
:1020C00061EF73E0CE010E94C70ACE010E940210A8
:1020D00067E972E0CE010E94A80FCE010E94B00F06
:1020E0001DAA81E08BABDF91CF910895FF920F93F2
:1020F0001F93CF93DF93EC01F62E8BA9811109C0BA
:102100008DA9811106C08CA9811103C0CE010E9446
:102110003F10EDADFEAD8E010F5B1F4FD8018D91CD
:102120009C9111979C012F5F3F4F11963C932E93EA
:10213000E80FF91FF0828D919C918115944081F5F3
:102140008BA9882389F08EA581110EC040E150E053
:1021500060E074E08C819D810E94B80D67E972E0B7
:102160008C819D810E94A80F8C819D816DAD7EAD7B
:10217000DC01ED91FC910280F381E02D40E054E020
:1021800019958BA9882349F08EA5811106C067E9AE
:1021900072E08C819D810E94A80FF801118210824B
:1021A0008AAD9BAD01969BAF8AAF81E090E0DF9155
:1021B000CF911F910F91FF900895EF92FF920F938F
:1021C0001F93CF93DF93EC017B018BA9811109C091
:1021D0008DA9811106C08CA9811103C0CE010E9476
:1021E0003F108701F80164910F5F1F4F662341F094
:1021F000E881F9810190F081E02DCE011995F2CFAF
:10220000DF91CF911F910F91FF90EF900895673963
:1022100021E0720709F45EC10CF081C06C3221E04C
:10222000720709F433C1E4F56A3C710509F41CC175
:10223000ECF46636710509F40EC164F46436710578
:1022400009F402C16536710509F402C14AE050E0A3
:102250000C94B80D683C710509F400C10CF001C183
:102260006736710599F766E67BE0F0C06E3C710554
:1022700009F403C14CF46C3C710509F4FBC00CF487
:10228000F6C06BE17BE0E2C0603D710509F4FBC084
:102290000CF4F6C0623E7105C9F665EE7AE0D6C070
:1022A000643321E0720709F403C1D4F4603321E000
:1022B000720709F4F4C054F46E3221E0720709F495
:1022C000EBC00CF4E6C062EB7AE0C0C0623321E000
:1022D000720709F4EAC00CF4E5C06FE77AE0B6C013
:1022E000633921E0720709F4ECC07CF4613921E024
:1022F000720709F4E0C00CF0E1C0603921E0720718
:1023000009F0A4CF60E67AE0A1C0653921E0720748
:1023100009F4DDC00CF4D8C06CE07AE097C06A3AEA
:1023200021E0720709F4FAC00CF03FC06F3921E0D8
:10233000720709F4E1C0D4F46B3921E0720709F4A3
:10234000D2C054F4693921E0720709F4C9C00CF411
:10235000C4C060ED79E07AC06D3921E0720709F4FC
:10236000C8C00CF4C3C06DE879E070C0663A21E0E3
:10237000720709F4CAC07CF4613A21E0720709F4DB
:10238000C1C00CF4BCC0653A21E0720709F05ECF11
:1023900069E379E05BC0683A21E0720709F4BBC0E9
:1023A0000CF4B6C061E079E051C0673F21E07207EC
:1023B00009F4C6C03CF5633C21E0720709F4B7C0DC
:1023C00094F46D3A21E0720709F4ABC06F3A21E052
:1023D000720709F4A9C06C3A21E0720709F036CF00
:1023E0006AED78E033C0653F21E0720709F4A2C0CE
:1023F0000CF0A3C0643F21E0720709F027CF64E727
:1024000078E024C06B3F21E0720709F4A2C054F4C5
:10241000693F21E0720709F499C00CF494C061E0AF
:1024200078E014C06E3F21E0720709F495C06F3F59
:1024300021E0720709F493C06C3F21E0720709F0B4
:1024400005CF6EED77E002C061E97BE00C94DD1012
:102450006DE77BE0FBCF62E77BE0F8CF63E67BE0F4
:10246000F5CF6BE57BE0F2CF62E57BE0EFCF64E395
:102470007BE0ECCF69E27BE0E9CF6BE07BE0E6CF8D
:102480006EEF7AE0E3CF6DEE7AE0E0CF64ED7AE0D4
:10249000DDCF62EC7AE0DACF6CEB7AE0D7CF65EA99
:1024A0007AE0D4CF6BE97AE0D1CF62E97AE0CECF9F
:1024B0006CE67AE0CBCF63E57AE0C8CF62E47AE0FD
:1024C000C5CF68E37AE0C2CF6EE27AE0BFCF6BE1BE
:1024D0007AE0BCCF6EEE79E0B9CF6EED79E0B6CFA1
:1024E00065ED79E0B3CF60EC79E0B0CF6CEA79E0EC
:1024F000ADCF6AE979E0AACF66E779E0A7CF60E6D9
:1025000079E0A4CF6DE479E0A1CF64E279E09ECFD9
:102510006DE179E09BCF6BE079E098CF60EF78E0F8
:1025200095CF68EC78E092CF68EA78E08FCF6AE8E0
:1025300078E08CCF64E678E089CF68E578E086CFF4
:1025400064E478E083CF64E378E080CF69E178E009
:102550007DCF6CEE77E07ACF61ED77E077CF61EBFE
:1025600077E074CF0F931F93CF93DF93EC018B0130
:102570007AAB69AB81E08CAB6CE97BE0CE010E9469
:10258000DD104AE050E0B801CE010E94B80D6AE9C2
:102590007BE0CE010E94DD10B801CE010E94071140
:1025A00067E972E0CE010E94A80F0C3C110519F0FA
:1025B0000033114019F481E08EA78FA71CAADF9188
:1025C000CF911F910F9108950F931F93CF93DF9396
:1025D000EC018B0189A99AA9892B19F4CE010E94DB
:1025E000B212CE010E943F10B801CE01DF91CF910F
:1025F0001F910F910C9407112F923F924F925F926F
:102600006F927F928F929F92AF92BF92CF92DF9202
:10261000EF92FF920F931F93CF93DF9300D01F92FF
:102620001F92CDB7DEB77C016A834B831982212CC0
:1026300010E085E0382E9FE3492E512C8091B30E97
:102640009091B40EDC01ED91FC910084F185E02DB8
:102650001995E114F10409F5892BF9F42224239446
:10266000822D0F900F900F900F900F90DF91CF91D0
:102670001F910F91FF90EF90DF90CF90BF90AF90A0
:102680009F908F907F906F905F904F903F902F9092
:1026900008952224239410E0D1CF1092B70E41E088
:1026A00050E067EB7EE08091B30E9091B40E0E94F3
:1026B000CD079D838C83892BA1F4133041F482E0F4
:1026C00090E09093140F8093130F212CC9CF6CEFDF
:1026D00073E08091B50E9091B60E0E943B0F1F5F84
:1026E000ADCF8091B30E9091B40E2091B70E2E33E2
:1026F00009F044C041E050E068EB7EE00E94CD0765
:102700001092B80EE114F10461F0C7010E9468361E
:10271000AC01B70187EB9EE00E947136892B09F46A
:102720009DCF45E050E06AEE76E087EB9EE00E94A8
:102730007136892B09F0C3C0B091BC0EB053BC8375
:102740008EEB9EE00E942F36AB01EC81E53008F065
:10275000A2CF672B09F49FCFE39DF0011124E6502F
:10276000F14F2081FC813F9EC001112424FD8BC0CC
:102770008550914FDC014D935C938DCF6C817D81B1
:102780006954714F41E050E00E94CD07EC81FD811A
:10279000E80FF91FFD83EC8332970CF44FCF809143
:1027A000B70E8D3049F58091B80E8A3009F473CF99
:1027B0000AE06090B30E7090B40E52018C819D813E
:1027C000A81AB90A8954914F4C01D12CC12C002E62
:1027D000000C110BAC14BD04D9F1C3010E949F077A
:1027E00097FD36C08017910799F1D4018D934D0163
:1027F000BFEFCB1ADB0AEECF8B32D1F68091B80E49
:10280000833429F4FA81F111D3CF0AE3D2CF89348A
:1028100079F66C817D816954714F44E050E080917C
:10282000B30E9091B40E0E94CD072C813D81280FEC
:10283000391F3D832C83E091BC0EE053332DE3021E
:10284000F0011124E650F14F808184FDDECFB0CF3E
:10285000EC81FD81EC0DFD1DED54F14FFD83EC830A
:10286000EC81FD81E35BFE402C813D8121503109EB
:102870003D832C83D90114968C918D3089F3ED54CE
:10288000F14F14823FCF8350914FFC0180819181A1
:102890002091B30E3091B40EDC01ED91FC910190CA
:1028A000F081E02DB9011995182F882309F4C6CEBF
:1028B00090E008969093140F8093130FECCE61EE86
:1028C00076E088EB9EE00E945F36892B21F5E0914F
:1028D000B70EE0538E2F90E0389ED001399EB00D98
:1028E0001124A550B14F2D913C91232B09F0D3CE4B
:1028F000E39DF0011124E650F14F208120FF02C03A
:1029000021FFC9CE389EF001399EF00D1124E6500A
:10291000F14F3082C0CE69ED76E088EB9EE00E94F8
:102920005F36892B19F16BEC76E088EB9EE00E9414
:102930005F36892BD9F065EC76E087EB9EE00E944C
:102940005F36892BE9F060EC76E087EB9EE00E9431
:102950005F36892BA9F06AEB76E087EB9EE00E9458
:102960005F36892BD1F484E090E0ABCEE091B70ED6
:10297000E0533E9EF0011124E650F14F10828BCEC1
:1029800021106CCEE114F10409F485CE83E090E0CF
:102990009093140F8093130F63CE63EB76E087EB75
:1029A0009EE00E945F36892B09F473CEBB81BB2366
:1029B00049F060EB76E087EB9EE00E945F36892B62
:1029C00009F483CEE981EF5FE983E73408F463CE4D
:1029D00076CE40E061E080EB96E00C94FC12CF9361
:1029E000DF93C82F8091F90E81110AC081E090E039
:1029F0009093140F8093130F80E0DF91CF9108958F
:102A00009091F80EC91306C0611102C081E0F5CFA4
:102A10008C17E1F38091B50E9091B60E22E736E067
:102A2000662311F021E836E0D62FB9010E940B0889
:102A30004C2F50E070E060E02AE08091B50E90915C
:102A4000B60E0E94660D8091B50E9091B60E0E9452
:102A5000160F0E94E914882381F2C093F80EDD233B
:102A6000A9F2C093F90E8D2FC8CF1F93CF93DF9398
:102A7000EC01162F8091B50E9091B60E0E94160FA4
:102A8000209741F040E0612FCE01DF91CF911F915F
:102A90000C94FC12DF91CF911F910C94E9141092C9
:102AA000140F1092130F40E060E090E080E00C946F
:102AB000FC120F931F93CF93DF938C010E944F154D
:102AC000C3EBDEE0B8018A819B810E940B088A81FA
:102AD0009B810E94160FDF91CF911F910F910C9453
:102AE000E914AF92BF92CF92DF92EF92FF920F93D1
:102AF0001F93CF93DF93CDB7DEB72C970FB6F89423
:102B0000DEBF0FBECDBF5C016B017A0189010E945F
:102B10004F158091F80E60E081600E94EF148111E2
:102B200012C080E02C960FB6F894DEBF0FBECDBF6A
:102B3000DF91CF911F910F91FF90EF90DF90CF9099
:102B4000BF90AF9008958091B50E9091B60E2091F0
:102B5000F70E66E676E0211102C066E576E00E9497
:102B60000B086091B50E7091B60EC5010E94F20D72
:102B7000F7018281882311F162E576E08091B50E3C
:102B80009091B60E0E940B086091B50E7091B60E32
:102B9000C7010E94F20DF8018281882379F062E575
:102BA00076E08091B50E9091B60E0E940B08609170
:102BB000B50E7091B60EC8010E94F20D62E28091CE
:102BC000B50E9091B60E0E94F6078091B50E9091C9
:102BD000B60E0E94160F0E94E914882309F4A1CFB3
:102BE00089E892E098878F8340914B0F50914C0F6A
:102BF00060914D0F70914E0F49875A876B877C8784
:102C00009A838983F60182819381A481B5818B8324
:102C10009C83AD83BE830E944F158091F80E60E0C7
:102C200081600E94EF14882309F47CCF8091B50E57
:102C30009091B60E2091F70E63E476E0211102C068
:102C400064E376E00E940B088091B50E9091B60E79
:102C50002B8121110FC04AE050E070E060E00E943B
:102C6000B80D8091B50E9091B60E0E94160F0E947D
:102C7000E91458CF60E376E00E940B086091B50E2E
:102C80007091B60ECE0101960E94F20D89858823BF
:102C900081F062E576E08091B50E9091B60E0E94CB
:102CA0000B086091B50E7091B60ECE0107960E948A
:102CB000F20D62E28091B50E9091B60E0E94F60779
:102CC000D0CFCF93C82F0E944F1585E0C89F9001A9
:102CD0001124C9018D54914FFC01E85BFF4F118213
:102CE00010822650314FF901208120FF21C0895BDD
:102CF0009F4F2260FC01208363E276E08091B50E55
:102D00009091B60E0E940B084C2F50E070E060E0EE
:102D10002AE08091B50E9091B60E0E94660D8091CA
:102D2000B50E9091B60E0E94160FCF910C94E91437
:102D300081E0CF9108950F931F93CF93DF93FC0110
:102D400024853585232BF1F0EC010190F081E02DF5
:102D50000680F781E02D19950C851D85F80181818C
:102D60008F3F11F00E946116F80110828FEF81836E
:102D70001686158614861386148A138A1582148281
:102D80001D861C86DF91CF911F910F9108958F9220
:102D90009F92AF92BF92CF92DF92EF92FF920F93EA
:102DA0001F93CF93DF93B82E8B017A010E944F15AA
:102DB000E5E0EB9DE0011124C550D14FC880D980DA
:102DC000C114D104E1F4BE9EF0011124E650F14F8C
:102DD000808180FD06C086E090E09093140F809380
:102DE000130FC601DF91CF911F910F91FF90EF90CC
:102DF000DF90CF90BF90AF909F908F90089563EF3A
:102E000075E08091B50E9091B60E0E940B084B2D87
:102E100050E070E060E02AE08091B50E9091B60E2F
:102E20000E94660D6CE28091B50E9091B60E0E94E4
:102E3000F607B7018091B50E9091B60E0E94B20DC3
:102E400060E086EE95E00E94351581110BC0198275
:102E5000188287E090E09093140F8093130FD12C89
:102E6000C12CBFCF84EC9EE00E942F364B016B013A
:102E7000AB01B8018091B30E9091B40E0E94CD07C2
:102E80008816990621F7888199818815990528F473
:102E9000198218820E94E914A4CF8819990999838C
:102EA0008883F8CFEF92FF921F93CF93DF93FC01BB
:102EB000E484F584E114F104C1F1EC01F70111811E
:102EC0001F3FD9F00E944F1585E0189FF001112493
:102ED000E650F14F808180FF02C081FF03C08FEF79
:102EE000F7018183F70181818F3F39F081E0DF9124
:102EF000CF911F91FF90EF900895E881F9810084B0
:102F0000F185E02DCE011995892B81F7EC85FD85A2
:102F100010828FEF81831686158614861386148A95
:102F2000138A158214821D861C8680E0E0CFCF9222
:102F3000DF92EF92FF920F931F93CF93DF936C0179
:102F40007B018A010E944F1564E976E08091B50EFD
:102F50009091B60E0E940B0861E08CE896E00E940A
:102F600035158823E1F1C7EBDEE0FE01019000207A
:102F7000E9F73597138263EC7EE0C6010E945C0896
:102F800040E061E08CE896E00E94FC12882339F171
:102F9000FE0101900020E9F73597138268EC7EE08E
:102FA000C7010E945C0840E061E08CE896E00E9466
:102FB000FC128823A1F009900020E9F725971B82D5
:102FC00068EC7EE0C8010E945C08DF91CF911F9100
:102FD0000F91FF90EF90DF90CF900C94E91480E078
:102FE000DF91CF911F910F91FF90EF90DF90CF90E5
:102FF0000895BF92CF92DF92EF92FF920F931F93AB
:10300000CF93DF93B82EEB017A01690167E176E097
:103010008091B50E9091B60E0E940B084B2D50E09A
:1030200070E060E02AE08091B50E9091B60E0E94AB
:10303000660D6CE28091B50E9091B60E0E94F60777
:10304000B7018091B50E9091B60E0E94B20DC114D9
:10305000D104F1F064E176E08091B50E9091B60E66
:103060000E940B08B6018091B50E9091B60E0E9499
:10307000A80F61E176E08091B50E9091B60E0E94A6
:103080000B08B8018091B50E9091B60E0E94B20D5A
:1030900061E08FE096E00E943515811103C090E059
:1030A00080E02BC08091B30E9091B40EDC01ED91C5
:1030B000FC910280F381E02DA701BE01199540E04B
:1030C00061E089E096E00E94FC12882341F38CEBDA
:1030D0009EE00E942F366B0140E061E083E096E0C5
:1030E0000E94FC128823D9F260EB76E08CEB9EE024
:1030F0000E945F36892B59F4C601DF91CF911F9151
:103100000F91FF90EF90DF90CF90BF90089588E0EF
:1031100090E09093140F8093130FC1CF9F92AF92C2
:10312000BF92CF92DF92EF92FF920F931F93CF93B4
:10313000DF93FC01E388F488E114F10429F1EC0148
:1031400004811581A280B380C784D08891800E94B9
:103150004F1585E0989EF0011124E650F14F8081D3
:1031600080FD1EC086E090E09093140F8093130FB3
:1031700030E020E091E04B895C894217530709F465
:1031800090E09E831C8A1B8ADF91CF911F910F9143
:10319000FF90EF90DF90CF90BF90AF909F900895F9
:1031A0009501A701B601892D0E94F9179C01E2CF74
:1031B000FC0184859585009711F00C948E18089574
:1031C0008F929F92AF92BF92CF92DF92EF92FF9237
:1031D0000F931F93CF93DF935B017A01FC01C485AA
:1031E000D58590E080E0209761F0D12CC12C9980AA
:1031F000FFEF9F1213C09E82F12CE12CC6018E0DB1
:103200009F1DDF91CF911F910F91FF90EF90DF9065
:10321000CF90BF90AF909F908F900895E114F104EC
:1032200069F38B899C8909891A89009711F50E1514
:103230001F05F8F40C811D810A80DB81C02D0E94DE
:103240004F1585E0989EF0011124E650F14F8081E2
:1032500080FD07C086E090E09093140F8093130FD9
:10326000CBCF9E01A701B501892D0E94F9177C01E2
:10327000C5CF081B190BD50190E080E0081719078E
:1032800091F0E816F90679F0EF85F8892B893C89E9
:10329000A9014F5F5F4F5C8B4B8B4D91E20FF31F8A
:1032A00040830196EBCF4701801A910A97FCA6CF85
:1032B000CE010E948E188114910409F49FCFA00EB4
:1032C000B11EC00ED11E740192CFCF93DF93FC01CB
:1032D000C485D5852097F1F0EF85F8898B899C8985
:1032E0009C012F5F3F4F3C8B2B8BE80FF91F6083B6
:1032F0002B893C8989899A892817390771F4CE016D
:103300000E948E1881E090E02E81211180E0DF91F3
:10331000CF91089580E090E0FACF81E0FCCFBF929A
:10332000CF92DF92EF92FF920F931F93CF93DF9391
:1033300000D01F921F92CDB7DEB7FC0125853685E0
:1033400083859485281B390B11811F3F09F4C3C065
:103350002115310509F0BFC07F010E944F15C12E14
:10336000D12C85E0B82EBC9CF001BD9CF00D112441
:10337000E550F14F208131812115310509F0ABC0B5
:103380001B9DF0011124E650F14F808180FF9EC00B
:1033900081FD9CC00E947D070091150F1091160FB2
:1033A0002091170F3091180F601B710B820B930B3C
:1033B000643F71408105910508F47BC00E947D0740
:1033C0006093150F7093160F8093170F9093180F3B
:1033D0000E944F1561E373E08091B50E9091B60E97
:1033E0000E940B0861E08AE293E00E943515882371
:1033F00009F45FC08E010F5F1F4FF8011192BA945C
:10340000E9F741E061E08DED92E00E94FC12882333
:1034100049F0E091C20EE053E00FF12FF11D81E081
:103420008083EFCFF801AAEFBEE09E012A5F3F4FF5
:1034300095E08191882309F45EC08C9180FF01C0E2
:1034400081FD9C9315962E173F0799F70E944F1503
:103450006EEC72E08091B50E9091B60E0E940B0852
:1034600061E082EC92E00E943515882311F16EEF45
:1034700073E083EC9EE00E947F3610E000E000974E
:10348000B1F0FC012081222339F00E942F36F8018F
:10349000E550F14F718360836EEF73E090E080E060
:1034A0000E947F360B5F1F4F0931110541F70E94C3
:1034B000E91485E08C9DF0018D9DF00D1124E550FF
:1034C000F14F208131812115310529F4C7010E9476
:1034D0008E1830E020E0C9010F900F900F900F90F0
:1034E0000F90DF91CF911F910F91FF90EF90DF90A0
:1034F000CF90BF9008951C92A5CFCF93DF93EC019E
:103500002B853C858D859E852817390780F0CE0157
:103510000E948F19892B59F01C861B8649855A8574
:103520006F81788589810E94C7169E878D87DF917C
:10353000CF910895AF92BF92CF92DF92EF92FF9218
:103540000F931F93CF93DF938C015B01EA01D12C82
:10355000C12C209709F44EC0C8010E948F19892BF5
:1035600009F448C0F801E584F68483859485E81A57
:10357000F90AB9F4818592858C179D0790F4AE0104
:10358000B50181810E94C7168C0D9D1DDF91CF91E1
:103590001F910F91FF90EF90DF90CF90BF90AF9071
:1035A0000895C8010E947D1AD50190E080E08E1533
:1035B0009F05A1F08C179D0789F0F8016781708540
:1035C00023853485A9014F5F5F4F54874387FB01F3
:1035D000E20FF31F20812D930196E9CFEC16FD0633
:1035E00010F0CE01D1CFCE19DF09AE0CBF1CCE0C2E
:1035F000DF1CAFCF90E080E0C7CFFC0184859585CC
:10360000009711F00C949A1A90E080E00895CF93FF
:10361000DF93FC01C485D585209729F48FEF9FEFB8
:10362000DF91CF910895CE010E948F19892BB1F3BC
:10363000CE010E947D1AEF81F8858B859C85E80F6D
:10364000F91F808190E0ECCF0F931F93CF93DF930E
:103650001F92CDB7DEB7FC01048515850115110554
:1036600029F0C8010E948F19892B19F48FEF9FEF61
:103670000CC041E050E0BE016F5F7F4FC8010E9467
:103680009A1A892B99F3898190E00F90DF91CF915D
:103690001F910F910895FC0184859585009711F085
:1036A0000C948F1990E080E00895CF92DF92EF9212
:1036B000FF920F931F93CF93DF93EC018B016A016D
:1036C00079010E944F15209709F018828091F80E19
:1036D000823009F44FC066EA76E08091B50E909191
:1036E000B60E0E940B0861E08FE996E00E94351546
:1036F000882309F43FC060E074E08FEB9EE00E94F5
:103700007F36209721F0BC01CE010E94023EE801E5
:10371000269660E074E090E080E00E947F3640E111
:1037200050E070E060E00E94E3346A93C017D10774
:1037300081F760E074E090E080E00E947F360E94B4
:103740001136F601808360E074E090E080E00E9432
:103750007F360E942F36F7016083718382839383C3
:10376000DF91CF911F910F91FF90EF90DF90CF905D
:103770000C94E91480E0DF91CF911F910F91FF909D
:10378000EF90DF90CF9008950F931F93CF93DF9327
:103790008C01EB018AE090E00E94E03BFC018AE0B2
:1037A000DF011D928A95E9F711830083D383C283D9
:1037B00081E090E097838683A091920FB091930F60
:1037C000109751F4F093930FE093920FDF91CF9104
:1037D0001F910F910895DC0118968D919C91199776
:1037E0000097C9F71996FC93EE931897EFCFCF92F5
:1037F000DF92FF920F931F93CF93DF93EBE2FFE0F3
:1038000010E000E09FEFC191D1912097C1F1298193
:10381000281312C06115710529F02C813D816217B2
:103820007307E1F0188299831E861D861C861B860D
:103830001C8A1B8A1D821C822881211118C029859F
:103840003A852034310599F429893A8920343105A3
:1038500071F489837D836C8381E08883CE01DF915D
:10386000CF911F910F91FF90DF90CF9008950F5F40
:103870001F4F0530110539F6D0E0C0E0EFCF6B01E6
:10388000F82E85E190E00E94E03BEC0185E1FE012D
:1038900011928A95E9F780E490E00E94E03B9887D6
:1038A0008F8380E490E00E94E03B988B8F8780E4D8
:1038B00090E09A8789879A8B898BF982DD82CC8206
:1038C00081E08883000F111FF801E55DF04FD1837F
:1038D000C083C4CFAF92BF92CF92DF92EF92FF929C
:1038E0000F931F93CF93DF937C015B016A01DC018F
:1038F0001C968D919C911D97892B39F0ED91FC912F
:103900000488F589E02DC70119950E944F150E9482
:103910004F15EEE0FFE0C4E0D0E080818370B9F4A1
:1039200081819281892B99F485E08C9F80018D9F04
:10393000100D1124F801E650F14F808180FF19C06D
:1039400085E090E09093140F8093130F05C02197AA
:103950003597CF3FDC0709F790E080E0DF91CF910A
:103960001F910F91FF90EF90DF90CF90BF90AF909D
:10397000089569ED75E08091B50E9091B60E0E94A4
:103980000B082AE0AE01DD0F660B770B8091B50EB8
:103990009091B60E0E94660D66ED75E08091B50EB1
:1039A0009091B60E0E940B0864E074E08091B50E11
:1039B0009091B60E0E94A80F62E576E08091B50E58
:1039C0009091B60E0E940B08B5018091B50E9091B2
:1039D000B60E0E94A80F63ED75E08091B50E909130
:1039E000B60E0E940B08B6018091B50E9091B60EEE
:1039F0000E94B20D0650114F81E0F8018083809142
:103A0000B50E9091B60E0E94160F0E94E914811116
:103A100003C0D8011C92A0CF70E060E08C2F0E9400
:103A2000F71BF70195878487892B21F48C2F0E943F
:103A3000611692CF81E090E091CF8F929F92AF92EA
:103A4000BF92CF92DF92EF92FF920F931F93CF938B
:103A5000DF93CDB7DEB760970FB6F894DEBF0FBE29
:103A6000CDBF7C01FB016A0183809480B580828197
:103A70004AE08E010F5F1F4FB80190E00E94AA3606
:103A8000F80101900020E9F73197BF01601B710B2D
:103A90008EE2A82EA0826F5F7F4F600F711F4AE0F9
:103AA000882D90E00E94AA36F80101900020E9F7E5
:103AB0003197BF01601B710BA0826F5F7F4F600F5A
:103AC000711F4AE0892D90E00E94AA36F80101900A
:103AD0000020E9F73197BF01601B710BA0826F5F77
:103AE0007F4F600F711F4AE08B2D90E00E94AA3635
:103AF000A601B801C7010E946A1C60960FB6F8942F
:103B0000DEBF0FBECDBFDF91CF911F910F91FF9010
:103B1000EF90DF90CF90BF90AF909F908F900895DF
:103B20000C946A1C0F931F93CF93DF93EC01888151
:103B30009981009759F02A813B812617370730F089
:103B400081E0DF91CF911F910F9108958B016F5FFD
:103B50007F4F0E94053D009759F0998388831B830E
:103B60000A832C813D81232B59F7FC011082E8CF79
:103B700080E0E7CFEF92FF920F931F93CF93DF93F5
:103B80006115710541F480E0DF91CF911F910F9194
:103B9000FF90EF90089541155105B1F07B01EC01C4
:103BA0000C811D81040F151FB8010E94921D8823EE
:103BB00051F3288139818C819D81B701820F931F38
:103BC0000E94023E1D830C8381E0DECFCF93DF9302
:103BD000EC0188819981009711F00E947C3C198248
:103BE00018821D821C821B821A82DF91CF91089558
:103BF000CF93DF93EC01FB0101900020E9F73197AF
:103C0000AF01461B570B0E94BA1D811103C0CE01A4
:103C10000E94E61DCE01DF91CF910895CF93DF93EF
:103C2000EC01FB0144815581608171810E94BA1DC4
:103C3000811103C0CE010E94E61DCE01DF91CF911C
:103C40000895EF92FF920F931F93CF93DF93EC01B0
:103C50007B018A01BA010E94921D81110BC0CE0125
:103C60000E94E61DCE01DF91CF911F910F91FF9031
:103C7000EF9008951D830C83B701888199810E947C
:103C8000023EF0CFEF92FF920F931F93CF93DF93FB
:103C9000CDB7DEB7A1970FB6F894DEBF0FBECDBF8C
:103CA0007C01CB01BA01F7011182108213821282CA
:103CB000158214828E010F5F1F4F22E044E00E94A4
:103CC000C5340097C9F0FC0101900020E9F7319755
:103CD000AF01481B590BBC01C7010E94211EA196D0
:103CE0000FB6F894DEBF0FBECDBFDF91CF911F910D
:103CF0000F91FF90EF900895C7010E94E61DEFCF4E
:103D0000EF92FF920F931F93CF93DF93CDB7DEB760
:103D100062970FB6F894DEBF0FBECDBF8C01CB010A
:103D2000F8011182108213821282158214824AE0F5
:103D30009E012F5F3F4F7901B9010E94AA36F7011A
:103D400001900020E9F73197AF014E195F09B701E3
:103D5000C8010E94211E62960FB6F894DEBF0FBE06
:103D6000CDBFDF91CF911F910F91FF90EF900895FC
:103D7000FC01118210821382128215821482FB01CF
:103D800001900020E9F73197AF01461B570B0C94C7
:103D9000211EFC0180819181009711F00C947C3CE4
:103DA00008950F931F93CF93DF93CDB7DEB72C9772
:103DB0000FB6F894DEBF0FBECDBF8B0168E074E094
:103DC00080E19EE00E943B0F4CEA52E066EB72E01D
:103DD000C8010E94C70A63EC72E0C8010E943B0F51
:103DE0006AEC72E0C8010E943B0F6AE174E0C8010E
:103DF0000E943B0F6DE573E0C8010E943B0F65E632
:103E000073E0C8010E943B0F4091520D5091530D39
:103E10006091540D7091550DCE0107960E94421E7F
:103E200064E474E0CE0101960E94B81EBE01695F91
:103E30007F4FCE0101960E940E1E6CE574E00E9439
:103E4000F81DBC01C8010E94960FCE0101960E9488
:103E5000C91ECE0107960E94C91E40914E0D509179
:103E60004F0D6091500D7091510DCE0107960E943B
:103E7000421E61E674E0CE0101960E94B81EBE01AA
:103E8000695F7F4FCE0101960E940E1E6CE574E0C3
:103E90000E94F81DBC01C8010E94960FCE01019638
:103EA0000E94C91ECE0107960E94C91E40915A0D5C
:103EB00050915B0D60915C0D70915D0DCE01079688
:103EC0000E94421E6AE774E0CE0101960E94B81E6D
:103ED000BE01695F7F4FCE0101960E940E1E6CE508
:103EE00074E00E94F81DBC01C8010E94960FCE012B
:103EF00001960E94C91ECE0107960E94C91E61E963
:103F000074E0C8010E943B0F69E974E0C8010E9497
:103F10003B0F2C960FB6F894DEBF0FBECDBFDF91DE
:103F2000CF911F910F9108950F931F93CF93DF931C
:103F3000CDB7DEB72C970FB6F894DEBF0FBECDBF5E
:103F40008B0161EA74E080E19EE00E943B0F46EC49
:103F500053E066EB72E0C8010E94C70A60EC74E0AF
:103F6000C8010E94A80F67E075E0C8010E94A80F71
:103F70004091520D5091530D6091540D7091550D1B
:103F8000CE0107960E94421E6AE175E0CE010196BD
:103F90000E94B81EBE01695F7F4FCE0101960E944C
:103FA0000E1E68E972E00E94F81DBC01C8010E9463
:103FB000FD07CE0101960E94C91ECE0107960E9400
:103FC000C91E40914E0D50914F0D6091500D709152
:103FD000510DCE0107960E94421E6DE375E0CE01A1
:103FE00001960E94B81EBE01695F7F4FCE01019607
:103FF0000E940E1E68E972E00E94F81DBC01C80113
:104000000E94FD07CE0101960E94C91ECE010796AF
:104010000E94C91E40915A0D50915B0D60915C0D3C
:1040200070915D0DCE0107960E94421E61E675E01B
:10403000CE0101960E94B81EBE01695F7F4FCE017E
:1040400001960E940E1E68E972E00E94F81DBC01F4
:10405000C8010E94FD07CE0101960E94C91ECE0133
:1040600007960E94C91E63E875E0C8010E94A80F68
:104070006AEC75E0C8010E94A80F40914A0D50916A
:104080004B0D60914C0D70914D0DCE0107960E9425
:10409000421E61EE75E0CE0101960E94B81EBE017F
:1040A000695F7F4FCE0101960E940E1E68E972E0A3
:1040B0000E94F81DBC01C8010E94FD07CE010196B7
:1040C0000E94C91ECE0107960E94C91E4091460D4E
:1040D0005091470D6091480D7091490DCE010796A2
:1040E0000E94421E61E076E0CE0101960E94B81E59
:1040F000BE01695F7F4FCE0101960E940E1E68E9E6
:1041000072E00E94F81DBC01C8010E94FD07CE01AB
:1041100001960E94C91ECE0107960E94C91E4091B9
:10412000560D5091570D6091580D7091590DCE015B
:1041300007960E94421E62E276E0CE0101960E943E
:10414000B81EBE01695F7F4FCE0101960E940E1E10
:1041500068E972E00E94F81DBC01C8010E94FD07D9
:10416000CE0101960E94C91ECE0107960E94C91E6B
:1041700061E476E0C8010E94A80F6AE676E0C80113
:104180000E94A80F6091440D7091450DCE010796D5
:104190000E94801E65E876E0CE0101960E94B81E5E
:1041A000BE01695F7F4FCE0101960E940E1E68E935
:1041B00072E00E94F81DBC01C8010E94FD07CE01FB
:1041C00001960E94C91ECE0107960E94C91E6091E9
:1041D000420D7091430DCE0107960E94801E6DE93D
:1041E00076E0CE0101960E94B81EBE01695F7F4F46
:1041F000CE0101960E940E1E68E972E00E94F81D31
:10420000BC01C8010E94FD07CE0101960E94C91E93
:10421000CE0107960E94C91E6091400D7091410D1C
:10422000CE0107960E94801E65EB76E0CE010196D6
:104230000E94B81EBE01695F7F4FCE0101960E94A9
:104240000E1E68E972E00E94F81DBC01C8010E94C0
:10425000FD07CE0101960E94C91ECE0107960E945D
:10426000C91E60913E0D70913F0DCE0107960E94D0
:10427000801E61ED76E0CE0101960E94B81EBE015F
:10428000695F7F4FCE0101960E940E1E68E972E0C1
:104290000E94F81DBC01C8010E94FD07CE010196D5
:1042A0000E94C91ECE0107960E94C91E2C960FB609
:1042B000F894DEBF0FBECDBFDF91CF911F910F915C
:1042C00008950F931F93CF93DF93CDB7DEB72C974D
:1042D0000FB6F894DEBF0FBECDBF8B0167EE76E060
:1042E00080E19EE00E943B0F4CEA52E066EB72E0F8
:1042F000C8010E94C70A63EC72E0C8010E943B0F2C
:104300006AEC72E0C8010E943B0F61ED72E0C801E7
:104310000E943B0F6BEF76E0C8010E943B0F6DE5FA
:1043200073E0C8010E943B0F65E673E0C8010E947C
:104330003B0F63E277E0C8010E943B0F62E973E044
:10434000C8010E943B0F66E477E0C8010E943B0F62
:1043500060913E0D70913F0DCE0107960E94801E28
:104360006BE777E0CE0101960E94B81EBE01695F3F
:104370007F4FCE0101960E940E1E6CE877E00E94EE
:10438000F81DBC01C8010E94960FCE0101960E9443
:10439000C91ECE0107960E94C91E6091440D7091FE
:1043A000450DCE0107960E94801E62E977E0CE019E
:1043B00001960E94B81EBE01695F7F4FCE01019633
:1043C0000E940E1E6CE877E00E94F81DBC01C80137
:1043D0000E94960FCE0101960E94C91ECE0107963B
:1043E0000E94C91E6091420D7091430DCE01079647
:1043F0000E94801E65EA77E0CE0101960E94B81EF9
:10440000BE01695F7F4FCE0101960E940E1E6CE8CF
:1044100077E00E94F81DBC01C8010E94960FCE01F2
:1044200001960E94C91ECE0107960E94C91E609186
:10443000400D7091410DCE0107960E94801E68EBE1
:1044400077E0CE0101960E94B81EBE01695F7F4FE2
:10445000CE0101960E940E1E6CE877E00E94F81DC6
:10446000BC01C8010E94960FCE0101960E94C91E90
:10447000CE0107960E94C91E80913E0D90913F0D7E
:104480006FEC77E0009721F0019729F468EE77E070
:10449000C8010E943B0F8091440D9091450D64E04E
:1044A00078E0009721F0019729F464E278E0C801F0
:1044B0000E943B0F66E478E0C8010E943B0F65E66E
:1044C00078E0C8010E943B0F69E973E0C8010E94CF
:1044D0003B0F66EB73E0C8010E943B0F6EEB73E08D
:1044E000C8010E943B0F2C960FB6F894DEBF0FBE9A
:1044F000CDBFDF91CF911F910F9108950F931F931F
:10450000CF93DF93CDB7DEB72C970FB6F894DEBF0D
:104510000FBECDBF8B0161E878E080E19EE00E9494
:104520003B0F4CEA52E066EB72E0C8010E94C70AFA
:1045300063EC72E0C8010E943B0F6AEC72E0C801B4
:104540000E943B0F61ED72E0C8010E943B0F67E9DA
:1045500078E0C8010E943B0F6DE573E0C8010E943E
:104560003B0F65E673E0C8010E943B0F67EC78E003
:10457000C8010E943B0F62E973E0C8010E943B0F33
:1045800066E477E0C8010E943B0F60913E0D709198
:104590003F0DCE0107960E94801E6BE777E0CE01AB
:1045A00001960E94B81EBE01695F7F4FCE01019641
:1045B0000E940E1E6CE877E00E94F81DBC01C80145
:1045C0000E94960FCE0101960E94C91ECE01079649
:1045D0000E94C91E6091440D7091450DCE01079651
:1045E0000E94801E62E977E0CE0101960E94B81E0B
:1045F000BE01695F7F4FCE0101960E940E1E6CE8DE
:1046000077E00E94F81DBC01C8010E94960FCE0100
:1046100001960E94C91ECE0107960E94C91E609194
:10462000420D7091430DCE0107960E94801E65EAEF
:1046300077E0CE0101960E94B81EBE01695F7F4FF0
:10464000CE0101960E940E1E6CE877E00E94F81DD4
:10465000BC01C8010E94960FCE0101960E94C91E9E
:10466000CE0107960E94C91E6091400D7091410DC8
:10467000CE0107960E94801E68EB77E0CE0101967E
:104680000E94B81EBE01695F7F4FCE0101960E9455
:104690000E1E6CE877E00E94F81DBC01C8010E9464
:1046A000960FCE0101960E94C91ECE0107960E9468
:1046B000C91E80913E0D90913F0D6FEC77E0009701
:1046C00021F0019729F468EE77E0C8010E943B0FC2
:1046D0008091440D9091450D64E078E0009721F0C1
:1046E000019729F464E278E0C8010E943B0F66E478
:1046F00078E0C8010E943B0F65E678E0C8010E949F
:104700003B0F69E973E0C8010E943B0F66EB73E061
:10471000C8010E943B0F6EEB73E0C8010E943B0F83
:104720002C960FB6F894DEBF0FBECDBFDF91CF91B0
:104730001F910F9108950F931F93CF93DF93CDB7E0
:10474000DEB72C970FB6F894DEBF0FBECDBF8B013E
:1047500062EF78E080E19EE00E943B0F4CEA52E07D
:1047600066EB72E0C8010E94C70A63EC72E0C80100
:104770000E943B0F6AEC72E0C8010E943B0F61EDA2
:1047800072E0C8010E943B0F66E079E0C8010E9418
:104790003B0F6DE573E0C8010E943B0F65E673E0D7
:1047A000C8010E943B0F64E379E0C8010E943B0FFF
:1047B00062E973E0C8010E943B0F66E477E0C8013C
:1047C0000E943B0F60913E0D70913F0DCE01079608
:1047D0000E94801E6BE777E0CE0101960E94B81E12
:1047E000BE01695F7F4FCE0101960E940E1E6CE8EC
:1047F00077E00E94F81DBC01C8010E94960FCE010F
:1048000001960E94C91ECE0107960E94C91E6091A2
:10481000440D7091450DCE0107960E94801E62E9FD
:1048200077E0CE0101960E94B81EBE01695F7F4FFE
:10483000CE0101960E940E1E6CE877E00E94F81DE2
:10484000BC01C8010E94960FCE0101960E94C91EAC
:10485000CE0107960E94C91E6091420D7091430DD2
:10486000CE0107960E94801E65EA77E0CE01019690
:104870000E94B81EBE01695F7F4FCE0101960E9463
:104880000E1E6CE877E00E94F81DBC01C8010E9472
:10489000960FCE0101960E94C91ECE0107960E9476
:1048A000C91E6091400D7091410DCE0107960E9486
:1048B000801E68EB77E0CE0101960E94B81EBE0113
:1048C000695F7F4FCE0101960E940E1E6CE877E073
:1048D0000E94F81DBC01C8010E94960FCE010196EE
:1048E0000E94C91ECE0107960E94C91E80913E0DEE
:1048F00090913F0D6FEC77E0009721F0019729F43C
:1049000068EE77E0C8010E943B0F8091440D9091C2
:10491000450D64E078E0009721F0019729F464E206
:1049200078E0C8010E943B0F66E478E0C8010E946D
:104930003B0F65E678E0C8010E943B0F69E973E030
:10494000C8010E943B0F66EB73E0C8010E943B0F59
:104950006EEB73E0C8010E943B0F2C960FB6F894E3
:10496000DEBF0FBECDBFDF91CF911F910F91089594
:104970000F931F93CF93DF93CDB7DEB72C970FB66E
:10498000F894DEBF0FBECDBF8B016DE579E080E10D
:104990009EE00E943B0F4CEA52E066EB72E0C801D9
:1049A0000E94C70A63EC72E0C8010E943B0F6AECE8
:1049B00072E0C8010E943B0F61ED72E0C8010E94E5
:1049C0003B0F62E779E0C8010E943B0F6DE573E0A1
:1049D000C8010E943B0F65E673E0C8010E943B0FCF
:1049E00061EA79E0C8010E943B0F62E973E0C80107
:1049F0000E943B0F66E477E0C8010E943B0F609184
:104A00003E0D70913F0DCE0107960E94801E6BE710
:104A100077E0CE0101960E94B81EBE01695F7F4F0C
:104A2000CE0101960E940E1E6CE877E00E94F81DF0
:104A3000BC01C8010E94960FCE0101960E94C91EBA
:104A4000CE0107960E94C91E6091440D7091450DDC
:104A5000CE0107960E94801E62E977E0CE010196A2
:104A60000E94B81EBE01695F7F4FCE0101960E9471
:104A70000E1E6CE877E00E94F81DBC01C8010E9480
:104A8000960FCE0101960E94C91ECE0107960E9484
:104A9000C91E6091420D7091430DCE0107960E9490
:104AA000801E65EA77E0CE0101960E94B81EBE0125
:104AB000695F7F4FCE0101960E940E1E6CE877E081
:104AC0000E94F81DBC01C8010E94960FCE010196FC
:104AD0000E94C91ECE0107960E94C91E6091400D1A
:104AE0007091410DCE0107960E94801E68EB77E021
:104AF000CE0101960E94B81EBE01695F7F4FCE01B4
:104B000001960E940E1E6CE877E00E94F81DBC0121
:104B1000C8010E94960FCE0101960E94C91ECE01C7
:104B200007960E94C91E80913E0D90913F0D6FEC3B
:104B300077E0009721F0019729F468EE77E0C8014B
:104B40000E943B0F8091440D9091450D64E078E008
:104B5000009721F0019729F464E278E0C8010E94EF
:104B60003B0F66E478E0C8010E943B0F65E678E001
:104B7000C8010E943B0F69E973E0C8010E943B0F26
:104B800066EB73E0C8010E943B0F6EEB73E0C80157
:104B90000E943B0F2C960FB6F894DEBF0FBECDBF20
:104BA000DF91CF911F910F9108952F923F924F92D5
:104BB0005F926F927F928F929F92AF92BF92CF92AD
:104BC000DF92EF92FF920F931F93CF93DF937B01BE
:104BD0006A015901DC010D911C913B01B4EA6B0E95
:104BE000711C1B01EAEA2E0E311C2B01F8EA4F0E54
:104BF000511C0115110509F493C0D601DC967C9176
:104C000071118EC0F801848095808114910421F186
:104C1000808191810097E9F0EC0109900020E9F78B
:104C20002197C81BD90BD3016D917C916A0D7B1D17
:104C3000AE010E94093E892B41F495012C0F3D1FC6
:104C4000A601B701C4010E94D525F8010085118590
:104C5000D0CFD0E0C0E0F1CF86819781D7015296C6
:104C60002D913C918217930711F0089771F7F80185
:104C700020813181D301ED91FC91EA0DFB1D2115BD
:104C80003105E9F18081D9019C91911102C08823FD
:104C9000B1F150E040E090E080E006C09612D5CF40
:104CA0004F5F5F4F019671E0E901C80FD91F9880EF
:104CB000DF01A40FB51F6C919920B1F0662329F292
:104CC0007AE39712EBCFCE01821B930B49914423D9
:104CD00011F04F32C1F7AD014E1B5F0B6D91662392
:104CE00011F36F32C1F7DFCF772309F4AECF6F3204
:104CF000A1F48E0F9F1FDC018C918111A6CFD101F1
:104D0000ED93FC93F20131832083D8011296ED914B
:104D1000FC91B601C701199598CF662381F395CF11
:104D2000DF91CF911F910F91FF90EF90DF90CF9087
:104D3000BF90AF909F908F907F906F905F904F90BB
:104D40003F902F9008958F929F92AF92BF92CF92F3
:104D5000DF92EF92FF920F931F93CF93DF938C011B
:104D60006B01EB015E01FE018491882369F1C801AA
:104D70000E94CF097C018F3F980771F480E0DF919A
:104D8000CF911F910F91FF90EF90DF90CF90BF9048
:104D9000AF909F908F9008950E94E63D4C01219620
:104DA000F501849190E00E94E63D88169906D1F2C3
:104DB0006E2DC8010E943D0A2197CC16DD06F1F246
:104DC000FE0131976491F5CF81E0D9CF8F929F9208
:104DD000AF92BF92CF92DF92EF92FF920F931F9309
:104DE000CF93DF938C016B017B01F70181917F01F0
:104DF000882359F1C8010E94CF094C018F3F9807C1
:104E000071F480E0DF91CF911F910F91FF90EF90AF
:104E1000DF90CF90BF90AF909F908F9008950E94A9
:104E2000E63D5C01E7018A91082E000C990B0E9477
:104E3000E63DA816B906C9F2682DC8010E943D0AD0
:104E4000CC15DD05F1F26A91F8CF81E0DBCFAF92AE
:104E5000BF92CF92DF92EF92FF920F931F93CF9367
:104E6000DF93CDB7DEB7CF5ED5400FB6F894DEBF87
:104E70000FBECDBF8E0103551A4FF8011382128267
:104E800023E532E031832083958384839801285D74
:104E90003F4F17821682118610863496E217F30769
:104EA000C1F7F80116A617A610AA12AA11AA13AAEA
:104EB00014AA15AA17AA16AA11AE10AE13AE12AEF6
:104EC00014AE9E012F5F3F4F36AF25AF20E034E098
:104ED000FF9631832083C251DA4F19821882CE5E49
:104EE000D5404091960F5091970F6091980F709117
:104EF000990F2091940F3091950FCD5FDA4F198261
:104F00001882C350D540EFE5F2E0CF5FDA4FF98366
:104F1000E883C150D540C35FDA4F19821882CD5063
:104F2000D540C15FDA4F99838883CF50D540CF5E9B
:104F3000DA4F19830883C151D540CD5EDA4F19820B
:104F40001882C351D5408FEF9FEFCB5EDA4F998324
:104F50008883C551D540E1E0F5E0EC0FFD1F769662
:104F6000CE0189569A4F1192E817F907E1F711829D
:104F70001082C756DA4F1882C959D540C656DA4F43
:104F800019821882CA59D540C456DA4F198218823C
:104F9000CC59D540C256DA4F39832883CE59D540F3
:104FA000C056DA4F19821882C05AD540CE55DA4F12
:104FB00019821882C25AD540CC55DA4F1882C45A89
:104FC000D540CE018F5F9B4FCB55DA4F99838883B5
:104FD000C55AD5408FEF90E0C955DA4F9983888341
:104FE000C75AD540C755DA4F19821882C95AD540D9
:104FF000C555DA4F19821882CB5AD540CB5FDA4FAC
:10500000488359836A837B83C550D54069EE7BE032
:10501000CE018F5F9A4F0E94A326882309F45BC0BC
:1050200081E090E0CD5EDA4F99838883C351D5400B
:10503000C955DA4FC880D980C75AD540CB55DA4F09
:10504000A880B980C55AD540CE018F5F9A4F0E9483
:10505000CF098F3F980709F4CDC08032910509F43C
:10506000C9C08A30910509F4C5C08D30910509F495
:10507000C1C021E0C21AD10809F4BCC08532910533
:1050800031F5CE018F5F9A4F0E94CF097C010196C6
:1050900009F468C1CE018F5F9A4F0E94CF098F3FFC
:1050A000980709F45FC1EAE3EE16F1041CF0F7E09B
:1050B000EF1AF1088A3391050CF0079734E0EE0CF3
:1050C000FF1C3A95E1F7FF248F7099278E29F5018F
:1050D00081935F01B9CF63EE7BE0CE018F5F9A4F82
:1050E0000E94A326882319F082E090E09BCF6DED0B
:1050F0007BE0CE018F5F9A4F0E94A326882319F090
:1051000083E090E08FCF68ED7BE0CE018F5F9A4F18
:105110000E94A326882319F084E090E083CF60EDFD
:105120007BE0CE018F5F9A4F0E94A326882319F05F
:1051300085E090E077CF69EC7BE0CE018F5F9A4FFE
:105140000E94A326882319F086E090E06BCF60ECE4
:105150007BE0CE018F5F9A4F0E94A326882319F02F
:1051600087E090E05FCFCC55DA4F8881C45AD540B4
:1051700060E971E0882311F068E971E0C8010E94DC
:10518000E412E0918E0FF0918F0F309729F0B80163
:10519000CE018F5F9A4F1995C8010E94B00FF80198
:1051A00083A98823C9F086A5811116C040E150E08B
:1051B00070E060E0848195810E94B80D67E972E03B
:1051C000F801848195810E94A80F67E972E0F801D7
:1051D000848195810E94A80FE091940FF091950F22
:1051E000309709F4CDC1A281B3811C920680F7816A
:1051F000E02DF6CFF50110821C141D040CF0B2C096
:10520000CB55DA4FE880F980C55AD5406FE370E09E
:10521000C7010E94F73D41E0009709F440E09C017E
:10522000009731F4F70101900020E9F731979F01D1
:105230002E193F09C955DA4F39832883C75AD540FB
:10524000240F311DE20EF31EC056DA4FF982E882B8
:10525000C05AD540F70101900020E9F73197EE19C7
:10526000FF09CE55DA4FF983E883C25AD54000973B
:1052700011F0FC011082EE24E394F12C67E972E056
:10528000CE018F5F9A4F0E94E626882309F475C0ED
:105290008CE2B82E9AE0A92E67E972E0CE018F5F0A
:1052A0009A4F0E94E626F82E811199C060EB7BE0B0
:1052B000CE018F5F9A4F0E94A326882309F4D1C0A4
:1052C000CE018F5F9A4F0E94540AE82E882309F47A
:1052D0003FC0CE018F5F9A4F0E94CF098F3F980742
:1052E000B9F1D12C8D32910549F4CE018F5F9A4FDF
:1052F0000E94CF098F3F980759F1DE2CC656DA4F2E
:1053000019821882CA59D5409C01205331092A308C
:10531000310508F082C0C656DA4F28813981CA5952
:10532000D540A29EB001A39E700D1124860F971F39
:10533000C097C656DA4F99838883CA59D540CE01A3
:105340008F5F9A4F0E94CF09FE2C8F3F9807E1F69E
:10535000CC55DA4F8881C45AD54081110DCF6FEA00
:1053600071E00CCFCC55DA4F8881C45AD5406EE934
:1053700071E0882309F402CFFFCE6AEA7BE0CE0118
:105380008F5F9A4F0E94A326882339F0CB5EDA4FB5
:1053900019821882C551D54071CF66EA7BE0CE01F3
:1053A0008F5F9A4F0E94A326882339F0CB5EDA4F95
:1053B000F982E882C551D54061CFCE018F5F9A4F07
:1053C0000E94CF09019609F059CFCC55DA4F888158
:1053D000C45AD5408111D0CE69EF71E0CFCE81E0C3
:1053E000C756DA4F8883C959D54030E020E0A8017C
:1053F000BE016F5F7A4F82E99FE00E94D525F801D8
:1054000081A992A9892B09F4A0C0F80183A981116F
:10541000B8CEC8010E943F10B4CE682FCE018F5F76
:105420009A4F0E943D0ADD2079F0C656DA4F8881F6
:105430009981CA59D540919581959109C656DA4FFF
:1054400099838883CA59D540FF2009F481CF67E941
:1054500072E0CE018F5F9A4F0E94E62681111CCF29
:1054600077CFC256DA4FE880F980CE59D540E114A3
:10547000F10409F459C0F70160817181CE018F5F99
:105480009A4F0E94E626811104C0F701E680F7805A
:10549000EECF6EEA7BE0CE018F5F9A4F0E94A3268B
:1054A000882399F3F701C480D580E280F380F70167
:1054B0008081882369F001900020E9F73197CF01BE
:1054C0008E199F09B0820196E80EF91EC81AD90AF2
:1054D000CE018F5F9A4F0E94540A882309F438CF77
:1054E000CE018F5F9A4F0E94CF098F3F980709F432
:1054F0002FCF21E0C21AD1081C141D042CF4F7018F
:105500008083C70101967C0167E972E0CE018F5F5D
:105510009A4F0E94E626882319F3F70110821C1483
:105520001D040CF4B9CE14CF67E972E0CE018F5F91
:105530009A4F0E94E6268111AFCECE018F5F9A4F1F
:105540000E94CF09019681F703CF84AD81115DCF11
:105550008091900F9091910F892B19F464E971E07B
:105560000DCE64E971E0C8010E94B212E091900F83
:10557000F091910FB801CE018F5F9A4F199501CE2E
:10558000C151DA4F0FB6F894DEBF0FBECDBFDF9129
:10559000CF911F910F91FF90EF90DF90CF90BF9030
:1055A000AF9008951F920F920FB60F9211242F9370
:1055B0003F938F939F93AF93BF9380916B0D909187
:1055C0006C0DA0916D0DB0916E0D30916A0D23E0C0
:1055D000230F2D3758F50196A11DB11D20936A0D9B
:1055E00080936B0D90936C0DA0936D0DB0936E0D29
:1055F00080916F0D9091700DA091710DB091720D11
:105600000196A11DB11D80936F0D9093700DA09315
:10561000710DB093720DBF91AF919F918F913F919A
:105620002F910F900FBE0F901F90189526E8230F13
:105630000296A11DB11DD2CF1F920F920FB60F92ED
:1056400011240BB60F922F933F934F935F936F9359
:105650007F938F939F93AF93BF93EF93FF9383E7D2
:105660009DE00E94DF08FF91EF91BF91AF919F9164
:105670008F917F916F915F914F913F912F910F90FB
:105680000BBE0F900FBE0F901F9018951F920F9298
:105690000FB60F9211240BB60F922F938F939F93F7
:1056A000EF93FF93E091830DF091840D8081E09161
:1056B000890DF0918A0D82FD1DC0908180918C0D25
:1056C0008F5F8F7320918D0D821741F0E0918C0DCB
:1056D000F0E0ED58F24F958F80938C0DFF91EF9194
:1056E0009F918F912F910F900BBE0F900FBE0F9037
:1056F0001F9018958081F2CF1F920F920FB60F92D4
:1057000011240BB60F922F933F934F935F936F9398
:105710007F938F939F93AF93BF93EF93FF9380E11A
:105720009EE00E94DF08FF91EF91BF91AF919F91A2
:105730008F917F916F915F914F913F912F910F903A
:105740000BBE0F900FBE0F901F9018951F920F92D7
:105750000FB60F9211240BB60F922F938F939F9336
:10576000EF93FF93E091200EF091210E8081E09164
:10577000260EF091270E82FD1DC090818091290E8A
:105780008F5F8F7320912A0E821741F0E091290ECE
:10579000F0E0E05FF14F958F8093290EFF91EF913C
:1057A0009F918F912F910F900BBE0F900FBE0F9076
:1057B0001F9018958081F2CFE3E7FDE013821282FB
:1057C00048EE53E060E070E044835583668377835E
:1057D00081E792E09183808325E331E03587248758
:1057E00024E331E03787268720E331E0318B208BBB
:1057F00021E331E0338B228B22E331E0358B248BA4
:1058000026E331E0378B268B118E128E138E148E89
:10581000E0E1FEE01382128244835583668377833E
:105820009183808385EC90E09587848784EC90E079
:105830009787868780EC90E0918B808B81EC90E05D
:10584000938B828B82EC90E0958B848B86EC90E03E
:10585000978B868B118E128E138E148EEDEAFEE0DE
:1058600089E892E0918380831282138214821582E8
:10587000E9E1FFE091838083128213821482158212
:105880001092F70E1092F80E1092F90E1092FA0E76
:105890001092FC0E1092FB0E1092FF0E1092010F50
:1058A0001092000F1092040F1092060F1092050F25
:1058B0001092090F10920B0F10920A0F10920E0FF8
:1058C0001092100F10920F0F21E030E03093140F60
:1058D0002093130FEFE1FFE0918380831282138204
:1058E00014821582E5E2FFE09183808312821382A5
:1058F00014821582E5E3FFE0918380831282138294
:1059000014821582EBE2FFE0118210821382128270
:10591000158214821782168211861086EBE3FFE04F
:10592000918380831282138214821582E9E4FFE05E
:105930009183808312821382148215822FEF209329
:10594000410FEFE9FFE0918380831282138214827A
:105950001582EAE9FFE083E892E09183808380E5A5
:1059600090E0938382831482EEE8FFE0118210823C
:105970001382128215821482178216824087518701
:1059800062877387ABE7BFE08CE115968C93159720
:105990008BE016968C931697E2E5F7E0E491179664
:1059A000EC931797ECE0F7E0E4911896EC931897D6
:1059B00040E85EE360E070E01D964D935D936D936B
:1059C0007C935097A8E6BFE094E215969C931597B8
:1059D00016968C931697EAE5F7E0E4911796EC9308
:1059E0001797E4E1F7E0E4911896EC9318971D9669
:1059F0004D935D936D937C935097A5E5BFE09CE23A
:105A000015969C93159716968C931697E2E6F7E0F9
:105A1000E4911796EC931797ECE1F7E0E491189670
:105A2000EC9318971D964D935D936D937C935097CF
:105A300062E77BE08FE49FE00C94B81ECF93DF9386
:105A4000CDB7DEB7C855D1090FB6F894DEBF0FBE8B
:105A5000CDBF789484B5826084BD84B5816084BDF7
:105A600085B5826085BD85B5816085BD80916E00FC
:105A7000816080936E00109281008091810082602D
:105A8000809381008091810081608093810080916A
:105A900080008160809380008091B1008460809359
:105AA000B1008091B00081608093B000809191003E
:105AB0008260809391008091910081608093910039
:105AC000809190008160809390008091A10082601D
:105AD0008093A1008091A10081608093A1008091BA
