:100000000C94A5050C94D6050C94D6050C94D60535
:100010000C94D6050C94D6050C94D6050C94D605F4
:100020000C94D6050C94D6050C94D6050C94D605E4
:100030000C94D6050C94D6050C94D6050C94D605D4
:100040000C94D6050C94D6050C94D6050C94D605C4
:100050000C94D6050C94D6050C94D6050C94B125B9
:100060000C94D6050C9485260C945B260C94D6052E
:100070000C94D6050C94D6050C94D6050C94D60594
:100080000C94D6050C94D6050C94D6050C94D60584
:100090000C94D6050C94D6050C94D6050C94D60574
:1000A0000C94D6050C94D6050C94D6050C94D60564
:1000B0000C94D6050C94D6050C94D6050C94D60554
:1000C0000C94D6050C94D6050C94D6050C94D60544
:1000D0000C94D6050C94D6050C9425260C94FB257F
:1000E0000C94D6050C94D50A0C94E71E0C94190AAE
:1000F0000C9437060C94FC050C9431060C94680A99
:100100000C94AD080C940B060C9404060C94501A35
:100110000C94432E0C946B080C943E0A0C94C90F5B
:100120000C942D060C941F060C943A080C948E0D1A
:100130000C94C30A0C9423060C9449080C94F605FD
:100140000C943B060C9415060C9495090C94771AA4
:100150000C94E31C0C948A090C94DB070C9408069D
:100160000C94FA080C942B180C945D080C94CD0A8E
:100170000C94701C0C9429060C945A1A0C94331885
:100180000C94EE150C94450F0C94A5160C94241E9B
:100190000C94B8180C94DE0A0C941B060C943606CA
:1001A0000C949E1A0C9400060C9411060C94BB2619
:1001B0000C94330A00407A10F35A00A0724E1809CA
:1001C0000010A5D4E80000E87648170000E40B54BE
:1001D000020000CA9A3B000000E1F505000080968D
:1001E0009800000040420F000000A08601000000BF
:1001F000102700000000E803000000006400000079
:1002000000000A00000000000100000000002C7641
:10021000D888DC674F0823DFC1DFAE59E1B1B7965C
:10022000E5E3E453C63AE651997696E8E6C28426B9
:10023000EB898C9B62ED407C6FFCEFBC9C9F40F295
:10024000BAA56FA5F490055A2AF75C936B6CF96711
:100250006DC11BFCE0E40D47FEF520E6B500D0EDD6
:10026000902E0300943577050080841E080000203E
:100270004E0A000000C80C333333330F986E1283DC
:100280001141EF8D2114893BE65516CFFEE6DB18B0
:10029000D1844B381BF77C1D901DA4BBE424203275
:1002A00084725E228100C9F124ECA1E53D272B4335
:1002B0004950524543564C454E0041542B434950FA
:1002C000524543564C454E3F002B434950535441F1
:1002D000545553002B43574D4F44450041542B4335
:1002E000574D4F44453F0041542B434950524543DD
:1002F000564D4F44453D310041542B4349504D55D7
:10030000583D3100415445300072656164790041C7
:10031000542B525354005354415455530041542BC1
:100320004349505354415455530041542B43574172
:1003300055544F434F4E4E3D31003D220041542B0A
:1003400043574A41505F4355520041542B43574A4B
:1003500041500041542B43575141500041542B43CD
:1003600057444843505F4355523D312C310041546E
:100370002B434950444E535F4355523D3000415446
:100380002B4357444843503D312C310041542B43BB
:100390004950444E535F4445463D300041542B4341
:1003A000574155544F434F4E4E3D300041542B431F
:1003B000495053544F3D0041542B434950534552EB
:1003C0005645523D312C0041542B43495053455220
:1003D0005645524D4158434F4E4E3D00526F6F6D42
:1003E00020696E204672656520436F6F6C696E6789
:1003F000204D6F646500202A43202D20526F6F6DC1
:1004000020696E205061737369766520436F6F6C4D
:10041000696E67204D6F646500202A43202D2052AD
:100420006F6F6D20696E20414320436F6F6C696E62
:1004300067204D6F6465002025202D20526F6F6D61
:1004400020696E20414320436F6F6C696E67204DB9
:100450006F646500202A43202D20526F6F6D206944
:100460006E20414320436F6F6C696E67204D6F644F
:1004700065002D2D2D2D2D2D2D2D2D2D2D2D2D2DA1
:100480002D2D2D2D2D2D2D2D2D2D2D2D2D2D2D2D9C
:100490002D2D2D2D2D2D0000002100240027002AB8
:1004A000002D003000330001010000040107010AA3
:1004B0000100002200250028002B002E003100340E
:1004C0000002010000050108010B010000200023CB
:1004D00000260029002C002F00320000010000033C
:1004E000010601090100000A0B02090C0D0E0807A4
:1004F00003040100000000000000000000000000F4
:1005000000000000000000000000000000000000EB
:1005100000121110000000000000000000000000A8
:100520000000000000000000000000222C002C222F
:100530000041542B43495053544152543D002B43E6
:10054000495052454356444154410041542B43497C
:100550005052454356444154413D0053454E44207A
:10056000005265637620003E00222C002C220041C0
:10057000542B43495053454E443D0041542B43496D
:1005800050434C4F53453D00312C220041542B43E6
:100590004950444E535F4355523D0041542B43490B
:1005A00050444E535F4445463D00222C22004154A6
:1005B0002B4349505354415F4355523D220041540F
:1005C0002B4349505354413D220041542B43574D36
:1005D0004F44455F4355523D0041542B43574D4FC7
:1005E00044453D002B4349505354410041542B4353
:1005F00049505354413F002B43574A415000415406
:100600002B43574A41503F004F4B00554E4C494EEB
:100610004B004E6F204150004641494C004552521C
:100620004F52002C434F4E4E454354204641494CB7
:10063000002C434C4F534544002C434F4E4E4543F2
:1006400054002B4950442C000505050507050808F2
:100650000808020202020A0A08080404040401014C
:100660000101010101010303030303030303040761
:1006700007070C0C0C0C0C0C0C0C020202020606F8
:100680000606060606060B0B0B0B0B0B0B0B0102EB
:100690001020200808102040102040800201020194
:1006A000080402010102040810204080804020104C
:1006B00008040201800402018040201008040201A5
:1006C000080402010102040810204080010204080D
:1006D000102040803A20006B6565702D616C697652
:1006E0006500436F6E6E656374696F6E00436F6E75
:1006F00074656E742D4C656E67746800436F6E741C
:10070000656E742D54797065004E6574776F726BE9
:100710002041757468656E7469636174696F6E20D9
:100720005265717569726564004E6F742045787406
:10073000656E646564004C6F6F702044657465631A
:1007400074656400496E73756666696369656E7485
:100750002053746F726167650056617269616E74CF
:1007600020416C736F204E65676F746961746573A7
:1007700000485454502056657273696F6E204E6F56
:100780007420537570706F7274656400476174658E
:100790007761792054696D656F7574005365727661
:1007A00069636520556E617661696C61626C650094
:1007B0004261642047617465776179004E6F7420EF
:1007C000496D706C656D656E74656400496E746525
:1007D000726E616C20536572766572204572726F1D
:1007E0007200556E617661696C61626C6520466F5E
:1007F00072204C6567616C20526561736F6E730087
:100800005265717565737420486561646572204630
:1008100069656C647320546F6F204C61726765006A
:10082000546F6F204D616E792052657175657374D8
:100830007300507265636F6E646974696F6E2052E5
:1008400065717569726564005570677261646520D1
:10085000526571756972656400546F6F20456172ED
:100860006C79004661696C656420446570656E64EE
:10087000656E6379004C6F636B656400556E7072D2
:100880006F6365737361626C6520456E746974791A
:10089000004D6973646972656374656420526571A3
:1008A00075657374004578706563746174696F6E03
:1008B000204661696C65640052616E6765204E6F09
:1008C00074205361746973666961626C6500556E6A
:1008D000737570706F72746564204D656469612012
:1008E000547970650055524920546F6F204C6F6EDB
:1008F00067005061796C6F616420546F6F204C61A8
:1009000072676500507265636F6E646974696F6EBB
:10091000204661696C6564004C656E67746820529E
:100920006571756972656400476F6E6500436F6E2F
:10093000666C6963740052657175657374205469DF
:100940006D656F75740050726F78792041757468A9
:10095000656E7469636174696F6E20526571756943
:10096000726564004E6F74204163636570746162E8
:100970006C65004D6574686F64204E6F7420416C27
:100980006C6F776564004E6F7420466F756E6400FF
:10099000466F7262696464656E005061796D656E60
:1009A0007420526571756972656400556E61757465
:1009B000686F72697A65640042616420526571757E
:1009C000657374005065726D616E656E742052655A
:1009D0006469726563740054656D706F72617279D9
:1009E0002052656469726563740028556E7573657D
:1009F0006429005573652050726F7879004E6F74CA
:100A0000204D6F64696669656400536565204F74A5
:100A100068657200466F756E64004D6F7665642080
:100A20005065726D616E656E746C79004D756C7495
:100A300069706C652043686F6963657300494D2078
:100A40005573656400416C7265616479205265700C
:100A50006F72746564004D756C74692D53746174A4
:100A60007573005061727469616C20436F6E7465B8
:100A70006E7400526573657420436F6E74656E7496
:100A8000004E6F20436F6E74656E74004E6F6E2D56
:100A9000417574686F726974617469766520496E16
:100AA000666F726D6174696F6E0041636365707427
:100AB00065640043726561746564004F4B00456175
:100AC000726C792048696E74730050726F6365733D
:100AD00073696E6700537769746368696E67205045
:100AE000726F746F636F6C7300436F6E74696E75B1
:100AF00065002000485454502F312E312000312EF3
:100B00003100312E30003A00436F6E74656E742DE3
:100B10004C656E6774683A004F5054494F4E5320ED
:100B2000005041544348200044454C455445200062
:100B30005055542000504F53542000484541442004
:100B4000004745542000BB26432E11241FBECFEF83
:100B5000D1E2DEBFCDBF00E00CBF2AE0ACE4B8E0DC
:100B600001C01D92A13BB207E1F718E0A0E0B2E09E
:100B7000E8E9FFE600E00BBF02C007900D92AC343D
:100B8000B107D9F715E0C4EAD5E000E006C0219727
:100B90000109802FFE010E946334C33AD10780E02F
:100BA0000807A9F70E94F8270C94BA370C940000A4
:100BB0008150823108F05AC0E82FF0E08827EC51CC
:100BC000FA4F8F4F0C94633404060806F605FC05B3
:100BD000000636060B06110615061B061F06230621
:100BE00029062D063606310637063B068091800021
:100BF0008F77809380000895809180008F7DF9CF5A
:100C000080918000877FF5CF84B58F7784BD08956C
:100C100084B58F7DFBCF8091B0008F778093B0003B
:100C200008958091B0008F7DF9CF809190008F77EB
:100C3000809390000895809190008F7DF9CF8091EE
:100C40009000877FF5CF8091A0008F778093A000E0
:100C500008958091A0008F7DF9CF8091A000877FBB
:100C6000F5CF809120018F778093200108958091A6
:100C700020018F7DF9CF80912001877FF5CFCF9321
:100C8000DF93282F30E0F901EB51FB4F8491F901FC
:100C9000E257F94FD491F901E85BF94FC491CC23A5
:100CA000A1F081110E94D805EC2FF0E0EE0FFF1F9C
:100CB000E553FB4FA591B491EC91ED2381E090E0D9
:100CC00009F480E0DF91CF91089580E090E0FACFC1
:100CD0001F93CF93DF93282F30E0F901EB51FB4FA7
:100CE0008491F901E257F94FD491F901E85BF94F8A
:100CF000C491CC23A9F0162F81110E94D805EC2FA6
:100D0000F0E0EE0FFF1FEF54FB4FA591B4918FB7AA
:100D1000F894EC91111108C0D095DE23DC938FBFBD
:100D2000DF91CF911F910895DE2BF8CFCF93DF9302
:100D300090E0FC01E257F94F2491885B994FFC0148
:100D400084918823C9F090E0880F991FFC01E9562F
:100D5000FB4FA591B491FC01EF54FB4FC591D49189
:100D600061110DC09FB7F8948C91209582238C93CC
:100D70008881282328839FBFDF91CF910895623017
:100D800051F49FB7F8943C91822F809583238C93E4
:100D9000E8812E2BEFCF8FB7F894EC912E2B2C936C
:100DA0008FBFEACF3FB7F8948091790890917A0885
:100DB000A0917B08B0917C0826B5A89B05C02F3F69
:100DC00019F00196A11DB11D3FBFBA2FA92F982F71
:100DD0008827BC01CD01620F711D811D911D42E06C
:100DE000660F771F881F991F4A95D1F708958F9234
:100DF0009F92AF92BF92CF92DF92EF92FF924B0100
:100E00005C010E94D2066B017C010E94D2066C1923
:100E10007D098E099F09683E734081059105A8F3FD
:100E200021E0821A9108A108B10888EEC80E83E07B
:100E3000D81EE11CF11C81149104A104B10429F70E
:100E4000FF90EF90DF90CF90BF90AF909F908F90EA
:100E500008952FB7F8946091750870917608809185
:100E60007708909178082FBF0895CF93DF93EC0116
:100E700062E08D810E9496060E942907605D77409E
:100E80008109910969877A878B879C8787E38A8B99
:100E9000DF91CF9108950F931F93CF93DF93EC01D0
:100EA0000E942907688779878A879B87E881F9816B
:100EB0000284F385E02DCE01199597FF15C00E949D
:100EC0002907088519852A853B85601B710B820BD4
:100ED000930B0C811D812E813F8160177107820762
:100EE000930720F38FEF9FEFDF91CF911F910F9129
:100EF0000895AF92BF92CF92DF92EF92FF920F933D
:100F00001F93CF93DF935C017B018B01040F151FAF
:100F1000EB016E01CE18DF08C017D10739F0C5010B
:100F20000E944B0797FD02C08993F3CFC601DF9162
:100F3000CF911F910F91FF90EF90DF90CF90BF90D6
:100F4000AF900895DC01ED91FC910190F081E02DCE
:100F50001994DB0114964D915C9115976D917C91DC
:100F6000DC01ED91FC910280F381E02D1994EF9268
:100F7000FF920F931F93CF93DF938C017B01D0E0FF
:100F8000C0E0F701EC0FFD1F6491662361F0D8010A
:100F9000ED91FC910190F081E02DC8011995892B0C
:100FA00011F02196EECFCE01DF91CF911F910F91DD
:100FB000FF90EF900895AF92BF92CF92DF92EF92A1
:100FC000FF920F931F93CF93DF936C017B018B01F3
:100FD000040F151FEB015E01AE18BF08C017D10743
:100FE00059F06991D601ED91FC910190F081E02DCD
:100FF000C6011995892B79F7C501DF91CF911F9112
:101000000F91FF90EF90DF90CF90BF90AF90089539
:10101000DC0190E030E020E08AE0FB014191BF017B
:10102000442311F150ED540F5A3090F4829FF00197
:10103000839FF00D11249F0120533109240F311D8E
:1010400047FD3A952F3F310541F338F380E008958D
:101050004E32E1F79330D1F3FD01E90FF11D228308
:101060009F5F30E020E0D9CF933081F715962C9325
:1010700081E00895FC01538D448D252F30E0842FAD
:1010800090E0821B930B541710F0CF9608950197B0
:101090000895FC01918D828D981761F0A28DAE0F9D
:1010A000BF2FB11D5D968C91928D9F5F9F73928F24
:1010B00090E008958FEF9FEF0895FC01918D828D50
:1010C000981731F0828DE80FF11D858D90E008951D
:1010D0008FEF9FEF0895FC01918D228D892F90E075
:1010E000805C9F4F821B91098F73992708958DE72C
:1010F00098E00E946B0821E0892B09F420E0822F00
:1011000008958AE199E00E946B0821E0892B09F497
:1011100020E0822F0895FC01A48DA80FB92FB11DE6
:10112000A35ABF4F2C91848D90E001968F7399271D
:10113000848FA689B7892C93A089B1898C918370FB
:1011400080648C93938D848D981306C00288F389F4
:10115000E02D80818F7D80830895EF92FF920F9321
:101160001F93CF93DF93EC0181E0888F9B8D8C8D53
:1011700098131AC0E889F989808185FF15C09FB747
:10118000F894EE89FF896083E889F989808183700A
:10119000806480839FBF81E090E0DF91CF911F91B9
:1011A0000F91FF90EF900895F62E0B8D10E00F5FDA
:1011B0001F4F0F731127E02E8C8D8E110CC00FB6B0
:1011C00007FCFACFE889F989808185FFF5CFCE0148
:1011D0000E948B08F1CFEB8DEC0FFD2FF11DE35A30
:1011E000FF4FF0829FB7F8940B8FEA89FB898081CB
:1011F0008062CFCFCF93DF93EC01888D8823B9F045
:10120000AA89BB89E889F9898C9185FD03C0808111
:1012100086FD0DC00FB607FCF7CF8C9185FFF2CF8E
:10122000808185FFEDCFCE010E948B08E9CFDF9151
:10123000CF91089580E090E0892B29F00E948108E9
:1012400081110E94000080E090E0892B49F080E04D
:1012500090E0892B29F00E94000081110E9400007B
:1012600080E090E0892B49F080E090E0892B29F024
:101270000E94000081110E94000080E090E0892B14
:1012800029F00E94770881110C9400000895FB0159
:10129000DC0180E29D91492F092E000C550B99230A
:1012A00091F02491222379F024912417150649F016
:1012B0006491292F2827022E000C330B6217130686
:1012C00011F43196E7CF84918417150671F0E491FB
:1012D000892F8062082E000C990BE062E81719062E
:1012E00039F034F08FEF9FEF089590E080E008959B
:1012F00081E090E00895CF93DF93EC010E944B07CB
:101300008F3F980721F4CD55DF4F21E02883DF91EF
:10131000CF910895DC0150968D919C91DC01ED9167
:10132000FC910190F081E02D19940F931F93CF93BE
:10133000DF93FC01EA56FF4F20813181121613061C
:101340007CF42150310931832083820F931FDC010B
:1013500056968C9190E0DF91CF911F910F91089557
:101360008C0108561F4FF8012081222379F0319615
:1013700020813181232B51F4DC0114961D921D92A2
:101380001D921C9217978FEF9FEFE5CFEC018E8592
:101390009F85DC01ED91FC910284F385E02D199588
:1013A0008F3F9807C1F2F8012081222349F0FE0106
:1013B000E756FF4F2081318121503109318320834D
:1013C000C556DF4F288139812F5F3F4F39832883EE
:1013D000C2CFFC01EA56FF4F408151819A012F5F35
:1013E0003F4F31832083840F951FDC0156966C9309
:1013F0002038310521F48FE790E0918380830895B0
:10140000CF93DF93EC01CE010E947B098F3F9807B9
:1014100061F080329105B9F389309105A1F3682F0D
:10142000CE010E94E90981E001C080E0DF91CF9107
:1014300008950F931F93CF93DF938C01DC01ED91FF
:10144000FC910284F385E02D1995EC018F3F9807FC
:1014500021F0682FC8010E94E909CE01DF91CF91E8
:101460001F910F910895DC0150968D919C91DC01A4
:10147000ED91FC910680F781E02D1994CF93DF93D5
:10148000EC018E859F85DC01ED91FC910084F18556
:10149000E02D1995DE01A756BF4FFE01EA56FF4F1A
:1014A0002D913C9140815181240F351F8217930764
:1014B0005CF48E859F85DC01ED91FC910084F185C3
:1014C000E02DDF91CF911994C901DF91CF9108955B
:1014D000DC0150968D919C91DC01ED91FC91048092
:1014E000F581E02D1994EF92FF920F931F93CF9304
:1014F000DF93FC0126A937A92A303105ECF57A01E2
:101500008B01EC01F901EE0FFF1FEE0FFF1FEC0F37
:10151000FD1F77836683F9013296EE0FFF1FEE0FF2
:10152000FF1FEC0FFD1F518340832F5F3F4F3FABE9
:101530002EAB6CEF76E0C8010E944709892B11F4AD
:1015400081E08FA76DEE76E0C8010E944709892BE4
:1015500011F481E08EA762EE76E0C8010E9447098F
:10156000892B51F467ED76E0C7010E94470921E01D
:10157000892B09F020E028ABDF91CF911F910F91CB
:10158000FF90EF9008958F5B9F4FFC012081318188
:101590008FEF93E0821B930B089521E0FC0184817F
:1015A000811101C020E0822F089521E0FC01848593
:1015B0009585892B09F420E0822F089590E080E042
:1015C0000895CF92DF92EF92FF92CF93DF93DC01E9
:1015D0001796CC911797D0E06111DC2F18962C91BB
:1015E000189730E0220F331F25533B4F50E040E067
:1015F000F90185919491FC01F080BA0190E080E0BE
:10160000EF2DEC23ED1310C04F5F5F4F1D96CD9073
:10161000DD90ED90FC9050976C157D058E059F0533
:1016200038F36FEF7FEFCB01DF91CF91FF90EF9019
:10163000DF90CF9008958F929F92AF92BF92CF92FA
:10164000DF92EF92FF920F931F93CF93DF93CDB76B
:10165000DEB7C054D1400FB6F894DEBF0FBECDBF89
:101660008C010E942907F801C184D284E384F484A8
:101670009B01AC012C193D094E095F0969017A01F2
:1016800030EDC31637E0D306E104F104A8F48189F4
:10169000C05CDE4F0FB6F894DEBF0FBECDBFDF914A
:1016A000CF911F910F91FF90EF90DF90CF90BF905F
:1016B000AF909F908F9008956187728783879487FA
:1016C0001482138212821182108262E085810E944C
:1016D000960661E070E080E090E00E94F70661E02D
:1016E000F80185810E94960660E0F80185810E94DC
:1016F0006806F80186818551823028F58BE291E1F8
:101700000197F1F762E0F80185810E949606F801E1
:10171000828990E08230910538F0880F991F880FF8
:10172000991F05970197F1F7F89460E0C8010E94AE
:10173000E10A6F3F7F4F8F4F9F4F61F4F801118A8D
:10174000789480E0A5CF64E170E080E090E00E94B2
:10175000F706D8CF61E0C8010E94E10A6F3F7F4FD2
:101760008F4F9F4F59F39E012F5F3F4F79015E01CD
:101770003FEBA31A3EEFB30A670160E0C8010E9485
:10178000E10AF601608371838283938361E0C8017B
:101790000E94E10AF6016483758386839783F8E0EB
:1017A000CF0ED11CCA14DB0441F7789430E020E05E
:1017B000F70180809180A280B38044815581668149
:1017C0007781FFEF8F169F06AF06BF0631F04F3FC0
:1017D0008FEF58076807780719F4F801118AB1CF1D
:1017E000F90183E0F595E7958A95E1F7E00FF11FA0
:1017F0008081880F84169506A606B706F0F08083D0
:101800002F5F3F4FF8E0EF0EF11C2832310581F6D3
:10181000F801448120818181280F3327331F828181
:10182000280F311D8381820F932F911D992748170F
:10183000190699F681E0818B2BCF8160E0CFCF92A2
:10184000DF92EF92FF921F93CF93DF93EC010E9400
:101850001B0B882339F08E818C3009F44DC038F48D
:101860008B30E1F060E070E080EC9FE73DC0855197
:101870008230C0F71A81612F70E0762F66276627C5
:101880007F778B81682B90E080E00E94F8322DEC0E
:101890003CEC4CEC5DE30E94593348C06A8170E037
:1018A00090E080E00E94F8326B017C01CB81C7FFA1
:1018B0000AC0AC019B0160E070E080E89FEB0E94F1
:1018C0006B346B017C01CF706C2F70E090E080E096
:1018D0000E94FA322DEC3CEC4CEC5DE30E94593353
:1018E000A70196010E946C34DF91CF911F91FF9068
:1018F000EF90DF90CF9008951A81612F70E090E013
:1019000080E00E94F8326B017C016B816F7070E0A7
:1019100090E080E00E94FA322DEC3CEC4CEC5DE370
:101920000E945933A70196010E946C3417FFDCCF47
:101930009058DACFCF92DF92EF92FF92CF93DF935E
:10194000EC010E941B0B882341F08E818B3028F024
:101950008D3040F08551823030F160E070E080ECF5
:101960009FE71AC0698170E090E080E00E94FA323F
:101970002DEC3CEC4CEC5DE30E9459336B017C0197
:10198000688170E090E080E00E94FA329B01AC0137
:10199000C701B6010E946C34DF91CF91FF90EF90A8
:1019A000DF90CF9008956881798176276727762721
:1019B00090E080E00E94F8322DEC3CEC4CEC5DE3D2
:1019C0000E945933E9CF60E08EE20E94680660E031
:1019D00086E20E94680660E08EE10E94680660E090
:1019E00086E10C946806FB0101900020E9F731972D
:1019F000AF01461B570BDC01ED91FC910280F38196
:101A0000E02D19948F929F92AF92BF92EF92FF9226
:101A10000F931F93CF93DF93CDB7DEB7A1970FB688
:101A2000F894DEBF0FBECDBF7C01FA01CB0119A235
:101A3000223008F42AE08E010F5D1F4F822E912C78
:101A4000B12CA12CBF01A50194010E942734F901FA
:101A5000CA016A300CF5605DD8016E938D01232BAD
:101A6000242B252B79F790E080E0109721F0BD0121
:101A7000C7010E94F30CA1960FB6F894DEBF0FBE0B
:101A8000CDBFDF91CF911F910F91FF90EF90BF904D
:101A9000AF909F908F900895695CDECFAB0170E0AE
:101AA00060E02AE00C94020DCF92DF92EF92FF9259
:101AB0000F931F93CF93DF936B01770FEE08FF080F
:101AC0004A305105F1F42AE0F7FE1CC0EC016DE24A
:101AD0000E94A2078C0144275527BA014C195D09C1
:101AE0006E097F092AE0CE010E94020D800F911F2E
:101AF000DF91CF911F910F91FF90EF90DF90CF90EA
:101B00000895242FB701A601DF91CF911F910F9166
:101B1000FF90EF90DF90CF900C94020D8F929F92E8
:101B2000AF92BF92CF92DF92EF92FF920F931F93EB
:101B3000CF93DF937C018B016C0182E0C80ED11C36
:101B40004701E5E08E0E911CD0E0C0E0F601419126
:101B50006F0150E070E060E02AE0C8010E94020DD1
:101B60005C016EE2C8010E94A2078A0D9B1DC80F8E
:101B7000D91FC814D90451F7F701458150E070E02E
:101B800060E02AE0C8010E94020D8C0F9D1FDF91CA
:101B9000CF911F910F91FF90EF90DF90CF90BF906A
:101BA000AF909F908F9008954F925F926F927F9227
:101BB0008F929F92AF92BF92CF92DF92EF92FF925D
:101BC0000F931F93CF936B017C01742EAC019B018B
:101BD0000E947E3568E772E0811126C046015701F8
:101BE000E894B7F82FEF3FEF4FE75FE7C501B40187
:101BF0000E947E3581110CC02FEF3FEF4FE75FE76A
:101C0000C501B4010E94F3326CE772E0181664F06B
:101C10002FEF3FEF4FE75FE4C701B6010E94793530
:101C20001816ACF460E872E08AE199E0CF911F9158
:101C30000F91FF90EF90DF90CF90BF90AF909F906B
:101C40008F907F906F905F904F900C94F30C2FEFDC
:101C50003FEF4FE75FECC701B6010E94F33287FD0B
:101C6000E1CF20E030E0A901C701B6010E94F332C4
:101C700010E000E087FF0AC06DE28AE199E00E946F
:101C8000A2078C01F7FAF094F7F8F094C0E060E056
:101C900070E080E09FE37C1641F020E030E040E21D
:101CA00051E40E94D834CF5FF6CFA70196010E947D
:101CB0006C342B013C010E944A354B015C012AE047
:101CC000BC01A4018AE199E00E94020D7C01E00EB2
:101CD000F11ECC23B1F1C501B4010E94F8329B0181
:101CE000AC01C301B2010E946B344B015C016EE296
:101CF0008AE199E00E94A207E80EF91EC15008F19E
:101D000020E030E040E251E4C501B4010E945933C3
:101D10002B013C010E944A354B018AE199E00E9467
:101D20004E0DE80EF91EB40190E080E00E94F832FA
:101D30009B01AC01C301B2010E946B344B015C01F9
:101D4000DDCFC701CF911F910F91FF90EF90DF90F2
:101D5000CF90BF90AF909F908F907F906F905F904B
:101D60004F90089564E872E00C94F30CCF93DF93E6
:101D70006AE179E00E948E0DEC018AE199E00E940F
:101D8000B20E8C0F9D1FDF91CF910895CF93DF93FB
:101D9000BC018AE199E00E94B707EC018AE199E071
:101DA0000E94B20E8C0F9D1FDF91CF9108950F936B
:101DB0001F93CF93DF93EC010E94F30C8C01CE01B3
:101DC0000E94B20E800F911FDF91CF911F910F9152
:101DD00008950F931F93CF93DF93EC010E94A907FF
:101DE0008C01CE010E94B20E800F911FDF91CF9126
:101DF0001F910F9108956115710511F00C94F30C6A
:101E000090E080E008950F931F93CF93DF938C01B0
:101E10000F5B1F4FD8016D917C911616170684F544
:101E2000EC018BA9882379F08EA581110CC040E1CB
:101E300050E08C819D810E94540D64E872E08C8199
:101E40009D810E94FB0E8C819D81F8014081518112
:101E50006DAD7EADDC01ED91FC910280F381E02D52
:101E600019958BA9882349F08EA5811106C064E8D5
:101E700072E08C819D810E94FB0EF801118210821C
:101E8000DF91CF911F910F910895CF93DF93EC01D4
:101E90000E94030F8C819D81DC01ED91FC910680F5
:101EA000F781E02DDF91CF911994EF92FF920F937C
:101EB0001F93CF93DF93EC0189A99AA9892B29F469
:101EC00068EC70E0CE010E94051281E08DAB8E01BE
:101ED000F12CE12C0C5F1F4F8EA99FA9E816F90683
:101EE000D4F4F80162817381CE010E94FB0E64ED8F
:101EF00076E0CE010E943010F80164817581CE0138
:101F00000E94FB0E64E872E0CE010E94FB0EFFEF20
:101F1000EF1AFF0ADFCFDF91CF911F910F91FF9052
:101F2000EF900895CF93DF93EC018FA5811107C047
:101F300047E852E062E972E0CE010E94730A88A984
:101F4000882351F08EA5811107C04FE952E067EA5E
:101F500072E0CE010E94730A88A9811109C081E054
:101F60008EA749EB52E06FEB72E0CE010E94730A3C
:101F7000CE010E94550F64E872E0CE010E94FB0E74
:101F8000CE010E94030F1DAA81E08BABDF91CF91A0
:101F90000895FF920F931F93CF93DF93EC01F62EDA
:101FA0008BA9811109C08DA9811106C08CA981114D
:101FB00003C0CE010E94920FEDADFEAD8E010F5B0E
:101FC0001F4FD8018D919C9111979C012F5F3F4F1E
:101FD00011963C932E93E80FF91FF0828D919C91FE
:101FE0008115944081F58BA9882389F08EA58111F4
:101FF0000EC040E150E060E074E08C819D810E9461
:10200000540D64E872E08C819D810E94FB0E8C81EE
:102010009D816DAD7EADDC01ED91FC910280F3817F
:10202000E02D40E054E019958BA9882349F08EA556
:10203000811106C064E872E08C819D810E94FB0ED4
:10204000F801118210828AAD9BAD01969BAF8AAFD9
:1020500081E090E0DF91CF911F910F91FF90089563
:10206000EF92FF920F931F93CF93DF93EC017B01CD
:102070008BA9811109C08DA9811106C08CA981117C
:1020800003C0CE010E94920F8701F80164910F5F97
:102090001F4F662341F0E881F9810190F081E02D26
:1020A000CE011995F2CFDF91CF911F910F91FF9043
:1020B000EF900895673921E0720709F45EC10CF0D2
:1020C00081C06C3221E0720709F433C1E4F56A3C47
:1020D000710509F41CC1ECF46636710509F40EC1F2
:1020E00064F46436710509F402C16536710509F4BA
:1020F00002C14AE050E00C94540D683C710509F4AB
:1021000000C10CF001C16736710599F76EEB7AE0FA
:10211000F0C06E3C710509F403C14CF46C3C7105D0
:1021200009F4FBC00CF4F6C063E77AE0E2C0603D5E
:10213000710509F4FBC00CF4F6C0623E7105C9F6E6
:102140006DE37AE0D6C0643321E0720709F403C17D
:10215000D4F4603321E0720709F4F4C054F46E3211
:1021600021E0720709F4EBC00CF4E6C06AE07AE003
:10217000C0C0623321E0720709F4EAC00CF4E5C084
:1021800067ED79E0B6C0633921E0720709F4ECC06D
:102190007CF4613921E0720709F4E0C00CF0E1C081
:1021A000603921E0720709F0A4CF68EB79E0A1C0A3
:1021B000653921E0720709F4DDC00CF4D8C064E68B
:1021C00079E097C06A3A21E0720709F4FAC00CF08E
:1021D0003FC06F3921E0720709F4E1C0D4F46B39D4
:1021E00021E0720709F4D2C054F4693921E0720782
:1021F00009F4C9C00CF4C4C068E279E07AC06D3952
:1022000021E0720709F4C8C00CF4C3C065EE78E0A1
:1022100070C0663A21E0720709F4CAC07CF4613AE2
:1022200021E0720709F4C1C00CF4BCC0653A21E09A
:10223000720709F05ECF61E978E05BC0683A21E09F
:10224000720709F4BBC00CF4B6C069E578E051C070
:10225000673F21E0720709F4C6C03CF5633C21E00A
:10226000720709F4B7C094F46D3A21E0720709F4DB
:10227000ABC06F3A21E0720709F4A9C06C3A21E0C3
:10228000720709F036CF62E378E033C0653F21E0A2
:10229000720709F4A2C00CF0A3C0643F21E07207EA
:1022A00009F027CF6CEC77E024C06B3F21E0720788
:1022B00009F4A2C054F4693F21E0720709F499C0FF
:1022C0000CF494C069E577E014C06E3F21E072071A
:1022D00009F495C06F3F21E0720709F493C06C3F89
:1022E00021E0720709F005CF66E377E002C069EEEE
:1022F0007AE00C94301065ED7AE0FBCF6AEC7AE07E
:10230000F8CF6BEB7AE0F5CF63EB7AE0F2CF6AEAD5
:102310007AE0EFCF6CE87AE0ECCF61E87AE0E9CFE1
:1023200063E67AE0E6CF66E57AE0E3CF65E47AE05B
:10233000E0CF6CE27AE0DDCF6AE17AE0DACF64E107
:102340007AE0D7CF6DEF79E0D4CF63EF79E0D1CFEA
:102350006AEE79E0CECF64EC79E0CBCF6BEA79E03E
:10236000C8CF6AE979E0C5CF60E979E0C2CF66E815
:1023700079E0BFCF63E779E0BCCF66E479E0B9CF1D
:1023800066E379E0B6CF6DE279E0B3CF68E179E05A
:10239000B0CF64E079E0ADCF62EF78E0AACF6EEC29
:1023A00078E0A7CF68EB78E0A4CF65EA78E0A1CF2A
:1023B0006CE778E09ECF65E778E09BCF63E678E056
:1023C00098CF68E478E095CF60E278E092CF60E063
:1023D00078E08FCF62EE77E08CCF6CEB77E089CF3F
:1023E00060EB77E086CF6CE977E083CF6CE877E04D
:1023F00080CF61E777E07DCF64E477E07ACF69E270
:1024000077E077CF69E077E074CF0F931F93CF9396
:10241000DF93EC018B017AAB69AB81E08CAB64EFAD
:102420007AE0CE010E9430104AE050E0B801CE01BF
:102430000E94540D62EF7AE0CE010E943010B80184
:10244000CE010E945A1064E872E0CE010E94FB0E99
:102450000C3C110519F00033114019F481E08EA7EE
:102460008FA71CAADF91CF911F910F9108950F9311
:102470001F93CF93DF93EC018B0189A99AA9892B34
:1024800019F4CE010E940512CE010E94920FB801EC
:10249000CE01DF91CF911F910F910C945A102F9282
:1024A0003F924F925F926F927F928F929F92AF92E4
:1024B000BF92CF92DF92EF92FF920F931F93CF9331
:1024C000DF9300D01F921F92CDB7DEB77C016A83E5
:1024D0004B831982212C10E085E0382E9FE3492E92
:1024E000512C8091BD099091BE09DC01ED91FC91C8
:1024F0000084F185E02D1995E114F10409F5892B8B
:10250000F9F422242394822D0F900F900F900F90B6
:102510000F90DF91CF911F910F91FF90EF90DF907F
:10252000CF90BF90AF909F908F907F906F905F9073
:102530004F903F902F9008952224239410E0D1CF04
:102540001092C10941E050E061EC79E08091BD0951
:102550009091BE090E9479079D838C83892BA1F4F9
:10256000133041F482E090E090931E0A80931D0A9C
:10257000212CC9CF6AEC72E08091BF099091C0090B
:102580000E94D70E1F5FADCF8091BD099091BE090B
:102590002091C1092E3309F044C041E050E062ECC3
:1025A00079E00E9479071092C209E114F10461F008
:1025B000C7010E940B30AC01B70181EC99E00E9489
:1025C0001430892B09F49DCF45E050E062E476E0B9
:1025D00081EC99E00E941430892B09F0C3C0B091BE
:1025E000C609B053BC8388EC99E00E94D22FAB019E
:1025F000EC81E53008F0A2CF672B09F49FCFE39D73
:10260000F0011124EC5FF54F2081FC813F9EC00159
:10261000112424FD8BC08B5F954FDC014D935C939F
:102620008DCF6C817D816F53764F41E050E00E94E9
:102630007907EC81FD81E80FF91FFD83EC83329768
:102640000CF44FCF8091C1098D3049F58091C209BA
:102650008A3009F473CF0AE06090BD097090BE091A
:1026600052018C819D81A81AB90A8F53964F4C0153
:10267000D12CC12C002E000C110BAC14BD04D9F1CF
:10268000C3010E944B0797FD36C08017910799F14F
:10269000D4018D934D01BFEFCB1ADB0AEECF8B3205
:1026A000D1F68091C209833429F4FA81F111D3CF94
:1026B0000AE3D2CF893479F66C817D816F53764FEE
:1026C00044E050E08091BD099091BE090E947907D5
:1026D0002C813D81280F391F3D832C83E091C60951
:1026E000E053332DE302F0011124EC5FF54F8081BC
:1026F00084FDDECFB0CFEC81FD81EC0DFD1DE354F8
:10270000F64FFD83EC83EC81FD81ED5BF9402C817C
:102710003D81215031093D832C83D90114968C9140
:102720008D3089F3E354F64F14823FCF895F954F84
:10273000FC01808191812091BD093091BE09DC01AD
:10274000ED91FC910190F081E02DB9011995182FC0
:10275000882309F4C6CE90E0089690931E0A8093D1
:102760001D0AECCE69E376E082EC99E00E9402302B
:10277000892B21F5E091C109E0538E2F90E0389E1E
:10278000D001399EB00D1124AB5FB54F2D913C9116
:10279000232B09F0D3CEE39DF0011124EC5FF54F1C
:1027A000208120FF02C021FFC9CE389EF001399E52
:1027B000F00D1124EC5FF54F3082C0CE61E376E07E
:1027C00082EC99E00E940230892B19F163E276E0F5
:1027D00082EC99E00E940230892BD9F06DE176E01D
:1027E00081EC99E00E940230892BE9F068E176E003
:1027F00081EC99E00E940230892BA9F062E176E039
:1028000081EC99E00E940230892BD1F484E090E0C1
:10281000ABCEE091C109E0533E9EF0011124EC5F84
:10282000F54F10828BCE21106CCEE114F10409F427
:1028300085CE83E090E090931E0A80931D0A63CEBC
:102840006BE076E081EC99E00E940230892B09F47C
:1028500073CEBB81BB2349F068E076E081EC99E060
:102860000E940230892B09F483CEE981EF5FE9836E
:10287000E73408F463CE76CE40E061E088E096E08D
:102880000C944F12CF93DF93C82F8091030A8111CC
:102890000AC081E090E090931E0A80931D0A80E0B8
:1028A000DF91CF9108959091020AC91306C061117A
:1028B00002C081E0F5CF8C17E1F38091BF099091C0
:1028C000C0092AEC35E0662311F029ED35E0D62F5A
:1028D000B9010E94B7074C2F50E070E060E02AE099
:1028E0008091BF099091C0090E94020D8091BF099B
:1028F0009091C0090E94B20E0E943C14882381F27C
:10290000C093020ADD23A9F2C093030A8D2FC8CF1A
:102910001F93CF93DF93EC01162F8091BF09909105
:10292000C0090E94B20E209741F040E0612FCE0115
:10293000DF91CF911F910C944F12DF91CF911F9196
:102940000C943C1410921E0A10921D0A40E060E0A4
:1029500090E080E00C944F120F931F93CF93DF937E
:102960008C010E94A214CDEBD9E0B8018A819B8131
:102970000E94B7078A819B810E94B20EDF91CF919E
:102980001F910F910C943C14AF92BF92CF92DF92A3
:10299000EF92FF920F931F93CF93DF93CDB7DEB7E4
:1029A0002C970FB6F894DEBF0FBECDBF5C016B0154
:1029B0007A0189010E94A2148091020A60E081607C
:1029C0000E944214811112C080E02C960FB6F89438
:1029D000DEBF0FBECDBFDF91CF911F910F91FF9052
:1029E000EF90DF90CF90BF90AF9008958091BF0996
:1029F0009091C0092091010A6EEB75E0211102C08F
:102A00006EEA75E00E94B7076091BF097091C00936
:102A1000C5010E948E0DF7018281882311F16AEAB7
:102A200075E08091BF099091C0090E94B70760913D
:102A3000BF097091C009C7010E948E0DF801828103
:102A4000882379F06AEA75E08091BF099091C00906
:102A50000E94B7076091BF097091C009C8010E9428
:102A60008E0D62E28091BF099091C0090E94A20779
:102A70008091BF099091C0090E94B20E0E943C143F
:102A8000882309F4A1CF86E792E098878F8340914D
:102A9000550A5091560A6091570A7091580A498711
:102AA0005A876B877C879A838983F6018281938119
:102AB000A481B5818B839C83AD83BE830E94A214C5
:102AC0008091020A60E081600E944214882309F428
:102AD0007CCF8091BF099091C0092091010A6BE9D8
:102AE00075E0211102C06CE875E00E94B707809183
:102AF000BF099091C0092B8121110FC04AE050E01D
:102B000070E060E00E94540D8091BF099091C0096F
:102B10000E94B20E0E943C1458CF68E875E00E94F3
:102B2000B7076091BF097091C009CE0101960E945C
:102B30008E0D8985882381F06AEA75E08091BF094E
:102B40009091C0090E94B7076091BF097091C009B8
:102B5000CE0107960E948E0D62E28091BF0990918E
:102B6000C0090E94A207D0CFCF93C82F0E94A21401
:102B700085E0C89F90011124C9018354964FFC0140
:102B8000E85BFF4F118210822C5F354FF9012081E5
:102B900020FF21C0895B9F4F2260FC0120836BE7EF
:102BA00075E08091BF099091C0090E94B7074C2F32
:102BB00050E070E060E02AE08091BF099091C00988
:102BC0000E94020D8091BF099091C0090E94B20E2F
:102BD000CF910C943C1481E0CF9108950F931F93F3
:102BE000CF93DF93FC0124853585232BF1F0EC0195
:102BF0000190F081E02D0680F781E02D19950C857C
:102C00001D85F80181818F3F11F00E94B415F801F4
:102C100010828FEF81831686158614861386148A98
:102C2000138A158214821D861C86DF91CF911F9115
:102C30000F9108958F929F92AF92BF92CF92DF92A1
:102C4000EF92FF920F931F93CF93DF93B82E8B01D8
:102C50007A010E94A214E5E0EB9DE0011124CB5F14
:102C6000D54FC880D980C114D104E1F4BE9EF001D3
:102C70001124EC5FF54F808180FD06C086E090E076
:102C800090931E0A80931D0AC601DF91CF911F9178
:102C90000F91FF90EF90DF90CF90BF90AF909F90FB
:102CA0008F9008956BE475E08091BF099091C00901
:102CB0000E94B7074B2D50E070E060E02AE0809161
:102CC000BF099091C0090E94020D6CE28091BF097A
:102CD0009091C0090E94A207B7018091BF0990910D
:102CE000C0090E944E0D60E08EE395E00E948814BA
:102CF00081110BC01982188287E090E090931E0A20
:102D000080931D0AD12CC12CBFCF8EEC99E00E947C
:102D1000D22F4B016B01AB01B8018091BD0990919D
:102D2000BE090E9479078816990621F78881998142
:102D30008815990528F4198218820E943C14A4CFA2
:102D40008819990999838883F8CFEF92FF921F938E
:102D5000CF93DF93FC01E484F584E114F104C1F125
:102D6000EC01F70111811F3FD9F00E94A21485E008
:102D7000189FF0011124EC5FF54F808180FF02C0A5
:102D800081FF03C08FEFF7018183F70181818F3FBE
:102D900039F081E0DF91CF911F91FF90EF9008957E
:102DA000E881F9810084F185E02DCE011995892B08
:102DB00081F7EC85FD8510828FEF8183168615865D
:102DC00014861386148A138A158214821D861C8623
:102DD00080E0E0CFCF92DF92EF92FF920F931F93AC
:102DE000CF93DF936C017B018A010E94A2146CEEE9
:102DF00075E08091BF099091C0090E94B70761E01A
:102E000084EE95E00E9488148823E1F1C1ECD9E0BA
:102E1000FE0101900020E9F7359713826DEC79E00F
:102E2000C6010E94080840E061E084EE95E00E943F
:102E30004F12882339F1FE0101900020E9F7359700
:102E4000138262ED79E0C7010E94080840E061E06A
:102E500084EE95E00E944F128823A1F00990002093
:102E6000E9F725971B8262ED79E0C8010E94080806
:102E7000DF91CF911F910F91FF90EF90DF90CF9056
:102E80000C943C1480E0DF91CF911F910F91FF9043
:102E9000EF90DF90CF900895BF92CF92DF92EF92A4
:102EA000FF920F931F93CF93DF93B82EEB017A011C
:102EB00069016FE675E08091BF099091C0090E9499
:102EC000B7074B2D50E070E060E02AE08091BF0929
:102ED0009091C0090E94020D6CE28091BF0990910F
:102EE000C0090E94A207B7018091BF099091C00953
:102EF0000E944E0DC114D104F1F06CE675E0809192
:102F0000BF099091C0090E94B707B6018091BF091F
:102F10009091C0090E94FB0E69E675E08091BF099F
:102F20009091C0090E94B707B8018091BF099091A4
:102F3000C0090E944E0D61E087E695E00E9488146A
:102F4000811103C090E080E02BC08091BD09909179
:102F5000BE09DC01ED91FC910280F381E02DA70117
:102F6000BE01199540E061E081E695E00E944F12B4
:102F7000882341F386EC99E00E94D22F6B0140E058
:102F800061E08BE595E00E944F128823D9F268E05A
:102F900076E086EC99E00E940230892B59F4C60154
:102FA000DF91CF911F910F91FF90EF90DF90CF9025
:102FB000BF90089588E090E090931E0A80931D0AC8
:102FC000C1CF9F92AF92BF92CF92DF92EF92FF92CA
:102FD0000F931F93CF93DF93FC01E388F488E114F0
:102FE000F10429F1EC0104811581A280B380C7842A
:102FF000D08891800E94A21485E0989EF00111244F
:10300000EC5FF54F808180FD1EC086E090E09093DC
:103010001E0A80931D0A30E020E091E04B895C8914
:103020004217530709F490E09E831C8A1B8ADF91A4
:10303000CF911F910F91FF90EF90DF90CF90BF90B5
:10304000AF909F9008959501A701B601892D0E9428
:103050004C179C01E2CFFC0184859585009711F007
:103060000C94E11708958F929F92AF92BF92CF92E6
:10307000DF92EF92FF920F931F93CF93DF935B0149
:103080007A01FC01C485D58590E080E0209761F04D
:10309000D12CC12C9980FFEF9F1213C09E82F12C7E
:1030A000E12CC6018E0D9F1DDF91CF911F910F91D5
:1030B000FF90EF90DF90CF90BF90AF909F908F9058
:1030C0000895E114F10469F38B899C8909891A89AF
:1030D000009711F50E151F05F8F40C811D810A806B
:1030E000DB81C02D0E94A21485E0989EF00111247E
:1030F000EC5FF54F808180FD07C086E090E0909303
:103100001E0A80931D0ACBCF9E01A701B501892D10
:103110000E944C177C01C5CF081B190BD50190E00C
:1031200080E00817190791F0E816F90679F0EF85A5
:10313000F8892B893C89A9014F5F5F4F5C8B4B8BD2
:103140004D91E20FF31F40830196EBCF4701801AA8
:10315000910A97FCA6CFCE010E94E1178114910439
:1031600009F49FCFA00EB11EC00ED11E740192CFE4
:10317000CF93DF93FC01C485D5852097F1F0EF85CF
:10318000F8898B899C899C012F5F3F4F3C8B2B8B4F
:10319000E80FF91F60832B893C8989899A89281750
:1031A000390771F4CE010E94E11781E090E02E8191
:1031B000211180E0DF91CF91089580E090E0FACF77
:1031C00081E0FCCFBF92CF92DF92EF92FF920F93FC
:1031D0001F93CF93DF9300D01F921F92CDB7DEB71E
:1031E000FC012585368583859485281B390B118143
:1031F0001F3F09F4C3C02115310509F0BFC07F018D
:103200000E94A214C12ED12C85E0B82EBC9CF001E6
:10321000BD9CF00D1124EB5FF54F2081318121150C
:10322000310509F0ABC01B9DF0011124EC5FF54F97
:10323000808180FF9EC081FD9CC00E942907009173
:103240001F0A1091200A2091210A3091220A601B46
:10325000710B820B930B643F71408105910508F45B
:103260007BC00E94290760931F0A7093200A8093F5
:10327000210A9093220A0E94A2146DE173E08091CA
:10328000BF099091C0090E94B70761E086E193E011
:103290000E948814882309F45FC08E010F5F1F4FBE
:1032A000F8011192BA94E9F741E061E089EC92E00B
:1032B0000E944F12882349F0E091CC09E053E00FBF
:1032C000F12FF11D81E08083EFCFF801A4E0BAE097
:1032D0009E012A5F3F4F95E08191882309F45EC0EB
:1032E0008C9180FF01C081FD9C9315962E173F079E
:1032F00099F70E94A2146AEB72E08091BF09909145
:10330000C0090E94B70761E08EEA92E00E9488142B
:10331000882311F16CEC72E08DEC99E00E94223070
:1033200010E000E00097B1F0FC012081222339F089
:103330000E94D22FF801EB5FF54F718360836CEC34
:1033400072E090E080E00E9422300B5F1F4F093155
:10335000110541F70E943C1485E08C9DF0018D9D84
:10336000F00D1124EB5FF54F2081318121153105DE
:1033700029F4C7010E94E11730E020E0C9010F9055
:103380000F900F900F900F90DF91CF911F910F91A1
:10339000FF90EF90DF90CF90BF9008951C92A5CF43
:1033A000CF93DF93EC012B853C858D859E85281777
:1033B000390780F0CE010E94E218892B59F01C8653
:1033C0001B8649855A856F81788589810E941A16E6
:1033D0009E878D87DF91CF910895AF92BF92CF9254
:1033E000DF92EF92FF920F931F93CF93DF938C01A5
:1033F0005B01EA01D12CC12C209709F44EC0C80111
:103400000E94E218892B09F448C0F801E584F6848B
:1034100083859485E81AF90AB9F4818592858C1719
:103420009D0790F4AE01B50181810E941A168C0DA2
:103430009D1DDF91CF911F910F91FF90EF90DF9035
:10344000CF90BF90AF900895C8010E94D019D501C8
:1034500090E080E08E159F05A1F08C179D0789F004
:10346000F8016781708523853485A9014F5F5F4F1F
:1034700054874387FB01E20FF31F20812D930196B0
:10348000E9CFEC16FD0610F0CE01D1CFCE19DF0941
:10349000AE0CBF1CCE0CDF1CAFCF90E080E0C7CFDE
:1034A000FC0184859585009711F00C94ED1990E04E
:1034B00080E00895CF93DF93FC01C485D5852097E4
:1034C00029F48FEF9FEFDF91CF910895CE010E94F5
:1034D000E218892BB1F3CE010E94D019EF81F88553
:1034E0008B859C85E80FF91F808190E0ECCF0F93CE
:1034F0001F93CF93DF931F92CDB7DEB7FC010485F6
:1035000015850115110529F0C8010E94E218892BC3
:1035100019F48FEF9FEF0CC041E050E0BE016F5FE8
:103520007F4FC8010E94ED19892B99F3898190E0A2
:103530000F90DF91CF911F910F910895FC01848529
:103540009585009711F00C94E21890E080E00895C2
:10355000CF92DF92EF92FF920F931F93CF93DF935F
:10356000EC018B016A0179010E94A214209709F0F5
:1035700018828091020A823009F44FC06EEF75E024
:103580008091BF099091C0090E94B70761E087EF61
:1035900095E00E948814882309F43FC06EEC72E025
:1035A00089EC99E00E942230209721F0BC01CE01E5
:1035B0000E94A537E80126966EEC72E090E080E06C
:1035C0000E94223040E150E070E060E00E94862ED0
:1035D0006A93C017D10781F76EEC72E090E080E04B
:1035E0000E9422300E94B42FF60180836EEC72E0BC
:1035F00090E080E00E9422300E94D22FF701608389
:10360000718382839383DF91CF911F910F91FF90FC
:10361000EF90DF90CF900C943C1480E0DF91CF913D
:103620001F910F91FF90EF90DF90CF9008950F932F
:103630001F93CF93DF938C01EB018AE090E00E940F
:103640008335FC018AE0DF011D928A95E9F7118339
:103650000083D383C28381E090E097838683A09127
:10366000960AB091970A109751F4F093970AE09355
:10367000960ADF91CF911F910F910895DC01189662
:103680008D919C9119970097C9F71996FC93EE9329
:103690001897EFCFCF92DF92FF920F931F93CF93A4
:1036A000DF93E5E3FAE010E000E09FEFC191D191F4
:1036B0002097C1F12981281312C06115710529F0E5
:1036C0002C813D8162177307E1F0188299831E8671
:1036D0001D861C861B861C8A1B8A1D821C822881D3
:1036E000211118C029853A852034310599F429899A
:1036F0003A892034310571F489837D836C8381E0BC
:103700008883CE01DF91CF911F910F91FF90DF90C1
:10371000CF9008950F5F1F4F0530110539F6D0E0A7
:10372000C0E0EFCF6B01F82E85E190E00E94833579
:10373000EC0185E1FE0111928A95E9F780E490E0C1
:103740000E94833598878F8380E490E00E948335C0
:10375000988B8F8780E490E09A8789879A8B898BF2
:10376000F982DD82CC8281E08883000F111FF8018D
:10377000EB5CF54FD183C083C4CFAF92BF92CF92A1
:10378000DF92EF92FF920F931F93CF93DF937C0111
:103790005B016A01DC011C968D919C911D97892B20
:1037A00039F0ED91FC910488F589E02DC701199558
:1037B0000E94A2140E94A214E8E1FAE0C4E0D0E062
:1037C00080818370B9F481819281892B99F485E09D
:1037D0008C9F80018D9F100D1124F801EC5FF54F37
:1037E000808180FF19C085E090E090931E0A80934D
:1037F0001D0A05C021973597CF3FDC0709F790E0F8
:1038000080E0DF91CF911F910F91FF90EF90DF90BB
:10381000CF90BF90AF90089561E375E08091BF09AC
:103820009091C0090E94B7072AE0AE01DD0F660B38
:10383000770B8091BF099091C0090E94020D6EE242
:1038400075E08091BF099091C0090E94B70762EDB1
:1038500072E08091BF099091C0090E94FB0E6AEA54
:1038600075E08091BF099091C0090E94B707B5012A
:103870008091BF099091C0090E94FB0E6BE275E038
:103880008091BF099091C0090E94B707B60180914D
:10389000BF099091C0090E944E0D0C5F154F81E049
:1038A000F80180838091BF099091C0090E94B20EF7
:1038B0000E943C14811103C0D8011C92A0CF70E07B
:1038C00060E08C2F0E944A1BF70195878487892B23
:1038D00021F48C2F0E94B41592CF81E090E091CF1B
:1038E0008F929F92AF92BF92CF92DF92EF92FF9210
:1038F0000F931F93CF93DF93CDB7DEB760970FB6CB
:10390000F894DEBF0FBECDBF7C01FB016A0183804E
:103910009480B58082814AE08E010F5F1F4FB8010D
:1039200090E00E944D30F80101900020E9F73197B6
:10393000BF01601B710B8EE2A82EA0826F5F7F4FCC
:10394000600F711F4AE0882D90E00E944D30F80111
:1039500001900020E9F73197BF01601B710BA08235
:103960006F5F7F4F600F711F4AE0892D90E00E94CA
:103970004D30F80101900020E9F73197BF01601B3D
:10398000710BA0826F5F7F4F600F711F4AE08B2D1C
:1039900090E00E944D30A601B801C7010E94BD1BF6
:1039A00060960FB6F894DEBF0FBECDBFDF91CF910A
:1039B0001F910F91FF90EF90DF90CF90BF90AF904D
:1039C0009F908F9008950C94BD1B0F931F93CF93DE
:1039D000DF93EC0188819981009759F02A813B811E
:1039E0002617370730F081E0DF91CF911F910F91BB
:1039F00008958B016F5F7F4F0E94A836009759F0A2
:103A0000998388831B830A832C813D81232B59F75B
:103A1000FC011082E8CF80E0E7CFEF92FF920F9396
:103A20001F93CF93DF936115710541F480E0DF911F
:103A3000CF911F910F91FF90EF900895411551057F
:103A4000B1F07B01EC010C811D81040F151FB80141
:103A50000E94E51C882351F3288139818C819D8146
:103A6000B701820F931F0E94A5371D830C8381E04D
:103A7000DECFCF93DF93EC0188819981009711F01D
:103A80000E941F36198218821D821C821B821A8294
:103A9000DF91CF910895CF93DF93EC01FB0101906B
:103AA0000020E9F73197AF01461B570B0E940D1D0F
:103AB000811103C0CE010E94391DCE01DF91CF914B
:103AC0000895CF93DF93EC01FB0144815581608120
:103AD00071810E940D1D811103C0CE010E94391D0C
:103AE000CE01DF91CF910895EF92FF920F931F9334
:103AF000CF93DF93EC017B018A01BA010E94E51CA0
:103B000081110BC0CE010E94391DCE01DF91CF91F2
:103B10001F910F91FF90EF9008951D830C83B701C3
:103B2000888199810E94A537F0CFEF92FF920F9381
:103B30001F93CF93DF93CDB7DEB7A1970FB6F8945D
:103B4000DEBF0FBECDBF7C01CB01BA01F7011182F0
:103B5000108213821282158214828E010F5F1F4F12
:103B600022E044E00E94682E0097C9F0FC01019019
:103B70000020E9F73197AF01481B590BBC01C70181
:103B80000E94741DA1960FB6F894DEBF0FBECDBF84
:103B9000DF91CF911F910F91FF90EF900895C70192
:103BA0000E94391DEFCFEF92FF920F931F93CF9397
:103BB000DF93CDB7DEB762970FB6F894DEBF0FBEC6
:103BC000CDBF8C01CB01F8011182108213821282C9
:103BD000158214824AE09E012F5F3F4F7901B9019F
:103BE0000E944D30F70101900020E9F73197AF01B5
:103BF0004E195F09B701C8010E94741D62960FB685
:103C0000F894DEBF0FBECDBFDF91CF911F910F9112
:103C1000FF90EF900895FC011182108213821282AE
:103C200015821482FB0101900020E9F73197AF0162
:103C3000461B570B0C94741DFC01808191810097E9
:103C400011F00C941F3608950F931F93CF93DF93B9
:103C5000CDB7DEB72C970FB6F894DEBF0FBECDBF41
:103C60008B0166ED72E08AE199E00E94D70E48EE82
:103C700052E062E972E0C8010E94730A62EF72E0EA
:103C8000C8010E94D70E69EF72E0C8010E94D70EEA
:103C900060E073E0C8010E94D70E6AE273E0C801D9
:103CA0000E94D70E62E373E0C8010E94D70E4091D4
:103CB00068085091690860916A0870916B08CE019C
:103CC00007960E94951D69E373E0CE0101960E945C
:103CD0000B1EBE01695F7F4FCE0101960E94611DE0
:103CE00061E573E00E944B1DBC01C8010E94E90E12
:103CF000CE0101960E941C1ECE0107960E941C1E3A
:103D00004091600850916108609162087091630869
:103D1000CE0107960E94951D66E573E0CE010196DF
:103D20000E940B1EBE01695F7F4FCE0101960E946B
:103D3000611D61E573E00E944B1DBC01C8010E943A
:103D4000E90ECE0101960E941C1ECE0107960E942C
:103D50001C1E40915408509155086091560870916E
:103D60005708CE0107960E94951D6FE673E0CE01BD
:103D700001960E940B1EBE01695F7F4FCE01019626
:103D80000E94611D61E573E00E944B1DBC01C801EA
:103D90000E94E90ECE0101960E941C1ECE010796DC
:103DA0000E941C1E66E873E0C8010E94D70E6EE8F0
:103DB00073E0C8010E94D70E2C960FB6F894DEBFB0
:103DC0000FBECDBFDF91CF911F910F9108950F933B
:103DD0001F93CF93DF93CDB7DEB72C970FB6F89430
:103DE000DEBF0FBECDBF8B0166E973E08AE199E0CB
:103DF0000E94D70E47E852E062E972E0C8010E94D3
:103E0000730A6AEA73E0C8010E94FB0E61EF73E077
:103E1000C8010E94FB0E40916808509169086091AA
:103E20006A0870916B08CE0107960E94951D64E0A8
:103E300074E0CE0101960E940B1EBE01695F7F4FA8
:103E4000CE0101960E94611D65E872E00E944B1D43
:103E5000BC01C8010E94A907CE0101960E941C1E48
:103E6000CE0107960E941C1E409160085091610887
:103E70006091620870916308CE0107960E94951DBB
:103E800067E274E0CE0101960E940B1EBE01695FDD
:103E90007F4FCE0101960E94611D65E872E00E948D
:103EA0004B1DBC01C8010E94A907CE0101960E94CA
:103EB0001C1ECE0107960E941C1E40915408509172
:103EC00055086091560870915708CE0107960E94D8
:103ED000951D6BE474E0CE0101960E940B1EBE019D
:103EE000695F7F4FCE0101960E94611D65E872E017
:103EF0000E944B1DBC01C8010E94A907CE0101967A
:103F00000E941C1ECE0107960E941C1E6DE674E0E6
:103F1000C8010E94FB0E64EB74E0C8010E94FB0E16
:103F200040915C0850915D0860915E0870915F0857
:103F3000CE0107960E94951D6BEC74E0CE010196B0
:103F40000E940B1EBE01695F7F4FCE0101960E9449
:103F5000611D65E872E00E944B1DBC01C8010E9412
:103F6000A907CE0101960E941C1ECE0107960E9451
:103F70001C1E409158085091590860915A08709140
:103F80005B08CE0107960E94951D6BEE74E0CE0192
:103F900001960E940B1EBE01695F7F4FCE01019604
:103FA0000E94611D65E872E00E944B1DBC01C801C2
:103FB0000E94A907CE0101960E941C1ECE01079601
:103FC0000E941C1E4091640850916508609166082B
:103FD00070916708CE0107960E94951D6CE075E010
:103FE000CE0101960E940B1EBE01695F7F4FCE017C
:103FF00001960E94611D65E872E00E944B1DBC01A4
:10400000C8010E94A907CE0101960E941C1ECE0184
:1040100007960E941C1E6BE275E0C8010E94FB0E11
:1040200064E575E0C8010E94FB0E60915208709132
:104030005308CE0107960E94D31D6FE675E0CE01AE
:1040400001960E940B1EBE01695F7F4FCE01019653
:104050000E94611D65E872E00E944B1DBC01C80111
:104060000E94A907CE0101960E941C1ECE01079650
:104070000E941C1E6091500870915108CE01079655
:104080000E94D31D67E875E0CE0101960E940B1EC9
:10409000BE01695F7F4FCE0101960E94611D65E8F8
:1040A00072E00E944B1DBC01C8010E94A907CE010D
:1040B00001960E941C1ECE0107960E941C1E609154
:1040C0004E0870914F08CE0107960E94D31D6FE9EC
:1040D00075E0CE0101960E940B1EBE01695F7F4F05
:1040E000CE0101960E94611D65E872E00E944B1DA1
:1040F000BC01C8010E94A907CE0101960E941C1EA6
:10410000CE0107960E941C1E60914C0870914D08CC
:10411000CE0107960E94D31D6BEB75E0CE01019690
:104120000E940B1EBE01695F7F4FCE0101960E9467
:10413000611D65E872E00E944B1DBC01C8010E9430
:10414000A907CE0101960E941C1ECE0107960E946F
:104150001C1E2C960FB6F894DEBF0FBECDBFDF91AC
:10416000CF911F910F9108952F923F924F925F929E
:104170006F927F928F929F92AF92BF92CF92DF9277
:10418000EF92FF920F931F93CF93DF937B016A010E
:104190005901DC010D911C913B01B4EA6B0E711CBD
:1041A0001B01EAEA2E0E311C2B01F8EA4F0E511CBE
:1041B0000115110509F493C0D601DC967C917111AB
:1041C0008EC0F801848095808114910421F1808152
:1041D00091810097E9F0EC0109900020E9F721971F
:1041E000C81BD90BD3016D917C916A0D7B1DAE016B
:1041F0000E94AC37892B41F495012C0F3D1FA6017D
:10420000B701C4010E94B420F80100851185D0CF08
:10421000D0E0C0E0F1CF86819781D70152962D91F1
:104220003C918217930711F0089771F7F8012081EC
:104230003181D301ED91FC91EA0DFB1D2115310572
:10424000E9F18081D9019C91911102C08823B1F1DB
:1042500050E040E090E080E006C09612D5CF4F5F7E
:104260005F4F019671E0E901C80FD91F9880DF0107
:10427000A40FB51F6C919920B1F0662329F27AE35F
:104280009712EBCFCE01821B930B4991442311F07F
:104290004F32C1F7AD014E1B5F0B6D91662311F3D9
:1042A0006F32C1F7DFCF772309F4AECF6F32A1F4BD
:1042B0008E0F9F1FDC018C918111A6CFD101ED9350
:1042C000FC93F20131832083D8011296ED91FC9189
:1042D000B601C701199598CF662381F395CFDF9179
:1042E000CF911F910F91FF90EF90DF90CF90BF90F3
:1042F000AF909F908F907F906F905F904F903F9086
:104300002F9008958F929F92AF92BF92CF92DF929B
:10431000EF92FF920F931F93CF93DF938C016B016A
:10432000EB015E01FE018491882369F1C8010E94BE
:104330007B097C018F3F980771F480E0DF91CF917A
:104340001F910F91FF90EF90DF90CF90BF90AF90B3
:104350009F908F9008950E9489374C012196F50116
:10436000849190E00E94893788169906D1F26E2DCB
:10437000C8010E94E9092197CC16DD06F1F2FE0181
:1043800031976491F5CF81E0D9CF8F929F92AF9210
:10439000BF92CF92DF92EF92FF920F931F93CF9332
:1043A000DF938C016B017B01F70181917F018823F1
:1043B00059F1C8010E947B094C018F3F980771F4A5
:1043C00080E0DF91CF911F910F91FF90EF90DF90F0
:1043D000CF90BF90AF909F908F9008950E948937A3
:1043E0005C01E7018A91082E000C990B0E94893725
:1043F000A816B906C9F2682DC8010E94E909CC15B2
:10440000DD05F1F26A91F8CF81E0DBCFAF92BF9288
:10441000CF92DF92EF92FF920F931F93CF93DF9390
:10442000CDB7DEB7CF5ED5400FB6F894DEBF0FBE76
:10443000CDBF8E0103551A4FF8011382128220E47A
:1044400032E031832083958384839801285D3F4F38
:1044500017821682118610863496E217F307C1F789
:10446000F80116A617A610AA12AA11AA13AA14AA2E
:1044700015AA17AA16AA11AE10AE13AE12AE14AE3C
:104480009E012F5F3F4F36AF25AF20E034E0FF960F
:1044900031832083C251DA4F19821882CE5ED54013
:1044A00040919A0A50919B0A60919C0A70919D0AD2
:1044B0002091980A3091990ACD5FDA4F19821882BB
:1044C000C350D540ECE4F2E0CF5FDA4FF983E883E4
:1044D000C150D540C35FDA4F19821882CD50D54004
:1044E000C15FDA4F99838883CF50D540CF5EDA4FD2
:1044F00019830883C151D540CD5EDA4F19821882E5
:10450000C351D5408FEF9FEFCB5EDA4F99838883FD
:10451000C551D540E1E0F5E0EC0FFD1F7696CE01E8
:1045200089569A4F1192E817F907E1F71182108224
:10453000C756DA4F1882C959D540C656DA4F198284
:104540001882CA59D540C456DA4F19821882CC59FC
:10455000D540C256DA4F39832883CE59D540C0564C
:10456000DA4F19821882C05AD540CE55DA4F1982D7
:104570001882C25AD540CC55DA4F1882C45AD54059
:10458000CE018F5F9B4FCB55DA4F99838883C55AF5
:10459000D5408FEF90E0C955DA4F99838883C75A89
:1045A000D540C755DA4F19821882C95AD540C5552A
:1045B000DA4F19821882CB5AD540CB5FDA4F488345
:1045C00059836A837B83C550D54061E47BE0CE018B
:1045D0008F5F9A4F0E948221882309F45BC081E09B
:1045E00090E0CD5EDA4F99838883C351D540C95599
:1045F000DA4FC880D980C75AD540CB55DA4FA8804A
:10460000B980C55AD540CE018F5F9A4F0E947B0971
:104610008F3F980709F4CDC08032910509F4C9C0D5
:104620008A30910509F4C5C08D30910509F4C1C0E7
:1046300021E0C21AD10809F4BCC08532910531F5D8
:10464000CE018F5F9A4F0E947B097C01019609F48D
:1046500068C1CE018F5F9A4F0E947B098F3F9807F8
:1046600009F45FC1EAE3EE16F1041CF0F7E0EF1A7B
:10467000F1088A3391050CF0079734E0EE0CFF1C2B
:104680003A95E1F7FF248F7099278E29F5018193E0
:104690005F01B9CF6BE37BE0CE018F5F9A4F0E9441
:1046A0008221882319F082E090E09BCF65E37BE0D4
:1046B000CE018F5F9A4F0E948221882319F083E0F8
:1046C00090E08FCF60E37BE0CE018F5F9A4F0E9436
:1046D0008221882319F084E090E083CF68E27BE0B8
:1046E000CE018F5F9A4F0E948221882319F085E0C6
:1046F00090E077CF61E27BE0CE018F5F9A4F0E941E
:104700008221882319F086E090E06BCF68E17BE09E
:10471000CE018F5F9A4F0E948221882319F087E093
:1047200090E05FCFCC55DA4F8881C45AD54060E91C
:1047300071E0882311F068E971E0C8010E94371226
:10474000E091920AF091930A309729F0B801CE01D6
:104750008F5F9A4F1995C8010E94030FF80183A932
:104760008823C9F086A5811116C040E150E070E0B1
:1047700060E0848195810E94540D64E872E0F80144
:10478000848195810E94FB0E64E872E0F8018481C7
:1047900095810E94FB0EE091980AF091990A30975A
:1047A00009F4CDC1A281B3811C920680F781E02D6E
:1047B000F6CFF50110821C141D040CF0B2C0CB55CD
:1047C000DA4FE880F980C55AD5406FE370E0C70141
:1047D0000E949A3741E0009709F440E09C0100975D
:1047E00031F4F70101900020E9F731979F012E196C
:1047F0003F09C955DA4F39832883C75AD540240F5A
:10480000311DE20EF31EC056DA4FF982E882C05A1B
:10481000D540F70101900020E9F73197EE19FF0923
:10482000CE55DA4FF983E883C25AD540009711F08C
:10483000FC011082EE24E394F12C64E872E0CE01D6
:104840008F5F9A4F0E94C521882309F475C08CE2BE
:10485000B82E9AE0A92E64E872E0CE018F5F9A4FDD
:104860000E94C521F82E811199C068E07BE0CE013D
:104870008F5F9A4F0E948221882309F4D1C0CE0114
:104880008F5F9A4F0E94000AE82E882309F43FC0E8
:10489000CE018F5F9A4F0E947B098F3F9807B9F135
:1048A000D12C8D32910549F4CE018F5F9A4F0E9431
:1048B0007B098F3F980759F1DE2CC656DA4F1982D3
:1048C0001882CA59D5409C01205331092A3031053C
:1048D00008F082C0C656DA4F28813981CA59D540BE
:1048E000A29EB001A39E700D1124860F971FC09742
:1048F000C656DA4F99838883CA59D540CE018F5F57
:104900009A4F0E947B09FE2C8F3F9807E1F6CC5509
:10491000DA4F8881C45AD54081110DCF6FEA71E01A
:104920000CCFCC55DA4F8881C45AD5406EE971E07E
:10493000882309F402CFFFCE62E07BE0CE018F5FD7
:104940009A4F0E948221882339F0CB5EDA4F198278
:104950001882C551D54071CF6EEF7AE0CE018F5FDE
:104960009A4F0E948221882339F0CB5EDA4FF98278
:10497000E882C551D54061CFCE018F5F9A4F0E942A
:104980007B09019609F059CFCC55DA4F8881C45A7A
:10499000D5408111D0CE69EF71E0CFCE81E0C7560E
:1049A000DA4F8883C959D54030E020E0A801BE0124
:1049B0006F5F7A4F86E99AE00E94B420F80181A9DE
:1049C00092A9892B09F4A0C0F80183A98111B8CE5E
:1049D000C8010E94920FB4CE682FCE018F5F9A4F0C
:1049E0000E94E909DD2079F0C656DA4F8881998165
:1049F000CA59D540919581959109C656DA4F998348
:104A00008883CA59D540FF2009F481CF64E872E059
:104A1000CE018F5F9A4F0E94C52181111CCF77CFA5
:104A2000C256DA4FE880F980CE59D540E114F1043E
:104A300009F459C0F70160817181CE018F5F9A4FEF
:104A40000E94C521811104C0F701E680F780EECFF6
:104A500066E07BE0CE018F5F9A4F0E94822188231F
:104A600099F3F701C480D580E280F380F70180815B
:104A7000882369F001900020E9F73197CF018E1962
:104A80009F09B0820196E80EF91EC81AD90ACE0114
:104A90008F5F9A4F0E94000A882309F438CFCE0115
:104AA0008F5F9A4F0E947B098F3F980709F42FCFA1
:104AB00021E0C21AD1081C141D042CF4F7018083D4
:104AC000C70101967C0164E872E0CE018F5F9A4FC6
:104AD0000E94C521882319F3F70110821C141D04BC
:104AE0000CF4B9CE14CF64E872E0CE018F5F9A4F18
:104AF0000E94C5218111AFCECE018F5F9A4F0E94D7
:104B00007B09019681F703CF84AD81115DCF809140
:104B1000940A9091950A892B19F464E971E00DCEFD
:104B200064E971E0C8010E940512E091940AF091D5
:104B3000950AB801CE018F5F9A4F199501CEC151E8
:104B4000DA4F0FB6F894DEBF0FBECDBFDF91CF9125
:104B50001F910F91FF90EF90DF90CF90BF90AF909B
:104B600008951F920F920FB60F9211242F933F9327
:104B70008F939F93AF93BF93809175089091760820
:104B8000A0917708B09178083091740823E0230F42
:104B90002D3758F50196A11DB11D209374088093FF
:104BA000750890937608A0937708B0937808809161
:104BB000790890917A08A0917B08B0917C080196C1
:104BC000A11DB11D8093790890937A08A0937B086A
:104BD000B0937C08BF91AF919F918F913F912F919E
:104BE0000F900FBE0F901F90189526E8230F029686
:104BF000A11DB11DD2CF1F920F920FB60F9211249B
:104C00000BB60F922F933F934F935F936F937F93C6
:104C10008F939F93AF93BF93EF93FF938DE798E0AC
:104C20000E948B08FF91EF91BF91AF919F918F915F
:104C30007F916F915F914F913F912F910F900BBE9C
:104C40000F900FBE0F901F9018951F920F920FB6E6
:104C50000F9211240BB60F922F938F939F93EF9384
:104C6000FF93E0918D08F0918E088081E091930888
:104C7000F091940882FD1DC09081809196088F5F0D
:104C80008F7320919708821741F0E0919608F0E029
:104C9000E358F74F958F80939608FF91EF919F917E
:104CA0008F912F910F900BBE0F900FBE0F901F9002
:104CB00018958081F2CF1F920F920FB60F92112498
:104CC0000BB60F922F933F934F935F936F937F9306
:104CD0008F939F93AF93BF93EF93FF938AE199E0F4
:104CE0000E948B08FF91EF91BF91AF919F918F919F
:104CF0007F916F915F914F913F912F910F900BBEDC
:104D00000F900FBE0F901F9018951F920F920FB625
:104D10000F9211240BB60F922F938F939F93EF93C3
:104D2000FF93E0912A09F0912B098081E0913009ED
:104D3000F091310982FD1DC09081809133098F5F10
:104D40008F7320913409821741F0E0913309F0E02C
:104D5000E65EF64F958F80933309FF91EF919F9117
:104D60008F912F910F900BBE0F900FBE0F901F9041
:104D700018958081F2CFEDE7F8E01382128248EEB9
:104D800053E060E070E044835583668377838EE56B
:104D900092E09183808325E331E03587248724E303
:104DA00031E03787268720E331E0318B208B21E308
:104DB00031E0338B228B22E331E0358B248B26E3E9
:104DC00031E0378B268B118E128E138E148EEAE112
:104DD000F9E013821282448355836683778391833B
:104DE000808385EC90E09587848784EC90E09787BA
:104DF000868780EC90E0918B808B81EC90E0938BA8
:104E0000828B82EC90E0958B848B86EC90E0978B84
:104E1000868B118E128E138E148EE7EBF9E086E7E7
:104E200092E0918380831282138214821582E3E2DE
:104E3000FAE0918380831282138214821582109289
:104E4000010A1092020A1092030A1092040A1092A8
:104E5000060A1092050A1092090A10920B0A109283
:104E60000A0A10920E0A1092100A10920F0A10925B
:104E7000130A1092150A1092140A1092180A10922E
:104E80001A0A1092190A21E030E030931E0A20938A
:104E90001D0AE9E2FAE09183808312821382148270
:104EA0001582EFE2FAE091838083128213821482EA
:104EB0001582EFE3FAE091838083128213821482D9
:104EC0001582E5E3FAE011821082138212821582C4
:104ED00014821782168211861086E5E4FAE0918327
:104EE00080831282138214821582E3E5FAE09183B3
:104EF000808312821382148215822FEF20934B0A33
:104F0000E3EAFAE09183808312821382148215828D
:104F1000EEE9FAE080E792E09183808380E590E01B
:104F2000938382831482E2E9FAE011821082138271
:104F300012821582148217821682408751876287F7
:104F40007387AFE7BAE08CE115968C9315978BE0E9
:104F500016968C931697EAEAF6E0E4911796EC938E
:104F60001797E4E6F6E0E4911896EC93189740E87A
:104F70005EE360E070E01D964D935D936D937C93CE
:104F80005097ACE6BAE094E215969C931597169666
:104F90008C931697E2EBF6E0E4911796EC93179753
:104FA000ECE6F6E0E4911896EC9318971D964D9375
:104FB0005D936D937C935097A9E5BAE09CE21596BA
:104FC0009C93159716968C931697EAEBF6E0E4916E
:104FD0001796EC931797E4E7F6E0E4911896EC93B4
:104FE00018971D964D935D936D937C9350970895FC
:104FF000CF93DF93CDB7DEB7CA54D1090FB6F8947B
:10500000DEBF0FBECDBF789484B5826084BD84B509
:10501000816084BD85B5826085BD85B5816085BDB3
:1050200080916E00816080936E001092810080916B
:1050300081008260809381008091810081608093F3
:105040008100809180008160809380008091B10018
:1050500084608093B1008091B00081608093B00043
:105060008091910082608093910080919100816095
:105070008093910080919000816080939000809156
:10508000A10082608093A1008091A1008160809343
:10509000A1008091A00081608093A00080912101F7
:1050A00082608093210180912101816080932101A0
:1050B0008091200181608093200180917A0084603A
:1050C00080937A0080917A00826080937A00809148
:1050D0007A00816080937A0080917A008068809362
:1050E0007A001092C10061E08EE20E94960661E0B3
:1050F00086E20E94960661E08EE10E94960661E0DB
:1051000086E10E949606E0912A09F0912B0942E07F
:105110004083E0912609F09127091082E091280947
:10512000F09129098FEC808310923209E0912E09C9
:10513000F0912F0996E09083E0912C09F0912D09D0
:10514000808180618083E0912C09F0912D0980811C
:1051500088608083E0912C09F0912D09808180681E
:105160008083E0912C09F0912D0980818F7D8083CF
:105170002DE738E0E0918D08F0918E084083E091B2
:105180008908F0918A081082E0918B08F0918C08D0
:1051900080E1808310929508E0919108F091920847
:1051A0009083E0918F08F0919008808180618083E6
:1051B000E0918F08F0919008808188608083E09171
:1051C0008F08F0919008808180688083E0918F083B
:1051D000F091900880818F7D80833093BE09209369
:1051E000BD093093C0092093BF0910921E0A109286
:1051F0001D0A0E94A2146FE073E08091BF09909194
:10520000C0090E94B70761E089E093E00E9488141A
:1052100084E093E00E94AC14882309F441C088EF35
:1052200092E00E94AC148823D9F187EE92E00E94AC
:10523000AC148823A9F16CED72E08091BF099091C4
:10524000C0090E94B70761E084ED92E00E948814D3
:10525000882331F18091C90980538093020A0E940A
:105260003C148823E9F08091020A8093030A10928B
:105270004B0A0E94A2148091030A81111FC081E091
:1052800090E090931E0A80931D0A80911D0A9091D0
:105290001E0A0197029790F58FEF80934B0A2EC05C
:1052A0008FEF80934B0A8AE199E00E94B20E61ED84
:1052B00075E08AE199E00E94D70EFFCF6DE173E0BF
:1052C0008091BF099091C0090E94B70761E086E113
:1052D00093E00E9488148823C1F21091C8091053EA
:1052E0000E943C14882389F2153028F4123008F407
:1052F0006EC081E0D2CF153009F469C080914B0AAD
:105300008F3F89F221E02093010A86E792E09DAB6E
:105310008CAB50EC5EAB48EA4FAB38E538AF66E992
:1053200069AF9A8389836FEF6B836C836D831E8271
:105330009BA38AA35CA34DA33EA32FA399A788A7F1
:105340005AA74BA73CA72DA79FA78EA78EA99FA9B9
:10535000A8ADB9AD88AB99ABAAABBBAB1E0122E23D
:10536000220E311C9E012F5F3F4FA101BE01685DDF
:105370007F4FCE018E960E94C4148AE199E00E946C
:10538000B20E68EF75E08AE199E00E94FB0E65E1DC
:1053900072E08AE199E00E94D70E0E94A2148091E7
:1053A000020A6091010A81600E94421481111AC0B0
:1053B00082E080934B0A8091020A823009F0D3C2C6
:1053C0008AE199E00E94B20E62E776E06AC08091BD
:1053D0004B0A813029F0823009F490CF84E05DCF10
:1053E00083E05BCF8091BF099091C0092091010AB1
:1053F0006AE473E0211102C06DE373E00E94B70715
:105400006AE373E08091BF099091C0090E94B707D9
:1054100065E172E08091BF099091C0090E94FB0E86
:105420006AEA75E08091BF099091C0090E94B707B0
:1054300066E072E08091BF099091C0090E94FB0E66
:1054400062E28091BF099091C0090E94A2078091F9
:10545000BF099091C0090E94B20E0E943C1488239B
:1054600009F4A6CF8091010A811178C281E080936E
:105470004B0A8AE199E00E94B20E68E176E08AE187
:1054800099E00E94D70E63E376E08AE199E00E94FA
:10549000FB0E6AE179E0CE01C4960E948E0D68E5AC
:1054A00076E08AE199E00E94D70E8FE79AE00E94A9
:1054B00035078CE69AE00E94350789E59AE00E945C
:1054C000350764E27EE186E596E00E94171B67EEF1
:1054D0007EE185E996E00E94171B0091A00A1091D9
:1054E000A10A0E94A21467EC73E08091BF09909119
:1054F000C0090E94B7072AE041E050E060E070E098
:105500008091BF099091C0090E94020D8091BF094E
:105510009091C0090E94B20E0E943C14811145C2B4
:1055200080E08093A20A06E712E00E9429072B96EA
:105530006CAF7DAF8EAF9FAF2B970E942907AB0159
:10554000BC018091700890917108A0917208B0918F
:105550007308805F984DAF4FBF4F481759076A07D0
:105560007B0708F4C0C282E794E00E94C60E8AE17D
:1055700099E00E94B20E8FE79AE00E949A0C2B01EC
:105580003C0140925C0850925D0860925E08709207
:105590005F088FE79AE00E941F0C4B015C0180922C
:1055A000680890926908A0926A08B0926B088CE62D
:1055B0009AE00E949A0C6BAF7CAF8DAF9EAF609368
:1055C00058087093590880935A0890935B088CE6AA
:1055D0009AE00E941F0C23966CAF7DAF8EAF9FAFF9
:1055E000239760936008709361088093620890939A
:1055F000630889E59AE00E949A0C27966CAF7DAF0C
:105600008EAF9FAF2797609364087093650880936F
:1056100066089093670889E59AE00E941F0C6B0169
:105620007C01C0925408D0925508E0925608F0923E
:105630005708A3019201C301B2010E947E35811176
:1056400009C0A5019401C501B4010E947E358823DB
:1056500009F4DEC16EE976E08AE199E00E94D70E96
:105660008EE20E943F06909353088093520886E290
:105670000E943F0690935108809350088EE10E944B
:105680003F0690934F0880934E0886E10E943F06A4
:1056900090934D0880934C08D101E6E01D92EA9565
:1056A000E9F71EA618A619A61AA61BA69E01285D34
:1056B0003F4FAE01425D5F4FB101CE0101960E94A6
:1056C000A81A61E176E08AE199E00E94FB0EBE0132
:1056D0006F5F7F4F8AE199E00E94D70E1DAB0CAB44
:1056E0001EAA1FAA18AE19AE19A708A71AA61BA6AC
:1056F0001CA61DA61BA30AA31CA21DA21EA21FA2BC
:10570000A101BE01685D7F4FCE01C4960E94EA16DA
:105710006DE077E08AE199E00E94FB0ECE01C4962D
:105720000E94B60E19A708A71AA61BA61CA61DA69E
:105730001FA70EA718AA19AA1AAA1BAA1BA30AA375
:105740001CA21DA21EA21FA2A101BE01625D7F4F6D
:10575000CE0188960E94EA166AE177E08AE199E034
:105760000E94FB0ECE018E960E94B60ED101E6E09D
:105770001D92EA95E9F71AAE18A619A61AA61BA655
:105780009E01285D3F4FAE01465C5F4FB10190E046
:1057900080E00E94A81AC8A4D9A4EAA4FBA464E2E9
:1057A00077E08AE199E00E94FB0E2AE0B701A601AA
:1057B000F7FE0DC06DE28AE199E00E94A20744273E
:1057C0005527BA014C195D096E097F092AE08AE163
:1057D00099E00E94020D6CE377E08AE199E00E9473
:1057E000D70E61E477E08AE199E00E94FB0E6091B8
:1057F0005C0870915D0880915E0890915F0842E0BE
:105800000E94D40D66E577E08AE199E00E94FB0EE4
:105810006AE577E08AE199E00E94FB0E60916808F2
:105820007091690880916A0890916B0842E00E942B
:10583000D40D62E777E08AE199E00E94D70E66E72F
:1058400077E08AE199E00E94FB0E60915808709120
:10585000590880915A0890915B0842E00E94D40D4B
:1058600066E577E08AE199E00E94FB0E6CE877E05C
:105870008AE199E00E94FB0E6091600870916108D6
:10588000809162089091630842E00E94D40D62E723
:1058900077E08AE199E00E94D70E65EA77E08AE135
:1058A00099E00E94FB0E60916408709165088091F8
:1058B00066089091670842E00E94D40D66E577E0A3
:1058C0008AE199E00E94FB0E69EB77E08AE199E0BA
:1058D0000E94FB0E60915408709155088091560803
:1058E0009091570842E00E94D40D62E777E08AE188
:1058F00099E00E94D70E8091A20A8823F1F00E94BD
:10590000A2148DEB99E0F12CE12CFC01E95BFF4F37
:105910002081322F3570353041F42A7031F43196C0
:1059200020813181232B09F0A4C0FFEFEF1AFF0A79
:10593000059625E0E216F10441F71C821B8288EEF1
:1059400093E0A0E0B0E08D839E83AF83B887A2E2AE
:10595000B2E0BA83A9831E861D86A9C08AE293E0BD
:105960000E94AC1483CD8091010A8823B9F08CE9A0
:1059700093E00E94AC148CE893E00E94AC148EE794
:1059800093E00E94AC1483E593E00E94AC1488235A
:1059900009F416CD84E080934B0A12CD8EE693E095
:1059A0000E94AC148CE593E0ECCF67EB73E0809140
:1059B000BF099091C0090E94B707B8018091BF0943
:1059C0009091C0090E944E0D8091BF099091C0092D
:1059D0000E94B20E0E943C14882309F4A1CD6CEA07
:1059E00073E08091BF099091C0090E94B7076CE3F2
:1059F00070E08091BF099091C0090E944E0D809186
:105A0000BF099091C0090E94B20E0E943C1489CD3A
:105A10002BAD3CAD4DAD5EADCA01B9010E947E35E6
:105A200081110CC023962CAD3DAD4EAD5FAD2397DB
:105A3000CA01B9010E947E35882319F063EC76E033
:105A40000BCE27962CAD3DAD4EAD5FAD2797CA016D
:105A5000B9010E947E35811109C0A7019601C701D5
:105A6000B6010E947E35882309F4FACD69EE76E00E
:105A7000F3CD6091A00A7091A10A1C821B8288EE6E
:105A800093E0A0E0B0E08D839E83AF83B887A2E26D
:105A9000B2E0BA83A9831E861D868E2D0E944A1B02
:105AA0009E878D87892B19F48E2D0E94B415CE0107
:105AB00001960E94A516882341F0CE0101960E940E
:105AC0000622CE0101960E94EE152B968CAD9DAD5F
:105AD000AEADBFAD2B978093700890937108A093E3
